{
	"contracts/GlobalPayment.sol": {
		"GlobalPaymentContract": {
			"abi": [
				{
					"inputs": [
						{
							"internalType": "address",
							"name": "_senderID",
							"type": "address"
						},
						{
							"internalType": "address",
							"name": "_senderBankID",
							"type": "address"
						},
						{
							"internalType": "address",
							"name": "_beneficiaryID",
							"type": "address"
						},
						{
							"internalType": "address",
							"name": "_beneficiaryBankID",
							"type": "address"
						},
						{
							"internalType": "uint256",
							"name": "_FX_rate",
							"type": "uint256"
						},
						{
							"internalType": "uint256",
							"name": "_transferamount",
							"type": "uint256"
						}
					],
					"stateMutability": "nonpayable",
					"type": "constructor"
				},
				{
					"anonymous": false,
					"inputs": [
						{
							"indexed": false,
							"internalType": "bool",
							"name": "",
							"type": "bool"
						}
					],
					"name": "beneficiaryReceived",
					"type": "event"
				},
				{
					"anonymous": false,
					"inputs": [
						{
							"indexed": false,
							"internalType": "bool",
							"name": "",
							"type": "bool"
						}
					],
					"name": "senderPaid",
					"type": "event"
				},
				{
					"inputs": [],
					"name": "FX_rate",
					"outputs": [
						{
							"internalType": "uint256",
							"name": "",
							"type": "uint256"
						}
					],
					"stateMutability": "view",
					"type": "function"
				},
				{
					"inputs": [],
					"name": "beneficiaryBankID",
					"outputs": [
						{
							"internalType": "address",
							"name": "",
							"type": "address"
						}
					],
					"stateMutability": "view",
					"type": "function"
				},
				{
					"inputs": [],
					"name": "beneficiaryID",
					"outputs": [
						{
							"internalType": "address",
							"name": "",
							"type": "address"
						}
					],
					"stateMutability": "view",
					"type": "function"
				},
				{
					"inputs": [],
					"name": "checkBeneficiaryHasReceived",
					"outputs": [
						{
							"internalType": "bool",
							"name": "",
							"type": "bool"
						}
					],
					"stateMutability": "view",
					"type": "function"
				},
				{
					"inputs": [],
					"name": "checkPayerHadPaid",
					"outputs": [
						{
							"internalType": "bool",
							"name": "",
							"type": "bool"
						}
					],
					"stateMutability": "view",
					"type": "function"
				},
				{
					"inputs": [],
					"name": "getAddress",
					"outputs": [
						{
							"internalType": "address",
							"name": "",
							"type": "address"
						}
					],
					"stateMutability": "view",
					"type": "function"
				},
				{
					"inputs": [],
					"name": "getTransferAmountBasedOnExchangeRate",
					"outputs": [
						{
							"internalType": "uint256",
							"name": "",
							"type": "uint256"
						}
					],
					"stateMutability": "view",
					"type": "function"
				},
				{
					"inputs": [],
					"name": "payout_conditions",
					"outputs": [
						{
							"internalType": "string",
							"name": "",
							"type": "string"
						}
					],
					"stateMutability": "view",
					"type": "function"
				},
				{
					"inputs": [],
					"name": "receiveFunds",
					"outputs": [],
					"stateMutability": "nonpayable",
					"type": "function"
				},
				{
					"inputs": [],
					"name": "senderBankID",
					"outputs": [
						{
							"internalType": "address",
							"name": "",
							"type": "address"
						}
					],
					"stateMutability": "view",
					"type": "function"
				},
				{
					"inputs": [],
					"name": "senderID",
					"outputs": [
						{
							"internalType": "address",
							"name": "",
							"type": "address"
						}
					],
					"stateMutability": "view",
					"type": "function"
				},
				{
					"inputs": [],
					"name": "submitTransfer",
					"outputs": [],
					"stateMutability": "nonpayable",
					"type": "function"
				},
				{
					"inputs": [],
					"name": "transferamount",
					"outputs": [
						{
							"internalType": "uint256",
							"name": "",
							"type": "uint256"
						}
					],
					"stateMutability": "view",
					"type": "function"
				}
			],
			"devdoc": {
				"kind": "dev",
				"methods": {},
				"version": 1
			},
			"evm": {
				"assembly": "    /* \"contracts/GlobalPayment.sol\":36:2458  contract GlobalPaymentContract {\r... */\n  mstore(0x40, 0x80)\n    /* \"contracts/GlobalPayment.sol\":277:321  string public payout_conditions=\"conditions\" */\n  mload(0x40)\n  dup1\n  0x40\n  add\n  0x40\n  mstore\n  dup1\n  0x0a\n  dup2\n  mstore\n  0x20\n  add\n  0x636f6e646974696f6e7300000000000000000000000000000000000000000000\n  dup2\n  mstore\n  pop\n  0x06\n  swap1\n  dup1\n  mload\n  swap1\n  0x20\n  add\n  swap1\n  tag_1\n  swap3\n  swap2\n  swap1\n  tag_2\n  jump\t// in\ntag_1:\n  pop\n    /* \"contracts/GlobalPayment.sol\":347:352  false */\n  0x00\n    /* \"contracts/GlobalPayment.sol\":328:352  bool payerHasPaid= false */\n  0x07\n  exp(0x0100, 0x00)\n  dup2\n  sload\n  dup2\n  0xff\n  mul\n  not\n  and\n  swap1\n  dup4\n  iszero\n  iszero\n  mul\n  or\n  swap1\n  sstore\n  pop\n    /* \"contracts/GlobalPayment.sol\":389:394  false */\n  0x00\n    /* \"contracts/GlobalPayment.sol\":359:394  bool beneficiaryHasReceived = false */\n  0x07\n  exp(0x0100, 0x01)\n  dup2\n  sload\n  dup2\n  0xff\n  mul\n  not\n  and\n  swap1\n  dup4\n  iszero\n  iszero\n  mul\n  or\n  swap1\n  sstore\n  pop\n    /* \"contracts/GlobalPayment.sol\":477:920  constructor(\r... */\n  callvalue\n  dup1\n  iszero\n  tag_3\n  jumpi\n  0x00\n  dup1\n  revert\ntag_3:\n  pop\n  mload(0x40)\n  sub(codesize, bytecodeSize)\n  dup1\n  bytecodeSize\n  dup4\n  codecopy\n  dup2\n  dup2\n  add\n  0x40\n  mstore\n  dup2\n  add\n  swap1\n  tag_4\n  swap2\n  swap1\n  tag_5\n  jump\t// in\ntag_4:\n    /* \"contracts/GlobalPayment.sol\":702:711  _senderID */\n  dup6\n    /* \"contracts/GlobalPayment.sol\":691:699  senderID */\n  0x00\n  dup1\n    /* \"contracts/GlobalPayment.sol\":691:711  senderID = _senderID */\n  0x0100\n  exp\n  dup2\n  sload\n  dup2\n  0xffffffffffffffffffffffffffffffffffffffff\n  mul\n  not\n  and\n  swap1\n  dup4\n  0xffffffffffffffffffffffffffffffffffffffff\n  and\n  mul\n  or\n  swap1\n  sstore\n  pop\n    /* \"contracts/GlobalPayment.sol\":737:750  _senderBankID */\n  dup5\n    /* \"contracts/GlobalPayment.sol\":722:734  senderBankID */\n  0x02\n  0x00\n    /* \"contracts/GlobalPayment.sol\":722:750  senderBankID = _senderBankID */\n  0x0100\n  exp\n  dup2\n  sload\n  dup2\n  0xffffffffffffffffffffffffffffffffffffffff\n  mul\n  not\n  and\n  swap1\n  dup4\n  0xffffffffffffffffffffffffffffffffffffffff\n  and\n  mul\n  or\n  swap1\n  sstore\n  pop\n    /* \"contracts/GlobalPayment.sol\":777:791  _beneficiaryID */\n  dup4\n    /* \"contracts/GlobalPayment.sol\":761:774  beneficiaryID */\n  0x01\n  0x00\n    /* \"contracts/GlobalPayment.sol\":761:791  beneficiaryID = _beneficiaryID */\n  0x0100\n  exp\n  dup2\n  sload\n  dup2\n  0xffffffffffffffffffffffffffffffffffffffff\n  mul\n  not\n  and\n  swap1\n  dup4\n  0xffffffffffffffffffffffffffffffffffffffff\n  and\n  mul\n  or\n  swap1\n  sstore\n  pop\n    /* \"contracts/GlobalPayment.sol\":822:840  _beneficiaryBankID */\n  dup3\n    /* \"contracts/GlobalPayment.sol\":802:819  beneficiaryBankID */\n  0x03\n  0x00\n    /* \"contracts/GlobalPayment.sol\":802:840  beneficiaryBankID = _beneficiaryBankID */\n  0x0100\n  exp\n  dup2\n  sload\n  dup2\n  0xffffffffffffffffffffffffffffffffffffffff\n  mul\n  not\n  and\n  swap1\n  dup4\n  0xffffffffffffffffffffffffffffffffffffffff\n  and\n  mul\n  or\n  swap1\n  sstore\n  pop\n    /* \"contracts/GlobalPayment.sol\":861:869  _FX_rate */\n  dup2\n    /* \"contracts/GlobalPayment.sol\":851:858  FX_rate */\n  0x04\n    /* \"contracts/GlobalPayment.sol\":851:869  FX_rate = _FX_rate */\n  dup2\n  swap1\n  sstore\n  pop\n    /* \"contracts/GlobalPayment.sol\":897:912  _transferamount */\n  dup1\n    /* \"contracts/GlobalPayment.sol\":880:894  transferamount */\n  0x05\n    /* \"contracts/GlobalPayment.sol\":880:912  transferamount = _transferamount */\n  dup2\n  swap1\n  sstore\n  pop\n    /* \"contracts/GlobalPayment.sol\":477:920  constructor(\r... */\n  pop\n  pop\n  pop\n  pop\n  pop\n  pop\n    /* \"contracts/GlobalPayment.sol\":36:2458  contract GlobalPaymentContract {\r... */\n  jump(tag_8)\ntag_2:\n  dup3\n  dup1\n  sload\n  tag_9\n  swap1\n  tag_10\n  jump\t// in\ntag_9:\n  swap1\n  0x00\n  mstore\n  keccak256(0x00, 0x20)\n  swap1\n  0x1f\n  add\n  0x20\n  swap1\n  div\n  dup2\n  add\n  swap3\n  dup3\n  tag_12\n  jumpi\n  0x00\n  dup6\n  sstore\n  jump(tag_11)\ntag_12:\n  dup3\n  0x1f\n  lt\n  tag_13\n  jumpi\n  dup1\n  mload\n  not(0xff)\n  and\n  dup4\n  dup1\n  add\n  or\n  dup6\n  sstore\n  jump(tag_11)\ntag_13:\n  dup3\n  dup1\n  add\n  0x01\n  add\n  dup6\n  sstore\n  dup3\n  iszero\n  tag_11\n  jumpi\n  swap2\n  dup3\n  add\ntag_14:\n  dup3\n  dup2\n  gt\n  iszero\n  tag_15\n  jumpi\n  dup3\n  mload\n  dup3\n  sstore\n  swap2\n  0x20\n  add\n  swap2\n  swap1\n  0x01\n  add\n  swap1\n  jump(tag_14)\ntag_15:\ntag_11:\n  pop\n  swap1\n  pop\n  tag_16\n  swap2\n  swap1\n  tag_17\n  jump\t// in\ntag_16:\n  pop\n  swap1\n  jump\t// out\ntag_17:\ntag_18:\n  dup1\n  dup3\n  gt\n  iszero\n  tag_19\n  jumpi\n  0x00\n  dup2\n  0x00\n  swap1\n  sstore\n  pop\n  0x01\n  add\n  jump(tag_18)\ntag_19:\n  pop\n  swap1\n  jump\t// out\n    /* \"#utility.yul\":7:150   */\ntag_21:\n    /* \"#utility.yul\":64:69   */\n  0x00\n    /* \"#utility.yul\":95:101   */\n  dup2\n    /* \"#utility.yul\":89:102   */\n  mload\n    /* \"#utility.yul\":80:102   */\n  swap1\n  pop\n    /* \"#utility.yul\":111:144   */\n  tag_23\n    /* \"#utility.yul\":138:143   */\n  dup2\n    /* \"#utility.yul\":111:144   */\n  tag_24\n  jump\t// in\ntag_23:\n    /* \"#utility.yul\":7:150   */\n  swap3\n  swap2\n  pop\n  pop\n  jump\t// out\n    /* \"#utility.yul\":156:299   */\ntag_25:\n    /* \"#utility.yul\":213:218   */\n  0x00\n    /* \"#utility.yul\":244:250   */\n  dup2\n    /* \"#utility.yul\":238:251   */\n  mload\n    /* \"#utility.yul\":229:251   */\n  swap1\n  pop\n    /* \"#utility.yul\":260:293   */\n  tag_27\n    /* \"#utility.yul\":287:292   */\n  dup2\n    /* \"#utility.yul\":260:293   */\n  tag_28\n  jump\t// in\ntag_27:\n    /* \"#utility.yul\":156:299   */\n  swap3\n  swap2\n  pop\n  pop\n  jump\t// out\n    /* \"#utility.yul\":305:1439   */\ntag_5:\n    /* \"#utility.yul\":420:426   */\n  0x00\n    /* \"#utility.yul\":428:434   */\n  dup1\n    /* \"#utility.yul\":436:442   */\n  0x00\n    /* \"#utility.yul\":444:450   */\n  dup1\n    /* \"#utility.yul\":452:458   */\n  0x00\n    /* \"#utility.yul\":460:466   */\n  dup1\n    /* \"#utility.yul\":509:512   */\n  0xc0\n    /* \"#utility.yul\":497:506   */\n  dup8\n    /* \"#utility.yul\":488:495   */\n  dup10\n    /* \"#utility.yul\":484:507   */\n  sub\n    /* \"#utility.yul\":480:513   */\n  slt\n    /* \"#utility.yul\":477:597   */\n  iszero\n  tag_30\n  jumpi\n    /* \"#utility.yul\":516:595   */\n  tag_31\n  tag_32\n  jump\t// in\ntag_31:\n    /* \"#utility.yul\":477:597   */\ntag_30:\n    /* \"#utility.yul\":636:637   */\n  0x00\n    /* \"#utility.yul\":661:725   */\n  tag_33\n    /* \"#utility.yul\":717:724   */\n  dup10\n    /* \"#utility.yul\":708:714   */\n  dup3\n    /* \"#utility.yul\":697:706   */\n  dup11\n    /* \"#utility.yul\":693:715   */\n  add\n    /* \"#utility.yul\":661:725   */\n  tag_21\n  jump\t// in\ntag_33:\n    /* \"#utility.yul\":651:725   */\n  swap7\n  pop\n    /* \"#utility.yul\":607:735   */\n  pop\n    /* \"#utility.yul\":774:776   */\n  0x20\n    /* \"#utility.yul\":800:864   */\n  tag_34\n    /* \"#utility.yul\":856:863   */\n  dup10\n    /* \"#utility.yul\":847:853   */\n  dup3\n    /* \"#utility.yul\":836:845   */\n  dup11\n    /* \"#utility.yul\":832:854   */\n  add\n    /* \"#utility.yul\":800:864   */\n  tag_21\n  jump\t// in\ntag_34:\n    /* \"#utility.yul\":790:864   */\n  swap6\n  pop\n    /* \"#utility.yul\":745:874   */\n  pop\n    /* \"#utility.yul\":913:915   */\n  0x40\n    /* \"#utility.yul\":939:1003   */\n  tag_35\n    /* \"#utility.yul\":995:1002   */\n  dup10\n    /* \"#utility.yul\":986:992   */\n  dup3\n    /* \"#utility.yul\":975:984   */\n  dup11\n    /* \"#utility.yul\":971:993   */\n  add\n    /* \"#utility.yul\":939:1003   */\n  tag_21\n  jump\t// in\ntag_35:\n    /* \"#utility.yul\":929:1003   */\n  swap5\n  pop\n    /* \"#utility.yul\":884:1013   */\n  pop\n    /* \"#utility.yul\":1052:1054   */\n  0x60\n    /* \"#utility.yul\":1078:1142   */\n  tag_36\n    /* \"#utility.yul\":1134:1141   */\n  dup10\n    /* \"#utility.yul\":1125:1131   */\n  dup3\n    /* \"#utility.yul\":1114:1123   */\n  dup11\n    /* \"#utility.yul\":1110:1132   */\n  add\n    /* \"#utility.yul\":1078:1142   */\n  tag_21\n  jump\t// in\ntag_36:\n    /* \"#utility.yul\":1068:1142   */\n  swap4\n  pop\n    /* \"#utility.yul\":1023:1152   */\n  pop\n    /* \"#utility.yul\":1191:1194   */\n  0x80\n    /* \"#utility.yul\":1218:1282   */\n  tag_37\n    /* \"#utility.yul\":1274:1281   */\n  dup10\n    /* \"#utility.yul\":1265:1271   */\n  dup3\n    /* \"#utility.yul\":1254:1263   */\n  dup11\n    /* \"#utility.yul\":1250:1272   */\n  add\n    /* \"#utility.yul\":1218:1282   */\n  tag_25\n  jump\t// in\ntag_37:\n    /* \"#utility.yul\":1208:1282   */\n  swap3\n  pop\n    /* \"#utility.yul\":1162:1292   */\n  pop\n    /* \"#utility.yul\":1331:1334   */\n  0xa0\n    /* \"#utility.yul\":1358:1422   */\n  tag_38\n    /* \"#utility.yul\":1414:1421   */\n  dup10\n    /* \"#utility.yul\":1405:1411   */\n  dup3\n    /* \"#utility.yul\":1394:1403   */\n  dup11\n    /* \"#utility.yul\":1390:1412   */\n  add\n    /* \"#utility.yul\":1358:1422   */\n  tag_25\n  jump\t// in\ntag_38:\n    /* \"#utility.yul\":1348:1422   */\n  swap2\n  pop\n    /* \"#utility.yul\":1302:1432   */\n  pop\n    /* \"#utility.yul\":305:1439   */\n  swap3\n  swap6\n  pop\n  swap3\n  swap6\n  pop\n  swap3\n  swap6\n  jump\t// out\n    /* \"#utility.yul\":1526:1622   */\ntag_41:\n    /* \"#utility.yul\":1563:1570   */\n  0x00\n    /* \"#utility.yul\":1592:1616   */\n  tag_43\n    /* \"#utility.yul\":1610:1615   */\n  dup3\n    /* \"#utility.yul\":1592:1616   */\n  tag_44\n  jump\t// in\ntag_43:\n    /* \"#utility.yul\":1581:1616   */\n  swap1\n  pop\n    /* \"#utility.yul\":1526:1622   */\n  swap2\n  swap1\n  pop\n  jump\t// out\n    /* \"#utility.yul\":1628:1754   */\ntag_44:\n    /* \"#utility.yul\":1665:1672   */\n  0x00\n    /* \"#utility.yul\":1705:1747   */\n  0xffffffffffffffffffffffffffffffffffffffff\n    /* \"#utility.yul\":1698:1703   */\n  dup3\n    /* \"#utility.yul\":1694:1748   */\n  and\n    /* \"#utility.yul\":1683:1748   */\n  swap1\n  pop\n    /* \"#utility.yul\":1628:1754   */\n  swap2\n  swap1\n  pop\n  jump\t// out\n    /* \"#utility.yul\":1760:1837   */\ntag_46:\n    /* \"#utility.yul\":1797:1804   */\n  0x00\n    /* \"#utility.yul\":1826:1831   */\n  dup2\n    /* \"#utility.yul\":1815:1831   */\n  swap1\n  pop\n    /* \"#utility.yul\":1760:1837   */\n  swap2\n  swap1\n  pop\n  jump\t// out\n    /* \"#utility.yul\":1843:2163   */\ntag_10:\n    /* \"#utility.yul\":1887:1893   */\n  0x00\n    /* \"#utility.yul\":1924:1925   */\n  0x02\n    /* \"#utility.yul\":1918:1922   */\n  dup3\n    /* \"#utility.yul\":1914:1926   */\n  div\n    /* \"#utility.yul\":1904:1926   */\n  swap1\n  pop\n    /* \"#utility.yul\":1971:1972   */\n  0x01\n    /* \"#utility.yul\":1965:1969   */\n  dup3\n    /* \"#utility.yul\":1961:1973   */\n  and\n    /* \"#utility.yul\":1992:2010   */\n  dup1\n    /* \"#utility.yul\":1982:2063   */\n  tag_49\n  jumpi\n    /* \"#utility.yul\":2048:2052   */\n  0x7f\n    /* \"#utility.yul\":2040:2046   */\n  dup3\n    /* \"#utility.yul\":2036:2053   */\n  and\n    /* \"#utility.yul\":2026:2053   */\n  swap2\n  pop\n    /* \"#utility.yul\":1982:2063   */\ntag_49:\n    /* \"#utility.yul\":2110:2112   */\n  0x20\n    /* \"#utility.yul\":2102:2108   */\n  dup3\n    /* \"#utility.yul\":2099:2113   */\n  lt\n    /* \"#utility.yul\":2079:2097   */\n  dup2\n    /* \"#utility.yul\":2076:2114   */\n  eq\n    /* \"#utility.yul\":2073:2157   */\n  iszero\n  tag_50\n  jumpi\n    /* \"#utility.yul\":2129:2147   */\n  tag_51\n  tag_52\n  jump\t// in\ntag_51:\n    /* \"#utility.yul\":2073:2157   */\ntag_50:\n    /* \"#utility.yul\":1894:2163   */\n  pop\n    /* \"#utility.yul\":1843:2163   */\n  swap2\n  swap1\n  pop\n  jump\t// out\n    /* \"#utility.yul\":2169:2349   */\ntag_52:\n    /* \"#utility.yul\":2217:2294   */\n  0x4e487b7100000000000000000000000000000000000000000000000000000000\n    /* \"#utility.yul\":2214:2215   */\n  0x00\n    /* \"#utility.yul\":2207:2295   */\n  mstore\n    /* \"#utility.yul\":2314:2318   */\n  0x22\n    /* \"#utility.yul\":2311:2312   */\n  0x04\n    /* \"#utility.yul\":2304:2319   */\n  mstore\n    /* \"#utility.yul\":2338:2342   */\n  0x24\n    /* \"#utility.yul\":2335:2336   */\n  0x00\n    /* \"#utility.yul\":2328:2343   */\n  revert\n    /* \"#utility.yul\":2478:2595   */\ntag_32:\n    /* \"#utility.yul\":2587:2588   */\n  0x00\n    /* \"#utility.yul\":2584:2585   */\n  dup1\n    /* \"#utility.yul\":2577:2589   */\n  revert\n    /* \"#utility.yul\":2601:2723   */\ntag_24:\n    /* \"#utility.yul\":2674:2698   */\n  tag_58\n    /* \"#utility.yul\":2692:2697   */\n  dup2\n    /* \"#utility.yul\":2674:2698   */\n  tag_41\n  jump\t// in\ntag_58:\n    /* \"#utility.yul\":2667:2672   */\n  dup2\n    /* \"#utility.yul\":2664:2699   */\n  eq\n    /* \"#utility.yul\":2654:2717   */\n  tag_59\n  jumpi\n    /* \"#utility.yul\":2713:2714   */\n  0x00\n    /* \"#utility.yul\":2710:2711   */\n  dup1\n    /* \"#utility.yul\":2703:2715   */\n  revert\n    /* \"#utility.yul\":2654:2717   */\ntag_59:\n    /* \"#utility.yul\":2601:2723   */\n  pop\n  jump\t// out\n    /* \"#utility.yul\":2729:2851   */\ntag_28:\n    /* \"#utility.yul\":2802:2826   */\n  tag_61\n    /* \"#utility.yul\":2820:2825   */\n  dup2\n    /* \"#utility.yul\":2802:2826   */\n  tag_46\n  jump\t// in\ntag_61:\n    /* \"#utility.yul\":2795:2800   */\n  dup2\n    /* \"#utility.yul\":2792:2827   */\n  eq\n    /* \"#utility.yul\":2782:2845   */\n  tag_62\n  jumpi\n    /* \"#utility.yul\":2841:2842   */\n  0x00\n    /* \"#utility.yul\":2838:2839   */\n  dup1\n    /* \"#utility.yul\":2831:2843   */\n  revert\n    /* \"#utility.yul\":2782:2845   */\ntag_62:\n    /* \"#utility.yul\":2729:2851   */\n  pop\n  jump\t// out\n    /* \"contracts/GlobalPayment.sol\":36:2458  contract GlobalPaymentContract {\r... */\ntag_8:\n  dataSize(sub_0)\n  dup1\n  dataOffset(sub_0)\n  0x00\n  codecopy\n  0x00\n  return\nstop\n\nsub_0: assembly {\n        /* \"contracts/GlobalPayment.sol\":36:2458  contract GlobalPaymentContract {\r... */\n      mstore(0x40, 0x80)\n      callvalue\n      dup1\n      iszero\n      tag_1\n      jumpi\n      0x00\n      dup1\n      revert\n    tag_1:\n      pop\n      jumpi(tag_2, lt(calldatasize, 0x04))\n      shr(0xe0, calldataload(0x00))\n      dup1\n      0x8c76fcd0\n      gt\n      tag_16\n      jumpi\n      dup1\n      0xbc3fb50f\n      gt\n      tag_17\n      jumpi\n      dup1\n      0xbc3fb50f\n      eq\n      tag_12\n      jumpi\n      dup1\n      0xd367900c\n      eq\n      tag_13\n      jumpi\n      dup1\n      0xd456919b\n      eq\n      tag_14\n      jumpi\n      dup1\n      0xe6402814\n      eq\n      tag_15\n      jumpi\n      jump(tag_2)\n    tag_17:\n      dup1\n      0x8c76fcd0\n      eq\n      tag_9\n      jumpi\n      dup1\n      0x96bdae27\n      eq\n      tag_10\n      jumpi\n      dup1\n      0xad16a96c\n      eq\n      tag_11\n      jumpi\n      jump(tag_2)\n    tag_16:\n      dup1\n      0x5c33e1\n      eq\n      tag_3\n      jumpi\n      dup1\n      0x12137227\n      eq\n      tag_4\n      jumpi\n      dup1\n      0x26e0c5ae\n      eq\n      tag_5\n      jumpi\n      dup1\n      0x38cc4831\n      eq\n      tag_6\n      jumpi\n      dup1\n      0x7a471bdd\n      eq\n      tag_7\n      jumpi\n      dup1\n      0x873e9755\n      eq\n      tag_8\n      jumpi\n    tag_2:\n      0x00\n      dup1\n      revert\n        /* \"contracts/GlobalPayment.sol\":1482:1601  function receiveFunds() public {\r... */\n    tag_3:\n      tag_18\n      tag_19\n      jump\t// in\n    tag_18:\n      stop\n        /* \"contracts/GlobalPayment.sol\":277:321  string public payout_conditions=\"conditions\" */\n    tag_4:\n      tag_20\n      tag_21\n      jump\t// in\n    tag_20:\n      mload(0x40)\n      tag_22\n      swap2\n      swap1\n      tag_23\n      jump\t// in\n    tag_22:\n      mload(0x40)\n      dup1\n      swap2\n      sub\n      swap1\n      return\n        /* \"contracts/GlobalPayment.sol\":1364:1476  function checkBeneficiaryHasReceived() public view returns(bool){\r... */\n    tag_5:\n      tag_24\n      tag_25\n      jump\t// in\n    tag_24:\n      mload(0x40)\n      tag_26\n      swap2\n      swap1\n      tag_27\n      jump\t// in\n    tag_26:\n      mload(0x40)\n      dup1\n      swap2\n      sub\n      swap1\n      return\n        /* \"contracts/GlobalPayment.sol\":1168:1257  function getAddress() public view returns(address){\r... */\n    tag_6:\n      tag_28\n      tag_29\n      jump\t// in\n    tag_28:\n      mload(0x40)\n      tag_30\n      swap2\n      swap1\n      tag_31\n      jump\t// in\n    tag_30:\n      mload(0x40)\n      dup1\n      swap2\n      sub\n      swap1\n      return\n        /* \"contracts/GlobalPayment.sol\":212:234  uint256 public FX_rate */\n    tag_7:\n      tag_32\n      tag_33\n      jump\t// in\n    tag_32:\n      mload(0x40)\n      tag_34\n      swap2\n      swap1\n      tag_35\n      jump\t// in\n    tag_34:\n      mload(0x40)\n      dup1\n      swap2\n      sub\n      swap1\n      return\n        /* \"contracts/GlobalPayment.sol\":104:132  address public beneficiaryID */\n    tag_8:\n      tag_36\n      tag_37\n      jump\t// in\n    tag_36:\n      mload(0x40)\n      tag_38\n      swap2\n      swap1\n      tag_31\n      jump\t// in\n    tag_38:\n      mload(0x40)\n      dup1\n      swap2\n      sub\n      swap1\n      return\n        /* \"contracts/GlobalPayment.sol\":74:97  address public senderID */\n    tag_9:\n      tag_39\n      tag_40\n      jump\t// in\n    tag_39:\n      mload(0x40)\n      tag_41\n      swap2\n      swap1\n      tag_31\n      jump\t// in\n    tag_41:\n      mload(0x40)\n      dup1\n      swap2\n      sub\n      swap1\n      return\n        /* \"contracts/GlobalPayment.sol\":241:270  uint256 public transferamount */\n    tag_10:\n      tag_42\n      tag_43\n      jump\t// in\n    tag_42:\n      mload(0x40)\n      tag_44\n      swap2\n      swap1\n      tag_35\n      jump\t// in\n    tag_44:\n      mload(0x40)\n      dup1\n      swap2\n      sub\n      swap1\n      return\n        /* \"contracts/GlobalPayment.sol\":928:1054  function getTransferAmountBasedOnExchangeRate() public view returns(uint256){\r... */\n    tag_11:\n      tag_45\n      tag_46\n      jump\t// in\n    tag_45:\n      mload(0x40)\n      tag_47\n      swap2\n      swap1\n      tag_35\n      jump\t// in\n    tag_47:\n      mload(0x40)\n      dup1\n      swap2\n      sub\n      swap1\n      return\n        /* \"contracts/GlobalPayment.sol\":1263:1355  function checkPayerHadPaid() public view returns(bool){\r... */\n    tag_12:\n      tag_48\n      tag_49\n      jump\t// in\n    tag_48:\n      mload(0x40)\n      tag_50\n      swap2\n      swap1\n      tag_27\n      jump\t// in\n    tag_50:\n      mload(0x40)\n      dup1\n      swap2\n      sub\n      swap1\n      return\n        /* \"contracts/GlobalPayment.sol\":1060:1162  function submitTransfer() public {\r... */\n    tag_13:\n      tag_51\n      tag_52\n      jump\t// in\n    tag_51:\n      stop\n        /* \"contracts/GlobalPayment.sol\":139:166  address public senderBankID */\n    tag_14:\n      tag_53\n      tag_54\n      jump\t// in\n    tag_53:\n      mload(0x40)\n      tag_55\n      swap2\n      swap1\n      tag_31\n      jump\t// in\n    tag_55:\n      mload(0x40)\n      dup1\n      swap2\n      sub\n      swap1\n      return\n        /* \"contracts/GlobalPayment.sol\":173:205  address public beneficiaryBankID */\n    tag_15:\n      tag_56\n      tag_57\n      jump\t// in\n    tag_56:\n      mload(0x40)\n      tag_58\n      swap2\n      swap1\n      tag_31\n      jump\t// in\n    tag_58:\n      mload(0x40)\n      dup1\n      swap2\n      sub\n      swap1\n      return\n        /* \"contracts/GlobalPayment.sol\":1482:1601  function receiveFunds() public {\r... */\n    tag_19:\n        /* \"contracts/GlobalPayment.sol\":1548:1552  true */\n      0x01\n        /* \"contracts/GlobalPayment.sol\":1524:1546  beneficiaryHasReceived */\n      0x07\n      0x01\n        /* \"contracts/GlobalPayment.sol\":1524:1552  beneficiaryHasReceived= true */\n      0x0100\n      exp\n      dup2\n      sload\n      dup2\n      0xff\n      mul\n      not\n      and\n      swap1\n      dup4\n      iszero\n      iszero\n      mul\n      or\n      swap1\n      sstore\n      pop\n        /* \"contracts/GlobalPayment.sol\":1568:1593  beneficiaryReceived(true) */\n      0x8e3b3889734d6fe63fecbc5eafa9599da61b9ac58ff46e6158dec000f785d316\n        /* \"contracts/GlobalPayment.sol\":1588:1592  true */\n      0x01\n        /* \"contracts/GlobalPayment.sol\":1568:1593  beneficiaryReceived(true) */\n      mload(0x40)\n      tag_60\n      swap2\n      swap1\n      tag_27\n      jump\t// in\n    tag_60:\n      mload(0x40)\n      dup1\n      swap2\n      sub\n      swap1\n      log1\n        /* \"contracts/GlobalPayment.sol\":1482:1601  function receiveFunds() public {\r... */\n      jump\t// out\n        /* \"contracts/GlobalPayment.sol\":277:321  string public payout_conditions=\"conditions\" */\n    tag_21:\n      0x06\n      dup1\n      sload\n      tag_61\n      swap1\n      tag_62\n      jump\t// in\n    tag_61:\n      dup1\n      0x1f\n      add\n      0x20\n      dup1\n      swap2\n      div\n      mul\n      0x20\n      add\n      mload(0x40)\n      swap1\n      dup2\n      add\n      0x40\n      mstore\n      dup1\n      swap3\n      swap2\n      swap1\n      dup2\n      dup2\n      mstore\n      0x20\n      add\n      dup3\n      dup1\n      sload\n      tag_63\n      swap1\n      tag_62\n      jump\t// in\n    tag_63:\n      dup1\n      iszero\n      tag_64\n      jumpi\n      dup1\n      0x1f\n      lt\n      tag_65\n      jumpi\n      0x0100\n      dup1\n      dup4\n      sload\n      div\n      mul\n      dup4\n      mstore\n      swap2\n      0x20\n      add\n      swap2\n      jump(tag_64)\n    tag_65:\n      dup3\n      add\n      swap2\n      swap1\n      0x00\n      mstore\n      keccak256(0x00, 0x20)\n      swap1\n    tag_66:\n      dup2\n      sload\n      dup2\n      mstore\n      swap1\n      0x01\n      add\n      swap1\n      0x20\n      add\n      dup1\n      dup4\n      gt\n      tag_66\n      jumpi\n      dup3\n      swap1\n      sub\n      0x1f\n      and\n      dup3\n      add\n      swap2\n    tag_64:\n      pop\n      pop\n      pop\n      pop\n      pop\n      dup2\n      jump\t// out\n        /* \"contracts/GlobalPayment.sol\":1364:1476  function checkBeneficiaryHasReceived() public view returns(bool){\r... */\n    tag_25:\n        /* \"contracts/GlobalPayment.sol\":1423:1427  bool */\n      0x00\n        /* \"contracts/GlobalPayment.sol\":1446:1468  beneficiaryHasReceived */\n      0x07\n      0x01\n      swap1\n      sload\n      swap1\n      0x0100\n      exp\n      swap1\n      div\n      0xff\n      and\n        /* \"contracts/GlobalPayment.sol\":1439:1468  return beneficiaryHasReceived */\n      swap1\n      pop\n        /* \"contracts/GlobalPayment.sol\":1364:1476  function checkBeneficiaryHasReceived() public view returns(bool){\r... */\n      swap1\n      jump\t// out\n        /* \"contracts/GlobalPayment.sol\":1168:1257  function getAddress() public view returns(address){\r... */\n    tag_29:\n        /* \"contracts/GlobalPayment.sol\":1210:1217  address */\n      0x00\n        /* \"contracts/GlobalPayment.sol\":1244:1248  this */\n      address\n        /* \"contracts/GlobalPayment.sol\":1229:1249  return address(this) */\n      swap1\n      pop\n        /* \"contracts/GlobalPayment.sol\":1168:1257  function getAddress() public view returns(address){\r... */\n      swap1\n      jump\t// out\n        /* \"contracts/GlobalPayment.sol\":212:234  uint256 public FX_rate */\n    tag_33:\n      sload(0x04)\n      dup2\n      jump\t// out\n        /* \"contracts/GlobalPayment.sol\":104:132  address public beneficiaryID */\n    tag_37:\n      0x01\n      0x00\n      swap1\n      sload\n      swap1\n      0x0100\n      exp\n      swap1\n      div\n      0xffffffffffffffffffffffffffffffffffffffff\n      and\n      dup2\n      jump\t// out\n        /* \"contracts/GlobalPayment.sol\":74:97  address public senderID */\n    tag_40:\n      0x00\n      dup1\n      sload\n      swap1\n      0x0100\n      exp\n      swap1\n      div\n      0xffffffffffffffffffffffffffffffffffffffff\n      and\n      dup2\n      jump\t// out\n        /* \"contracts/GlobalPayment.sol\":241:270  uint256 public transferamount */\n    tag_43:\n      sload(0x05)\n      dup2\n      jump\t// out\n        /* \"contracts/GlobalPayment.sol\":928:1054  function getTransferAmountBasedOnExchangeRate() public view returns(uint256){\r... */\n    tag_46:\n        /* \"contracts/GlobalPayment.sol\":996:1003  uint256 */\n      0x00\n        /* \"contracts/GlobalPayment.sol\":1039:1046  FX_rate */\n      sload(0x04)\n        /* \"contracts/GlobalPayment.sol\":1022:1036  transferamount */\n      sload(0x05)\n        /* \"contracts/GlobalPayment.sol\":1022:1046  transferamount * FX_rate */\n      tag_70\n      swap2\n      swap1\n      tag_71\n      jump\t// in\n    tag_70:\n        /* \"contracts/GlobalPayment.sol\":1015:1046  return transferamount * FX_rate */\n      swap1\n      pop\n        /* \"contracts/GlobalPayment.sol\":928:1054  function getTransferAmountBasedOnExchangeRate() public view returns(uint256){\r... */\n      swap1\n      jump\t// out\n        /* \"contracts/GlobalPayment.sol\":1263:1355  function checkPayerHadPaid() public view returns(bool){\r... */\n    tag_49:\n        /* \"contracts/GlobalPayment.sol\":1312:1316  bool */\n      0x00\n        /* \"contracts/GlobalPayment.sol\":1335:1347  payerHasPaid */\n      0x07\n      0x00\n      swap1\n      sload\n      swap1\n      0x0100\n      exp\n      swap1\n      div\n      0xff\n      and\n        /* \"contracts/GlobalPayment.sol\":1328:1347  return payerHasPaid */\n      swap1\n      pop\n        /* \"contracts/GlobalPayment.sol\":1263:1355  function checkPayerHadPaid() public view returns(bool){\r... */\n      swap1\n      jump\t// out\n        /* \"contracts/GlobalPayment.sol\":1060:1162  function submitTransfer() public {\r... */\n    tag_52:\n        /* \"contracts/GlobalPayment.sol\":1118:1122  true */\n      0x01\n        /* \"contracts/GlobalPayment.sol\":1104:1116  payerHasPaid */\n      0x07\n      0x00\n        /* \"contracts/GlobalPayment.sol\":1104:1122  payerHasPaid= true */\n      0x0100\n      exp\n      dup2\n      sload\n      dup2\n      0xff\n      mul\n      not\n      and\n      swap1\n      dup4\n      iszero\n      iszero\n      mul\n      or\n      swap1\n      sstore\n      pop\n        /* \"contracts/GlobalPayment.sol\":1138:1154  senderPaid(true) */\n      0x6d2d0fa70c274e01985a105185152492999391b6fdf5f757a31e1d4fb4740ad4\n        /* \"contracts/GlobalPayment.sol\":1149:1153  true */\n      0x01\n        /* \"contracts/GlobalPayment.sol\":1138:1154  senderPaid(true) */\n      mload(0x40)\n      tag_74\n      swap2\n      swap1\n      tag_27\n      jump\t// in\n    tag_74:\n      mload(0x40)\n      dup1\n      swap2\n      sub\n      swap1\n      log1\n        /* \"contracts/GlobalPayment.sol\":1060:1162  function submitTransfer() public {\r... */\n      jump\t// out\n        /* \"contracts/GlobalPayment.sol\":139:166  address public senderBankID */\n    tag_54:\n      0x02\n      0x00\n      swap1\n      sload\n      swap1\n      0x0100\n      exp\n      swap1\n      div\n      0xffffffffffffffffffffffffffffffffffffffff\n      and\n      dup2\n      jump\t// out\n        /* \"contracts/GlobalPayment.sol\":173:205  address public beneficiaryBankID */\n    tag_57:\n      0x03\n      0x00\n      swap1\n      sload\n      swap1\n      0x0100\n      exp\n      swap1\n      div\n      0xffffffffffffffffffffffffffffffffffffffff\n      and\n      dup2\n      jump\t// out\n        /* \"#utility.yul\":7:125   */\n    tag_76:\n        /* \"#utility.yul\":94:118   */\n      tag_78\n        /* \"#utility.yul\":112:117   */\n      dup2\n        /* \"#utility.yul\":94:118   */\n      tag_79\n      jump\t// in\n    tag_78:\n        /* \"#utility.yul\":89:92   */\n      dup3\n        /* \"#utility.yul\":82:119   */\n      mstore\n        /* \"#utility.yul\":7:125   */\n      pop\n      pop\n      jump\t// out\n        /* \"#utility.yul\":131:240   */\n    tag_80:\n        /* \"#utility.yul\":212:233   */\n      tag_82\n        /* \"#utility.yul\":227:232   */\n      dup2\n        /* \"#utility.yul\":212:233   */\n      tag_83\n      jump\t// in\n    tag_82:\n        /* \"#utility.yul\":207:210   */\n      dup3\n        /* \"#utility.yul\":200:234   */\n      mstore\n        /* \"#utility.yul\":131:240   */\n      pop\n      pop\n      jump\t// out\n        /* \"#utility.yul\":246:610   */\n    tag_84:\n        /* \"#utility.yul\":334:337   */\n      0x00\n        /* \"#utility.yul\":362:401   */\n      tag_86\n        /* \"#utility.yul\":395:400   */\n      dup3\n        /* \"#utility.yul\":362:401   */\n      tag_87\n      jump\t// in\n    tag_86:\n        /* \"#utility.yul\":417:488   */\n      tag_88\n        /* \"#utility.yul\":481:487   */\n      dup2\n        /* \"#utility.yul\":476:479   */\n      dup6\n        /* \"#utility.yul\":417:488   */\n      tag_89\n      jump\t// in\n    tag_88:\n        /* \"#utility.yul\":410:488   */\n      swap4\n      pop\n        /* \"#utility.yul\":497:549   */\n      tag_90\n        /* \"#utility.yul\":542:548   */\n      dup2\n        /* \"#utility.yul\":537:540   */\n      dup6\n        /* \"#utility.yul\":530:534   */\n      0x20\n        /* \"#utility.yul\":523:528   */\n      dup7\n        /* \"#utility.yul\":519:535   */\n      add\n        /* \"#utility.yul\":497:549   */\n      tag_91\n      jump\t// in\n    tag_90:\n        /* \"#utility.yul\":574:603   */\n      tag_92\n        /* \"#utility.yul\":596:602   */\n      dup2\n        /* \"#utility.yul\":574:603   */\n      tag_93\n      jump\t// in\n    tag_92:\n        /* \"#utility.yul\":569:572   */\n      dup5\n        /* \"#utility.yul\":565:604   */\n      add\n        /* \"#utility.yul\":558:604   */\n      swap2\n      pop\n        /* \"#utility.yul\":338:610   */\n      pop\n        /* \"#utility.yul\":246:610   */\n      swap3\n      swap2\n      pop\n      pop\n      jump\t// out\n        /* \"#utility.yul\":616:734   */\n    tag_94:\n        /* \"#utility.yul\":703:727   */\n      tag_96\n        /* \"#utility.yul\":721:726   */\n      dup2\n        /* \"#utility.yul\":703:727   */\n      tag_97\n      jump\t// in\n    tag_96:\n        /* \"#utility.yul\":698:701   */\n      dup3\n        /* \"#utility.yul\":691:728   */\n      mstore\n        /* \"#utility.yul\":616:734   */\n      pop\n      pop\n      jump\t// out\n        /* \"#utility.yul\":740:962   */\n    tag_31:\n        /* \"#utility.yul\":833:837   */\n      0x00\n        /* \"#utility.yul\":871:873   */\n      0x20\n        /* \"#utility.yul\":860:869   */\n      dup3\n        /* \"#utility.yul\":856:874   */\n      add\n        /* \"#utility.yul\":848:874   */\n      swap1\n      pop\n        /* \"#utility.yul\":884:955   */\n      tag_99\n        /* \"#utility.yul\":952:953   */\n      0x00\n        /* \"#utility.yul\":941:950   */\n      dup4\n        /* \"#utility.yul\":937:954   */\n      add\n        /* \"#utility.yul\":928:934   */\n      dup5\n        /* \"#utility.yul\":884:955   */\n      tag_76\n      jump\t// in\n    tag_99:\n        /* \"#utility.yul\":740:962   */\n      swap3\n      swap2\n      pop\n      pop\n      jump\t// out\n        /* \"#utility.yul\":968:1178   */\n    tag_27:\n        /* \"#utility.yul\":1055:1059   */\n      0x00\n        /* \"#utility.yul\":1093:1095   */\n      0x20\n        /* \"#utility.yul\":1082:1091   */\n      dup3\n        /* \"#utility.yul\":1078:1096   */\n      add\n        /* \"#utility.yul\":1070:1096   */\n      swap1\n      pop\n        /* \"#utility.yul\":1106:1171   */\n      tag_101\n        /* \"#utility.yul\":1168:1169   */\n      0x00\n        /* \"#utility.yul\":1157:1166   */\n      dup4\n        /* \"#utility.yul\":1153:1170   */\n      add\n        /* \"#utility.yul\":1144:1150   */\n      dup5\n        /* \"#utility.yul\":1106:1171   */\n      tag_80\n      jump\t// in\n    tag_101:\n        /* \"#utility.yul\":968:1178   */\n      swap3\n      swap2\n      pop\n      pop\n      jump\t// out\n        /* \"#utility.yul\":1184:1497   */\n    tag_23:\n        /* \"#utility.yul\":1297:1301   */\n      0x00\n        /* \"#utility.yul\":1335:1337   */\n      0x20\n        /* \"#utility.yul\":1324:1333   */\n      dup3\n        /* \"#utility.yul\":1320:1338   */\n      add\n        /* \"#utility.yul\":1312:1338   */\n      swap1\n      pop\n        /* \"#utility.yul\":1384:1393   */\n      dup2\n        /* \"#utility.yul\":1378:1382   */\n      dup2\n        /* \"#utility.yul\":1374:1394   */\n      sub\n        /* \"#utility.yul\":1370:1371   */\n      0x00\n        /* \"#utility.yul\":1359:1368   */\n      dup4\n        /* \"#utility.yul\":1355:1372   */\n      add\n        /* \"#utility.yul\":1348:1395   */\n      mstore\n        /* \"#utility.yul\":1412:1490   */\n      tag_103\n        /* \"#utility.yul\":1485:1489   */\n      dup2\n        /* \"#utility.yul\":1476:1482   */\n      dup5\n        /* \"#utility.yul\":1412:1490   */\n      tag_84\n      jump\t// in\n    tag_103:\n        /* \"#utility.yul\":1404:1490   */\n      swap1\n      pop\n        /* \"#utility.yul\":1184:1497   */\n      swap3\n      swap2\n      pop\n      pop\n      jump\t// out\n        /* \"#utility.yul\":1503:1725   */\n    tag_35:\n        /* \"#utility.yul\":1596:1600   */\n      0x00\n        /* \"#utility.yul\":1634:1636   */\n      0x20\n        /* \"#utility.yul\":1623:1632   */\n      dup3\n        /* \"#utility.yul\":1619:1637   */\n      add\n        /* \"#utility.yul\":1611:1637   */\n      swap1\n      pop\n        /* \"#utility.yul\":1647:1718   */\n      tag_105\n        /* \"#utility.yul\":1715:1716   */\n      0x00\n        /* \"#utility.yul\":1704:1713   */\n      dup4\n        /* \"#utility.yul\":1700:1717   */\n      add\n        /* \"#utility.yul\":1691:1697   */\n      dup5\n        /* \"#utility.yul\":1647:1718   */\n      tag_94\n      jump\t// in\n    tag_105:\n        /* \"#utility.yul\":1503:1725   */\n      swap3\n      swap2\n      pop\n      pop\n      jump\t// out\n        /* \"#utility.yul\":1731:1830   */\n    tag_87:\n        /* \"#utility.yul\":1783:1789   */\n      0x00\n        /* \"#utility.yul\":1817:1822   */\n      dup2\n        /* \"#utility.yul\":1811:1823   */\n      mload\n        /* \"#utility.yul\":1801:1823   */\n      swap1\n      pop\n        /* \"#utility.yul\":1731:1830   */\n      swap2\n      swap1\n      pop\n      jump\t// out\n        /* \"#utility.yul\":1836:2005   */\n    tag_89:\n        /* \"#utility.yul\":1920:1931   */\n      0x00\n        /* \"#utility.yul\":1954:1960   */\n      dup3\n        /* \"#utility.yul\":1949:1952   */\n      dup3\n        /* \"#utility.yul\":1942:1961   */\n      mstore\n        /* \"#utility.yul\":1994:1998   */\n      0x20\n        /* \"#utility.yul\":1989:1992   */\n      dup3\n        /* \"#utility.yul\":1985:1999   */\n      add\n        /* \"#utility.yul\":1970:1999   */\n      swap1\n      pop\n        /* \"#utility.yul\":1836:2005   */\n      swap3\n      swap2\n      pop\n      pop\n      jump\t// out\n        /* \"#utility.yul\":2011:2359   */\n    tag_71:\n        /* \"#utility.yul\":2051:2058   */\n      0x00\n        /* \"#utility.yul\":2074:2094   */\n      tag_109\n        /* \"#utility.yul\":2092:2093   */\n      dup3\n        /* \"#utility.yul\":2074:2094   */\n      tag_97\n      jump\t// in\n    tag_109:\n        /* \"#utility.yul\":2069:2094   */\n      swap2\n      pop\n        /* \"#utility.yul\":2108:2128   */\n      tag_110\n        /* \"#utility.yul\":2126:2127   */\n      dup4\n        /* \"#utility.yul\":2108:2128   */\n      tag_97\n      jump\t// in\n    tag_110:\n        /* \"#utility.yul\":2103:2128   */\n      swap3\n      pop\n        /* \"#utility.yul\":2296:2297   */\n      dup2\n        /* \"#utility.yul\":2228:2294   */\n      0xffffffffffffffffffffffffffffffffffffffffffffffffffffffffffffffff\n        /* \"#utility.yul\":2224:2298   */\n      div\n        /* \"#utility.yul\":2221:2222   */\n      dup4\n        /* \"#utility.yul\":2218:2299   */\n      gt\n        /* \"#utility.yul\":2213:2214   */\n      dup3\n        /* \"#utility.yul\":2206:2215   */\n      iszero\n        /* \"#utility.yul\":2199:2216   */\n      iszero\n        /* \"#utility.yul\":2195:2300   */\n      and\n        /* \"#utility.yul\":2192:2323   */\n      iszero\n      tag_111\n      jumpi\n        /* \"#utility.yul\":2303:2321   */\n      tag_112\n      tag_113\n      jump\t// in\n    tag_112:\n        /* \"#utility.yul\":2192:2323   */\n    tag_111:\n        /* \"#utility.yul\":2351:2352   */\n      dup3\n        /* \"#utility.yul\":2348:2349   */\n      dup3\n        /* \"#utility.yul\":2344:2353   */\n      mul\n        /* \"#utility.yul\":2333:2353   */\n      swap1\n      pop\n        /* \"#utility.yul\":2011:2359   */\n      swap3\n      swap2\n      pop\n      pop\n      jump\t// out\n        /* \"#utility.yul\":2365:2461   */\n    tag_79:\n        /* \"#utility.yul\":2402:2409   */\n      0x00\n        /* \"#utility.yul\":2431:2455   */\n      tag_115\n        /* \"#utility.yul\":2449:2454   */\n      dup3\n        /* \"#utility.yul\":2431:2455   */\n      tag_116\n      jump\t// in\n    tag_115:\n        /* \"#utility.yul\":2420:2455   */\n      swap1\n      pop\n        /* \"#utility.yul\":2365:2461   */\n      swap2\n      swap1\n      pop\n      jump\t// out\n        /* \"#utility.yul\":2467:2557   */\n    tag_83:\n        /* \"#utility.yul\":2501:2508   */\n      0x00\n        /* \"#utility.yul\":2544:2549   */\n      dup2\n        /* \"#utility.yul\":2537:2550   */\n      iszero\n        /* \"#utility.yul\":2530:2551   */\n      iszero\n        /* \"#utility.yul\":2519:2551   */\n      swap1\n      pop\n        /* \"#utility.yul\":2467:2557   */\n      swap2\n      swap1\n      pop\n      jump\t// out\n        /* \"#utility.yul\":2563:2689   */\n    tag_116:\n        /* \"#utility.yul\":2600:2607   */\n      0x00\n        /* \"#utility.yul\":2640:2682   */\n      0xffffffffffffffffffffffffffffffffffffffff\n        /* \"#utility.yul\":2633:2638   */\n      dup3\n        /* \"#utility.yul\":2629:2683   */\n      and\n        /* \"#utility.yul\":2618:2683   */\n      swap1\n      pop\n        /* \"#utility.yul\":2563:2689   */\n      swap2\n      swap1\n      pop\n      jump\t// out\n        /* \"#utility.yul\":2695:2772   */\n    tag_97:\n        /* \"#utility.yul\":2732:2739   */\n      0x00\n        /* \"#utility.yul\":2761:2766   */\n      dup2\n        /* \"#utility.yul\":2750:2766   */\n      swap1\n      pop\n        /* \"#utility.yul\":2695:2772   */\n      swap2\n      swap1\n      pop\n      jump\t// out\n        /* \"#utility.yul\":2778:3085   */\n    tag_91:\n        /* \"#utility.yul\":2846:2847   */\n      0x00\n        /* \"#utility.yul\":2856:2969   */\n    tag_121:\n        /* \"#utility.yul\":2870:2876   */\n      dup4\n        /* \"#utility.yul\":2867:2868   */\n      dup2\n        /* \"#utility.yul\":2864:2877   */\n      lt\n        /* \"#utility.yul\":2856:2969   */\n      iszero\n      tag_123\n      jumpi\n        /* \"#utility.yul\":2955:2956   */\n      dup1\n        /* \"#utility.yul\":2950:2953   */\n      dup3\n        /* \"#utility.yul\":2946:2957   */\n      add\n        /* \"#utility.yul\":2940:2958   */\n      mload\n        /* \"#utility.yul\":2936:2937   */\n      dup2\n        /* \"#utility.yul\":2931:2934   */\n      dup5\n        /* \"#utility.yul\":2927:2938   */\n      add\n        /* \"#utility.yul\":2920:2959   */\n      mstore\n        /* \"#utility.yul\":2892:2894   */\n      0x20\n        /* \"#utility.yul\":2889:2890   */\n      dup2\n        /* \"#utility.yul\":2885:2895   */\n      add\n        /* \"#utility.yul\":2880:2895   */\n      swap1\n      pop\n        /* \"#utility.yul\":2856:2969   */\n      jump(tag_121)\n    tag_123:\n        /* \"#utility.yul\":2987:2993   */\n      dup4\n        /* \"#utility.yul\":2984:2985   */\n      dup2\n        /* \"#utility.yul\":2981:2994   */\n      gt\n        /* \"#utility.yul\":2978:3079   */\n      iszero\n      tag_124\n      jumpi\n        /* \"#utility.yul\":3067:3068   */\n      0x00\n        /* \"#utility.yul\":3058:3064   */\n      dup5\n        /* \"#utility.yul\":3053:3056   */\n      dup5\n        /* \"#utility.yul\":3049:3065   */\n      add\n        /* \"#utility.yul\":3042:3069   */\n      mstore\n        /* \"#utility.yul\":2978:3079   */\n    tag_124:\n        /* \"#utility.yul\":2827:3085   */\n      pop\n        /* \"#utility.yul\":2778:3085   */\n      pop\n      pop\n      pop\n      jump\t// out\n        /* \"#utility.yul\":3091:3411   */\n    tag_62:\n        /* \"#utility.yul\":3135:3141   */\n      0x00\n        /* \"#utility.yul\":3172:3173   */\n      0x02\n        /* \"#utility.yul\":3166:3170   */\n      dup3\n        /* \"#utility.yul\":3162:3174   */\n      div\n        /* \"#utility.yul\":3152:3174   */\n      swap1\n      pop\n        /* \"#utility.yul\":3219:3220   */\n      0x01\n        /* \"#utility.yul\":3213:3217   */\n      dup3\n        /* \"#utility.yul\":3209:3221   */\n      and\n        /* \"#utility.yul\":3240:3258   */\n      dup1\n        /* \"#utility.yul\":3230:3311   */\n      tag_126\n      jumpi\n        /* \"#utility.yul\":3296:3300   */\n      0x7f\n        /* \"#utility.yul\":3288:3294   */\n      dup3\n        /* \"#utility.yul\":3284:3301   */\n      and\n        /* \"#utility.yul\":3274:3301   */\n      swap2\n      pop\n        /* \"#utility.yul\":3230:3311   */\n    tag_126:\n        /* \"#utility.yul\":3358:3360   */\n      0x20\n        /* \"#utility.yul\":3350:3356   */\n      dup3\n        /* \"#utility.yul\":3347:3361   */\n      lt\n        /* \"#utility.yul\":3327:3345   */\n      dup2\n        /* \"#utility.yul\":3324:3362   */\n      eq\n        /* \"#utility.yul\":3321:3405   */\n      iszero\n      tag_127\n      jumpi\n        /* \"#utility.yul\":3377:3395   */\n      tag_128\n      tag_129\n      jump\t// in\n    tag_128:\n        /* \"#utility.yul\":3321:3405   */\n    tag_127:\n        /* \"#utility.yul\":3142:3411   */\n      pop\n        /* \"#utility.yul\":3091:3411   */\n      swap2\n      swap1\n      pop\n      jump\t// out\n        /* \"#utility.yul\":3417:3597   */\n    tag_113:\n        /* \"#utility.yul\":3465:3542   */\n      0x4e487b7100000000000000000000000000000000000000000000000000000000\n        /* \"#utility.yul\":3462:3463   */\n      0x00\n        /* \"#utility.yul\":3455:3543   */\n      mstore\n        /* \"#utility.yul\":3562:3566   */\n      0x11\n        /* \"#utility.yul\":3559:3560   */\n      0x04\n        /* \"#utility.yul\":3552:3567   */\n      mstore\n        /* \"#utility.yul\":3586:3590   */\n      0x24\n        /* \"#utility.yul\":3583:3584   */\n      0x00\n        /* \"#utility.yul\":3576:3591   */\n      revert\n        /* \"#utility.yul\":3603:3783   */\n    tag_129:\n        /* \"#utility.yul\":3651:3728   */\n      0x4e487b7100000000000000000000000000000000000000000000000000000000\n        /* \"#utility.yul\":3648:3649   */\n      0x00\n        /* \"#utility.yul\":3641:3729   */\n      mstore\n        /* \"#utility.yul\":3748:3752   */\n      0x22\n        /* \"#utility.yul\":3745:3746   */\n      0x04\n        /* \"#utility.yul\":3738:3753   */\n      mstore\n        /* \"#utility.yul\":3772:3776   */\n      0x24\n        /* \"#utility.yul\":3769:3770   */\n      0x00\n        /* \"#utility.yul\":3762:3777   */\n      revert\n        /* \"#utility.yul\":3789:3891   */\n    tag_93:\n        /* \"#utility.yul\":3830:3836   */\n      0x00\n        /* \"#utility.yul\":3881:3883   */\n      0x1f\n        /* \"#utility.yul\":3877:3884   */\n      not\n        /* \"#utility.yul\":3872:3874   */\n      0x1f\n        /* \"#utility.yul\":3865:3870   */\n      dup4\n        /* \"#utility.yul\":3861:3875   */\n      add\n        /* \"#utility.yul\":3857:3885   */\n      and\n        /* \"#utility.yul\":3847:3885   */\n      swap1\n      pop\n        /* \"#utility.yul\":3789:3891   */\n      swap2\n      swap1\n      pop\n      jump\t// out\n\n    auxdata: 0xa2646970667358221220b58a371416db62d69f87579a9dbd8d6a9267ae9ee96070736e7fa9136ab06bb564736f6c63430008070033\n}\n",
				"bytecode": {
					"linkReferences": {},
					"object": "60806040526040518060400160405280600a81526020017f636f6e646974696f6e73000000000000000000000000000000000000000000008152506006908051906020019062000051929190620001d8565b506000600760006101000a81548160ff0219169083151502179055506000600760016101000a81548160ff0219169083151502179055503480156200009557600080fd5b5060405162000b3738038062000b378339818101604052810190620000bb9190620002b6565b856000806101000a81548173ffffffffffffffffffffffffffffffffffffffff021916908373ffffffffffffffffffffffffffffffffffffffff16021790555084600260006101000a81548173ffffffffffffffffffffffffffffffffffffffff021916908373ffffffffffffffffffffffffffffffffffffffff16021790555083600160006101000a81548173ffffffffffffffffffffffffffffffffffffffff021916908373ffffffffffffffffffffffffffffffffffffffff16021790555082600360006101000a81548173ffffffffffffffffffffffffffffffffffffffff021916908373ffffffffffffffffffffffffffffffffffffffff16021790555081600481905550806005819055505050505050506200042e565b828054620001e69062000390565b90600052602060002090601f0160209004810192826200020a576000855562000256565b82601f106200022557805160ff191683800117855562000256565b8280016001018555821562000256579182015b828111156200025557825182559160200191906001019062000238565b5b50905062000265919062000269565b5090565b5b80821115620002845760008160009055506001016200026a565b5090565b6000815190506200029981620003fa565b92915050565b600081519050620002b08162000414565b92915050565b60008060008060008060c08789031215620002d657620002d5620003f5565b5b6000620002e689828a0162000288565b9650506020620002f989828a0162000288565b95505060406200030c89828a0162000288565b94505060606200031f89828a0162000288565b93505060806200033289828a016200029f565b92505060a06200034589828a016200029f565b9150509295509295509295565b60006200035f8262000366565b9050919050565b600073ffffffffffffffffffffffffffffffffffffffff82169050919050565b6000819050919050565b60006002820490506001821680620003a957607f821691505b60208210811415620003c057620003bf620003c6565b5b50919050565b7f4e487b7100000000000000000000000000000000000000000000000000000000600052602260045260246000fd5b600080fd5b620004058162000352565b81146200041157600080fd5b50565b6200041f8162000386565b81146200042b57600080fd5b50565b6106f9806200043e6000396000f3fe608060405234801561001057600080fd5b50600436106100ce5760003560e01c80638c76fcd01161008c578063bc3fb50f11610066578063bc3fb50f146101cd578063d367900c146101eb578063d456919b146101f5578063e640281414610213576100ce565b80638c76fcd01461017357806396bdae2714610191578063ad16a96c146101af576100ce565b80625c33e1146100d357806312137227146100dd57806326e0c5ae146100fb57806338cc4831146101195780637a471bdd14610137578063873e975514610155575b600080fd5b6100db610231565b005b6100e5610286565b6040516100f291906104f4565b60405180910390f35b610103610314565b60405161011091906104d9565b60405180910390f35b61012161032b565b60405161012e91906104be565b60405180910390f35b61013f610333565b60405161014c9190610516565b60405180910390f35b61015d610339565b60405161016a91906104be565b60405180910390f35b61017b61035f565b60405161018891906104be565b60405180910390f35b610199610383565b6040516101a69190610516565b60405180910390f35b6101b7610389565b6040516101c49190610516565b60405180910390f35b6101d56103a0565b6040516101e291906104d9565b60405180910390f35b6101f36103b7565b005b6101fd61040c565b60405161020a91906104be565b60405180910390f35b61021b610432565b60405161022891906104be565b60405180910390f35b6001600760016101000a81548160ff0219169083151502179055507f8e3b3889734d6fe63fecbc5eafa9599da61b9ac58ff46e6158dec000f785d316600160405161027c91906104d9565b60405180910390a1565b6006805461029390610622565b80601f01602080910402602001604051908101604052809291908181526020018280546102bf90610622565b801561030c5780601f106102e15761010080835404028352916020019161030c565b820191906000526020600020905b8154815290600101906020018083116102ef57829003601f168201915b505050505081565b6000600760019054906101000a900460ff16905090565b600030905090565b60045481565b600160009054906101000a900473ffffffffffffffffffffffffffffffffffffffff1681565b60008054906101000a900473ffffffffffffffffffffffffffffffffffffffff1681565b60055481565b600060045460055461039b919061054d565b905090565b6000600760009054906101000a900460ff16905090565b6001600760006101000a81548160ff0219169083151502179055507f6d2d0fa70c274e01985a105185152492999391b6fdf5f757a31e1d4fb4740ad4600160405161040291906104d9565b60405180910390a1565b600260009054906101000a900473ffffffffffffffffffffffffffffffffffffffff1681565b600360009054906101000a900473ffffffffffffffffffffffffffffffffffffffff1681565b610461816105a7565b82525050565b610470816105b9565b82525050565b600061048182610531565b61048b818561053c565b935061049b8185602086016105ef565b6104a4816106b2565b840191505092915050565b6104b8816105e5565b82525050565b60006020820190506104d36000830184610458565b92915050565b60006020820190506104ee6000830184610467565b92915050565b6000602082019050818103600083015261050e8184610476565b905092915050565b600060208201905061052b60008301846104af565b92915050565b600081519050919050565b600082825260208201905092915050565b6000610558826105e5565b9150610563836105e5565b9250817fffffffffffffffffffffffffffffffffffffffffffffffffffffffffffffffff048311821515161561059c5761059b610654565b5b828202905092915050565b60006105b2826105c5565b9050919050565b60008115159050919050565b600073ffffffffffffffffffffffffffffffffffffffff82169050919050565b6000819050919050565b60005b8381101561060d5780820151818401526020810190506105f2565b8381111561061c576000848401525b50505050565b6000600282049050600182168061063a57607f821691505b6020821081141561064e5761064d610683565b5b50919050565b7f4e487b7100000000000000000000000000000000000000000000000000000000600052601160045260246000fd5b7f4e487b7100000000000000000000000000000000000000000000000000000000600052602260045260246000fd5b6000601f19601f830116905091905056fea2646970667358221220b58a371416db62d69f87579a9dbd8d6a9267ae9ee96070736e7fa9136ab06bb564736f6c63430008070033",
					"opcodes": "PUSH1 0x80 PUSH1 0x40 MSTORE PUSH1 0x40 MLOAD DUP1 PUSH1 0x40 ADD PUSH1 0x40 MSTORE DUP1 PUSH1 0xA DUP2 MSTORE PUSH1 0x20 ADD PUSH32 0x636F6E646974696F6E7300000000000000000000000000000000000000000000 DUP2 MSTORE POP PUSH1 0x6 SWAP1 DUP1 MLOAD SWAP1 PUSH1 0x20 ADD SWAP1 PUSH3 0x51 SWAP3 SWAP2 SWAP1 PUSH3 0x1D8 JUMP JUMPDEST POP PUSH1 0x0 PUSH1 0x7 PUSH1 0x0 PUSH2 0x100 EXP DUP2 SLOAD DUP2 PUSH1 0xFF MUL NOT AND SWAP1 DUP4 ISZERO ISZERO MUL OR SWAP1 SSTORE POP PUSH1 0x0 PUSH1 0x7 PUSH1 0x1 PUSH2 0x100 EXP DUP2 SLOAD DUP2 PUSH1 0xFF MUL NOT AND SWAP1 DUP4 ISZERO ISZERO MUL OR SWAP1 SSTORE POP CALLVALUE DUP1 ISZERO PUSH3 0x95 JUMPI PUSH1 0x0 DUP1 REVERT JUMPDEST POP PUSH1 0x40 MLOAD PUSH3 0xB37 CODESIZE SUB DUP1 PUSH3 0xB37 DUP4 CODECOPY DUP2 DUP2 ADD PUSH1 0x40 MSTORE DUP2 ADD SWAP1 PUSH3 0xBB SWAP2 SWAP1 PUSH3 0x2B6 JUMP JUMPDEST DUP6 PUSH1 0x0 DUP1 PUSH2 0x100 EXP DUP2 SLOAD DUP2 PUSH20 0xFFFFFFFFFFFFFFFFFFFFFFFFFFFFFFFFFFFFFFFF MUL NOT AND SWAP1 DUP4 PUSH20 0xFFFFFFFFFFFFFFFFFFFFFFFFFFFFFFFFFFFFFFFF AND MUL OR SWAP1 SSTORE POP DUP5 PUSH1 0x2 PUSH1 0x0 PUSH2 0x100 EXP DUP2 SLOAD DUP2 PUSH20 0xFFFFFFFFFFFFFFFFFFFFFFFFFFFFFFFFFFFFFFFF MUL NOT AND SWAP1 DUP4 PUSH20 0xFFFFFFFFFFFFFFFFFFFFFFFFFFFFFFFFFFFFFFFF AND MUL OR SWAP1 SSTORE POP DUP4 PUSH1 0x1 PUSH1 0x0 PUSH2 0x100 EXP DUP2 SLOAD DUP2 PUSH20 0xFFFFFFFFFFFFFFFFFFFFFFFFFFFFFFFFFFFFFFFF MUL NOT AND SWAP1 DUP4 PUSH20 0xFFFFFFFFFFFFFFFFFFFFFFFFFFFFFFFFFFFFFFFF AND MUL OR SWAP1 SSTORE POP DUP3 PUSH1 0x3 PUSH1 0x0 PUSH2 0x100 EXP DUP2 SLOAD DUP2 PUSH20 0xFFFFFFFFFFFFFFFFFFFFFFFFFFFFFFFFFFFFFFFF MUL NOT AND SWAP1 DUP4 PUSH20 0xFFFFFFFFFFFFFFFFFFFFFFFFFFFFFFFFFFFFFFFF AND MUL OR SWAP1 SSTORE POP DUP2 PUSH1 0x4 DUP2 SWAP1 SSTORE POP DUP1 PUSH1 0x5 DUP2 SWAP1 SSTORE POP POP POP POP POP POP POP PUSH3 0x42E JUMP JUMPDEST DUP3 DUP1 SLOAD PUSH3 0x1E6 SWAP1 PUSH3 0x390 JUMP JUMPDEST SWAP1 PUSH1 0x0 MSTORE PUSH1 0x20 PUSH1 0x0 KECCAK256 SWAP1 PUSH1 0x1F ADD PUSH1 0x20 SWAP1 DIV DUP2 ADD SWAP3 DUP3 PUSH3 0x20A JUMPI PUSH1 0x0 DUP6 SSTORE PUSH3 0x256 JUMP JUMPDEST DUP3 PUSH1 0x1F LT PUSH3 0x225 JUMPI DUP1 MLOAD PUSH1 0xFF NOT AND DUP4 DUP1 ADD OR DUP6 SSTORE PUSH3 0x256 JUMP JUMPDEST DUP3 DUP1 ADD PUSH1 0x1 ADD DUP6 SSTORE DUP3 ISZERO PUSH3 0x256 JUMPI SWAP2 DUP3 ADD JUMPDEST DUP3 DUP2 GT ISZERO PUSH3 0x255 JUMPI DUP3 MLOAD DUP3 SSTORE SWAP2 PUSH1 0x20 ADD SWAP2 SWAP1 PUSH1 0x1 ADD SWAP1 PUSH3 0x238 JUMP JUMPDEST JUMPDEST POP SWAP1 POP PUSH3 0x265 SWAP2 SWAP1 PUSH3 0x269 JUMP JUMPDEST POP SWAP1 JUMP JUMPDEST JUMPDEST DUP1 DUP3 GT ISZERO PUSH3 0x284 JUMPI PUSH1 0x0 DUP2 PUSH1 0x0 SWAP1 SSTORE POP PUSH1 0x1 ADD PUSH3 0x26A JUMP JUMPDEST POP SWAP1 JUMP JUMPDEST PUSH1 0x0 DUP2 MLOAD SWAP1 POP PUSH3 0x299 DUP2 PUSH3 0x3FA JUMP JUMPDEST SWAP3 SWAP2 POP POP JUMP JUMPDEST PUSH1 0x0 DUP2 MLOAD SWAP1 POP PUSH3 0x2B0 DUP2 PUSH3 0x414 JUMP JUMPDEST SWAP3 SWAP2 POP POP JUMP JUMPDEST PUSH1 0x0 DUP1 PUSH1 0x0 DUP1 PUSH1 0x0 DUP1 PUSH1 0xC0 DUP8 DUP10 SUB SLT ISZERO PUSH3 0x2D6 JUMPI PUSH3 0x2D5 PUSH3 0x3F5 JUMP JUMPDEST JUMPDEST PUSH1 0x0 PUSH3 0x2E6 DUP10 DUP3 DUP11 ADD PUSH3 0x288 JUMP JUMPDEST SWAP7 POP POP PUSH1 0x20 PUSH3 0x2F9 DUP10 DUP3 DUP11 ADD PUSH3 0x288 JUMP JUMPDEST SWAP6 POP POP PUSH1 0x40 PUSH3 0x30C DUP10 DUP3 DUP11 ADD PUSH3 0x288 JUMP JUMPDEST SWAP5 POP POP PUSH1 0x60 PUSH3 0x31F DUP10 DUP3 DUP11 ADD PUSH3 0x288 JUMP JUMPDEST SWAP4 POP POP PUSH1 0x80 PUSH3 0x332 DUP10 DUP3 DUP11 ADD PUSH3 0x29F JUMP JUMPDEST SWAP3 POP POP PUSH1 0xA0 PUSH3 0x345 DUP10 DUP3 DUP11 ADD PUSH3 0x29F JUMP JUMPDEST SWAP2 POP POP SWAP3 SWAP6 POP SWAP3 SWAP6 POP SWAP3 SWAP6 JUMP JUMPDEST PUSH1 0x0 PUSH3 0x35F DUP3 PUSH3 0x366 JUMP JUMPDEST SWAP1 POP SWAP2 SWAP1 POP JUMP JUMPDEST PUSH1 0x0 PUSH20 0xFFFFFFFFFFFFFFFFFFFFFFFFFFFFFFFFFFFFFFFF DUP3 AND SWAP1 POP SWAP2 SWAP1 POP JUMP JUMPDEST PUSH1 0x0 DUP2 SWAP1 POP SWAP2 SWAP1 POP JUMP JUMPDEST PUSH1 0x0 PUSH1 0x2 DUP3 DIV SWAP1 POP PUSH1 0x1 DUP3 AND DUP1 PUSH3 0x3A9 JUMPI PUSH1 0x7F DUP3 AND SWAP2 POP JUMPDEST PUSH1 0x20 DUP3 LT DUP2 EQ ISZERO PUSH3 0x3C0 JUMPI PUSH3 0x3BF PUSH3 0x3C6 JUMP JUMPDEST JUMPDEST POP SWAP2 SWAP1 POP JUMP JUMPDEST PUSH32 0x4E487B7100000000000000000000000000000000000000000000000000000000 PUSH1 0x0 MSTORE PUSH1 0x22 PUSH1 0x4 MSTORE PUSH1 0x24 PUSH1 0x0 REVERT JUMPDEST PUSH1 0x0 DUP1 REVERT JUMPDEST PUSH3 0x405 DUP2 PUSH3 0x352 JUMP JUMPDEST DUP2 EQ PUSH3 0x411 JUMPI PUSH1 0x0 DUP1 REVERT JUMPDEST POP JUMP JUMPDEST PUSH3 0x41F DUP2 PUSH3 0x386 JUMP JUMPDEST DUP2 EQ PUSH3 0x42B JUMPI PUSH1 0x0 DUP1 REVERT JUMPDEST POP JUMP JUMPDEST PUSH2 0x6F9 DUP1 PUSH3 0x43E PUSH1 0x0 CODECOPY PUSH1 0x0 RETURN INVALID PUSH1 0x80 PUSH1 0x40 MSTORE CALLVALUE DUP1 ISZERO PUSH2 0x10 JUMPI PUSH1 0x0 DUP1 REVERT JUMPDEST POP PUSH1 0x4 CALLDATASIZE LT PUSH2 0xCE JUMPI PUSH1 0x0 CALLDATALOAD PUSH1 0xE0 SHR DUP1 PUSH4 0x8C76FCD0 GT PUSH2 0x8C JUMPI DUP1 PUSH4 0xBC3FB50F GT PUSH2 0x66 JUMPI DUP1 PUSH4 0xBC3FB50F EQ PUSH2 0x1CD JUMPI DUP1 PUSH4 0xD367900C EQ PUSH2 0x1EB JUMPI DUP1 PUSH4 0xD456919B EQ PUSH2 0x1F5 JUMPI DUP1 PUSH4 0xE6402814 EQ PUSH2 0x213 JUMPI PUSH2 0xCE JUMP JUMPDEST DUP1 PUSH4 0x8C76FCD0 EQ PUSH2 0x173 JUMPI DUP1 PUSH4 0x96BDAE27 EQ PUSH2 0x191 JUMPI DUP1 PUSH4 0xAD16A96C EQ PUSH2 0x1AF JUMPI PUSH2 0xCE JUMP JUMPDEST DUP1 PUSH3 0x5C33E1 EQ PUSH2 0xD3 JUMPI DUP1 PUSH4 0x12137227 EQ PUSH2 0xDD JUMPI DUP1 PUSH4 0x26E0C5AE EQ PUSH2 0xFB JUMPI DUP1 PUSH4 0x38CC4831 EQ PUSH2 0x119 JUMPI DUP1 PUSH4 0x7A471BDD EQ PUSH2 0x137 JUMPI DUP1 PUSH4 0x873E9755 EQ PUSH2 0x155 JUMPI JUMPDEST PUSH1 0x0 DUP1 REVERT JUMPDEST PUSH2 0xDB PUSH2 0x231 JUMP JUMPDEST STOP JUMPDEST PUSH2 0xE5 PUSH2 0x286 JUMP JUMPDEST PUSH1 0x40 MLOAD PUSH2 0xF2 SWAP2 SWAP1 PUSH2 0x4F4 JUMP JUMPDEST PUSH1 0x40 MLOAD DUP1 SWAP2 SUB SWAP1 RETURN JUMPDEST PUSH2 0x103 PUSH2 0x314 JUMP JUMPDEST PUSH1 0x40 MLOAD PUSH2 0x110 SWAP2 SWAP1 PUSH2 0x4D9 JUMP JUMPDEST PUSH1 0x40 MLOAD DUP1 SWAP2 SUB SWAP1 RETURN JUMPDEST PUSH2 0x121 PUSH2 0x32B JUMP JUMPDEST PUSH1 0x40 MLOAD PUSH2 0x12E SWAP2 SWAP1 PUSH2 0x4BE JUMP JUMPDEST PUSH1 0x40 MLOAD DUP1 SWAP2 SUB SWAP1 RETURN JUMPDEST PUSH2 0x13F PUSH2 0x333 JUMP JUMPDEST PUSH1 0x40 MLOAD PUSH2 0x14C SWAP2 SWAP1 PUSH2 0x516 JUMP JUMPDEST PUSH1 0x40 MLOAD DUP1 SWAP2 SUB SWAP1 RETURN JUMPDEST PUSH2 0x15D PUSH2 0x339 JUMP JUMPDEST PUSH1 0x40 MLOAD PUSH2 0x16A SWAP2 SWAP1 PUSH2 0x4BE JUMP JUMPDEST PUSH1 0x40 MLOAD DUP1 SWAP2 SUB SWAP1 RETURN JUMPDEST PUSH2 0x17B PUSH2 0x35F JUMP JUMPDEST PUSH1 0x40 MLOAD PUSH2 0x188 SWAP2 SWAP1 PUSH2 0x4BE JUMP JUMPDEST PUSH1 0x40 MLOAD DUP1 SWAP2 SUB SWAP1 RETURN JUMPDEST PUSH2 0x199 PUSH2 0x383 JUMP JUMPDEST PUSH1 0x40 MLOAD PUSH2 0x1A6 SWAP2 SWAP1 PUSH2 0x516 JUMP JUMPDEST PUSH1 0x40 MLOAD DUP1 SWAP2 SUB SWAP1 RETURN JUMPDEST PUSH2 0x1B7 PUSH2 0x389 JUMP JUMPDEST PUSH1 0x40 MLOAD PUSH2 0x1C4 SWAP2 SWAP1 PUSH2 0x516 JUMP JUMPDEST PUSH1 0x40 MLOAD DUP1 SWAP2 SUB SWAP1 RETURN JUMPDEST PUSH2 0x1D5 PUSH2 0x3A0 JUMP JUMPDEST PUSH1 0x40 MLOAD PUSH2 0x1E2 SWAP2 SWAP1 PUSH2 0x4D9 JUMP JUMPDEST PUSH1 0x40 MLOAD DUP1 SWAP2 SUB SWAP1 RETURN JUMPDEST PUSH2 0x1F3 PUSH2 0x3B7 JUMP JUMPDEST STOP JUMPDEST PUSH2 0x1FD PUSH2 0x40C JUMP JUMPDEST PUSH1 0x40 MLOAD PUSH2 0x20A SWAP2 SWAP1 PUSH2 0x4BE JUMP JUMPDEST PUSH1 0x40 MLOAD DUP1 SWAP2 SUB SWAP1 RETURN JUMPDEST PUSH2 0x21B PUSH2 0x432 JUMP JUMPDEST PUSH1 0x40 MLOAD PUSH2 0x228 SWAP2 SWAP1 PUSH2 0x4BE JUMP JUMPDEST PUSH1 0x40 MLOAD DUP1 SWAP2 SUB SWAP1 RETURN JUMPDEST PUSH1 0x1 PUSH1 0x7 PUSH1 0x1 PUSH2 0x100 EXP DUP2 SLOAD DUP2 PUSH1 0xFF MUL NOT AND SWAP1 DUP4 ISZERO ISZERO MUL OR SWAP1 SSTORE POP PUSH32 0x8E3B3889734D6FE63FECBC5EAFA9599DA61B9AC58FF46E6158DEC000F785D316 PUSH1 0x1 PUSH1 0x40 MLOAD PUSH2 0x27C SWAP2 SWAP1 PUSH2 0x4D9 JUMP JUMPDEST PUSH1 0x40 MLOAD DUP1 SWAP2 SUB SWAP1 LOG1 JUMP JUMPDEST PUSH1 0x6 DUP1 SLOAD PUSH2 0x293 SWAP1 PUSH2 0x622 JUMP JUMPDEST DUP1 PUSH1 0x1F ADD PUSH1 0x20 DUP1 SWAP2 DIV MUL PUSH1 0x20 ADD PUSH1 0x40 MLOAD SWAP1 DUP2 ADD PUSH1 0x40 MSTORE DUP1 SWAP3 SWAP2 SWAP1 DUP2 DUP2 MSTORE PUSH1 0x20 ADD DUP3 DUP1 SLOAD PUSH2 0x2BF SWAP1 PUSH2 0x622 JUMP JUMPDEST DUP1 ISZERO PUSH2 0x30C JUMPI DUP1 PUSH1 0x1F LT PUSH2 0x2E1 JUMPI PUSH2 0x100 DUP1 DUP4 SLOAD DIV MUL DUP4 MSTORE SWAP2 PUSH1 0x20 ADD SWAP2 PUSH2 0x30C JUMP JUMPDEST DUP3 ADD SWAP2 SWAP1 PUSH1 0x0 MSTORE PUSH1 0x20 PUSH1 0x0 KECCAK256 SWAP1 JUMPDEST DUP2 SLOAD DUP2 MSTORE SWAP1 PUSH1 0x1 ADD SWAP1 PUSH1 0x20 ADD DUP1 DUP4 GT PUSH2 0x2EF JUMPI DUP3 SWAP1 SUB PUSH1 0x1F AND DUP3 ADD SWAP2 JUMPDEST POP POP POP POP POP DUP2 JUMP JUMPDEST PUSH1 0x0 PUSH1 0x7 PUSH1 0x1 SWAP1 SLOAD SWAP1 PUSH2 0x100 EXP SWAP1 DIV PUSH1 0xFF AND SWAP1 POP SWAP1 JUMP JUMPDEST PUSH1 0x0 ADDRESS SWAP1 POP SWAP1 JUMP JUMPDEST PUSH1 0x4 SLOAD DUP2 JUMP JUMPDEST PUSH1 0x1 PUSH1 0x0 SWAP1 SLOAD SWAP1 PUSH2 0x100 EXP SWAP1 DIV PUSH20 0xFFFFFFFFFFFFFFFFFFFFFFFFFFFFFFFFFFFFFFFF AND DUP2 JUMP JUMPDEST PUSH1 0x0 DUP1 SLOAD SWAP1 PUSH2 0x100 EXP SWAP1 DIV PUSH20 0xFFFFFFFFFFFFFFFFFFFFFFFFFFFFFFFFFFFFFFFF AND DUP2 JUMP JUMPDEST PUSH1 0x5 SLOAD DUP2 JUMP JUMPDEST PUSH1 0x0 PUSH1 0x4 SLOAD PUSH1 0x5 SLOAD PUSH2 0x39B SWAP2 SWAP1 PUSH2 0x54D JUMP JUMPDEST SWAP1 POP SWAP1 JUMP JUMPDEST PUSH1 0x0 PUSH1 0x7 PUSH1 0x0 SWAP1 SLOAD SWAP1 PUSH2 0x100 EXP SWAP1 DIV PUSH1 0xFF AND SWAP1 POP SWAP1 JUMP JUMPDEST PUSH1 0x1 PUSH1 0x7 PUSH1 0x0 PUSH2 0x100 EXP DUP2 SLOAD DUP2 PUSH1 0xFF MUL NOT AND SWAP1 DUP4 ISZERO ISZERO MUL OR SWAP1 SSTORE POP PUSH32 0x6D2D0FA70C274E01985A105185152492999391B6FDF5F757A31E1D4FB4740AD4 PUSH1 0x1 PUSH1 0x40 MLOAD PUSH2 0x402 SWAP2 SWAP1 PUSH2 0x4D9 JUMP JUMPDEST PUSH1 0x40 MLOAD DUP1 SWAP2 SUB SWAP1 LOG1 JUMP JUMPDEST PUSH1 0x2 PUSH1 0x0 SWAP1 SLOAD SWAP1 PUSH2 0x100 EXP SWAP1 DIV PUSH20 0xFFFFFFFFFFFFFFFFFFFFFFFFFFFFFFFFFFFFFFFF AND DUP2 JUMP JUMPDEST PUSH1 0x3 PUSH1 0x0 SWAP1 SLOAD SWAP1 PUSH2 0x100 EXP SWAP1 DIV PUSH20 0xFFFFFFFFFFFFFFFFFFFFFFFFFFFFFFFFFFFFFFFF AND DUP2 JUMP JUMPDEST PUSH2 0x461 DUP2 PUSH2 0x5A7 JUMP JUMPDEST DUP3 MSTORE POP POP JUMP JUMPDEST PUSH2 0x470 DUP2 PUSH2 0x5B9 JUMP JUMPDEST DUP3 MSTORE POP POP JUMP JUMPDEST PUSH1 0x0 PUSH2 0x481 DUP3 PUSH2 0x531 JUMP JUMPDEST PUSH2 0x48B DUP2 DUP6 PUSH2 0x53C JUMP JUMPDEST SWAP4 POP PUSH2 0x49B DUP2 DUP6 PUSH1 0x20 DUP7 ADD PUSH2 0x5EF JUMP JUMPDEST PUSH2 0x4A4 DUP2 PUSH2 0x6B2 JUMP JUMPDEST DUP5 ADD SWAP2 POP POP SWAP3 SWAP2 POP POP JUMP JUMPDEST PUSH2 0x4B8 DUP2 PUSH2 0x5E5 JUMP JUMPDEST DUP3 MSTORE POP POP JUMP JUMPDEST PUSH1 0x0 PUSH1 0x20 DUP3 ADD SWAP1 POP PUSH2 0x4D3 PUSH1 0x0 DUP4 ADD DUP5 PUSH2 0x458 JUMP JUMPDEST SWAP3 SWAP2 POP POP JUMP JUMPDEST PUSH1 0x0 PUSH1 0x20 DUP3 ADD SWAP1 POP PUSH2 0x4EE PUSH1 0x0 DUP4 ADD DUP5 PUSH2 0x467 JUMP JUMPDEST SWAP3 SWAP2 POP POP JUMP JUMPDEST PUSH1 0x0 PUSH1 0x20 DUP3 ADD SWAP1 POP DUP2 DUP2 SUB PUSH1 0x0 DUP4 ADD MSTORE PUSH2 0x50E DUP2 DUP5 PUSH2 0x476 JUMP JUMPDEST SWAP1 POP SWAP3 SWAP2 POP POP JUMP JUMPDEST PUSH1 0x0 PUSH1 0x20 DUP3 ADD SWAP1 POP PUSH2 0x52B PUSH1 0x0 DUP4 ADD DUP5 PUSH2 0x4AF JUMP JUMPDEST SWAP3 SWAP2 POP POP JUMP JUMPDEST PUSH1 0x0 DUP2 MLOAD SWAP1 POP SWAP2 SWAP1 POP JUMP JUMPDEST PUSH1 0x0 DUP3 DUP3 MSTORE PUSH1 0x20 DUP3 ADD SWAP1 POP SWAP3 SWAP2 POP POP JUMP JUMPDEST PUSH1 0x0 PUSH2 0x558 DUP3 PUSH2 0x5E5 JUMP JUMPDEST SWAP2 POP PUSH2 0x563 DUP4 PUSH2 0x5E5 JUMP JUMPDEST SWAP3 POP DUP2 PUSH32 0xFFFFFFFFFFFFFFFFFFFFFFFFFFFFFFFFFFFFFFFFFFFFFFFFFFFFFFFFFFFFFFFF DIV DUP4 GT DUP3 ISZERO ISZERO AND ISZERO PUSH2 0x59C JUMPI PUSH2 0x59B PUSH2 0x654 JUMP JUMPDEST JUMPDEST DUP3 DUP3 MUL SWAP1 POP SWAP3 SWAP2 POP POP JUMP JUMPDEST PUSH1 0x0 PUSH2 0x5B2 DUP3 PUSH2 0x5C5 JUMP JUMPDEST SWAP1 POP SWAP2 SWAP1 POP JUMP JUMPDEST PUSH1 0x0 DUP2 ISZERO ISZERO SWAP1 POP SWAP2 SWAP1 POP JUMP JUMPDEST PUSH1 0x0 PUSH20 0xFFFFFFFFFFFFFFFFFFFFFFFFFFFFFFFFFFFFFFFF DUP3 AND SWAP1 POP SWAP2 SWAP1 POP JUMP JUMPDEST PUSH1 0x0 DUP2 SWAP1 POP SWAP2 SWAP1 POP JUMP JUMPDEST PUSH1 0x0 JUMPDEST DUP4 DUP2 LT ISZERO PUSH2 0x60D JUMPI DUP1 DUP3 ADD MLOAD DUP2 DUP5 ADD MSTORE PUSH1 0x20 DUP2 ADD SWAP1 POP PUSH2 0x5F2 JUMP JUMPDEST DUP4 DUP2 GT ISZERO PUSH2 0x61C JUMPI PUSH1 0x0 DUP5 DUP5 ADD MSTORE JUMPDEST POP POP POP POP JUMP JUMPDEST PUSH1 0x0 PUSH1 0x2 DUP3 DIV SWAP1 POP PUSH1 0x1 DUP3 AND DUP1 PUSH2 0x63A JUMPI PUSH1 0x7F DUP3 AND SWAP2 POP JUMPDEST PUSH1 0x20 DUP3 LT DUP2 EQ ISZERO PUSH2 0x64E JUMPI PUSH2 0x64D PUSH2 0x683 JUMP JUMPDEST JUMPDEST POP SWAP2 SWAP1 POP JUMP JUMPDEST PUSH32 0x4E487B7100000000000000000000000000000000000000000000000000000000 PUSH1 0x0 MSTORE PUSH1 0x11 PUSH1 0x4 MSTORE PUSH1 0x24 PUSH1 0x0 REVERT JUMPDEST PUSH32 0x4E487B7100000000000000000000000000000000000000000000000000000000 PUSH1 0x0 MSTORE PUSH1 0x22 PUSH1 0x4 MSTORE PUSH1 0x24 PUSH1 0x0 REVERT JUMPDEST PUSH1 0x0 PUSH1 0x1F NOT PUSH1 0x1F DUP4 ADD AND SWAP1 POP SWAP2 SWAP1 POP JUMP INVALID LOG2 PUSH5 0x6970667358 0x22 SLT KECCAK256 0xB5 DUP11 CALLDATACOPY EQ AND 0xDB PUSH3 0xD69F87 JUMPI SWAP11 SWAP14 0xBD DUP14 PUSH11 0x9267AE9EE96070736E7FA9 SGT PUSH11 0xB06BB564736F6C63430008 SMOD STOP CALLER "
				},
				"gasEstimates": {
					"creation": {
						"codeDepositCost": "357000",
						"executionCost": "infinite",
						"totalCost": "infinite"
					},
					"external": {
						"FX_rate()": "2518",
						"beneficiaryBankID()": "2602",
						"beneficiaryID()": "2625",
						"checkBeneficiaryHasReceived()": "2574",
						"checkPayerHadPaid()": "2501",
						"getAddress()": "452",
						"getTransferAmountBasedOnExchangeRate()": "infinite",
						"payout_conditions()": "infinite",
						"receiveFunds()": "25659",
						"senderBankID()": "2580",
						"senderID()": "2534",
						"submitTransfer()": "25652",
						"transferamount()": "2474"
					}
				},
				"methodIdentifiers": {
					"FX_rate()": "7a471bdd",
					"beneficiaryBankID()": "e6402814",
					"beneficiaryID()": "873e9755",
					"checkBeneficiaryHasReceived()": "26e0c5ae",
					"checkPayerHadPaid()": "bc3fb50f",
					"getAddress()": "38cc4831",
					"getTransferAmountBasedOnExchangeRate()": "ad16a96c",
					"payout_conditions()": "12137227",
					"receiveFunds()": "005c33e1",
					"senderBankID()": "d456919b",
					"senderID()": "8c76fcd0",
					"submitTransfer()": "d367900c",
					"transferamount()": "96bdae27"
				}
			},
			"storageLayout": {
				"storage": [
					{
						"astId": 3,
						"contract": "contracts/GlobalPayment.sol:GlobalPaymentContract",
						"label": "senderID",
						"offset": 0,
						"slot": "0",
						"type": "t_address"
					},
					{
						"astId": 5,
						"contract": "contracts/GlobalPayment.sol:GlobalPaymentContract",
						"label": "beneficiaryID",
						"offset": 0,
						"slot": "1",
						"type": "t_address"
					},
					{
						"astId": 7,
						"contract": "contracts/GlobalPayment.sol:GlobalPaymentContract",
						"label": "senderBankID",
						"offset": 0,
						"slot": "2",
						"type": "t_address"
					},
					{
						"astId": 9,
						"contract": "contracts/GlobalPayment.sol:GlobalPaymentContract",
						"label": "beneficiaryBankID",
						"offset": 0,
						"slot": "3",
						"type": "t_address"
					},
					{
						"astId": 11,
						"contract": "contracts/GlobalPayment.sol:GlobalPaymentContract",
						"label": "FX_rate",
						"offset": 0,
						"slot": "4",
						"type": "t_uint256"
					},
					{
						"astId": 13,
						"contract": "contracts/GlobalPayment.sol:GlobalPaymentContract",
						"label": "transferamount",
						"offset": 0,
						"slot": "5",
						"type": "t_uint256"
					},
					{
						"astId": 16,
						"contract": "contracts/GlobalPayment.sol:GlobalPaymentContract",
						"label": "payout_conditions",
						"offset": 0,
						"slot": "6",
						"type": "t_string_storage"
					},
					{
						"astId": 19,
						"contract": "contracts/GlobalPayment.sol:GlobalPaymentContract",
						"label": "payerHasPaid",
						"offset": 0,
						"slot": "7",
						"type": "t_bool"
					},
					{
						"astId": 22,
						"contract": "contracts/GlobalPayment.sol:GlobalPaymentContract",
						"label": "beneficiaryHasReceived",
						"offset": 1,
						"slot": "7",
						"type": "t_bool"
					}
				],
				"types": {
					"t_address": {
						"encoding": "inplace",
						"label": "address",
						"numberOfBytes": "20"
					},
					"t_bool": {
						"encoding": "inplace",
						"label": "bool",
						"numberOfBytes": "1"
					},
					"t_string_storage": {
						"encoding": "bytes",
						"label": "string",
						"numberOfBytes": "32"
					},
					"t_uint256": {
						"encoding": "inplace",
						"label": "uint256",
						"numberOfBytes": "32"
					}
				}
			},
			"userdoc": {
				"kind": "user",
				"methods": {},
				"version": 1
			}
		}
	}
}