{
	"data": {
		"bytecode": {
			"linkReferences": {},
			"object": "60806040523480156200001157600080fd5b50620000a8736616a4f8d35a2cbe3b4c0427c428bd3af3ca52fa6040518060400160405280600581526020017f456c6961730000000000000000000000000000000000000000000000000000008152506040518060400160405280600781526020017f44486f6f6768650000000000000000000000000000000000000000000000000081525060016103e8620001fa60201b60201c565b6200013e73cf305bd0861b5727fe08fefdf8fe93871cc4acc26040518060400160405280600381526020017f58616e00000000000000000000000000000000000000000000000000000000008152506040518060400160405280600481526020017f4d6165730000000000000000000000000000000000000000000000000000000081525060016103e8620001fa60201b60201c565b620001997352c9fc3556ea3a18628f4d156604e733015064c26040518060400160405280600381526020017f4b424300000000000000000000000000000000000000000000000000000000008152506200037260201b60201c565b620001f4733c5389b061c808eee0165866253097f02a39a3c86040518060400160405280600381526020017f494e4700000000000000000000000000000000000000000000000000000000008152506200037260201b60201c565b62000895565b60006200020d866200048a60201b60201c565b1262000250576040517f08c379a000000000000000000000000000000000000000000000000000000000815260040162000247906200071e565b60405180910390fd5b60006040518060a001604052808773ffffffffffffffffffffffffffffffffffffffff168152602001868152602001858152602001841515815260200183815250908060018154018082558091505060019003906000526020600020906005020160009091909190915060008201518160000160006101000a81548173ffffffffffffffffffffffffffffffffffffffff021916908373ffffffffffffffffffffffffffffffffffffffff16021790555060208201518160010190805190602001906200031f92919062000647565b5060408201518160020190805190602001906200033e92919062000647565b5060608201518160030160006101000a81548160ff0219169083151502179055506080820151816004015550505050505050565b600062000385836200056a60201b60201c565b12620003c8576040517f08c379a0000000000000000000000000000000000000000000000000000000008152600401620003bf906200071e565b60405180910390fd5b600160405180604001604052808473ffffffffffffffffffffffffffffffffffffffff16815260200183815250908060018154018082558091505060019003906000526020600020906002020160009091909190915060008201518160000160006101000a81548173ffffffffffffffffffffffffffffffffffffffff021916908373ffffffffffffffffffffffffffffffffffffffff16021790555060208201518160010190805190602001906200048392919062000647565b5050505050565b600080600080549050905060005b818110156200053f578373ffffffffffffffffffffffffffffffffffffffff1660008281548110620004cf57620004ce6200083d565b5b906000526020600020906005020160000160009054906101000a900473ffffffffffffffffffffffffffffffffffffffff1673ffffffffffffffffffffffffffffffffffffffff1614156200052957809250505062000565565b8080620005369062000791565b91505062000498565b507fffffffffffffffffffffffffffffffffffffffffffffffffffffffffffffffff9150505b919050565b600080600090505b6001805490508110156200061d578273ffffffffffffffffffffffffffffffffffffffff1660018281548110620005ae57620005ad6200083d565b5b906000526020600020906002020160000160009054906101000a900473ffffffffffffffffffffffffffffffffffffffff1673ffffffffffffffffffffffffffffffffffffffff16141562000607578091505062000642565b8080620006149062000791565b91505062000572565b507fffffffffffffffffffffffffffffffffffffffffffffffffffffffffffffffff90505b919050565b82805462000655906200075b565b90600052602060002090601f016020900481019282620006795760008555620006c5565b82601f106200069457805160ff1916838001178555620006c5565b82800160010185558215620006c5579182015b82811115620006c4578251825591602001919060010190620006a7565b5b509050620006d49190620006d8565b5090565b5b80821115620006f3576000816000905550600101620006d9565b5090565b600062000706600e8362000740565b915062000713826200086c565b602082019050919050565b600060208201905081810360008301526200073981620006f7565b9050919050565b600082825260208201905092915050565b6000819050919050565b600060028204905060018216806200077457607f821691505b602082108114156200078b576200078a6200080e565b5b50919050565b60006200079e8262000751565b91507fffffffffffffffffffffffffffffffffffffffffffffffffffffffffffffffff821415620007d457620007d3620007df565b5b600182019050919050565b7f4e487b7100000000000000000000000000000000000000000000000000000000600052601160045260246000fd5b7f4e487b7100000000000000000000000000000000000000000000000000000000600052602260045260246000fd5b7f4e487b7100000000000000000000000000000000000000000000000000000000600052603260045260246000fd5b7f416c726561647920657869737473000000000000000000000000000000000000600082015250565b61230880620008a56000396000f3fe60806040523480156200001157600080fd5b5060043610620000885760003560e01c8063640688ec1162000063578063640688ec14620001035780638c4389081462000123578063b1b322891462000143578063d1563da014620001635762000088565b806305726003146200008d5780631368536a14620000c35780635bffece114620000e3575b600080fd5b620000ab6004803603810190620000a5919062000d70565b62000199565b604051620000ba919062001338565b60405180910390f35b620000e16004803603810190620000db919062000f9c565b62000221565b005b620001016004803603810190620000fb919062000ed6565b6200030d565b005b6200012160048036038101906200011b919062000ff8565b6200047f565b005b6200014160048036038101906200013b919062000e70565b62000574565b005b6200016160048036038101906200015b919062000dd4565b62000686565b005b6200018160048036038101906200017b919062000d70565b620008d4565b60405162000190919062001248565b60405180910390f35b600080620001a783620009ed565b90506000811215620001f0576040517f08c379a0000000000000000000000000000000000000000000000000000000008152600401620001e790620012b0565b60405180910390fd5b6000818154811062000207576200020662001623565b5b906000526020600020906005020160040154915050919050565b60006200022e83620009ed565b9050600081121562000277576040517f08c379a00000000000000000000000000000000000000000000000000000000081526004016200026e90620012b0565b60405180910390fd5b8315620002c557816000828154811062000296576200029562001623565b5b90600052602060002090600502016004016000828254620002b891906200142d565b9250508190555062000307565b8160008281548110620002dd57620002dc62001623565b5b90600052602060002090600502016004016000828254620002ff9190620013d0565b925050819055505b50505050565b60006200031a86620009ed565b126200035d576040517f08c379a00000000000000000000000000000000000000000000000000000000081526004016200035490620012d2565b60405180910390fd5b60006040518060a001604052808773ffffffffffffffffffffffffffffffffffffffff168152602001868152602001858152602001841515815260200183815250908060018154018082558091505060019003906000526020600020906005020160009091909190915060008201518160000160006101000a81548173ffffffffffffffffffffffffffffffffffffffff021916908373ffffffffffffffffffffffffffffffffffffffff16021790555060208201518160010190805190602001906200042c92919062000baa565b5060408201518160020190805190602001906200044b92919062000baa565b5060608201518160030160006101000a81548160ff0219169083151502179055506080820151816004015550505050505050565b6200050e6001828473ffffffffffffffffffffffffffffffffffffffff1663ad16a96c6040518163ffffffff1660e01b815260040160206040518083038186803b158015620004cd57600080fd5b505afa158015620004e2573d6000803e3d6000fd5b505050506040513d601f19601f820116820180604052508101906200050891906200103f565b62000221565b8173ffffffffffffffffffffffffffffffffffffffff1663d367900c6040518163ffffffff1660e01b8152600401600060405180830381600087803b1580156200055757600080fd5b505af11580156200056c573d6000803e3d6000fd5b505050505050565b6000620005818362000acd565b12620005c4576040517f08c379a0000000000000000000000000000000000000000000000000000000008152600401620005bb90620012d2565b60405180910390fd5b600160405180604001604052808473ffffffffffffffffffffffffffffffffffffffff16815260200183815250908060018154018082558091505060019003906000526020600020906002020160009091909190915060008201518160000160006101000a81548173ffffffffffffffffffffffffffffffffffffffff021916908373ffffffffffffffffffffffffffffffffffffffff16021790555060208201518160010190805190602001906200067f92919062000baa565b5050505050565b6000620006938662000acd565b1215620006d7576040517f08c379a0000000000000000000000000000000000000000000000000000000008152600401620006ce906200126c565b60405180910390fd5b6000620006e48562000acd565b121562000728576040517f08c379a00000000000000000000000000000000000000000000000000000000081526004016200071f906200128e565b60405180910390fd5b60006200073587620009ed565b121562000779576040517f08c379a00000000000000000000000000000000000000000000000000000000081526004016200077090620012f4565b60405180910390fd5b60006200078684620009ed565b1215620007ca576040517f08c379a0000000000000000000000000000000000000000000000000000000008152600401620007c19062001316565b60405180910390fd5b6000868686868686604051620007e09062000c3b565b620007f196959493929190620011db565b604051809103906000f0801580156200080e573d6000803e3d6000fd5b5090507f34551f19ebd97b9a8971c4fff766382e1d196b9d3f7f38db0d7aa74d7e1526b08173ffffffffffffffffffffffffffffffffffffffff166338cc48316040518163ffffffff1660e01b815260040160206040518083038186803b1580156200087957600080fd5b505afa1580156200088e573d6000803e3d6000fd5b505050506040513d601f19601f82011682018060405250810190620008b4919062000da2565b604051620008c39190620011be565b60405180910390a150505050505050565b60606000620008e383620009ed565b905060008112156200092c576040517f08c379a00000000000000000000000000000000000000000000000000000000081526004016200092390620012b0565b60405180910390fd5b6000818154811062000943576200094262001623565b5b9060005260206000209060050201600101805462000961906200150b565b80601f01602080910402602001604051908101604052809291908181526020018280546200098f906200150b565b8015620009e05780601f10620009b457610100808354040283529160200191620009e0565b820191906000526020600020905b815481529060010190602001808311620009c257829003601f168201915b5050505050915050919050565b600080600080549050905060005b8181101562000aa2578373ffffffffffffffffffffffffffffffffffffffff166000828154811062000a325762000a3162001623565b5b906000526020600020906005020160000160009054906101000a900473ffffffffffffffffffffffffffffffffffffffff1673ffffffffffffffffffffffffffffffffffffffff16141562000a8c57809250505062000ac8565b808062000a999062001577565b915050620009fb565b507fffffffffffffffffffffffffffffffffffffffffffffffffffffffffffffffff9150505b919050565b600080600090505b60018054905081101562000b80578273ffffffffffffffffffffffffffffffffffffffff166001828154811062000b115762000b1062001623565b5b906000526020600020906002020160000160009054906101000a900473ffffffffffffffffffffffffffffffffffffffff1673ffffffffffffffffffffffffffffffffffffffff16141562000b6a578091505062000ba5565b808062000b779062001577565b91505062000ad5565b507fffffffffffffffffffffffffffffffffffffffffffffffffffffffffffffffff90505b919050565b82805462000bb8906200150b565b90600052602060002090601f01602090048101928262000bdc576000855562000c28565b82601f1062000bf757805160ff191683800117855562000c28565b8280016001018555821562000c28579182015b8281111562000c2757825182559160200191906001019062000c0a565b5b50905062000c37919062000c49565b5090565b610aa8806200182b83390190565b5b8082111562000c6457600081600090555060010162000c4a565b5090565b600062000c7f62000c79846200137e565b62001355565b90508281526020810184848401111562000c9e5762000c9d62001686565b5b62000cab848285620014c6565b509392505050565b60008135905062000cc481620017c2565b92915050565b60008151905062000cdb81620017c2565b92915050565b60008135905062000cf281620017dc565b92915050565b60008135905062000d0981620017f6565b92915050565b600082601f83011262000d275762000d2662001681565b5b813562000d3984826020860162000c68565b91505092915050565b60008135905062000d538162001810565b92915050565b60008151905062000d6a8162001810565b92915050565b60006020828403121562000d895762000d8862001690565b5b600062000d998482850162000cb3565b91505092915050565b60006020828403121562000dbb5762000dba62001690565b5b600062000dcb8482850162000cca565b91505092915050565b60008060008060008060c0878903121562000df45762000df362001690565b5b600062000e0489828a0162000cb3565b965050602062000e1789828a0162000cb3565b955050604062000e2a89828a0162000cb3565b945050606062000e3d89828a0162000cb3565b935050608062000e5089828a0162000d42565b92505060a062000e6389828a0162000d42565b9150509295509295509295565b6000806040838503121562000e8a5762000e8962001690565b5b600062000e9a8582860162000cb3565b925050602083013567ffffffffffffffff81111562000ebe5762000ebd6200168b565b5b62000ecc8582860162000d0f565b9150509250929050565b600080600080600060a0868803121562000ef55762000ef462001690565b5b600062000f058882890162000cb3565b955050602086013567ffffffffffffffff81111562000f295762000f286200168b565b5b62000f378882890162000d0f565b945050604086013567ffffffffffffffff81111562000f5b5762000f5a6200168b565b5b62000f698882890162000d0f565b935050606062000f7c8882890162000ce1565b925050608062000f8f8882890162000d42565b9150509295509295909350565b60008060006060848603121562000fb85762000fb762001690565b5b600062000fc88682870162000ce1565b935050602062000fdb8682870162000cb3565b925050604062000fee8682870162000d42565b9150509250925092565b6000806040838503121562001012576200101162001690565b5b6000620010228582860162000cf8565b9250506020620010358582860162000cb3565b9150509250929050565b60006020828403121562001058576200105762001690565b5b6000620010688482850162000d59565b91505092915050565b6200107c8162001468565b82525050565b60006200108f82620013b4565b6200109b8185620013bf565b9350620010ad818560208601620014d5565b620010b88162001695565b840191505092915050565b6000620010d2601c83620013bf565b9150620010df82620016a6565b602082019050919050565b6000620010f9602183620013bf565b91506200110682620016cf565b604082019050919050565b600062001120601983620013bf565b91506200112d826200171e565b602082019050919050565b600062001147600e83620013bf565b9150620011548262001747565b602082019050919050565b60006200116e601483620013bf565b91506200117b8262001770565b602082019050919050565b600062001195601983620013bf565b9150620011a28262001799565b602082019050919050565b620011b881620014bc565b82525050565b6000602082019050620011d5600083018462001071565b92915050565b600060c082019050620011f2600083018962001071565b62001201602083018862001071565b62001210604083018762001071565b6200121f606083018662001071565b6200122e6080830185620011ad565b6200123d60a0830184620011ad565b979650505050505050565b6000602082019050818103600083015262001264818462001082565b905092915050565b600060208201905081810360008301526200128781620010c3565b9050919050565b60006020820190508181036000830152620012a981620010ea565b9050919050565b60006020820190508181036000830152620012cb8162001111565b9050919050565b60006020820190508181036000830152620012ed8162001138565b9050919050565b600060208201905081810360008301526200130f816200115f565b9050919050565b60006020820190508181036000830152620013318162001186565b9050919050565b60006020820190506200134f6000830184620011ad565b92915050565b60006200136162001374565b90506200136f828262001541565b919050565b6000604051905090565b600067ffffffffffffffff8211156200139c576200139b62001652565b5b620013a78262001695565b9050602081019050919050565b600081519050919050565b600082825260208201905092915050565b6000620013dd82620014bc565b9150620013ea83620014bc565b9250827fffffffffffffffffffffffffffffffffffffffffffffffffffffffffffffffff03821115620014225762001421620015c5565b5b828201905092915050565b60006200143a82620014bc565b91506200144783620014bc565b9250828210156200145d576200145c620015c5565b5b828203905092915050565b600062001475826200149c565b9050919050565b60008115159050919050565b6000620014958262001468565b9050919050565b600073ffffffffffffffffffffffffffffffffffffffff82169050919050565b6000819050919050565b82818337600083830152505050565b60005b83811015620014f5578082015181840152602081019050620014d8565b8381111562001505576000848401525b50505050565b600060028204905060018216806200152457607f821691505b602082108114156200153b576200153a620015f4565b5b50919050565b6200154c8262001695565b810181811067ffffffffffffffff821117156200156e576200156d62001652565b5b80604052505050565b60006200158482620014bc565b91507fffffffffffffffffffffffffffffffffffffffffffffffffffffffffffffffff821415620015ba57620015b9620015c5565b5b600182019050919050565b7f4e487b7100000000000000000000000000000000000000000000000000000000600052601160045260246000fd5b7f4e487b7100000000000000000000000000000000000000000000000000000000600052602260045260246000fd5b7f4e487b7100000000000000000000000000000000000000000000000000000000600052603260045260246000fd5b7f4e487b7100000000000000000000000000000000000000000000000000000000600052604160045260246000fd5b600080fd5b600080fd5b600080fd5b600080fd5b6000601f19601f8301169050919050565b7f42616e6b206f662073656e64657220646f65736e277420657869737400000000600082015250565b7f42616e6b206f662062656e656669636961727920646f65736e2774206578697360008201527f7400000000000000000000000000000000000000000000000000000000000000602082015250565b7f5468697320706572736f6e20646f65736e277420657869737400000000000000600082015250565b7f416c726561647920657869737473000000000000000000000000000000000000600082015250565b7f53656e64657220646f65736e2774206578697374000000000000000000000000600082015250565b7f42656e656669636961727920646f65736e277420657869737400000000000000600082015250565b620017cd8162001468565b8114620017d957600080fd5b50565b620017e7816200147c565b8114620017f357600080fd5b50565b620018018162001488565b81146200180d57600080fd5b50565b6200181b81620014bc565b81146200182757600080fd5b5056fe60806040526040518060400160405280600a81526020017f636f6e646974696f6e73000000000000000000000000000000000000000000008152506006908051906020019062000051929190620001d8565b506000600760006101000a81548160ff0219169083151502179055506000600760016101000a81548160ff0219169083151502179055503480156200009557600080fd5b5060405162000aa838038062000aa88339818101604052810190620000bb9190620002b6565b856000806101000a81548173ffffffffffffffffffffffffffffffffffffffff021916908373ffffffffffffffffffffffffffffffffffffffff16021790555084600260006101000a81548173ffffffffffffffffffffffffffffffffffffffff021916908373ffffffffffffffffffffffffffffffffffffffff16021790555083600160006101000a81548173ffffffffffffffffffffffffffffffffffffffff021916908373ffffffffffffffffffffffffffffffffffffffff16021790555082600360006101000a81548173ffffffffffffffffffffffffffffffffffffffff021916908373ffffffffffffffffffffffffffffffffffffffff16021790555081600481905550806005819055505050505050506200042e565b828054620001e69062000390565b90600052602060002090601f0160209004810192826200020a576000855562000256565b82601f106200022557805160ff191683800117855562000256565b8280016001018555821562000256579182015b828111156200025557825182559160200191906001019062000238565b5b50905062000265919062000269565b5090565b5b80821115620002845760008160009055506001016200026a565b5090565b6000815190506200029981620003fa565b92915050565b600081519050620002b08162000414565b92915050565b60008060008060008060c08789031215620002d657620002d5620003f5565b5b6000620002e689828a0162000288565b9650506020620002f989828a0162000288565b95505060406200030c89828a0162000288565b94505060606200031f89828a0162000288565b93505060806200033289828a016200029f565b92505060a06200034589828a016200029f565b9150509295509295509295565b60006200035f8262000366565b9050919050565b600073ffffffffffffffffffffffffffffffffffffffff82169050919050565b6000819050919050565b60006002820490506001821680620003a957607f821691505b60208210811415620003c057620003bf620003c6565b5b50919050565b7f4e487b7100000000000000000000000000000000000000000000000000000000600052602260045260246000fd5b600080fd5b620004058162000352565b81146200041157600080fd5b50565b6200041f8162000386565b81146200042b57600080fd5b50565b61066a806200043e6000396000f3fe608060405234801561001057600080fd5b50600436106100a95760003560e01c806396bdae271161007157806396bdae271461014457806399d51b1514610162578063ad16a96c1461016c578063d367900c1461018a578063d456919b14610194578063e6402814146101b2576100a9565b806312137227146100ae57806338cc4831146100cc5780637a471bdd146100ea578063873e9755146101085780638c76fcd014610126575b600080fd5b6100b66101d0565b6040516100c39190610465565b60405180910390f35b6100d461025e565b6040516100e1919061042f565b60405180910390f35b6100f2610266565b6040516100ff9190610487565b60405180910390f35b61011061026c565b60405161011d919061042f565b60405180910390f35b61012e610292565b60405161013b919061042f565b60405180910390f35b61014c6102b6565b6040516101599190610487565b60405180910390f35b61016a6102bc565b005b610174610311565b6040516101819190610487565b60405180910390f35b610192610328565b005b61019c61037d565b6040516101a9919061042f565b60405180910390f35b6101ba6103a3565b6040516101c7919061042f565b60405180910390f35b600680546101dd90610593565b80601f016020809104026020016040519081016040528092919081815260200182805461020990610593565b80156102565780601f1061022b57610100808354040283529160200191610256565b820191906000526020600020905b81548152906001019060200180831161023957829003601f168201915b505050505081565b600030905090565b60045481565b600160009054906101000a900473ffffffffffffffffffffffffffffffffffffffff1681565b60008054906101000a900473ffffffffffffffffffffffffffffffffffffffff1681565b60055481565b6001600760006101000a81548160ff0219169083151502179055507fe7811334b3b5e674c7c0cbbc2e826fdf0a32a42441a762bc9faa63eca054b5f36001604051610307919061044a565b60405180910390a1565b600060045460055461032391906104be565b905090565b6001600760006101000a81548160ff0219169083151502179055507fe7811334b3b5e674c7c0cbbc2e826fdf0a32a42441a762bc9faa63eca054b5f36001604051610373919061044a565b60405180910390a1565b600260009054906101000a900473ffffffffffffffffffffffffffffffffffffffff1681565b600360009054906101000a900473ffffffffffffffffffffffffffffffffffffffff1681565b6103d281610518565b82525050565b6103e18161052a565b82525050565b60006103f2826104a2565b6103fc81856104ad565b935061040c818560208601610560565b61041581610623565b840191505092915050565b61042981610556565b82525050565b600060208201905061044460008301846103c9565b92915050565b600060208201905061045f60008301846103d8565b92915050565b6000602082019050818103600083015261047f81846103e7565b905092915050565b600060208201905061049c6000830184610420565b92915050565b600081519050919050565b600082825260208201905092915050565b60006104c982610556565b91506104d483610556565b9250817fffffffffffffffffffffffffffffffffffffffffffffffffffffffffffffffff048311821515161561050d5761050c6105c5565b5b828202905092915050565b600061052382610536565b9050919050565b60008115159050919050565b600073ffffffffffffffffffffffffffffffffffffffff82169050919050565b6000819050919050565b60005b8381101561057e578082015181840152602081019050610563565b8381111561058d576000848401525b50505050565b600060028204905060018216806105ab57607f821691505b602082108114156105bf576105be6105f4565b5b50919050565b7f4e487b7100000000000000000000000000000000000000000000000000000000600052601160045260246000fd5b7f4e487b7100000000000000000000000000000000000000000000000000000000600052602260045260246000fd5b6000601f19601f830116905091905056fea264697066735822122031c9d77ac812927f5012564925a364a9ea95e2a64dcd99a00e9f1e0ea94de4f264736f6c63430008070033a2646970667358221220fafbffc71e53fa5f9b3e2c3cd70f8c5adab5e8b23020f4be2f542a84fc3c155764736f6c63430008070033",
			"opcodes": "PUSH1 0x80 PUSH1 0x40 MSTORE CALLVALUE DUP1 ISZERO PUSH3 0x11 JUMPI PUSH1 0x0 DUP1 REVERT JUMPDEST POP PUSH3 0xA8 PUSH20 0x6616A4F8D35A2CBE3B4C0427C428BD3AF3CA52FA PUSH1 0x40 MLOAD DUP1 PUSH1 0x40 ADD PUSH1 0x40 MSTORE DUP1 PUSH1 0x5 DUP2 MSTORE PUSH1 0x20 ADD PUSH32 0x456C696173000000000000000000000000000000000000000000000000000000 DUP2 MSTORE POP PUSH1 0x40 MLOAD DUP1 PUSH1 0x40 ADD PUSH1 0x40 MSTORE DUP1 PUSH1 0x7 DUP2 MSTORE PUSH1 0x20 ADD PUSH32 0x44486F6F67686500000000000000000000000000000000000000000000000000 DUP2 MSTORE POP PUSH1 0x1 PUSH2 0x3E8 PUSH3 0x1FA PUSH1 0x20 SHL PUSH1 0x20 SHR JUMP JUMPDEST PUSH3 0x13E PUSH20 0xCF305BD0861B5727FE08FEFDF8FE93871CC4ACC2 PUSH1 0x40 MLOAD DUP1 PUSH1 0x40 ADD PUSH1 0x40 MSTORE DUP1 PUSH1 0x3 DUP2 MSTORE PUSH1 0x20 ADD PUSH32 0x58616E0000000000000000000000000000000000000000000000000000000000 DUP2 MSTORE POP PUSH1 0x40 MLOAD DUP1 PUSH1 0x40 ADD PUSH1 0x40 MSTORE DUP1 PUSH1 0x4 DUP2 MSTORE PUSH1 0x20 ADD PUSH32 0x4D61657300000000000000000000000000000000000000000000000000000000 DUP2 MSTORE POP PUSH1 0x1 PUSH2 0x3E8 PUSH3 0x1FA PUSH1 0x20 SHL PUSH1 0x20 SHR JUMP JUMPDEST PUSH3 0x199 PUSH20 0x52C9FC3556EA3A18628F4D156604E733015064C2 PUSH1 0x40 MLOAD DUP1 PUSH1 0x40 ADD PUSH1 0x40 MSTORE DUP1 PUSH1 0x3 DUP2 MSTORE PUSH1 0x20 ADD PUSH32 0x4B42430000000000000000000000000000000000000000000000000000000000 DUP2 MSTORE POP PUSH3 0x372 PUSH1 0x20 SHL PUSH1 0x20 SHR JUMP JUMPDEST PUSH3 0x1F4 PUSH20 0x3C5389B061C808EEE0165866253097F02A39A3C8 PUSH1 0x40 MLOAD DUP1 PUSH1 0x40 ADD PUSH1 0x40 MSTORE DUP1 PUSH1 0x3 DUP2 MSTORE PUSH1 0x20 ADD PUSH32 0x494E470000000000000000000000000000000000000000000000000000000000 DUP2 MSTORE POP PUSH3 0x372 PUSH1 0x20 SHL PUSH1 0x20 SHR JUMP JUMPDEST PUSH3 0x895 JUMP JUMPDEST PUSH1 0x0 PUSH3 0x20D DUP7 PUSH3 0x48A PUSH1 0x20 SHL PUSH1 0x20 SHR JUMP JUMPDEST SLT PUSH3 0x250 JUMPI PUSH1 0x40 MLOAD PUSH32 0x8C379A000000000000000000000000000000000000000000000000000000000 DUP2 MSTORE PUSH1 0x4 ADD PUSH3 0x247 SWAP1 PUSH3 0x71E JUMP JUMPDEST PUSH1 0x40 MLOAD DUP1 SWAP2 SUB SWAP1 REVERT JUMPDEST PUSH1 0x0 PUSH1 0x40 MLOAD DUP1 PUSH1 0xA0 ADD PUSH1 0x40 MSTORE DUP1 DUP8 PUSH20 0xFFFFFFFFFFFFFFFFFFFFFFFFFFFFFFFFFFFFFFFF AND DUP2 MSTORE PUSH1 0x20 ADD DUP7 DUP2 MSTORE PUSH1 0x20 ADD DUP6 DUP2 MSTORE PUSH1 0x20 ADD DUP5 ISZERO ISZERO DUP2 MSTORE PUSH1 0x20 ADD DUP4 DUP2 MSTORE POP SWAP1 DUP1 PUSH1 0x1 DUP2 SLOAD ADD DUP1 DUP3 SSTORE DUP1 SWAP2 POP POP PUSH1 0x1 SWAP1 SUB SWAP1 PUSH1 0x0 MSTORE PUSH1 0x20 PUSH1 0x0 KECCAK256 SWAP1 PUSH1 0x5 MUL ADD PUSH1 0x0 SWAP1 SWAP2 SWAP1 SWAP2 SWAP1 SWAP2 POP PUSH1 0x0 DUP3 ADD MLOAD DUP2 PUSH1 0x0 ADD PUSH1 0x0 PUSH2 0x100 EXP DUP2 SLOAD DUP2 PUSH20 0xFFFFFFFFFFFFFFFFFFFFFFFFFFFFFFFFFFFFFFFF MUL NOT AND SWAP1 DUP4 PUSH20 0xFFFFFFFFFFFFFFFFFFFFFFFFFFFFFFFFFFFFFFFF AND MUL OR SWAP1 SSTORE POP PUSH1 0x20 DUP3 ADD MLOAD DUP2 PUSH1 0x1 ADD SWAP1 DUP1 MLOAD SWAP1 PUSH1 0x20 ADD SWAP1 PUSH3 0x31F SWAP3 SWAP2 SWAP1 PUSH3 0x647 JUMP JUMPDEST POP PUSH1 0x40 DUP3 ADD MLOAD DUP2 PUSH1 0x2 ADD SWAP1 DUP1 MLOAD SWAP1 PUSH1 0x20 ADD SWAP1 PUSH3 0x33E SWAP3 SWAP2 SWAP1 PUSH3 0x647 JUMP JUMPDEST POP PUSH1 0x60 DUP3 ADD MLOAD DUP2 PUSH1 0x3 ADD PUSH1 0x0 PUSH2 0x100 EXP DUP2 SLOAD DUP2 PUSH1 0xFF MUL NOT AND SWAP1 DUP4 ISZERO ISZERO MUL OR SWAP1 SSTORE POP PUSH1 0x80 DUP3 ADD MLOAD DUP2 PUSH1 0x4 ADD SSTORE POP POP POP POP POP POP POP JUMP JUMPDEST PUSH1 0x0 PUSH3 0x385 DUP4 PUSH3 0x56A PUSH1 0x20 SHL PUSH1 0x20 SHR JUMP JUMPDEST SLT PUSH3 0x3C8 JUMPI PUSH1 0x40 MLOAD PUSH32 0x8C379A000000000000000000000000000000000000000000000000000000000 DUP2 MSTORE PUSH1 0x4 ADD PUSH3 0x3BF SWAP1 PUSH3 0x71E JUMP JUMPDEST PUSH1 0x40 MLOAD DUP1 SWAP2 SUB SWAP1 REVERT JUMPDEST PUSH1 0x1 PUSH1 0x40 MLOAD DUP1 PUSH1 0x40 ADD PUSH1 0x40 MSTORE DUP1 DUP5 PUSH20 0xFFFFFFFFFFFFFFFFFFFFFFFFFFFFFFFFFFFFFFFF AND DUP2 MSTORE PUSH1 0x20 ADD DUP4 DUP2 MSTORE POP SWAP1 DUP1 PUSH1 0x1 DUP2 SLOAD ADD DUP1 DUP3 SSTORE DUP1 SWAP2 POP POP PUSH1 0x1 SWAP1 SUB SWAP1 PUSH1 0x0 MSTORE PUSH1 0x20 PUSH1 0x0 KECCAK256 SWAP1 PUSH1 0x2 MUL ADD PUSH1 0x0 SWAP1 SWAP2 SWAP1 SWAP2 SWAP1 SWAP2 POP PUSH1 0x0 DUP3 ADD MLOAD DUP2 PUSH1 0x0 ADD PUSH1 0x0 PUSH2 0x100 EXP DUP2 SLOAD DUP2 PUSH20 0xFFFFFFFFFFFFFFFFFFFFFFFFFFFFFFFFFFFFFFFF MUL NOT AND SWAP1 DUP4 PUSH20 0xFFFFFFFFFFFFFFFFFFFFFFFFFFFFFFFFFFFFFFFF AND MUL OR SWAP1 SSTORE POP PUSH1 0x20 DUP3 ADD MLOAD DUP2 PUSH1 0x1 ADD SWAP1 DUP1 MLOAD SWAP1 PUSH1 0x20 ADD SWAP1 PUSH3 0x483 SWAP3 SWAP2 SWAP1 PUSH3 0x647 JUMP JUMPDEST POP POP POP POP POP JUMP JUMPDEST PUSH1 0x0 DUP1 PUSH1 0x0 DUP1 SLOAD SWAP1 POP SWAP1 POP PUSH1 0x0 JUMPDEST DUP2 DUP2 LT ISZERO PUSH3 0x53F JUMPI DUP4 PUSH20 0xFFFFFFFFFFFFFFFFFFFFFFFFFFFFFFFFFFFFFFFF AND PUSH1 0x0 DUP3 DUP2 SLOAD DUP2 LT PUSH3 0x4CF JUMPI PUSH3 0x4CE PUSH3 0x83D JUMP JUMPDEST JUMPDEST SWAP1 PUSH1 0x0 MSTORE PUSH1 0x20 PUSH1 0x0 KECCAK256 SWAP1 PUSH1 0x5 MUL ADD PUSH1 0x0 ADD PUSH1 0x0 SWAP1 SLOAD SWAP1 PUSH2 0x100 EXP SWAP1 DIV PUSH20 0xFFFFFFFFFFFFFFFFFFFFFFFFFFFFFFFFFFFFFFFF AND PUSH20 0xFFFFFFFFFFFFFFFFFFFFFFFFFFFFFFFFFFFFFFFF AND EQ ISZERO PUSH3 0x529 JUMPI DUP1 SWAP3 POP POP POP PUSH3 0x565 JUMP JUMPDEST DUP1 DUP1 PUSH3 0x536 SWAP1 PUSH3 0x791 JUMP JUMPDEST SWAP2 POP POP PUSH3 0x498 JUMP JUMPDEST POP PUSH32 0xFFFFFFFFFFFFFFFFFFFFFFFFFFFFFFFFFFFFFFFFFFFFFFFFFFFFFFFFFFFFFFFF SWAP2 POP POP JUMPDEST SWAP2 SWAP1 POP JUMP JUMPDEST PUSH1 0x0 DUP1 PUSH1 0x0 SWAP1 POP JUMPDEST PUSH1 0x1 DUP1 SLOAD SWAP1 POP DUP2 LT ISZERO PUSH3 0x61D JUMPI DUP3 PUSH20 0xFFFFFFFFFFFFFFFFFFFFFFFFFFFFFFFFFFFFFFFF AND PUSH1 0x1 DUP3 DUP2 SLOAD DUP2 LT PUSH3 0x5AE JUMPI PUSH3 0x5AD PUSH3 0x83D JUMP JUMPDEST JUMPDEST SWAP1 PUSH1 0x0 MSTORE PUSH1 0x20 PUSH1 0x0 KECCAK256 SWAP1 PUSH1 0x2 MUL ADD PUSH1 0x0 ADD PUSH1 0x0 SWAP1 SLOAD SWAP1 PUSH2 0x100 EXP SWAP1 DIV PUSH20 0xFFFFFFFFFFFFFFFFFFFFFFFFFFFFFFFFFFFFFFFF AND PUSH20 0xFFFFFFFFFFFFFFFFFFFFFFFFFFFFFFFFFFFFFFFF AND EQ ISZERO PUSH3 0x607 JUMPI DUP1 SWAP2 POP POP PUSH3 0x642 JUMP JUMPDEST DUP1 DUP1 PUSH3 0x614 SWAP1 PUSH3 0x791 JUMP JUMPDEST SWAP2 POP POP PUSH3 0x572 JUMP JUMPDEST POP PUSH32 0xFFFFFFFFFFFFFFFFFFFFFFFFFFFFFFFFFFFFFFFFFFFFFFFFFFFFFFFFFFFFFFFF SWAP1 POP JUMPDEST SWAP2 SWAP1 POP JUMP JUMPDEST DUP3 DUP1 SLOAD PUSH3 0x655 SWAP1 PUSH3 0x75B JUMP JUMPDEST SWAP1 PUSH1 0x0 MSTORE PUSH1 0x20 PUSH1 0x0 KECCAK256 SWAP1 PUSH1 0x1F ADD PUSH1 0x20 SWAP1 DIV DUP2 ADD SWAP3 DUP3 PUSH3 0x679 JUMPI PUSH1 0x0 DUP6 SSTORE PUSH3 0x6C5 JUMP JUMPDEST DUP3 PUSH1 0x1F LT PUSH3 0x694 JUMPI DUP1 MLOAD PUSH1 0xFF NOT AND DUP4 DUP1 ADD OR DUP6 SSTORE PUSH3 0x6C5 JUMP JUMPDEST DUP3 DUP1 ADD PUSH1 0x1 ADD DUP6 SSTORE DUP3 ISZERO PUSH3 0x6C5 JUMPI SWAP2 DUP3 ADD JUMPDEST DUP3 DUP2 GT ISZERO PUSH3 0x6C4 JUMPI DUP3 MLOAD DUP3 SSTORE SWAP2 PUSH1 0x20 ADD SWAP2 SWAP1 PUSH1 0x1 ADD SWAP1 PUSH3 0x6A7 JUMP JUMPDEST JUMPDEST POP SWAP1 POP PUSH3 0x6D4 SWAP2 SWAP1 PUSH3 0x6D8 JUMP JUMPDEST POP SWAP1 JUMP JUMPDEST JUMPDEST DUP1 DUP3 GT ISZERO PUSH3 0x6F3 JUMPI PUSH1 0x0 DUP2 PUSH1 0x0 SWAP1 SSTORE POP PUSH1 0x1 ADD PUSH3 0x6D9 JUMP JUMPDEST POP SWAP1 JUMP JUMPDEST PUSH1 0x0 PUSH3 0x706 PUSH1 0xE DUP4 PUSH3 0x740 JUMP JUMPDEST SWAP2 POP PUSH3 0x713 DUP3 PUSH3 0x86C JUMP JUMPDEST PUSH1 0x20 DUP3 ADD SWAP1 POP SWAP2 SWAP1 POP JUMP JUMPDEST PUSH1 0x0 PUSH1 0x20 DUP3 ADD SWAP1 POP DUP2 DUP2 SUB PUSH1 0x0 DUP4 ADD MSTORE PUSH3 0x739 DUP2 PUSH3 0x6F7 JUMP JUMPDEST SWAP1 POP SWAP2 SWAP1 POP JUMP JUMPDEST PUSH1 0x0 DUP3 DUP3 MSTORE PUSH1 0x20 DUP3 ADD SWAP1 POP SWAP3 SWAP2 POP POP JUMP JUMPDEST PUSH1 0x0 DUP2 SWAP1 POP SWAP2 SWAP1 POP JUMP JUMPDEST PUSH1 0x0 PUSH1 0x2 DUP3 DIV SWAP1 POP PUSH1 0x1 DUP3 AND DUP1 PUSH3 0x774 JUMPI PUSH1 0x7F DUP3 AND SWAP2 POP JUMPDEST PUSH1 0x20 DUP3 LT DUP2 EQ ISZERO PUSH3 0x78B JUMPI PUSH3 0x78A PUSH3 0x80E JUMP JUMPDEST JUMPDEST POP SWAP2 SWAP1 POP JUMP JUMPDEST PUSH1 0x0 PUSH3 0x79E DUP3 PUSH3 0x751 JUMP JUMPDEST SWAP2 POP PUSH32 0xFFFFFFFFFFFFFFFFFFFFFFFFFFFFFFFFFFFFFFFFFFFFFFFFFFFFFFFFFFFFFFFF DUP3 EQ ISZERO PUSH3 0x7D4 JUMPI PUSH3 0x7D3 PUSH3 0x7DF JUMP JUMPDEST JUMPDEST PUSH1 0x1 DUP3 ADD SWAP1 POP SWAP2 SWAP1 POP JUMP JUMPDEST PUSH32 0x4E487B7100000000000000000000000000000000000000000000000000000000 PUSH1 0x0 MSTORE PUSH1 0x11 PUSH1 0x4 MSTORE PUSH1 0x24 PUSH1 0x0 REVERT JUMPDEST PUSH32 0x4E487B7100000000000000000000000000000000000000000000000000000000 PUSH1 0x0 MSTORE PUSH1 0x22 PUSH1 0x4 MSTORE PUSH1 0x24 PUSH1 0x0 REVERT JUMPDEST PUSH32 0x4E487B7100000000000000000000000000000000000000000000000000000000 PUSH1 0x0 MSTORE PUSH1 0x32 PUSH1 0x4 MSTORE PUSH1 0x24 PUSH1 0x0 REVERT JUMPDEST PUSH32 0x416C726561647920657869737473000000000000000000000000000000000000 PUSH1 0x0 DUP3 ADD MSTORE POP JUMP JUMPDEST PUSH2 0x2308 DUP1 PUSH3 0x8A5 PUSH1 0x0 CODECOPY PUSH1 0x0 RETURN INVALID PUSH1 0x80 PUSH1 0x40 MSTORE CALLVALUE DUP1 ISZERO PUSH3 0x11 JUMPI PUSH1 0x0 DUP1 REVERT JUMPDEST POP PUSH1 0x4 CALLDATASIZE LT PUSH3 0x88 JUMPI PUSH1 0x0 CALLDATALOAD PUSH1 0xE0 SHR DUP1 PUSH4 0x640688EC GT PUSH3 0x63 JUMPI DUP1 PUSH4 0x640688EC EQ PUSH3 0x103 JUMPI DUP1 PUSH4 0x8C438908 EQ PUSH3 0x123 JUMPI DUP1 PUSH4 0xB1B32289 EQ PUSH3 0x143 JUMPI DUP1 PUSH4 0xD1563DA0 EQ PUSH3 0x163 JUMPI PUSH3 0x88 JUMP JUMPDEST DUP1 PUSH4 0x5726003 EQ PUSH3 0x8D JUMPI DUP1 PUSH4 0x1368536A EQ PUSH3 0xC3 JUMPI DUP1 PUSH4 0x5BFFECE1 EQ PUSH3 0xE3 JUMPI JUMPDEST PUSH1 0x0 DUP1 REVERT JUMPDEST PUSH3 0xAB PUSH1 0x4 DUP1 CALLDATASIZE SUB DUP2 ADD SWAP1 PUSH3 0xA5 SWAP2 SWAP1 PUSH3 0xD70 JUMP JUMPDEST PUSH3 0x199 JUMP JUMPDEST PUSH1 0x40 MLOAD PUSH3 0xBA SWAP2 SWAP1 PUSH3 0x1338 JUMP JUMPDEST PUSH1 0x40 MLOAD DUP1 SWAP2 SUB SWAP1 RETURN JUMPDEST PUSH3 0xE1 PUSH1 0x4 DUP1 CALLDATASIZE SUB DUP2 ADD SWAP1 PUSH3 0xDB SWAP2 SWAP1 PUSH3 0xF9C JUMP JUMPDEST PUSH3 0x221 JUMP JUMPDEST STOP JUMPDEST PUSH3 0x101 PUSH1 0x4 DUP1 CALLDATASIZE SUB DUP2 ADD SWAP1 PUSH3 0xFB SWAP2 SWAP1 PUSH3 0xED6 JUMP JUMPDEST PUSH3 0x30D JUMP JUMPDEST STOP JUMPDEST PUSH3 0x121 PUSH1 0x4 DUP1 CALLDATASIZE SUB DUP2 ADD SWAP1 PUSH3 0x11B SWAP2 SWAP1 PUSH3 0xFF8 JUMP JUMPDEST PUSH3 0x47F JUMP JUMPDEST STOP JUMPDEST PUSH3 0x141 PUSH1 0x4 DUP1 CALLDATASIZE SUB DUP2 ADD SWAP1 PUSH3 0x13B SWAP2 SWAP1 PUSH3 0xE70 JUMP JUMPDEST PUSH3 0x574 JUMP JUMPDEST STOP JUMPDEST PUSH3 0x161 PUSH1 0x4 DUP1 CALLDATASIZE SUB DUP2 ADD SWAP1 PUSH3 0x15B SWAP2 SWAP1 PUSH3 0xDD4 JUMP JUMPDEST PUSH3 0x686 JUMP JUMPDEST STOP JUMPDEST PUSH3 0x181 PUSH1 0x4 DUP1 CALLDATASIZE SUB DUP2 ADD SWAP1 PUSH3 0x17B SWAP2 SWAP1 PUSH3 0xD70 JUMP JUMPDEST PUSH3 0x8D4 JUMP JUMPDEST PUSH1 0x40 MLOAD PUSH3 0x190 SWAP2 SWAP1 PUSH3 0x1248 JUMP JUMPDEST PUSH1 0x40 MLOAD DUP1 SWAP2 SUB SWAP1 RETURN JUMPDEST PUSH1 0x0 DUP1 PUSH3 0x1A7 DUP4 PUSH3 0x9ED JUMP JUMPDEST SWAP1 POP PUSH1 0x0 DUP2 SLT ISZERO PUSH3 0x1F0 JUMPI PUSH1 0x40 MLOAD PUSH32 0x8C379A000000000000000000000000000000000000000000000000000000000 DUP2 MSTORE PUSH1 0x4 ADD PUSH3 0x1E7 SWAP1 PUSH3 0x12B0 JUMP JUMPDEST PUSH1 0x40 MLOAD DUP1 SWAP2 SUB SWAP1 REVERT JUMPDEST PUSH1 0x0 DUP2 DUP2 SLOAD DUP2 LT PUSH3 0x207 JUMPI PUSH3 0x206 PUSH3 0x1623 JUMP JUMPDEST JUMPDEST SWAP1 PUSH1 0x0 MSTORE PUSH1 0x20 PUSH1 0x0 KECCAK256 SWAP1 PUSH1 0x5 MUL ADD PUSH1 0x4 ADD SLOAD SWAP2 POP POP SWAP2 SWAP1 POP JUMP JUMPDEST PUSH1 0x0 PUSH3 0x22E DUP4 PUSH3 0x9ED JUMP JUMPDEST SWAP1 POP PUSH1 0x0 DUP2 SLT ISZERO PUSH3 0x277 JUMPI PUSH1 0x40 MLOAD PUSH32 0x8C379A000000000000000000000000000000000000000000000000000000000 DUP2 MSTORE PUSH1 0x4 ADD PUSH3 0x26E SWAP1 PUSH3 0x12B0 JUMP JUMPDEST PUSH1 0x40 MLOAD DUP1 SWAP2 SUB SWAP1 REVERT JUMPDEST DUP4 ISZERO PUSH3 0x2C5 JUMPI DUP2 PUSH1 0x0 DUP3 DUP2 SLOAD DUP2 LT PUSH3 0x296 JUMPI PUSH3 0x295 PUSH3 0x1623 JUMP JUMPDEST JUMPDEST SWAP1 PUSH1 0x0 MSTORE PUSH1 0x20 PUSH1 0x0 KECCAK256 SWAP1 PUSH1 0x5 MUL ADD PUSH1 0x4 ADD PUSH1 0x0 DUP3 DUP3 SLOAD PUSH3 0x2B8 SWAP2 SWAP1 PUSH3 0x142D JUMP JUMPDEST SWAP3 POP POP DUP2 SWAP1 SSTORE POP PUSH3 0x307 JUMP JUMPDEST DUP2 PUSH1 0x0 DUP3 DUP2 SLOAD DUP2 LT PUSH3 0x2DD JUMPI PUSH3 0x2DC PUSH3 0x1623 JUMP JUMPDEST JUMPDEST SWAP1 PUSH1 0x0 MSTORE PUSH1 0x20 PUSH1 0x0 KECCAK256 SWAP1 PUSH1 0x5 MUL ADD PUSH1 0x4 ADD PUSH1 0x0 DUP3 DUP3 SLOAD PUSH3 0x2FF SWAP2 SWAP1 PUSH3 0x13D0 JUMP JUMPDEST SWAP3 POP POP DUP2 SWAP1 SSTORE POP JUMPDEST POP POP POP POP JUMP JUMPDEST PUSH1 0x0 PUSH3 0x31A DUP7 PUSH3 0x9ED JUMP JUMPDEST SLT PUSH3 0x35D JUMPI PUSH1 0x40 MLOAD PUSH32 0x8C379A000000000000000000000000000000000000000000000000000000000 DUP2 MSTORE PUSH1 0x4 ADD PUSH3 0x354 SWAP1 PUSH3 0x12D2 JUMP JUMPDEST PUSH1 0x40 MLOAD DUP1 SWAP2 SUB SWAP1 REVERT JUMPDEST PUSH1 0x0 PUSH1 0x40 MLOAD DUP1 PUSH1 0xA0 ADD PUSH1 0x40 MSTORE DUP1 DUP8 PUSH20 0xFFFFFFFFFFFFFFFFFFFFFFFFFFFFFFFFFFFFFFFF AND DUP2 MSTORE PUSH1 0x20 ADD DUP7 DUP2 MSTORE PUSH1 0x20 ADD DUP6 DUP2 MSTORE PUSH1 0x20 ADD DUP5 ISZERO ISZERO DUP2 MSTORE PUSH1 0x20 ADD DUP4 DUP2 MSTORE POP SWAP1 DUP1 PUSH1 0x1 DUP2 SLOAD ADD DUP1 DUP3 SSTORE DUP1 SWAP2 POP POP PUSH1 0x1 SWAP1 SUB SWAP1 PUSH1 0x0 MSTORE PUSH1 0x20 PUSH1 0x0 KECCAK256 SWAP1 PUSH1 0x5 MUL ADD PUSH1 0x0 SWAP1 SWAP2 SWAP1 SWAP2 SWAP1 SWAP2 POP PUSH1 0x0 DUP3 ADD MLOAD DUP2 PUSH1 0x0 ADD PUSH1 0x0 PUSH2 0x100 EXP DUP2 SLOAD DUP2 PUSH20 0xFFFFFFFFFFFFFFFFFFFFFFFFFFFFFFFFFFFFFFFF MUL NOT AND SWAP1 DUP4 PUSH20 0xFFFFFFFFFFFFFFFFFFFFFFFFFFFFFFFFFFFFFFFF AND MUL OR SWAP1 SSTORE POP PUSH1 0x20 DUP3 ADD MLOAD DUP2 PUSH1 0x1 ADD SWAP1 DUP1 MLOAD SWAP1 PUSH1 0x20 ADD SWAP1 PUSH3 0x42C SWAP3 SWAP2 SWAP1 PUSH3 0xBAA JUMP JUMPDEST POP PUSH1 0x40 DUP3 ADD MLOAD DUP2 PUSH1 0x2 ADD SWAP1 DUP1 MLOAD SWAP1 PUSH1 0x20 ADD SWAP1 PUSH3 0x44B SWAP3 SWAP2 SWAP1 PUSH3 0xBAA JUMP JUMPDEST POP PUSH1 0x60 DUP3 ADD MLOAD DUP2 PUSH1 0x3 ADD PUSH1 0x0 PUSH2 0x100 EXP DUP2 SLOAD DUP2 PUSH1 0xFF MUL NOT AND SWAP1 DUP4 ISZERO ISZERO MUL OR SWAP1 SSTORE POP PUSH1 0x80 DUP3 ADD MLOAD DUP2 PUSH1 0x4 ADD SSTORE POP POP POP POP POP POP POP JUMP JUMPDEST PUSH3 0x50E PUSH1 0x1 DUP3 DUP5 PUSH20 0xFFFFFFFFFFFFFFFFFFFFFFFFFFFFFFFFFFFFFFFF AND PUSH4 0xAD16A96C PUSH1 0x40 MLOAD DUP2 PUSH4 0xFFFFFFFF AND PUSH1 0xE0 SHL DUP2 MSTORE PUSH1 0x4 ADD PUSH1 0x20 PUSH1 0x40 MLOAD DUP1 DUP4 SUB DUP2 DUP7 DUP1 EXTCODESIZE ISZERO DUP1 ISZERO PUSH3 0x4CD JUMPI PUSH1 0x0 DUP1 REVERT JUMPDEST POP GAS STATICCALL ISZERO DUP1 ISZERO PUSH3 0x4E2 JUMPI RETURNDATASIZE PUSH1 0x0 DUP1 RETURNDATACOPY RETURNDATASIZE PUSH1 0x0 REVERT JUMPDEST POP POP POP POP PUSH1 0x40 MLOAD RETURNDATASIZE PUSH1 0x1F NOT PUSH1 0x1F DUP3 ADD AND DUP3 ADD DUP1 PUSH1 0x40 MSTORE POP DUP2 ADD SWAP1 PUSH3 0x508 SWAP2 SWAP1 PUSH3 0x103F JUMP JUMPDEST PUSH3 0x221 JUMP JUMPDEST DUP2 PUSH20 0xFFFFFFFFFFFFFFFFFFFFFFFFFFFFFFFFFFFFFFFF AND PUSH4 0xD367900C PUSH1 0x40 MLOAD DUP2 PUSH4 0xFFFFFFFF AND PUSH1 0xE0 SHL DUP2 MSTORE PUSH1 0x4 ADD PUSH1 0x0 PUSH1 0x40 MLOAD DUP1 DUP4 SUB DUP2 PUSH1 0x0 DUP8 DUP1 EXTCODESIZE ISZERO DUP1 ISZERO PUSH3 0x557 JUMPI PUSH1 0x0 DUP1 REVERT JUMPDEST POP GAS CALL ISZERO DUP1 ISZERO PUSH3 0x56C JUMPI RETURNDATASIZE PUSH1 0x0 DUP1 RETURNDATACOPY RETURNDATASIZE PUSH1 0x0 REVERT JUMPDEST POP POP POP POP POP POP JUMP JUMPDEST PUSH1 0x0 PUSH3 0x581 DUP4 PUSH3 0xACD JUMP JUMPDEST SLT PUSH3 0x5C4 JUMPI PUSH1 0x40 MLOAD PUSH32 0x8C379A000000000000000000000000000000000000000000000000000000000 DUP2 MSTORE PUSH1 0x4 ADD PUSH3 0x5BB SWAP1 PUSH3 0x12D2 JUMP JUMPDEST PUSH1 0x40 MLOAD DUP1 SWAP2 SUB SWAP1 REVERT JUMPDEST PUSH1 0x1 PUSH1 0x40 MLOAD DUP1 PUSH1 0x40 ADD PUSH1 0x40 MSTORE DUP1 DUP5 PUSH20 0xFFFFFFFFFFFFFFFFFFFFFFFFFFFFFFFFFFFFFFFF AND DUP2 MSTORE PUSH1 0x20 ADD DUP4 DUP2 MSTORE POP SWAP1 DUP1 PUSH1 0x1 DUP2 SLOAD ADD DUP1 DUP3 SSTORE DUP1 SWAP2 POP POP PUSH1 0x1 SWAP1 SUB SWAP1 PUSH1 0x0 MSTORE PUSH1 0x20 PUSH1 0x0 KECCAK256 SWAP1 PUSH1 0x2 MUL ADD PUSH1 0x0 SWAP1 SWAP2 SWAP1 SWAP2 SWAP1 SWAP2 POP PUSH1 0x0 DUP3 ADD MLOAD DUP2 PUSH1 0x0 ADD PUSH1 0x0 PUSH2 0x100 EXP DUP2 SLOAD DUP2 PUSH20 0xFFFFFFFFFFFFFFFFFFFFFFFFFFFFFFFFFFFFFFFF MUL NOT AND SWAP1 DUP4 PUSH20 0xFFFFFFFFFFFFFFFFFFFFFFFFFFFFFFFFFFFFFFFF AND MUL OR SWAP1 SSTORE POP PUSH1 0x20 DUP3 ADD MLOAD DUP2 PUSH1 0x1 ADD SWAP1 DUP1 MLOAD SWAP1 PUSH1 0x20 ADD SWAP1 PUSH3 0x67F SWAP3 SWAP2 SWAP1 PUSH3 0xBAA JUMP JUMPDEST POP POP POP POP POP JUMP JUMPDEST PUSH1 0x0 PUSH3 0x693 DUP7 PUSH3 0xACD JUMP JUMPDEST SLT ISZERO PUSH3 0x6D7 JUMPI PUSH1 0x40 MLOAD PUSH32 0x8C379A000000000000000000000000000000000000000000000000000000000 DUP2 MSTORE PUSH1 0x4 ADD PUSH3 0x6CE SWAP1 PUSH3 0x126C JUMP JUMPDEST PUSH1 0x40 MLOAD DUP1 SWAP2 SUB SWAP1 REVERT JUMPDEST PUSH1 0x0 PUSH3 0x6E4 DUP6 PUSH3 0xACD JUMP JUMPDEST SLT ISZERO PUSH3 0x728 JUMPI PUSH1 0x40 MLOAD PUSH32 0x8C379A000000000000000000000000000000000000000000000000000000000 DUP2 MSTORE PUSH1 0x4 ADD PUSH3 0x71F SWAP1 PUSH3 0x128E JUMP JUMPDEST PUSH1 0x40 MLOAD DUP1 SWAP2 SUB SWAP1 REVERT JUMPDEST PUSH1 0x0 PUSH3 0x735 DUP8 PUSH3 0x9ED JUMP JUMPDEST SLT ISZERO PUSH3 0x779 JUMPI PUSH1 0x40 MLOAD PUSH32 0x8C379A000000000000000000000000000000000000000000000000000000000 DUP2 MSTORE PUSH1 0x4 ADD PUSH3 0x770 SWAP1 PUSH3 0x12F4 JUMP JUMPDEST PUSH1 0x40 MLOAD DUP1 SWAP2 SUB SWAP1 REVERT JUMPDEST PUSH1 0x0 PUSH3 0x786 DUP5 PUSH3 0x9ED JUMP JUMPDEST SLT ISZERO PUSH3 0x7CA JUMPI PUSH1 0x40 MLOAD PUSH32 0x8C379A000000000000000000000000000000000000000000000000000000000 DUP2 MSTORE PUSH1 0x4 ADD PUSH3 0x7C1 SWAP1 PUSH3 0x1316 JUMP JUMPDEST PUSH1 0x40 MLOAD DUP1 SWAP2 SUB SWAP1 REVERT JUMPDEST PUSH1 0x0 DUP7 DUP7 DUP7 DUP7 DUP7 DUP7 PUSH1 0x40 MLOAD PUSH3 0x7E0 SWAP1 PUSH3 0xC3B JUMP JUMPDEST PUSH3 0x7F1 SWAP7 SWAP6 SWAP5 SWAP4 SWAP3 SWAP2 SWAP1 PUSH3 0x11DB JUMP JUMPDEST PUSH1 0x40 MLOAD DUP1 SWAP2 SUB SWAP1 PUSH1 0x0 CREATE DUP1 ISZERO DUP1 ISZERO PUSH3 0x80E JUMPI RETURNDATASIZE PUSH1 0x0 DUP1 RETURNDATACOPY RETURNDATASIZE PUSH1 0x0 REVERT JUMPDEST POP SWAP1 POP PUSH32 0x34551F19EBD97B9A8971C4FFF766382E1D196B9D3F7F38DB0D7AA74D7E1526B0 DUP2 PUSH20 0xFFFFFFFFFFFFFFFFFFFFFFFFFFFFFFFFFFFFFFFF AND PUSH4 0x38CC4831 PUSH1 0x40 MLOAD DUP2 PUSH4 0xFFFFFFFF AND PUSH1 0xE0 SHL DUP2 MSTORE PUSH1 0x4 ADD PUSH1 0x20 PUSH1 0x40 MLOAD DUP1 DUP4 SUB DUP2 DUP7 DUP1 EXTCODESIZE ISZERO DUP1 ISZERO PUSH3 0x879 JUMPI PUSH1 0x0 DUP1 REVERT JUMPDEST POP GAS STATICCALL ISZERO DUP1 ISZERO PUSH3 0x88E JUMPI RETURNDATASIZE PUSH1 0x0 DUP1 RETURNDATACOPY RETURNDATASIZE PUSH1 0x0 REVERT JUMPDEST POP POP POP POP PUSH1 0x40 MLOAD RETURNDATASIZE PUSH1 0x1F NOT PUSH1 0x1F DUP3 ADD AND DUP3 ADD DUP1 PUSH1 0x40 MSTORE POP DUP2 ADD SWAP1 PUSH3 0x8B4 SWAP2 SWAP1 PUSH3 0xDA2 JUMP JUMPDEST PUSH1 0x40 MLOAD PUSH3 0x8C3 SWAP2 SWAP1 PUSH3 0x11BE JUMP JUMPDEST PUSH1 0x40 MLOAD DUP1 SWAP2 SUB SWAP1 LOG1 POP POP POP POP POP POP POP JUMP JUMPDEST PUSH1 0x60 PUSH1 0x0 PUSH3 0x8E3 DUP4 PUSH3 0x9ED JUMP JUMPDEST SWAP1 POP PUSH1 0x0 DUP2 SLT ISZERO PUSH3 0x92C JUMPI PUSH1 0x40 MLOAD PUSH32 0x8C379A000000000000000000000000000000000000000000000000000000000 DUP2 MSTORE PUSH1 0x4 ADD PUSH3 0x923 SWAP1 PUSH3 0x12B0 JUMP JUMPDEST PUSH1 0x40 MLOAD DUP1 SWAP2 SUB SWAP1 REVERT JUMPDEST PUSH1 0x0 DUP2 DUP2 SLOAD DUP2 LT PUSH3 0x943 JUMPI PUSH3 0x942 PUSH3 0x1623 JUMP JUMPDEST JUMPDEST SWAP1 PUSH1 0x0 MSTORE PUSH1 0x20 PUSH1 0x0 KECCAK256 SWAP1 PUSH1 0x5 MUL ADD PUSH1 0x1 ADD DUP1 SLOAD PUSH3 0x961 SWAP1 PUSH3 0x150B JUMP JUMPDEST DUP1 PUSH1 0x1F ADD PUSH1 0x20 DUP1 SWAP2 DIV MUL PUSH1 0x20 ADD PUSH1 0x40 MLOAD SWAP1 DUP2 ADD PUSH1 0x40 MSTORE DUP1 SWAP3 SWAP2 SWAP1 DUP2 DUP2 MSTORE PUSH1 0x20 ADD DUP3 DUP1 SLOAD PUSH3 0x98F SWAP1 PUSH3 0x150B JUMP JUMPDEST DUP1 ISZERO PUSH3 0x9E0 JUMPI DUP1 PUSH1 0x1F LT PUSH3 0x9B4 JUMPI PUSH2 0x100 DUP1 DUP4 SLOAD DIV MUL DUP4 MSTORE SWAP2 PUSH1 0x20 ADD SWAP2 PUSH3 0x9E0 JUMP JUMPDEST DUP3 ADD SWAP2 SWAP1 PUSH1 0x0 MSTORE PUSH1 0x20 PUSH1 0x0 KECCAK256 SWAP1 JUMPDEST DUP2 SLOAD DUP2 MSTORE SWAP1 PUSH1 0x1 ADD SWAP1 PUSH1 0x20 ADD DUP1 DUP4 GT PUSH3 0x9C2 JUMPI DUP3 SWAP1 SUB PUSH1 0x1F AND DUP3 ADD SWAP2 JUMPDEST POP POP POP POP POP SWAP2 POP POP SWAP2 SWAP1 POP JUMP JUMPDEST PUSH1 0x0 DUP1 PUSH1 0x0 DUP1 SLOAD SWAP1 POP SWAP1 POP PUSH1 0x0 JUMPDEST DUP2 DUP2 LT ISZERO PUSH3 0xAA2 JUMPI DUP4 PUSH20 0xFFFFFFFFFFFFFFFFFFFFFFFFFFFFFFFFFFFFFFFF AND PUSH1 0x0 DUP3 DUP2 SLOAD DUP2 LT PUSH3 0xA32 JUMPI PUSH3 0xA31 PUSH3 0x1623 JUMP JUMPDEST JUMPDEST SWAP1 PUSH1 0x0 MSTORE PUSH1 0x20 PUSH1 0x0 KECCAK256 SWAP1 PUSH1 0x5 MUL ADD PUSH1 0x0 ADD PUSH1 0x0 SWAP1 SLOAD SWAP1 PUSH2 0x100 EXP SWAP1 DIV PUSH20 0xFFFFFFFFFFFFFFFFFFFFFFFFFFFFFFFFFFFFFFFF AND PUSH20 0xFFFFFFFFFFFFFFFFFFFFFFFFFFFFFFFFFFFFFFFF AND EQ ISZERO PUSH3 0xA8C JUMPI DUP1 SWAP3 POP POP POP PUSH3 0xAC8 JUMP JUMPDEST DUP1 DUP1 PUSH3 0xA99 SWAP1 PUSH3 0x1577 JUMP JUMPDEST SWAP2 POP POP PUSH3 0x9FB JUMP JUMPDEST POP PUSH32 0xFFFFFFFFFFFFFFFFFFFFFFFFFFFFFFFFFFFFFFFFFFFFFFFFFFFFFFFFFFFFFFFF SWAP2 POP POP JUMPDEST SWAP2 SWAP1 POP JUMP JUMPDEST PUSH1 0x0 DUP1 PUSH1 0x0 SWAP1 POP JUMPDEST PUSH1 0x1 DUP1 SLOAD SWAP1 POP DUP2 LT ISZERO PUSH3 0xB80 JUMPI DUP3 PUSH20 0xFFFFFFFFFFFFFFFFFFFFFFFFFFFFFFFFFFFFFFFF AND PUSH1 0x1 DUP3 DUP2 SLOAD DUP2 LT PUSH3 0xB11 JUMPI PUSH3 0xB10 PUSH3 0x1623 JUMP JUMPDEST JUMPDEST SWAP1 PUSH1 0x0 MSTORE PUSH1 0x20 PUSH1 0x0 KECCAK256 SWAP1 PUSH1 0x2 MUL ADD PUSH1 0x0 ADD PUSH1 0x0 SWAP1 SLOAD SWAP1 PUSH2 0x100 EXP SWAP1 DIV PUSH20 0xFFFFFFFFFFFFFFFFFFFFFFFFFFFFFFFFFFFFFFFF AND PUSH20 0xFFFFFFFFFFFFFFFFFFFFFFFFFFFFFFFFFFFFFFFF AND EQ ISZERO PUSH3 0xB6A JUMPI DUP1 SWAP2 POP POP PUSH3 0xBA5 JUMP JUMPDEST DUP1 DUP1 PUSH3 0xB77 SWAP1 PUSH3 0x1577 JUMP JUMPDEST SWAP2 POP POP PUSH3 0xAD5 JUMP JUMPDEST POP PUSH32 0xFFFFFFFFFFFFFFFFFFFFFFFFFFFFFFFFFFFFFFFFFFFFFFFFFFFFFFFFFFFFFFFF SWAP1 POP JUMPDEST SWAP2 SWAP1 POP JUMP JUMPDEST DUP3 DUP1 SLOAD PUSH3 0xBB8 SWAP1 PUSH3 0x150B JUMP JUMPDEST SWAP1 PUSH1 0x0 MSTORE PUSH1 0x20 PUSH1 0x0 KECCAK256 SWAP1 PUSH1 0x1F ADD PUSH1 0x20 SWAP1 DIV DUP2 ADD SWAP3 DUP3 PUSH3 0xBDC JUMPI PUSH1 0x0 DUP6 SSTORE PUSH3 0xC28 JUMP JUMPDEST DUP3 PUSH1 0x1F LT PUSH3 0xBF7 JUMPI DUP1 MLOAD PUSH1 0xFF NOT AND DUP4 DUP1 ADD OR DUP6 SSTORE PUSH3 0xC28 JUMP JUMPDEST DUP3 DUP1 ADD PUSH1 0x1 ADD DUP6 SSTORE DUP3 ISZERO PUSH3 0xC28 JUMPI SWAP2 DUP3 ADD JUMPDEST DUP3 DUP2 GT ISZERO PUSH3 0xC27 JUMPI DUP3 MLOAD DUP3 SSTORE SWAP2 PUSH1 0x20 ADD SWAP2 SWAP1 PUSH1 0x1 ADD SWAP1 PUSH3 0xC0A JUMP JUMPDEST JUMPDEST POP SWAP1 POP PUSH3 0xC37 SWAP2 SWAP1 PUSH3 0xC49 JUMP JUMPDEST POP SWAP1 JUMP JUMPDEST PUSH2 0xAA8 DUP1 PUSH3 0x182B DUP4 CODECOPY ADD SWAP1 JUMP JUMPDEST JUMPDEST DUP1 DUP3 GT ISZERO PUSH3 0xC64 JUMPI PUSH1 0x0 DUP2 PUSH1 0x0 SWAP1 SSTORE POP PUSH1 0x1 ADD PUSH3 0xC4A JUMP JUMPDEST POP SWAP1 JUMP JUMPDEST PUSH1 0x0 PUSH3 0xC7F PUSH3 0xC79 DUP5 PUSH3 0x137E JUMP JUMPDEST PUSH3 0x1355 JUMP JUMPDEST SWAP1 POP DUP3 DUP2 MSTORE PUSH1 0x20 DUP2 ADD DUP5 DUP5 DUP5 ADD GT ISZERO PUSH3 0xC9E JUMPI PUSH3 0xC9D PUSH3 0x1686 JUMP JUMPDEST JUMPDEST PUSH3 0xCAB DUP5 DUP3 DUP6 PUSH3 0x14C6 JUMP JUMPDEST POP SWAP4 SWAP3 POP POP POP JUMP JUMPDEST PUSH1 0x0 DUP2 CALLDATALOAD SWAP1 POP PUSH3 0xCC4 DUP2 PUSH3 0x17C2 JUMP JUMPDEST SWAP3 SWAP2 POP POP JUMP JUMPDEST PUSH1 0x0 DUP2 MLOAD SWAP1 POP PUSH3 0xCDB DUP2 PUSH3 0x17C2 JUMP JUMPDEST SWAP3 SWAP2 POP POP JUMP JUMPDEST PUSH1 0x0 DUP2 CALLDATALOAD SWAP1 POP PUSH3 0xCF2 DUP2 PUSH3 0x17DC JUMP JUMPDEST SWAP3 SWAP2 POP POP JUMP JUMPDEST PUSH1 0x0 DUP2 CALLDATALOAD SWAP1 POP PUSH3 0xD09 DUP2 PUSH3 0x17F6 JUMP JUMPDEST SWAP3 SWAP2 POP POP JUMP JUMPDEST PUSH1 0x0 DUP3 PUSH1 0x1F DUP4 ADD SLT PUSH3 0xD27 JUMPI PUSH3 0xD26 PUSH3 0x1681 JUMP JUMPDEST JUMPDEST DUP2 CALLDATALOAD PUSH3 0xD39 DUP5 DUP3 PUSH1 0x20 DUP7 ADD PUSH3 0xC68 JUMP JUMPDEST SWAP2 POP POP SWAP3 SWAP2 POP POP JUMP JUMPDEST PUSH1 0x0 DUP2 CALLDATALOAD SWAP1 POP PUSH3 0xD53 DUP2 PUSH3 0x1810 JUMP JUMPDEST SWAP3 SWAP2 POP POP JUMP JUMPDEST PUSH1 0x0 DUP2 MLOAD SWAP1 POP PUSH3 0xD6A DUP2 PUSH3 0x1810 JUMP JUMPDEST SWAP3 SWAP2 POP POP JUMP JUMPDEST PUSH1 0x0 PUSH1 0x20 DUP3 DUP5 SUB SLT ISZERO PUSH3 0xD89 JUMPI PUSH3 0xD88 PUSH3 0x1690 JUMP JUMPDEST JUMPDEST PUSH1 0x0 PUSH3 0xD99 DUP5 DUP3 DUP6 ADD PUSH3 0xCB3 JUMP JUMPDEST SWAP2 POP POP SWAP3 SWAP2 POP POP JUMP JUMPDEST PUSH1 0x0 PUSH1 0x20 DUP3 DUP5 SUB SLT ISZERO PUSH3 0xDBB JUMPI PUSH3 0xDBA PUSH3 0x1690 JUMP JUMPDEST JUMPDEST PUSH1 0x0 PUSH3 0xDCB DUP5 DUP3 DUP6 ADD PUSH3 0xCCA JUMP JUMPDEST SWAP2 POP POP SWAP3 SWAP2 POP POP JUMP JUMPDEST PUSH1 0x0 DUP1 PUSH1 0x0 DUP1 PUSH1 0x0 DUP1 PUSH1 0xC0 DUP8 DUP10 SUB SLT ISZERO PUSH3 0xDF4 JUMPI PUSH3 0xDF3 PUSH3 0x1690 JUMP JUMPDEST JUMPDEST PUSH1 0x0 PUSH3 0xE04 DUP10 DUP3 DUP11 ADD PUSH3 0xCB3 JUMP JUMPDEST SWAP7 POP POP PUSH1 0x20 PUSH3 0xE17 DUP10 DUP3 DUP11 ADD PUSH3 0xCB3 JUMP JUMPDEST SWAP6 POP POP PUSH1 0x40 PUSH3 0xE2A DUP10 DUP3 DUP11 ADD PUSH3 0xCB3 JUMP JUMPDEST SWAP5 POP POP PUSH1 0x60 PUSH3 0xE3D DUP10 DUP3 DUP11 ADD PUSH3 0xCB3 JUMP JUMPDEST SWAP4 POP POP PUSH1 0x80 PUSH3 0xE50 DUP10 DUP3 DUP11 ADD PUSH3 0xD42 JUMP JUMPDEST SWAP3 POP POP PUSH1 0xA0 PUSH3 0xE63 DUP10 DUP3 DUP11 ADD PUSH3 0xD42 JUMP JUMPDEST SWAP2 POP POP SWAP3 SWAP6 POP SWAP3 SWAP6 POP SWAP3 SWAP6 JUMP JUMPDEST PUSH1 0x0 DUP1 PUSH1 0x40 DUP4 DUP6 SUB SLT ISZERO PUSH3 0xE8A JUMPI PUSH3 0xE89 PUSH3 0x1690 JUMP JUMPDEST JUMPDEST PUSH1 0x0 PUSH3 0xE9A DUP6 DUP3 DUP7 ADD PUSH3 0xCB3 JUMP JUMPDEST SWAP3 POP POP PUSH1 0x20 DUP4 ADD CALLDATALOAD PUSH8 0xFFFFFFFFFFFFFFFF DUP2 GT ISZERO PUSH3 0xEBE JUMPI PUSH3 0xEBD PUSH3 0x168B JUMP JUMPDEST JUMPDEST PUSH3 0xECC DUP6 DUP3 DUP7 ADD PUSH3 0xD0F JUMP JUMPDEST SWAP2 POP POP SWAP3 POP SWAP3 SWAP1 POP JUMP JUMPDEST PUSH1 0x0 DUP1 PUSH1 0x0 DUP1 PUSH1 0x0 PUSH1 0xA0 DUP7 DUP9 SUB SLT ISZERO PUSH3 0xEF5 JUMPI PUSH3 0xEF4 PUSH3 0x1690 JUMP JUMPDEST JUMPDEST PUSH1 0x0 PUSH3 0xF05 DUP9 DUP3 DUP10 ADD PUSH3 0xCB3 JUMP JUMPDEST SWAP6 POP POP PUSH1 0x20 DUP7 ADD CALLDATALOAD PUSH8 0xFFFFFFFFFFFFFFFF DUP2 GT ISZERO PUSH3 0xF29 JUMPI PUSH3 0xF28 PUSH3 0x168B JUMP JUMPDEST JUMPDEST PUSH3 0xF37 DUP9 DUP3 DUP10 ADD PUSH3 0xD0F JUMP JUMPDEST SWAP5 POP POP PUSH1 0x40 DUP7 ADD CALLDATALOAD PUSH8 0xFFFFFFFFFFFFFFFF DUP2 GT ISZERO PUSH3 0xF5B JUMPI PUSH3 0xF5A PUSH3 0x168B JUMP JUMPDEST JUMPDEST PUSH3 0xF69 DUP9 DUP3 DUP10 ADD PUSH3 0xD0F JUMP JUMPDEST SWAP4 POP POP PUSH1 0x60 PUSH3 0xF7C DUP9 DUP3 DUP10 ADD PUSH3 0xCE1 JUMP JUMPDEST SWAP3 POP POP PUSH1 0x80 PUSH3 0xF8F DUP9 DUP3 DUP10 ADD PUSH3 0xD42 JUMP JUMPDEST SWAP2 POP POP SWAP3 SWAP6 POP SWAP3 SWAP6 SWAP1 SWAP4 POP JUMP JUMPDEST PUSH1 0x0 DUP1 PUSH1 0x0 PUSH1 0x60 DUP5 DUP7 SUB SLT ISZERO PUSH3 0xFB8 JUMPI PUSH3 0xFB7 PUSH3 0x1690 JUMP JUMPDEST JUMPDEST PUSH1 0x0 PUSH3 0xFC8 DUP7 DUP3 DUP8 ADD PUSH3 0xCE1 JUMP JUMPDEST SWAP4 POP POP PUSH1 0x20 PUSH3 0xFDB DUP7 DUP3 DUP8 ADD PUSH3 0xCB3 JUMP JUMPDEST SWAP3 POP POP PUSH1 0x40 PUSH3 0xFEE DUP7 DUP3 DUP8 ADD PUSH3 0xD42 JUMP JUMPDEST SWAP2 POP POP SWAP3 POP SWAP3 POP SWAP3 JUMP JUMPDEST PUSH1 0x0 DUP1 PUSH1 0x40 DUP4 DUP6 SUB SLT ISZERO PUSH3 0x1012 JUMPI PUSH3 0x1011 PUSH3 0x1690 JUMP JUMPDEST JUMPDEST PUSH1 0x0 PUSH3 0x1022 DUP6 DUP3 DUP7 ADD PUSH3 0xCF8 JUMP JUMPDEST SWAP3 POP POP PUSH1 0x20 PUSH3 0x1035 DUP6 DUP3 DUP7 ADD PUSH3 0xCB3 JUMP JUMPDEST SWAP2 POP POP SWAP3 POP SWAP3 SWAP1 POP JUMP JUMPDEST PUSH1 0x0 PUSH1 0x20 DUP3 DUP5 SUB SLT ISZERO PUSH3 0x1058 JUMPI PUSH3 0x1057 PUSH3 0x1690 JUMP JUMPDEST JUMPDEST PUSH1 0x0 PUSH3 0x1068 DUP5 DUP3 DUP6 ADD PUSH3 0xD59 JUMP JUMPDEST SWAP2 POP POP SWAP3 SWAP2 POP POP JUMP JUMPDEST PUSH3 0x107C DUP2 PUSH3 0x1468 JUMP JUMPDEST DUP3 MSTORE POP POP JUMP JUMPDEST PUSH1 0x0 PUSH3 0x108F DUP3 PUSH3 0x13B4 JUMP JUMPDEST PUSH3 0x109B DUP2 DUP6 PUSH3 0x13BF JUMP JUMPDEST SWAP4 POP PUSH3 0x10AD DUP2 DUP6 PUSH1 0x20 DUP7 ADD PUSH3 0x14D5 JUMP JUMPDEST PUSH3 0x10B8 DUP2 PUSH3 0x1695 JUMP JUMPDEST DUP5 ADD SWAP2 POP POP SWAP3 SWAP2 POP POP JUMP JUMPDEST PUSH1 0x0 PUSH3 0x10D2 PUSH1 0x1C DUP4 PUSH3 0x13BF JUMP JUMPDEST SWAP2 POP PUSH3 0x10DF DUP3 PUSH3 0x16A6 JUMP JUMPDEST PUSH1 0x20 DUP3 ADD SWAP1 POP SWAP2 SWAP1 POP JUMP JUMPDEST PUSH1 0x0 PUSH3 0x10F9 PUSH1 0x21 DUP4 PUSH3 0x13BF JUMP JUMPDEST SWAP2 POP PUSH3 0x1106 DUP3 PUSH3 0x16CF JUMP JUMPDEST PUSH1 0x40 DUP3 ADD SWAP1 POP SWAP2 SWAP1 POP JUMP JUMPDEST PUSH1 0x0 PUSH3 0x1120 PUSH1 0x19 DUP4 PUSH3 0x13BF JUMP JUMPDEST SWAP2 POP PUSH3 0x112D DUP3 PUSH3 0x171E JUMP JUMPDEST PUSH1 0x20 DUP3 ADD SWAP1 POP SWAP2 SWAP1 POP JUMP JUMPDEST PUSH1 0x0 PUSH3 0x1147 PUSH1 0xE DUP4 PUSH3 0x13BF JUMP JUMPDEST SWAP2 POP PUSH3 0x1154 DUP3 PUSH3 0x1747 JUMP JUMPDEST PUSH1 0x20 DUP3 ADD SWAP1 POP SWAP2 SWAP1 POP JUMP JUMPDEST PUSH1 0x0 PUSH3 0x116E PUSH1 0x14 DUP4 PUSH3 0x13BF JUMP JUMPDEST SWAP2 POP PUSH3 0x117B DUP3 PUSH3 0x1770 JUMP JUMPDEST PUSH1 0x20 DUP3 ADD SWAP1 POP SWAP2 SWAP1 POP JUMP JUMPDEST PUSH1 0x0 PUSH3 0x1195 PUSH1 0x19 DUP4 PUSH3 0x13BF JUMP JUMPDEST SWAP2 POP PUSH3 0x11A2 DUP3 PUSH3 0x1799 JUMP JUMPDEST PUSH1 0x20 DUP3 ADD SWAP1 POP SWAP2 SWAP1 POP JUMP JUMPDEST PUSH3 0x11B8 DUP2 PUSH3 0x14BC JUMP JUMPDEST DUP3 MSTORE POP POP JUMP JUMPDEST PUSH1 0x0 PUSH1 0x20 DUP3 ADD SWAP1 POP PUSH3 0x11D5 PUSH1 0x0 DUP4 ADD DUP5 PUSH3 0x1071 JUMP JUMPDEST SWAP3 SWAP2 POP POP JUMP JUMPDEST PUSH1 0x0 PUSH1 0xC0 DUP3 ADD SWAP1 POP PUSH3 0x11F2 PUSH1 0x0 DUP4 ADD DUP10 PUSH3 0x1071 JUMP JUMPDEST PUSH3 0x1201 PUSH1 0x20 DUP4 ADD DUP9 PUSH3 0x1071 JUMP JUMPDEST PUSH3 0x1210 PUSH1 0x40 DUP4 ADD DUP8 PUSH3 0x1071 JUMP JUMPDEST PUSH3 0x121F PUSH1 0x60 DUP4 ADD DUP7 PUSH3 0x1071 JUMP JUMPDEST PUSH3 0x122E PUSH1 0x80 DUP4 ADD DUP6 PUSH3 0x11AD JUMP JUMPDEST PUSH3 0x123D PUSH1 0xA0 DUP4 ADD DUP5 PUSH3 0x11AD JUMP JUMPDEST SWAP8 SWAP7 POP POP POP POP POP POP POP JUMP JUMPDEST PUSH1 0x0 PUSH1 0x20 DUP3 ADD SWAP1 POP DUP2 DUP2 SUB PUSH1 0x0 DUP4 ADD MSTORE PUSH3 0x1264 DUP2 DUP5 PUSH3 0x1082 JUMP JUMPDEST SWAP1 POP SWAP3 SWAP2 POP POP JUMP JUMPDEST PUSH1 0x0 PUSH1 0x20 DUP3 ADD SWAP1 POP DUP2 DUP2 SUB PUSH1 0x0 DUP4 ADD MSTORE PUSH3 0x1287 DUP2 PUSH3 0x10C3 JUMP JUMPDEST SWAP1 POP SWAP2 SWAP1 POP JUMP JUMPDEST PUSH1 0x0 PUSH1 0x20 DUP3 ADD SWAP1 POP DUP2 DUP2 SUB PUSH1 0x0 DUP4 ADD MSTORE PUSH3 0x12A9 DUP2 PUSH3 0x10EA JUMP JUMPDEST SWAP1 POP SWAP2 SWAP1 POP JUMP JUMPDEST PUSH1 0x0 PUSH1 0x20 DUP3 ADD SWAP1 POP DUP2 DUP2 SUB PUSH1 0x0 DUP4 ADD MSTORE PUSH3 0x12CB DUP2 PUSH3 0x1111 JUMP JUMPDEST SWAP1 POP SWAP2 SWAP1 POP JUMP JUMPDEST PUSH1 0x0 PUSH1 0x20 DUP3 ADD SWAP1 POP DUP2 DUP2 SUB PUSH1 0x0 DUP4 ADD MSTORE PUSH3 0x12ED DUP2 PUSH3 0x1138 JUMP JUMPDEST SWAP1 POP SWAP2 SWAP1 POP JUMP JUMPDEST PUSH1 0x0 PUSH1 0x20 DUP3 ADD SWAP1 POP DUP2 DUP2 SUB PUSH1 0x0 DUP4 ADD MSTORE PUSH3 0x130F DUP2 PUSH3 0x115F JUMP JUMPDEST SWAP1 POP SWAP2 SWAP1 POP JUMP JUMPDEST PUSH1 0x0 PUSH1 0x20 DUP3 ADD SWAP1 POP DUP2 DUP2 SUB PUSH1 0x0 DUP4 ADD MSTORE PUSH3 0x1331 DUP2 PUSH3 0x1186 JUMP JUMPDEST SWAP1 POP SWAP2 SWAP1 POP JUMP JUMPDEST PUSH1 0x0 PUSH1 0x20 DUP3 ADD SWAP1 POP PUSH3 0x134F PUSH1 0x0 DUP4 ADD DUP5 PUSH3 0x11AD JUMP JUMPDEST SWAP3 SWAP2 POP POP JUMP JUMPDEST PUSH1 0x0 PUSH3 0x1361 PUSH3 0x1374 JUMP JUMPDEST SWAP1 POP PUSH3 0x136F DUP3 DUP3 PUSH3 0x1541 JUMP JUMPDEST SWAP2 SWAP1 POP JUMP JUMPDEST PUSH1 0x0 PUSH1 0x40 MLOAD SWAP1 POP SWAP1 JUMP JUMPDEST PUSH1 0x0 PUSH8 0xFFFFFFFFFFFFFFFF DUP3 GT ISZERO PUSH3 0x139C JUMPI PUSH3 0x139B PUSH3 0x1652 JUMP JUMPDEST JUMPDEST PUSH3 0x13A7 DUP3 PUSH3 0x1695 JUMP JUMPDEST SWAP1 POP PUSH1 0x20 DUP2 ADD SWAP1 POP SWAP2 SWAP1 POP JUMP JUMPDEST PUSH1 0x0 DUP2 MLOAD SWAP1 POP SWAP2 SWAP1 POP JUMP JUMPDEST PUSH1 0x0 DUP3 DUP3 MSTORE PUSH1 0x20 DUP3 ADD SWAP1 POP SWAP3 SWAP2 POP POP JUMP JUMPDEST PUSH1 0x0 PUSH3 0x13DD DUP3 PUSH3 0x14BC JUMP JUMPDEST SWAP2 POP PUSH3 0x13EA DUP4 PUSH3 0x14BC JUMP JUMPDEST SWAP3 POP DUP3 PUSH32 0xFFFFFFFFFFFFFFFFFFFFFFFFFFFFFFFFFFFFFFFFFFFFFFFFFFFFFFFFFFFFFFFF SUB DUP3 GT ISZERO PUSH3 0x1422 JUMPI PUSH3 0x1421 PUSH3 0x15C5 JUMP JUMPDEST JUMPDEST DUP3 DUP3 ADD SWAP1 POP SWAP3 SWAP2 POP POP JUMP JUMPDEST PUSH1 0x0 PUSH3 0x143A DUP3 PUSH3 0x14BC JUMP JUMPDEST SWAP2 POP PUSH3 0x1447 DUP4 PUSH3 0x14BC JUMP JUMPDEST SWAP3 POP DUP3 DUP3 LT ISZERO PUSH3 0x145D JUMPI PUSH3 0x145C PUSH3 0x15C5 JUMP JUMPDEST JUMPDEST DUP3 DUP3 SUB SWAP1 POP SWAP3 SWAP2 POP POP JUMP JUMPDEST PUSH1 0x0 PUSH3 0x1475 DUP3 PUSH3 0x149C JUMP JUMPDEST SWAP1 POP SWAP2 SWAP1 POP JUMP JUMPDEST PUSH1 0x0 DUP2 ISZERO ISZERO SWAP1 POP SWAP2 SWAP1 POP JUMP JUMPDEST PUSH1 0x0 PUSH3 0x1495 DUP3 PUSH3 0x1468 JUMP JUMPDEST SWAP1 POP SWAP2 SWAP1 POP JUMP JUMPDEST PUSH1 0x0 PUSH20 0xFFFFFFFFFFFFFFFFFFFFFFFFFFFFFFFFFFFFFFFF DUP3 AND SWAP1 POP SWAP2 SWAP1 POP JUMP JUMPDEST PUSH1 0x0 DUP2 SWAP1 POP SWAP2 SWAP1 POP JUMP JUMPDEST DUP3 DUP2 DUP4 CALLDATACOPY PUSH1 0x0 DUP4 DUP4 ADD MSTORE POP POP POP JUMP JUMPDEST PUSH1 0x0 JUMPDEST DUP4 DUP2 LT ISZERO PUSH3 0x14F5 JUMPI DUP1 DUP3 ADD MLOAD DUP2 DUP5 ADD MSTORE PUSH1 0x20 DUP2 ADD SWAP1 POP PUSH3 0x14D8 JUMP JUMPDEST DUP4 DUP2 GT ISZERO PUSH3 0x1505 JUMPI PUSH1 0x0 DUP5 DUP5 ADD MSTORE JUMPDEST POP POP POP POP JUMP JUMPDEST PUSH1 0x0 PUSH1 0x2 DUP3 DIV SWAP1 POP PUSH1 0x1 DUP3 AND DUP1 PUSH3 0x1524 JUMPI PUSH1 0x7F DUP3 AND SWAP2 POP JUMPDEST PUSH1 0x20 DUP3 LT DUP2 EQ ISZERO PUSH3 0x153B JUMPI PUSH3 0x153A PUSH3 0x15F4 JUMP JUMPDEST JUMPDEST POP SWAP2 SWAP1 POP JUMP JUMPDEST PUSH3 0x154C DUP3 PUSH3 0x1695 JUMP JUMPDEST DUP2 ADD DUP2 DUP2 LT PUSH8 0xFFFFFFFFFFFFFFFF DUP3 GT OR ISZERO PUSH3 0x156E JUMPI PUSH3 0x156D PUSH3 0x1652 JUMP JUMPDEST JUMPDEST DUP1 PUSH1 0x40 MSTORE POP POP POP JUMP JUMPDEST PUSH1 0x0 PUSH3 0x1584 DUP3 PUSH3 0x14BC JUMP JUMPDEST SWAP2 POP PUSH32 0xFFFFFFFFFFFFFFFFFFFFFFFFFFFFFFFFFFFFFFFFFFFFFFFFFFFFFFFFFFFFFFFF DUP3 EQ ISZERO PUSH3 0x15BA JUMPI PUSH3 0x15B9 PUSH3 0x15C5 JUMP JUMPDEST JUMPDEST PUSH1 0x1 DUP3 ADD SWAP1 POP SWAP2 SWAP1 POP JUMP JUMPDEST PUSH32 0x4E487B7100000000000000000000000000000000000000000000000000000000 PUSH1 0x0 MSTORE PUSH1 0x11 PUSH1 0x4 MSTORE PUSH1 0x24 PUSH1 0x0 REVERT JUMPDEST PUSH32 0x4E487B7100000000000000000000000000000000000000000000000000000000 PUSH1 0x0 MSTORE PUSH1 0x22 PUSH1 0x4 MSTORE PUSH1 0x24 PUSH1 0x0 REVERT JUMPDEST PUSH32 0x4E487B7100000000000000000000000000000000000000000000000000000000 PUSH1 0x0 MSTORE PUSH1 0x32 PUSH1 0x4 MSTORE PUSH1 0x24 PUSH1 0x0 REVERT JUMPDEST PUSH32 0x4E487B7100000000000000000000000000000000000000000000000000000000 PUSH1 0x0 MSTORE PUSH1 0x41 PUSH1 0x4 MSTORE PUSH1 0x24 PUSH1 0x0 REVERT JUMPDEST PUSH1 0x0 DUP1 REVERT JUMPDEST PUSH1 0x0 DUP1 REVERT JUMPDEST PUSH1 0x0 DUP1 REVERT JUMPDEST PUSH1 0x0 DUP1 REVERT JUMPDEST PUSH1 0x0 PUSH1 0x1F NOT PUSH1 0x1F DUP4 ADD AND SWAP1 POP SWAP2 SWAP1 POP JUMP JUMPDEST PUSH32 0x42616E6B206F662073656E64657220646F65736E277420657869737400000000 PUSH1 0x0 DUP3 ADD MSTORE POP JUMP JUMPDEST PUSH32 0x42616E6B206F662062656E656669636961727920646F65736E27742065786973 PUSH1 0x0 DUP3 ADD MSTORE PUSH32 0x7400000000000000000000000000000000000000000000000000000000000000 PUSH1 0x20 DUP3 ADD MSTORE POP JUMP JUMPDEST PUSH32 0x5468697320706572736F6E20646F65736E277420657869737400000000000000 PUSH1 0x0 DUP3 ADD MSTORE POP JUMP JUMPDEST PUSH32 0x416C726561647920657869737473000000000000000000000000000000000000 PUSH1 0x0 DUP3 ADD MSTORE POP JUMP JUMPDEST PUSH32 0x53656E64657220646F65736E2774206578697374000000000000000000000000 PUSH1 0x0 DUP3 ADD MSTORE POP JUMP JUMPDEST PUSH32 0x42656E656669636961727920646F65736E277420657869737400000000000000 PUSH1 0x0 DUP3 ADD MSTORE POP JUMP JUMPDEST PUSH3 0x17CD DUP2 PUSH3 0x1468 JUMP JUMPDEST DUP2 EQ PUSH3 0x17D9 JUMPI PUSH1 0x0 DUP1 REVERT JUMPDEST POP JUMP JUMPDEST PUSH3 0x17E7 DUP2 PUSH3 0x147C JUMP JUMPDEST DUP2 EQ PUSH3 0x17F3 JUMPI PUSH1 0x0 DUP1 REVERT JUMPDEST POP JUMP JUMPDEST PUSH3 0x1801 DUP2 PUSH3 0x1488 JUMP JUMPDEST DUP2 EQ PUSH3 0x180D JUMPI PUSH1 0x0 DUP1 REVERT JUMPDEST POP JUMP JUMPDEST PUSH3 0x181B DUP2 PUSH3 0x14BC JUMP JUMPDEST DUP2 EQ PUSH3 0x1827 JUMPI PUSH1 0x0 DUP1 REVERT JUMPDEST POP JUMP INVALID PUSH1 0x80 PUSH1 0x40 MSTORE PUSH1 0x40 MLOAD DUP1 PUSH1 0x40 ADD PUSH1 0x40 MSTORE DUP1 PUSH1 0xA DUP2 MSTORE PUSH1 0x20 ADD PUSH32 0x636F6E646974696F6E7300000000000000000000000000000000000000000000 DUP2 MSTORE POP PUSH1 0x6 SWAP1 DUP1 MLOAD SWAP1 PUSH1 0x20 ADD SWAP1 PUSH3 0x51 SWAP3 SWAP2 SWAP1 PUSH3 0x1D8 JUMP JUMPDEST POP PUSH1 0x0 PUSH1 0x7 PUSH1 0x0 PUSH2 0x100 EXP DUP2 SLOAD DUP2 PUSH1 0xFF MUL NOT AND SWAP1 DUP4 ISZERO ISZERO MUL OR SWAP1 SSTORE POP PUSH1 0x0 PUSH1 0x7 PUSH1 0x1 PUSH2 0x100 EXP DUP2 SLOAD DUP2 PUSH1 0xFF MUL NOT AND SWAP1 DUP4 ISZERO ISZERO MUL OR SWAP1 SSTORE POP CALLVALUE DUP1 ISZERO PUSH3 0x95 JUMPI PUSH1 0x0 DUP1 REVERT JUMPDEST POP PUSH1 0x40 MLOAD PUSH3 0xAA8 CODESIZE SUB DUP1 PUSH3 0xAA8 DUP4 CODECOPY DUP2 DUP2 ADD PUSH1 0x40 MSTORE DUP2 ADD SWAP1 PUSH3 0xBB SWAP2 SWAP1 PUSH3 0x2B6 JUMP JUMPDEST DUP6 PUSH1 0x0 DUP1 PUSH2 0x100 EXP DUP2 SLOAD DUP2 PUSH20 0xFFFFFFFFFFFFFFFFFFFFFFFFFFFFFFFFFFFFFFFF MUL NOT AND SWAP1 DUP4 PUSH20 0xFFFFFFFFFFFFFFFFFFFFFFFFFFFFFFFFFFFFFFFF AND MUL OR SWAP1 SSTORE POP DUP5 PUSH1 0x2 PUSH1 0x0 PUSH2 0x100 EXP DUP2 SLOAD DUP2 PUSH20 0xFFFFFFFFFFFFFFFFFFFFFFFFFFFFFFFFFFFFFFFF MUL NOT AND SWAP1 DUP4 PUSH20 0xFFFFFFFFFFFFFFFFFFFFFFFFFFFFFFFFFFFFFFFF AND MUL OR SWAP1 SSTORE POP DUP4 PUSH1 0x1 PUSH1 0x0 PUSH2 0x100 EXP DUP2 SLOAD DUP2 PUSH20 0xFFFFFFFFFFFFFFFFFFFFFFFFFFFFFFFFFFFFFFFF MUL NOT AND SWAP1 DUP4 PUSH20 0xFFFFFFFFFFFFFFFFFFFFFFFFFFFFFFFFFFFFFFFF AND MUL OR SWAP1 SSTORE POP DUP3 PUSH1 0x3 PUSH1 0x0 PUSH2 0x100 EXP DUP2 SLOAD DUP2 PUSH20 0xFFFFFFFFFFFFFFFFFFFFFFFFFFFFFFFFFFFFFFFF MUL NOT AND SWAP1 DUP4 PUSH20 0xFFFFFFFFFFFFFFFFFFFFFFFFFFFFFFFFFFFFFFFF AND MUL OR SWAP1 SSTORE POP DUP2 PUSH1 0x4 DUP2 SWAP1 SSTORE POP DUP1 PUSH1 0x5 DUP2 SWAP1 SSTORE POP POP POP POP POP POP POP PUSH3 0x42E JUMP JUMPDEST DUP3 DUP1 SLOAD PUSH3 0x1E6 SWAP1 PUSH3 0x390 JUMP JUMPDEST SWAP1 PUSH1 0x0 MSTORE PUSH1 0x20 PUSH1 0x0 KECCAK256 SWAP1 PUSH1 0x1F ADD PUSH1 0x20 SWAP1 DIV DUP2 ADD SWAP3 DUP3 PUSH3 0x20A JUMPI PUSH1 0x0 DUP6 SSTORE PUSH3 0x256 JUMP JUMPDEST DUP3 PUSH1 0x1F LT PUSH3 0x225 JUMPI DUP1 MLOAD PUSH1 0xFF NOT AND DUP4 DUP1 ADD OR DUP6 SSTORE PUSH3 0x256 JUMP JUMPDEST DUP3 DUP1 ADD PUSH1 0x1 ADD DUP6 SSTORE DUP3 ISZERO PUSH3 0x256 JUMPI SWAP2 DUP3 ADD JUMPDEST DUP3 DUP2 GT ISZERO PUSH3 0x255 JUMPI DUP3 MLOAD DUP3 SSTORE SWAP2 PUSH1 0x20 ADD SWAP2 SWAP1 PUSH1 0x1 ADD SWAP1 PUSH3 0x238 JUMP JUMPDEST JUMPDEST POP SWAP1 POP PUSH3 0x265 SWAP2 SWAP1 PUSH3 0x269 JUMP JUMPDEST POP SWAP1 JUMP JUMPDEST JUMPDEST DUP1 DUP3 GT ISZERO PUSH3 0x284 JUMPI PUSH1 0x0 DUP2 PUSH1 0x0 SWAP1 SSTORE POP PUSH1 0x1 ADD PUSH3 0x26A JUMP JUMPDEST POP SWAP1 JUMP JUMPDEST PUSH1 0x0 DUP2 MLOAD SWAP1 POP PUSH3 0x299 DUP2 PUSH3 0x3FA JUMP JUMPDEST SWAP3 SWAP2 POP POP JUMP JUMPDEST PUSH1 0x0 DUP2 MLOAD SWAP1 POP PUSH3 0x2B0 DUP2 PUSH3 0x414 JUMP JUMPDEST SWAP3 SWAP2 POP POP JUMP JUMPDEST PUSH1 0x0 DUP1 PUSH1 0x0 DUP1 PUSH1 0x0 DUP1 PUSH1 0xC0 DUP8 DUP10 SUB SLT ISZERO PUSH3 0x2D6 JUMPI PUSH3 0x2D5 PUSH3 0x3F5 JUMP JUMPDEST JUMPDEST PUSH1 0x0 PUSH3 0x2E6 DUP10 DUP3 DUP11 ADD PUSH3 0x288 JUMP JUMPDEST SWAP7 POP POP PUSH1 0x20 PUSH3 0x2F9 DUP10 DUP3 DUP11 ADD PUSH3 0x288 JUMP JUMPDEST SWAP6 POP POP PUSH1 0x40 PUSH3 0x30C DUP10 DUP3 DUP11 ADD PUSH3 0x288 JUMP JUMPDEST SWAP5 POP POP PUSH1 0x60 PUSH3 0x31F DUP10 DUP3 DUP11 ADD PUSH3 0x288 JUMP JUMPDEST SWAP4 POP POP PUSH1 0x80 PUSH3 0x332 DUP10 DUP3 DUP11 ADD PUSH3 0x29F JUMP JUMPDEST SWAP3 POP POP PUSH1 0xA0 PUSH3 0x345 DUP10 DUP3 DUP11 ADD PUSH3 0x29F JUMP JUMPDEST SWAP2 POP POP SWAP3 SWAP6 POP SWAP3 SWAP6 POP SWAP3 SWAP6 JUMP JUMPDEST PUSH1 0x0 PUSH3 0x35F DUP3 PUSH3 0x366 JUMP JUMPDEST SWAP1 POP SWAP2 SWAP1 POP JUMP JUMPDEST PUSH1 0x0 PUSH20 0xFFFFFFFFFFFFFFFFFFFFFFFFFFFFFFFFFFFFFFFF DUP3 AND SWAP1 POP SWAP2 SWAP1 POP JUMP JUMPDEST PUSH1 0x0 DUP2 SWAP1 POP SWAP2 SWAP1 POP JUMP JUMPDEST PUSH1 0x0 PUSH1 0x2 DUP3 DIV SWAP1 POP PUSH1 0x1 DUP3 AND DUP1 PUSH3 0x3A9 JUMPI PUSH1 0x7F DUP3 AND SWAP2 POP JUMPDEST PUSH1 0x20 DUP3 LT DUP2 EQ ISZERO PUSH3 0x3C0 JUMPI PUSH3 0x3BF PUSH3 0x3C6 JUMP JUMPDEST JUMPDEST POP SWAP2 SWAP1 POP JUMP JUMPDEST PUSH32 0x4E487B7100000000000000000000000000000000000000000000000000000000 PUSH1 0x0 MSTORE PUSH1 0x22 PUSH1 0x4 MSTORE PUSH1 0x24 PUSH1 0x0 REVERT JUMPDEST PUSH1 0x0 DUP1 REVERT JUMPDEST PUSH3 0x405 DUP2 PUSH3 0x352 JUMP JUMPDEST DUP2 EQ PUSH3 0x411 JUMPI PUSH1 0x0 DUP1 REVERT JUMPDEST POP JUMP JUMPDEST PUSH3 0x41F DUP2 PUSH3 0x386 JUMP JUMPDEST DUP2 EQ PUSH3 0x42B JUMPI PUSH1 0x0 DUP1 REVERT JUMPDEST POP JUMP JUMPDEST PUSH2 0x66A DUP1 PUSH3 0x43E PUSH1 0x0 CODECOPY PUSH1 0x0 RETURN INVALID PUSH1 0x80 PUSH1 0x40 MSTORE CALLVALUE DUP1 ISZERO PUSH2 0x10 JUMPI PUSH1 0x0 DUP1 REVERT JUMPDEST POP PUSH1 0x4 CALLDATASIZE LT PUSH2 0xA9 JUMPI PUSH1 0x0 CALLDATALOAD PUSH1 0xE0 SHR DUP1 PUSH4 0x96BDAE27 GT PUSH2 0x71 JUMPI DUP1 PUSH4 0x96BDAE27 EQ PUSH2 0x144 JUMPI DUP1 PUSH4 0x99D51B15 EQ PUSH2 0x162 JUMPI DUP1 PUSH4 0xAD16A96C EQ PUSH2 0x16C JUMPI DUP1 PUSH4 0xD367900C EQ PUSH2 0x18A JUMPI DUP1 PUSH4 0xD456919B EQ PUSH2 0x194 JUMPI DUP1 PUSH4 0xE6402814 EQ PUSH2 0x1B2 JUMPI PUSH2 0xA9 JUMP JUMPDEST DUP1 PUSH4 0x12137227 EQ PUSH2 0xAE JUMPI DUP1 PUSH4 0x38CC4831 EQ PUSH2 0xCC JUMPI DUP1 PUSH4 0x7A471BDD EQ PUSH2 0xEA JUMPI DUP1 PUSH4 0x873E9755 EQ PUSH2 0x108 JUMPI DUP1 PUSH4 0x8C76FCD0 EQ PUSH2 0x126 JUMPI JUMPDEST PUSH1 0x0 DUP1 REVERT JUMPDEST PUSH2 0xB6 PUSH2 0x1D0 JUMP JUMPDEST PUSH1 0x40 MLOAD PUSH2 0xC3 SWAP2 SWAP1 PUSH2 0x465 JUMP JUMPDEST PUSH1 0x40 MLOAD DUP1 SWAP2 SUB SWAP1 RETURN JUMPDEST PUSH2 0xD4 PUSH2 0x25E JUMP JUMPDEST PUSH1 0x40 MLOAD PUSH2 0xE1 SWAP2 SWAP1 PUSH2 0x42F JUMP JUMPDEST PUSH1 0x40 MLOAD DUP1 SWAP2 SUB SWAP1 RETURN JUMPDEST PUSH2 0xF2 PUSH2 0x266 JUMP JUMPDEST PUSH1 0x40 MLOAD PUSH2 0xFF SWAP2 SWAP1 PUSH2 0x487 JUMP JUMPDEST PUSH1 0x40 MLOAD DUP1 SWAP2 SUB SWAP1 RETURN JUMPDEST PUSH2 0x110 PUSH2 0x26C JUMP JUMPDEST PUSH1 0x40 MLOAD PUSH2 0x11D SWAP2 SWAP1 PUSH2 0x42F JUMP JUMPDEST PUSH1 0x40 MLOAD DUP1 SWAP2 SUB SWAP1 RETURN JUMPDEST PUSH2 0x12E PUSH2 0x292 JUMP JUMPDEST PUSH1 0x40 MLOAD PUSH2 0x13B SWAP2 SWAP1 PUSH2 0x42F JUMP JUMPDEST PUSH1 0x40 MLOAD DUP1 SWAP2 SUB SWAP1 RETURN JUMPDEST PUSH2 0x14C PUSH2 0x2B6 JUMP JUMPDEST PUSH1 0x40 MLOAD PUSH2 0x159 SWAP2 SWAP1 PUSH2 0x487 JUMP JUMPDEST PUSH1 0x40 MLOAD DUP1 SWAP2 SUB SWAP1 RETURN JUMPDEST PUSH2 0x16A PUSH2 0x2BC JUMP JUMPDEST STOP JUMPDEST PUSH2 0x174 PUSH2 0x311 JUMP JUMPDEST PUSH1 0x40 MLOAD PUSH2 0x181 SWAP2 SWAP1 PUSH2 0x487 JUMP JUMPDEST PUSH1 0x40 MLOAD DUP1 SWAP2 SUB SWAP1 RETURN JUMPDEST PUSH2 0x192 PUSH2 0x328 JUMP JUMPDEST STOP JUMPDEST PUSH2 0x19C PUSH2 0x37D JUMP JUMPDEST PUSH1 0x40 MLOAD PUSH2 0x1A9 SWAP2 SWAP1 PUSH2 0x42F JUMP JUMPDEST PUSH1 0x40 MLOAD DUP1 SWAP2 SUB SWAP1 RETURN JUMPDEST PUSH2 0x1BA PUSH2 0x3A3 JUMP JUMPDEST PUSH1 0x40 MLOAD PUSH2 0x1C7 SWAP2 SWAP1 PUSH2 0x42F JUMP JUMPDEST PUSH1 0x40 MLOAD DUP1 SWAP2 SUB SWAP1 RETURN JUMPDEST PUSH1 0x6 DUP1 SLOAD PUSH2 0x1DD SWAP1 PUSH2 0x593 JUMP JUMPDEST DUP1 PUSH1 0x1F ADD PUSH1 0x20 DUP1 SWAP2 DIV MUL PUSH1 0x20 ADD PUSH1 0x40 MLOAD SWAP1 DUP2 ADD PUSH1 0x40 MSTORE DUP1 SWAP3 SWAP2 SWAP1 DUP2 DUP2 MSTORE PUSH1 0x20 ADD DUP3 DUP1 SLOAD PUSH2 0x209 SWAP1 PUSH2 0x593 JUMP JUMPDEST DUP1 ISZERO PUSH2 0x256 JUMPI DUP1 PUSH1 0x1F LT PUSH2 0x22B JUMPI PUSH2 0x100 DUP1 DUP4 SLOAD DIV MUL DUP4 MSTORE SWAP2 PUSH1 0x20 ADD SWAP2 PUSH2 0x256 JUMP JUMPDEST DUP3 ADD SWAP2 SWAP1 PUSH1 0x0 MSTORE PUSH1 0x20 PUSH1 0x0 KECCAK256 SWAP1 JUMPDEST DUP2 SLOAD DUP2 MSTORE SWAP1 PUSH1 0x1 ADD SWAP1 PUSH1 0x20 ADD DUP1 DUP4 GT PUSH2 0x239 JUMPI DUP3 SWAP1 SUB PUSH1 0x1F AND DUP3 ADD SWAP2 JUMPDEST POP POP POP POP POP DUP2 JUMP JUMPDEST PUSH1 0x0 ADDRESS SWAP1 POP SWAP1 JUMP JUMPDEST PUSH1 0x4 SLOAD DUP2 JUMP JUMPDEST PUSH1 0x1 PUSH1 0x0 SWAP1 SLOAD SWAP1 PUSH2 0x100 EXP SWAP1 DIV PUSH20 0xFFFFFFFFFFFFFFFFFFFFFFFFFFFFFFFFFFFFFFFF AND DUP2 JUMP JUMPDEST PUSH1 0x0 DUP1 SLOAD SWAP1 PUSH2 0x100 EXP SWAP1 DIV PUSH20 0xFFFFFFFFFFFFFFFFFFFFFFFFFFFFFFFFFFFFFFFF AND DUP2 JUMP JUMPDEST PUSH1 0x5 SLOAD DUP2 JUMP JUMPDEST PUSH1 0x1 PUSH1 0x7 PUSH1 0x0 PUSH2 0x100 EXP DUP2 SLOAD DUP2 PUSH1 0xFF MUL NOT AND SWAP1 DUP4 ISZERO ISZERO MUL OR SWAP1 SSTORE POP PUSH32 0xE7811334B3B5E674C7C0CBBC2E826FDF0A32A42441A762BC9FAA63ECA054B5F3 PUSH1 0x1 PUSH1 0x40 MLOAD PUSH2 0x307 SWAP2 SWAP1 PUSH2 0x44A JUMP JUMPDEST PUSH1 0x40 MLOAD DUP1 SWAP2 SUB SWAP1 LOG1 JUMP JUMPDEST PUSH1 0x0 PUSH1 0x4 SLOAD PUSH1 0x5 SLOAD PUSH2 0x323 SWAP2 SWAP1 PUSH2 0x4BE JUMP JUMPDEST SWAP1 POP SWAP1 JUMP JUMPDEST PUSH1 0x1 PUSH1 0x7 PUSH1 0x0 PUSH2 0x100 EXP DUP2 SLOAD DUP2 PUSH1 0xFF MUL NOT AND SWAP1 DUP4 ISZERO ISZERO MUL OR SWAP1 SSTORE POP PUSH32 0xE7811334B3B5E674C7C0CBBC2E826FDF0A32A42441A762BC9FAA63ECA054B5F3 PUSH1 0x1 PUSH1 0x40 MLOAD PUSH2 0x373 SWAP2 SWAP1 PUSH2 0x44A JUMP JUMPDEST PUSH1 0x40 MLOAD DUP1 SWAP2 SUB SWAP1 LOG1 JUMP JUMPDEST PUSH1 0x2 PUSH1 0x0 SWAP1 SLOAD SWAP1 PUSH2 0x100 EXP SWAP1 DIV PUSH20 0xFFFFFFFFFFFFFFFFFFFFFFFFFFFFFFFFFFFFFFFF AND DUP2 JUMP JUMPDEST PUSH1 0x3 PUSH1 0x0 SWAP1 SLOAD SWAP1 PUSH2 0x100 EXP SWAP1 DIV PUSH20 0xFFFFFFFFFFFFFFFFFFFFFFFFFFFFFFFFFFFFFFFF AND DUP2 JUMP JUMPDEST PUSH2 0x3D2 DUP2 PUSH2 0x518 JUMP JUMPDEST DUP3 MSTORE POP POP JUMP JUMPDEST PUSH2 0x3E1 DUP2 PUSH2 0x52A JUMP JUMPDEST DUP3 MSTORE POP POP JUMP JUMPDEST PUSH1 0x0 PUSH2 0x3F2 DUP3 PUSH2 0x4A2 JUMP JUMPDEST PUSH2 0x3FC DUP2 DUP6 PUSH2 0x4AD JUMP JUMPDEST SWAP4 POP PUSH2 0x40C DUP2 DUP6 PUSH1 0x20 DUP7 ADD PUSH2 0x560 JUMP JUMPDEST PUSH2 0x415 DUP2 PUSH2 0x623 JUMP JUMPDEST DUP5 ADD SWAP2 POP POP SWAP3 SWAP2 POP POP JUMP JUMPDEST PUSH2 0x429 DUP2 PUSH2 0x556 JUMP JUMPDEST DUP3 MSTORE POP POP JUMP JUMPDEST PUSH1 0x0 PUSH1 0x20 DUP3 ADD SWAP1 POP PUSH2 0x444 PUSH1 0x0 DUP4 ADD DUP5 PUSH2 0x3C9 JUMP JUMPDEST SWAP3 SWAP2 POP POP JUMP JUMPDEST PUSH1 0x0 PUSH1 0x20 DUP3 ADD SWAP1 POP PUSH2 0x45F PUSH1 0x0 DUP4 ADD DUP5 PUSH2 0x3D8 JUMP JUMPDEST SWAP3 SWAP2 POP POP JUMP JUMPDEST PUSH1 0x0 PUSH1 0x20 DUP3 ADD SWAP1 POP DUP2 DUP2 SUB PUSH1 0x0 DUP4 ADD MSTORE PUSH2 0x47F DUP2 DUP5 PUSH2 0x3E7 JUMP JUMPDEST SWAP1 POP SWAP3 SWAP2 POP POP JUMP JUMPDEST PUSH1 0x0 PUSH1 0x20 DUP3 ADD SWAP1 POP PUSH2 0x49C PUSH1 0x0 DUP4 ADD DUP5 PUSH2 0x420 JUMP JUMPDEST SWAP3 SWAP2 POP POP JUMP JUMPDEST PUSH1 0x0 DUP2 MLOAD SWAP1 POP SWAP2 SWAP1 POP JUMP JUMPDEST PUSH1 0x0 DUP3 DUP3 MSTORE PUSH1 0x20 DUP3 ADD SWAP1 POP SWAP3 SWAP2 POP POP JUMP JUMPDEST PUSH1 0x0 PUSH2 0x4C9 DUP3 PUSH2 0x556 JUMP JUMPDEST SWAP2 POP PUSH2 0x4D4 DUP4 PUSH2 0x556 JUMP JUMPDEST SWAP3 POP DUP2 PUSH32 0xFFFFFFFFFFFFFFFFFFFFFFFFFFFFFFFFFFFFFFFFFFFFFFFFFFFFFFFFFFFFFFFF DIV DUP4 GT DUP3 ISZERO ISZERO AND ISZERO PUSH2 0x50D JUMPI PUSH2 0x50C PUSH2 0x5C5 JUMP JUMPDEST JUMPDEST DUP3 DUP3 MUL SWAP1 POP SWAP3 SWAP2 POP POP JUMP JUMPDEST PUSH1 0x0 PUSH2 0x523 DUP3 PUSH2 0x536 JUMP JUMPDEST SWAP1 POP SWAP2 SWAP1 POP JUMP JUMPDEST PUSH1 0x0 DUP2 ISZERO ISZERO SWAP1 POP SWAP2 SWAP1 POP JUMP JUMPDEST PUSH1 0x0 PUSH20 0xFFFFFFFFFFFFFFFFFFFFFFFFFFFFFFFFFFFFFFFF DUP3 AND SWAP1 POP SWAP2 SWAP1 POP JUMP JUMPDEST PUSH1 0x0 DUP2 SWAP1 POP SWAP2 SWAP1 POP JUMP JUMPDEST PUSH1 0x0 JUMPDEST DUP4 DUP2 LT ISZERO PUSH2 0x57E JUMPI DUP1 DUP3 ADD MLOAD DUP2 DUP5 ADD MSTORE PUSH1 0x20 DUP2 ADD SWAP1 POP PUSH2 0x563 JUMP JUMPDEST DUP4 DUP2 GT ISZERO PUSH2 0x58D JUMPI PUSH1 0x0 DUP5 DUP5 ADD MSTORE JUMPDEST POP POP POP POP JUMP JUMPDEST PUSH1 0x0 PUSH1 0x2 DUP3 DIV SWAP1 POP PUSH1 0x1 DUP3 AND DUP1 PUSH2 0x5AB JUMPI PUSH1 0x7F DUP3 AND SWAP2 POP JUMPDEST PUSH1 0x20 DUP3 LT DUP2 EQ ISZERO PUSH2 0x5BF JUMPI PUSH2 0x5BE PUSH2 0x5F4 JUMP JUMPDEST JUMPDEST POP SWAP2 SWAP1 POP JUMP JUMPDEST PUSH32 0x4E487B7100000000000000000000000000000000000000000000000000000000 PUSH1 0x0 MSTORE PUSH1 0x11 PUSH1 0x4 MSTORE PUSH1 0x24 PUSH1 0x0 REVERT JUMPDEST PUSH32 0x4E487B7100000000000000000000000000000000000000000000000000000000 PUSH1 0x0 MSTORE PUSH1 0x22 PUSH1 0x4 MSTORE PUSH1 0x24 PUSH1 0x0 REVERT JUMPDEST PUSH1 0x0 PUSH1 0x1F NOT PUSH1 0x1F DUP4 ADD AND SWAP1 POP SWAP2 SWAP1 POP JUMP INVALID LOG2 PUSH5 0x6970667358 0x22 SLT KECCAK256 BALANCE 0xC9 0xD7 PUSH27 0xC812927F5012564925A364A9EA95E2A64DCD99A00E9F1E0EA94DE4 CALLCODE PUSH5 0x736F6C6343 STOP ADDMOD SMOD STOP CALLER LOG2 PUSH5 0x6970667358 0x22 SLT KECCAK256 STATICCALL 0xFB SELFDESTRUCT 0xC7 0x1E MSTORE8 STATICCALL 0x5F SWAP12 RETURNDATACOPY 0x2C EXTCODECOPY 0xD7 0xF DUP13 GAS 0xDA 0xB5 0xE8 0xB2 ADDRESS KECCAK256 DELEGATECALL 0xBE 0x2F SLOAD 0x2A DUP5 0xFC EXTCODECOPY ISZERO JUMPI PUSH5 0x736F6C6343 STOP ADDMOD SMOD STOP CALLER "
		},
		"gasEstimates": {
			"creation": {
				"codeDepositCost": "1793600",
				"executionCost": "infinite",
				"totalCost": "infinite"
			},
			"external": {
				"addBank(address,string)": "infinite",
				"addPerson(address,string,string,bool,uint256)": "infinite",
				"changeBalanceOfPerson(bool,address,uint256)": "infinite",
				"getPersonBalance(address)": "infinite",
				"getPersonName(address)": "infinite",
				"initiateGlobalPaymentContract(address,address,address,address,uint256,uint256)": "infinite",
				"submitTransfer(address,address)": "infinite"
			},
			"internal": {
				"findBank(address)": "infinite",
				"findPerson(address)": "infinite"
			}
		},
		"methodIdentifiers": {
			"addBank(address,string)": "8c438908",
			"addPerson(address,string,string,bool,uint256)": "5bffece1",
			"changeBalanceOfPerson(bool,address,uint256)": "1368536a",
			"getPersonBalance(address)": "05726003",
			"getPersonName(address)": "d1563da0",
			"initiateGlobalPaymentContract(address,address,address,address,uint256,uint256)": "b1b32289",
			"submitTransfer(address,address)": "640688ec"
		}
	},
	"abi": [
		{
			"inputs": [],
			"stateMutability": "nonpayable",
			"type": "constructor"
		},
		{
			"anonymous": false,
			"inputs": [
				{
					"indexed": false,
					"internalType": "address",
					"name": "",
					"type": "address"
				}
			],
			"name": "GlobalPaymentContractIsCreated",
			"type": "event"
		},
		{
			"inputs": [
				{
					"internalType": "address",
					"name": "account",
					"type": "address"
				},
				{
					"internalType": "string",
					"name": "name",
					"type": "string"
				}
			],
			"name": "addBank",
			"outputs": [],
			"stateMutability": "nonpayable",
			"type": "function"
		},
		{
			"inputs": [
				{
					"internalType": "address",
					"name": "account",
					"type": "address"
				},
				{
					"internalType": "string",
					"name": "first_name",
					"type": "string"
				},
				{
					"internalType": "string",
					"name": "last_name",
					"type": "string"
				},
				{
					"internalType": "bool",
					"name": "KYCstatus",
					"type": "bool"
				},
				{
					"internalType": "uint256",
					"name": "balance",
					"type": "uint256"
				}
			],
			"name": "addPerson",
			"outputs": [],
			"stateMutability": "nonpayable",
			"type": "function"
		},
		{
			"inputs": [
				{
					"internalType": "bool",
					"name": "pay_receive",
					"type": "bool"
				},
				{
					"internalType": "address",
					"name": "account",
					"type": "address"
				},
				{
					"internalType": "uint256",
					"name": "amount",
					"type": "uint256"
				}
			],
			"name": "changeBalanceOfPerson",
			"outputs": [],
			"stateMutability": "nonpayable",
			"type": "function"
		},
		{
			"inputs": [
				{
					"internalType": "address",
					"name": "account",
					"type": "address"
				}
			],
			"name": "getPersonBalance",
			"outputs": [
				{
					"internalType": "uint256",
					"name": "",
					"type": "uint256"
				}
			],
			"stateMutability": "view",
			"type": "function"
		},
		{
			"inputs": [
				{
					"internalType": "address",
					"name": "account",
					"type": "address"
				}
			],
			"name": "getPersonName",
			"outputs": [
				{
					"internalType": "string",
					"name": "",
					"type": "string"
				}
			],
			"stateMutability": "view",
			"type": "function"
		},
		{
			"inputs": [
				{
					"internalType": "address",
					"name": "accountPersonSender",
					"type": "address"
				},
				{
					"internalType": "address",
					"name": "accountBankSender",
					"type": "address"
				},
				{
					"internalType": "address",
					"name": "accountBankBeneficiary",
					"type": "address"
				},
				{
					"internalType": "address",
					"name": "accountPersonBeneficiary",
					"type": "address"
				},
				{
					"internalType": "uint256",
					"name": "FX_rate",
					"type": "uint256"
				},
				{
					"internalType": "uint256",
					"name": "transferamount",
					"type": "uint256"
				}
			],
			"name": "initiateGlobalPaymentContract",
			"outputs": [],
			"stateMutability": "nonpayable",
			"type": "function"
		},
		{
			"inputs": [
				{
					"internalType": "contract GlobalPaymentContract",
					"name": "globalPaymentContract",
					"type": "address"
				},
				{
					"internalType": "address",
					"name": "accountPersonSender",
					"type": "address"
				}
			],
			"name": "submitTransfer",
			"outputs": [],
			"stateMutability": "nonpayable",
			"type": "function"
		}
	]
}