{
	"data": {
		"bytecode": {
			"linkReferences": {},
			"object": "60806040523480156200001157600080fd5b50620000a8736616a4f8d35a2cbe3b4c0427c428bd3af3ca52fa6040518060400160405280600581526020017f416c6963650000000000000000000000000000000000000000000000000000008152506040518060400160405280600381526020017f446f65000000000000000000000000000000000000000000000000000000000081525060016103e86200025560201b60201c565b6200013e73cf305bd0861b5727fe08fefdf8fe93871cc4acc26040518060400160405280600381526020017f426f6200000000000000000000000000000000000000000000000000000000008152506040518060400160405280600381526020017f446f65000000000000000000000000000000000000000000000000000000000081525060016103e86200025560201b60201c565b620001997352c9fc3556ea3a18628f4d156604e733015064c26040518060400160405280600381526020017f4b42430000000000000000000000000000000000000000000000000000000000815250620003cd60201b60201c565b620001f4733c5389b061c808eee0165866253097f02a39a3c86040518060400160405280600381526020017f494e470000000000000000000000000000000000000000000000000000000000815250620003cd60201b60201c565b6200024f73c1c276483229ca36ee022e7823cdbca1a99640e26040518060400160405280600981526020017f526567756c61746f720000000000000000000000000000000000000000000000815250620004e560201b60201c565b62000ae5565b60006200026886620005fd60201b60201c565b12620002ab576040517f08c379a0000000000000000000000000000000000000000000000000000000008152600401620002a2906200096e565b60405180910390fd5b60006040518060a001604052808773ffffffffffffffffffffffffffffffffffffffff168152602001868152602001858152602001841515815260200183815250908060018154018082558091505060019003906000526020600020906005020160009091909190915060008201518160000160006101000a81548173ffffffffffffffffffffffffffffffffffffffff021916908373ffffffffffffffffffffffffffffffffffffffff16021790555060208201518160010190805190602001906200037a92919062000897565b5060408201518160020190805190602001906200039992919062000897565b5060608201518160030160006101000a81548160ff0219169083151502179055506080820151816004015550505050505050565b6000620003e083620006dd60201b60201c565b1262000423576040517f08c379a00000000000000000000000000000000000000000000000000000000081526004016200041a906200096e565b60405180910390fd5b600160405180604001604052808473ffffffffffffffffffffffffffffffffffffffff16815260200183815250908060018154018082558091505060019003906000526020600020906002020160009091909190915060008201518160000160006101000a81548173ffffffffffffffffffffffffffffffffffffffff021916908373ffffffffffffffffffffffffffffffffffffffff1602179055506020820151816001019080519060200190620004de92919062000897565b5050505050565b6000620004f883620007ba60201b60201c565b126200053b576040517f08c379a000000000000000000000000000000000000000000000000000000000815260040162000532906200096e565b60405180910390fd5b600260405180604001604052808473ffffffffffffffffffffffffffffffffffffffff16815260200183815250908060018154018082558091505060019003906000526020600020906002020160009091909190915060008201518160000160006101000a81548173ffffffffffffffffffffffffffffffffffffffff021916908373ffffffffffffffffffffffffffffffffffffffff1602179055506020820151816001019080519060200190620005f692919062000897565b5050505050565b600080600080549050905060005b81811015620006b2578373ffffffffffffffffffffffffffffffffffffffff166000828154811062000642576200064162000a8d565b5b906000526020600020906005020160000160009054906101000a900473ffffffffffffffffffffffffffffffffffffffff1673ffffffffffffffffffffffffffffffffffffffff1614156200069c578092505050620006d8565b8080620006a990620009e1565b9150506200060b565b507fffffffffffffffffffffffffffffffffffffffffffffffffffffffffffffffff9150505b919050565b600080600090505b60018054905081101562000790578273ffffffffffffffffffffffffffffffffffffffff166001828154811062000721576200072062000a8d565b5b906000526020600020906002020160000160009054906101000a900473ffffffffffffffffffffffffffffffffffffffff1673ffffffffffffffffffffffffffffffffffffffff1614156200077a5780915050620007b5565b80806200078790620009e1565b915050620006e5565b507fffffffffffffffffffffffffffffffffffffffffffffffffffffffffffffffff90505b919050565b600080600090505b6002805490508110156200086d578273ffffffffffffffffffffffffffffffffffffffff1660028281548110620007fe57620007fd62000a8d565b5b906000526020600020906002020160000160009054906101000a900473ffffffffffffffffffffffffffffffffffffffff1673ffffffffffffffffffffffffffffffffffffffff16141562000857578091505062000892565b80806200086490620009e1565b915050620007c2565b507fffffffffffffffffffffffffffffffffffffffffffffffffffffffffffffffff90505b919050565b828054620008a590620009ab565b90600052602060002090601f016020900481019282620008c9576000855562000915565b82601f10620008e457805160ff191683800117855562000915565b8280016001018555821562000915579182015b8281111562000914578251825591602001919060010190620008f7565b5b50905062000924919062000928565b5090565b5b808211156200094357600081600090555060010162000929565b5090565b600062000956600e8362000990565b9150620009638262000abc565b602082019050919050565b60006020820190508181036000830152620009898162000947565b9050919050565b600082825260208201905092915050565b6000819050919050565b60006002820490506001821680620009c457607f821691505b60208210811415620009db57620009da62000a5e565b5b50919050565b6000620009ee82620009a1565b91507fffffffffffffffffffffffffffffffffffffffffffffffffffffffffffffffff82141562000a245762000a2362000a2f565b5b600182019050919050565b7f4e487b7100000000000000000000000000000000000000000000000000000000600052601160045260246000fd5b7f4e487b7100000000000000000000000000000000000000000000000000000000600052602260045260246000fd5b7f4e487b7100000000000000000000000000000000000000000000000000000000600052603260045260246000fd5b7f416c726561647920657869737473000000000000000000000000000000000000600082015250565b6134908062000af56000396000f3fe60806040523480156200001157600080fd5b5060043610620000b85760003560e01c8063ae82f7f6116200007b578063ae82f7f61462000173578063b1b322891462000193578063d1563da014620001b3578063d6f8ae4e14620001e9578063df8926c6146200021f578063f9e4f57d146200023f57620000b8565b80630572600314620000bd5780631368536a14620000f357806323e7169614620001135780635bffece114620001335780638c4389081462000153575b600080fd5b620000db6004803603810190620000d5919062001989565b6200025f565b604051620000ea91906200222b565b60405180910390f35b6200011160048036038101906200010b919062001c2e565b620002e7565b005b6200013160048036038101906200012b919062001c8a565b620003d3565b005b6200015160048036038101906200014b919062001b36565b620007d0565b005b6200017160048036038101906200016b919062001ad0565b62000942565b005b6200019160048036038101906200018b919062001ad0565b62000a54565b005b620001b16004803603810190620001ab9190620019ed565b62000b66565b005b620001d16004803603810190620001cb919062001989565b62000ecd565b604051620001e091906200202b565b60405180910390f35b62000207600480360381019062000201919062001989565b62000fe6565b6040516200021691906200200e565b60405180910390f35b6200023d600480360381019062000237919062001c8a565b6200107b565b005b6200025d600480360381019062000257919062001a89565b62001477565b005b6000806200026d8362001512565b90506000811215620002b6576040517f08c379a0000000000000000000000000000000000000000000000000000000008152600401620002ad90620020b5565b60405180910390fd5b60008181548110620002cd57620002cc62002516565b5b906000526020600020906005020160040154915050919050565b6000620002f48362001512565b905060008112156200033d576040517f08c379a00000000000000000000000000000000000000000000000000000000081526004016200033490620020b5565b60405180910390fd5b83156200038b5781600082815481106200035c576200035b62002516565b5b906000526020600020906005020160040160008282546200037e919062002320565b92505081905550620003cd565b8160008281548110620003a357620003a262002516565b5b90600052602060002090600502016004016000828254620003c59190620022c3565b925050819055505b50505050565b8073ffffffffffffffffffffffffffffffffffffffff1663d456919b6040518163ffffffff1660e01b815260040160206040518083038186803b1580156200041a57600080fd5b505afa1580156200042f573d6000803e3d6000fd5b505050506040513d601f19601f82011682018060405250810190620004559190620019bb565b73ffffffffffffffffffffffffffffffffffffffff163373ffffffffffffffffffffffffffffffffffffffff1614620004c5576040517f08c379a0000000000000000000000000000000000000000000000000000000008152600401620004bc90620020f9565b60405180910390fd5b600015158173ffffffffffffffffffffffffffffffffffffffff1663bc3fb50f6040518163ffffffff1660e01b815260040160206040518083038186803b1580156200051057600080fd5b505afa15801562000525573d6000803e3d6000fd5b505050506040513d601f19601f820116820180604052508101906200054b919062001bfc565b15151462000590576040517f08c379a000000000000000000000000000000000000000000000000000000000815260040162000587906200211b565b60405180910390fd5b600015158173ffffffffffffffffffffffffffffffffffffffff166326e0c5ae6040518163ffffffff1660e01b815260040160206040518083038186803b158015620005db57600080fd5b505afa158015620005f0573d6000803e3d6000fd5b505050506040513d601f19601f8201168201806040525081019062000616919062001bfc565b1515146200065b576040517f08c379a0000000000000000000000000000000000000000000000000000000008152600401620006529062002181565b60405180910390fd5b6200076b60018273ffffffffffffffffffffffffffffffffffffffff16638c76fcd06040518163ffffffff1660e01b815260040160206040518083038186803b158015620006a857600080fd5b505afa158015620006bd573d6000803e3d6000fd5b505050506040513d601f19601f82011682018060405250810190620006e39190620019bb565b8373ffffffffffffffffffffffffffffffffffffffff166396bdae276040518163ffffffff1660e01b815260040160206040518083038186803b1580156200072a57600080fd5b505afa1580156200073f573d6000803e3d6000fd5b505050506040513d601f19601f8201168201806040525081019062000765919062001cbc565b620002e7565b8073ffffffffffffffffffffffffffffffffffffffff1663d367900c6040518163ffffffff1660e01b8152600401600060405180830381600087803b158015620007b457600080fd5b505af1158015620007c9573d6000803e3d6000fd5b5050505050565b6000620007dd8662001512565b1262000820576040517f08c379a00000000000000000000000000000000000000000000000000000000081526004016200081790620020d7565b60405180910390fd5b60006040518060a001604052808773ffffffffffffffffffffffffffffffffffffffff168152602001868152602001858152602001841515815260200183815250908060018154018082558091505060019003906000526020600020906005020160009091909190915060008201518160000160006101000a81548173ffffffffffffffffffffffffffffffffffffffff021916908373ffffffffffffffffffffffffffffffffffffffff1602179055506020820151816001019080519060200190620008ef929190620017ac565b5060408201518160020190805190602001906200090e929190620017ac565b5060608201518160030160006101000a81548160ff0219169083151502179055506080820151816004015550505050505050565b60006200094f83620015f2565b1262000992576040517f08c379a00000000000000000000000000000000000000000000000000000000081526004016200098990620020d7565b60405180910390fd5b600160405180604001604052808473ffffffffffffffffffffffffffffffffffffffff16815260200183815250908060018154018082558091505060019003906000526020600020906002020160009091909190915060008201518160000160006101000a81548173ffffffffffffffffffffffffffffffffffffffff021916908373ffffffffffffffffffffffffffffffffffffffff160217905550602082015181600101908051906020019062000a4d929190620017ac565b5050505050565b600062000a6183620016cf565b1262000aa4576040517f08c379a000000000000000000000000000000000000000000000000000000000815260040162000a9b90620020d7565b60405180910390fd5b600260405180604001604052808473ffffffffffffffffffffffffffffffffffffffff16815260200183815250908060018154018082558091505060019003906000526020600020906002020160009091909190915060008201518160000160006101000a81548173ffffffffffffffffffffffffffffffffffffffff021916908373ffffffffffffffffffffffffffffffffffffffff160217905550602082015181600101908051906020019062000b5f929190620017ac565b5050505050565b8473ffffffffffffffffffffffffffffffffffffffff163373ffffffffffffffffffffffffffffffffffffffff161462000bd7576040517f08c379a000000000000000000000000000000000000000000000000000000000815260040162000bce90620021a3565b60405180910390fd5b600062000be486620015f2565b121562000c28576040517f08c379a000000000000000000000000000000000000000000000000000000000815260040162000c1f906200204f565b60405180910390fd5b600062000c3585620015f2565b121562000c79576040517f08c379a000000000000000000000000000000000000000000000000000000000815260040162000c709062002071565b60405180910390fd5b600062000c868762001512565b121562000cca576040517f08c379a000000000000000000000000000000000000000000000000000000000815260040162000cc1906200215f565b60405180910390fd5b600062000cd78462001512565b121562000d1b576040517f08c379a000000000000000000000000000000000000000000000000000000000815260040162000d129062002209565b60405180910390fd5b6001151562000d2a8762000fe6565b15151462000d6f576040517f08c379a000000000000000000000000000000000000000000000000000000000815260040162000d6690620021c5565b60405180910390fd5b6001151562000d7e8462000fe6565b15151462000dc3576040517f08c379a000000000000000000000000000000000000000000000000000000000815260040162000dba9062002093565b60405180910390fd5b600086868686868660405162000dd9906200183d565b62000dea9695949392919062001fa1565b604051809103906000f08015801562000e07573d6000803e3d6000fd5b5090507f34551f19ebd97b9a8971c4fff766382e1d196b9d3f7f38db0d7aa74d7e1526b08173ffffffffffffffffffffffffffffffffffffffff166338cc48316040518163ffffffff1660e01b815260040160206040518083038186803b15801562000e7257600080fd5b505afa15801562000e87573d6000803e3d6000fd5b505050506040513d601f19601f8201168201806040525081019062000ead9190620019bb565b60405162000ebc919062001f84565b60405180910390a150505050505050565b6060600062000edc8362001512565b9050600081121562000f25576040517f08c379a000000000000000000000000000000000000000000000000000000000815260040162000f1c90620020b5565b60405180910390fd5b6000818154811062000f3c5762000f3b62002516565b5b9060005260206000209060050201600101805462000f5a90620023fe565b80601f016020809104026020016040519081016040528092919081815260200182805462000f8890620023fe565b801562000fd95780601f1062000fad5761010080835404028352916020019162000fd9565b820191906000526020600020905b81548152906001019060200180831162000fbb57829003601f168201915b5050505050915050919050565b60008062000ff48362001512565b905060008112156200103d576040517f08c379a00000000000000000000000000000000000000000000000000000000081526004016200103490620020b5565b60405180910390fd5b6000818154811062001054576200105362002516565b5b906000526020600020906005020160030160009054906101000a900460ff16915050919050565b8073ffffffffffffffffffffffffffffffffffffffff1663e64028146040518163ffffffff1660e01b815260040160206040518083038186803b158015620010c257600080fd5b505afa158015620010d7573d6000803e3d6000fd5b505050506040513d601f19601f82011682018060405250810190620010fd9190620019bb565b73ffffffffffffffffffffffffffffffffffffffff163373ffffffffffffffffffffffffffffffffffffffff16146200116d576040517f08c379a00000000000000000000000000000000000000000000000000000000081526004016200116490620020f9565b60405180910390fd5b600115158173ffffffffffffffffffffffffffffffffffffffff1663bc3fb50f6040518163ffffffff1660e01b815260040160206040518083038186803b158015620011b857600080fd5b505afa158015620011cd573d6000803e3d6000fd5b505050506040513d601f19601f82011682018060405250810190620011f3919062001bfc565b15151462001238576040517f08c379a00000000000000000000000000000000000000000000000000000000081526004016200122f90620021e7565b60405180910390fd5b600015158173ffffffffffffffffffffffffffffffffffffffff166326e0c5ae6040518163ffffffff1660e01b815260040160206040518083038186803b1580156200128357600080fd5b505afa15801562001298573d6000803e3d6000fd5b505050506040513d601f19601f82011682018060405250810190620012be919062001bfc565b15151462001303576040517f08c379a0000000000000000000000000000000000000000000000000000000008152600401620012fa906200213d565b60405180910390fd5b6200141360008273ffffffffffffffffffffffffffffffffffffffff1663873e97556040518163ffffffff1660e01b815260040160206040518083038186803b1580156200135057600080fd5b505afa15801562001365573d6000803e3d6000fd5b505050506040513d601f19601f820116820180604052508101906200138b9190620019bb565b8373ffffffffffffffffffffffffffffffffffffffff1663ad16a96c6040518163ffffffff1660e01b815260040160206040518083038186803b158015620013d257600080fd5b505afa158015620013e7573d6000803e3d6000fd5b505050506040513d601f19601f820116820180604052508101906200140d919062001cbc565b620002e7565b8073ffffffffffffffffffffffffffffffffffffffff16625c33e16040518163ffffffff1660e01b8152600401600060405180830381600087803b1580156200145b57600080fd5b505af115801562001470573d6000803e3d6000fd5b5050505050565b6000620014848362001512565b90506000811215620014cd576040517f08c379a0000000000000000000000000000000000000000000000000000000008152600401620014c490620020b5565b60405180910390fd5b8160008281548110620014e557620014e462002516565b5b906000526020600020906005020160030160006101000a81548160ff021916908315150217905550505050565b600080600080549050905060005b81811015620015c7578373ffffffffffffffffffffffffffffffffffffffff166000828154811062001557576200155662002516565b5b906000526020600020906005020160000160009054906101000a900473ffffffffffffffffffffffffffffffffffffffff1673ffffffffffffffffffffffffffffffffffffffff161415620015b1578092505050620015ed565b8080620015be906200246a565b91505062001520565b507fffffffffffffffffffffffffffffffffffffffffffffffffffffffffffffffff9150505b919050565b600080600090505b600180549050811015620016a5578273ffffffffffffffffffffffffffffffffffffffff166001828154811062001636576200163562002516565b5b906000526020600020906002020160000160009054906101000a900473ffffffffffffffffffffffffffffffffffffffff1673ffffffffffffffffffffffffffffffffffffffff1614156200168f5780915050620016ca565b80806200169c906200246a565b915050620015fa565b507fffffffffffffffffffffffffffffffffffffffffffffffffffffffffffffffff90505b919050565b600080600090505b60028054905081101562001782578273ffffffffffffffffffffffffffffffffffffffff166002828154811062001713576200171262002516565b5b906000526020600020906002020160000160009054906101000a900473ffffffffffffffffffffffffffffffffffffffff1673ffffffffffffffffffffffffffffffffffffffff1614156200176c5780915050620017a7565b808062001779906200246a565b915050620016d7565b507fffffffffffffffffffffffffffffffffffffffffffffffffffffffffffffffff90505b919050565b828054620017ba90620023fe565b90600052602060002090601f016020900481019282620017de57600085556200182a565b82601f10620017f957805160ff19168380011785556200182a565b828001600101855582156200182a579182015b82811115620018295782518255916020019190600101906200180c565b5b5090506200183991906200184b565b5090565b610b37806200292483390190565b5b80821115620018665760008160009055506001016200184c565b5090565b6000620018816200187b8462002271565b62002248565b905082815260208101848484011115620018a0576200189f62002579565b5b620018ad848285620023b9565b509392505050565b600081359050620018c681620028bb565b92915050565b600081519050620018dd81620028bb565b92915050565b600081359050620018f481620028d5565b92915050565b6000815190506200190b81620028d5565b92915050565b6000813590506200192281620028ef565b92915050565b600082601f83011262001940576200193f62002574565b5b8135620019528482602086016200186a565b91505092915050565b6000813590506200196c8162002909565b92915050565b600081519050620019838162002909565b92915050565b600060208284031215620019a257620019a162002583565b5b6000620019b284828501620018b5565b91505092915050565b600060208284031215620019d457620019d362002583565b5b6000620019e484828501620018cc565b91505092915050565b60008060008060008060c0878903121562001a0d5762001a0c62002583565b5b600062001a1d89828a01620018b5565b965050602062001a3089828a01620018b5565b955050604062001a4389828a01620018b5565b945050606062001a5689828a01620018b5565b935050608062001a6989828a016200195b565b92505060a062001a7c89828a016200195b565b9150509295509295509295565b6000806040838503121562001aa35762001aa262002583565b5b600062001ab385828601620018b5565b925050602062001ac685828601620018e3565b9150509250929050565b6000806040838503121562001aea5762001ae962002583565b5b600062001afa85828601620018b5565b925050602083013567ffffffffffffffff81111562001b1e5762001b1d6200257e565b5b62001b2c8582860162001928565b9150509250929050565b600080600080600060a0868803121562001b555762001b5462002583565b5b600062001b6588828901620018b5565b955050602086013567ffffffffffffffff81111562001b895762001b886200257e565b5b62001b978882890162001928565b945050604086013567ffffffffffffffff81111562001bbb5762001bba6200257e565b5b62001bc98882890162001928565b935050606062001bdc88828901620018e3565b925050608062001bef888289016200195b565b9150509295509295909350565b60006020828403121562001c155762001c1462002583565b5b600062001c2584828501620018fa565b91505092915050565b60008060006060848603121562001c4a5762001c4962002583565b5b600062001c5a86828701620018e3565b935050602062001c6d86828701620018b5565b925050604062001c80868287016200195b565b9150509250925092565b60006020828403121562001ca35762001ca262002583565b5b600062001cb38482850162001911565b91505092915050565b60006020828403121562001cd55762001cd462002583565b5b600062001ce58482850162001972565b91505092915050565b62001cf9816200235b565b82525050565b62001d0a816200236f565b82525050565b600062001d1d82620022a7565b62001d298185620022b2565b935062001d3b818560208601620023c8565b62001d468162002588565b840191505092915050565b600062001d60601c83620022b2565b915062001d6d8262002599565b602082019050919050565b600062001d87602183620022b2565b915062001d9482620025c2565b604082019050919050565b600062001dae602e83620022b2565b915062001dbb8262002611565b604082019050919050565b600062001dd5601983620022b2565b915062001de28262002660565b602082019050919050565b600062001dfc600e83620022b2565b915062001e098262002689565b602082019050919050565b600062001e23602483620022b2565b915062001e3082620026b2565b604082019050919050565b600062001e4a601783620022b2565b915062001e578262002701565b602082019050919050565b600062001e71602083620022b2565b915062001e7e826200272a565b602082019050919050565b600062001e98601483620022b2565b915062001ea58262002753565b602082019050919050565b600062001ebf602483620022b2565b915062001ecc826200277c565b604082019050919050565b600062001ee6603483620022b2565b915062001ef382620027cb565b604082019050919050565b600062001f0d602983620022b2565b915062001f1a826200281a565b604082019050919050565b600062001f34601a83620022b2565b915062001f418262002869565b602082019050919050565b600062001f5b601983620022b2565b915062001f688262002892565b602082019050919050565b62001f7e81620023af565b82525050565b600060208201905062001f9b600083018462001cee565b92915050565b600060c08201905062001fb8600083018962001cee565b62001fc7602083018862001cee565b62001fd6604083018762001cee565b62001fe5606083018662001cee565b62001ff4608083018562001f73565b6200200360a083018462001f73565b979650505050505050565b600060208201905062002025600083018462001cff565b92915050565b6000602082019050818103600083015262002047818462001d10565b905092915050565b600060208201905081810360008301526200206a8162001d51565b9050919050565b600060208201905081810360008301526200208c8162001d78565b9050919050565b60006020820190508181036000830152620020ae8162001d9f565b9050919050565b60006020820190508181036000830152620020d08162001dc6565b9050919050565b60006020820190508181036000830152620020f28162001ded565b9050919050565b60006020820190508181036000830152620021148162001e14565b9050919050565b60006020820190508181036000830152620021368162001e3b565b9050919050565b60006020820190508181036000830152620021588162001e62565b9050919050565b600060208201905081810360008301526200217a8162001e89565b9050919050565b600060208201905081810360008301526200219c8162001eb0565b9050919050565b60006020820190508181036000830152620021be8162001ed7565b9050919050565b60006020820190508181036000830152620021e08162001efe565b9050919050565b60006020820190508181036000830152620022028162001f25565b9050919050565b60006020820190508181036000830152620022248162001f4c565b9050919050565b600060208201905062002242600083018462001f73565b92915050565b60006200225462002267565b905062002262828262002434565b919050565b6000604051905090565b600067ffffffffffffffff8211156200228f576200228e62002545565b5b6200229a8262002588565b9050602081019050919050565b600081519050919050565b600082825260208201905092915050565b6000620022d082620023af565b9150620022dd83620023af565b9250827fffffffffffffffffffffffffffffffffffffffffffffffffffffffffffffffff03821115620023155762002314620024b8565b5b828201905092915050565b60006200232d82620023af565b91506200233a83620023af565b92508282101562002350576200234f620024b8565b5b828203905092915050565b600062002368826200238f565b9050919050565b60008115159050919050565b600062002388826200235b565b9050919050565b600073ffffffffffffffffffffffffffffffffffffffff82169050919050565b6000819050919050565b82818337600083830152505050565b60005b83811015620023e8578082015181840152602081019050620023cb565b83811115620023f8576000848401525b50505050565b600060028204905060018216806200241757607f821691505b602082108114156200242e576200242d620024e7565b5b50919050565b6200243f8262002588565b810181811067ffffffffffffffff8211171562002461576200246062002545565b5b80604052505050565b60006200247782620023af565b91507fffffffffffffffffffffffffffffffffffffffffffffffffffffffffffffffff821415620024ad57620024ac620024b8565b5b600182019050919050565b7f4e487b7100000000000000000000000000000000000000000000000000000000600052601160045260246000fd5b7f4e487b7100000000000000000000000000000000000000000000000000000000600052602260045260246000fd5b7f4e487b7100000000000000000000000000000000000000000000000000000000600052603260045260246000fd5b7f4e487b7100000000000000000000000000000000000000000000000000000000600052604160045260246000fd5b600080fd5b600080fd5b600080fd5b600080fd5b6000601f19601f8301169050919050565b7f42616e6b206f662073656e64657220646f65736e277420657869737400000000600082015250565b7f42616e6b206f662062656e656669636961727920646f65736e2774206578697360008201527f7400000000000000000000000000000000000000000000000000000000000000602082015250565b7f42656e65666963696172792069736e27742076657269666965642e204b59435f60008201527f737461747573203d2066616c7365000000000000000000000000000000000000602082015250565b7f5468697320706572736f6e20646f65736e277420657869737400000000000000600082015250565b7f416c726561647920657869737473000000000000000000000000000000000000600082015250565b7f4e6f207065726d697373696f6e20746f207375626d697420746865207472616e60008201527f7366657200000000000000000000000000000000000000000000000000000000602082015250565b7f53656e6465722068617320616c72656164792070616964000000000000000000600082015250565b7f42656e65666963696172792068617320616c7265616479207265636569766564600082015250565b7f53656e64657220646f65736e2774206578697374000000000000000000000000600082015250565b7f4572726f7220696e2073797374656d2e205468697320697320696d706f73736960008201527f626c652e00000000000000000000000000000000000000000000000000000000602082015250565b7f4e6f207065726d697373696f6e20746f20696e6974696174652074686973204760008201527f6c6f62616c5061796d656e74436f6e7472616374000000000000000000000000602082015250565b7f53656e6465722069736e27742076657269666965642e204b59435f737461747560008201527f73203d2066616c73650000000000000000000000000000000000000000000000602082015250565b7f53656e646572207374696c6c206e6565647320746f207061792e000000000000600082015250565b7f42656e656669636961727920646f65736e277420657869737400000000000000600082015250565b620028c6816200235b565b8114620028d257600080fd5b50565b620028e0816200236f565b8114620028ec57600080fd5b50565b620028fa816200237b565b81146200290657600080fd5b50565b6200291481620023af565b81146200292057600080fd5b5056fe60806040526040518060400160405280600d81526020017f4e6f20636f6e646974696f6e73000000000000000000000000000000000000008152506006908051906020019062000051929190620001d8565b506000600760006101000a81548160ff0219169083151502179055506000600760016101000a81548160ff0219169083151502179055503480156200009557600080fd5b5060405162000b3738038062000b378339818101604052810190620000bb9190620002b6565b856000806101000a81548173ffffffffffffffffffffffffffffffffffffffff021916908373ffffffffffffffffffffffffffffffffffffffff16021790555084600260006101000a81548173ffffffffffffffffffffffffffffffffffffffff021916908373ffffffffffffffffffffffffffffffffffffffff16021790555082600160006101000a81548173ffffffffffffffffffffffffffffffffffffffff021916908373ffffffffffffffffffffffffffffffffffffffff16021790555083600360006101000a81548173ffffffffffffffffffffffffffffffffffffffff021916908373ffffffffffffffffffffffffffffffffffffffff16021790555081600481905550806005819055505050505050506200042e565b828054620001e69062000390565b90600052602060002090601f0160209004810192826200020a576000855562000256565b82601f106200022557805160ff191683800117855562000256565b8280016001018555821562000256579182015b828111156200025557825182559160200191906001019062000238565b5b50905062000265919062000269565b5090565b5b80821115620002845760008160009055506001016200026a565b5090565b6000815190506200029981620003fa565b92915050565b600081519050620002b08162000414565b92915050565b60008060008060008060c08789031215620002d657620002d5620003f5565b5b6000620002e689828a0162000288565b9650506020620002f989828a0162000288565b95505060406200030c89828a0162000288565b94505060606200031f89828a0162000288565b93505060806200033289828a016200029f565b92505060a06200034589828a016200029f565b9150509295509295509295565b60006200035f8262000366565b9050919050565b600073ffffffffffffffffffffffffffffffffffffffff82169050919050565b6000819050919050565b60006002820490506001821680620003a957607f821691505b60208210811415620003c057620003bf620003c6565b5b50919050565b7f4e487b7100000000000000000000000000000000000000000000000000000000600052602260045260246000fd5b600080fd5b620004058162000352565b81146200041157600080fd5b50565b6200041f8162000386565b81146200042b57600080fd5b50565b6106f9806200043e6000396000f3fe608060405234801561001057600080fd5b50600436106100ce5760003560e01c80638c76fcd01161008c578063bc3fb50f11610066578063bc3fb50f146101cd578063d367900c146101eb578063d456919b146101f5578063e640281414610213576100ce565b80638c76fcd01461017357806396bdae2714610191578063ad16a96c146101af576100ce565b80625c33e1146100d357806312137227146100dd57806326e0c5ae146100fb57806338cc4831146101195780637a471bdd14610137578063873e975514610155575b600080fd5b6100db610231565b005b6100e5610286565b6040516100f291906104f4565b60405180910390f35b610103610314565b60405161011091906104d9565b60405180910390f35b61012161032b565b60405161012e91906104be565b60405180910390f35b61013f610333565b60405161014c9190610516565b60405180910390f35b61015d610339565b60405161016a91906104be565b60405180910390f35b61017b61035f565b60405161018891906104be565b60405180910390f35b610199610383565b6040516101a69190610516565b60405180910390f35b6101b7610389565b6040516101c49190610516565b60405180910390f35b6101d56103a0565b6040516101e291906104d9565b60405180910390f35b6101f36103b7565b005b6101fd61040c565b60405161020a91906104be565b60405180910390f35b61021b610432565b60405161022891906104be565b60405180910390f35b6001600760016101000a81548160ff0219169083151502179055507f8e3b3889734d6fe63fecbc5eafa9599da61b9ac58ff46e6158dec000f785d316600160405161027c91906104d9565b60405180910390a1565b6006805461029390610622565b80601f01602080910402602001604051908101604052809291908181526020018280546102bf90610622565b801561030c5780601f106102e15761010080835404028352916020019161030c565b820191906000526020600020905b8154815290600101906020018083116102ef57829003601f168201915b505050505081565b6000600760019054906101000a900460ff16905090565b600030905090565b60045481565b600160009054906101000a900473ffffffffffffffffffffffffffffffffffffffff1681565b60008054906101000a900473ffffffffffffffffffffffffffffffffffffffff1681565b60055481565b600060045460055461039b919061054d565b905090565b6000600760009054906101000a900460ff16905090565b6001600760006101000a81548160ff0219169083151502179055507f6d2d0fa70c274e01985a105185152492999391b6fdf5f757a31e1d4fb4740ad4600160405161040291906104d9565b60405180910390a1565b600260009054906101000a900473ffffffffffffffffffffffffffffffffffffffff1681565b600360009054906101000a900473ffffffffffffffffffffffffffffffffffffffff1681565b610461816105a7565b82525050565b610470816105b9565b82525050565b600061048182610531565b61048b818561053c565b935061049b8185602086016105ef565b6104a4816106b2565b840191505092915050565b6104b8816105e5565b82525050565b60006020820190506104d36000830184610458565b92915050565b60006020820190506104ee6000830184610467565b92915050565b6000602082019050818103600083015261050e8184610476565b905092915050565b600060208201905061052b60008301846104af565b92915050565b600081519050919050565b600082825260208201905092915050565b6000610558826105e5565b9150610563836105e5565b9250817fffffffffffffffffffffffffffffffffffffffffffffffffffffffffffffffff048311821515161561059c5761059b610654565b5b828202905092915050565b60006105b2826105c5565b9050919050565b60008115159050919050565b600073ffffffffffffffffffffffffffffffffffffffff82169050919050565b6000819050919050565b60005b8381101561060d5780820151818401526020810190506105f2565b8381111561061c576000848401525b50505050565b6000600282049050600182168061063a57607f821691505b6020821081141561064e5761064d610683565b5b50919050565b7f4e487b7100000000000000000000000000000000000000000000000000000000600052601160045260246000fd5b7f4e487b7100000000000000000000000000000000000000000000000000000000600052602260045260246000fd5b6000601f19601f830116905091905056fea2646970667358221220db011b477e0758e29387ce285e5614c3203dfec2804bd5748a91ca68bc52dd8c64736f6c63430008070033a26469706673582212201c8b1f5db562b1b9c13580a4a544f52e019e162adfe266a76dbbd76d6254f09b64736f6c63430008070033",
			"opcodes": "PUSH1 0x80 PUSH1 0x40 MSTORE CALLVALUE DUP1 ISZERO PUSH3 0x11 JUMPI PUSH1 0x0 DUP1 REVERT JUMPDEST POP PUSH3 0xA8 PUSH20 0x6616A4F8D35A2CBE3B4C0427C428BD3AF3CA52FA PUSH1 0x40 MLOAD DUP1 PUSH1 0x40 ADD PUSH1 0x40 MSTORE DUP1 PUSH1 0x5 DUP2 MSTORE PUSH1 0x20 ADD PUSH32 0x416C696365000000000000000000000000000000000000000000000000000000 DUP2 MSTORE POP PUSH1 0x40 MLOAD DUP1 PUSH1 0x40 ADD PUSH1 0x40 MSTORE DUP1 PUSH1 0x3 DUP2 MSTORE PUSH1 0x20 ADD PUSH32 0x446F650000000000000000000000000000000000000000000000000000000000 DUP2 MSTORE POP PUSH1 0x1 PUSH2 0x3E8 PUSH3 0x255 PUSH1 0x20 SHL PUSH1 0x20 SHR JUMP JUMPDEST PUSH3 0x13E PUSH20 0xCF305BD0861B5727FE08FEFDF8FE93871CC4ACC2 PUSH1 0x40 MLOAD DUP1 PUSH1 0x40 ADD PUSH1 0x40 MSTORE DUP1 PUSH1 0x3 DUP2 MSTORE PUSH1 0x20 ADD PUSH32 0x426F620000000000000000000000000000000000000000000000000000000000 DUP2 MSTORE POP PUSH1 0x40 MLOAD DUP1 PUSH1 0x40 ADD PUSH1 0x40 MSTORE DUP1 PUSH1 0x3 DUP2 MSTORE PUSH1 0x20 ADD PUSH32 0x446F650000000000000000000000000000000000000000000000000000000000 DUP2 MSTORE POP PUSH1 0x1 PUSH2 0x3E8 PUSH3 0x255 PUSH1 0x20 SHL PUSH1 0x20 SHR JUMP JUMPDEST PUSH3 0x199 PUSH20 0x52C9FC3556EA3A18628F4D156604E733015064C2 PUSH1 0x40 MLOAD DUP1 PUSH1 0x40 ADD PUSH1 0x40 MSTORE DUP1 PUSH1 0x3 DUP2 MSTORE PUSH1 0x20 ADD PUSH32 0x4B42430000000000000000000000000000000000000000000000000000000000 DUP2 MSTORE POP PUSH3 0x3CD PUSH1 0x20 SHL PUSH1 0x20 SHR JUMP JUMPDEST PUSH3 0x1F4 PUSH20 0x3C5389B061C808EEE0165866253097F02A39A3C8 PUSH1 0x40 MLOAD DUP1 PUSH1 0x40 ADD PUSH1 0x40 MSTORE DUP1 PUSH1 0x3 DUP2 MSTORE PUSH1 0x20 ADD PUSH32 0x494E470000000000000000000000000000000000000000000000000000000000 DUP2 MSTORE POP PUSH3 0x3CD PUSH1 0x20 SHL PUSH1 0x20 SHR JUMP JUMPDEST PUSH3 0x24F PUSH20 0xC1C276483229CA36EE022E7823CDBCA1A99640E2 PUSH1 0x40 MLOAD DUP1 PUSH1 0x40 ADD PUSH1 0x40 MSTORE DUP1 PUSH1 0x9 DUP2 MSTORE PUSH1 0x20 ADD PUSH32 0x526567756C61746F720000000000000000000000000000000000000000000000 DUP2 MSTORE POP PUSH3 0x4E5 PUSH1 0x20 SHL PUSH1 0x20 SHR JUMP JUMPDEST PUSH3 0xAE5 JUMP JUMPDEST PUSH1 0x0 PUSH3 0x268 DUP7 PUSH3 0x5FD PUSH1 0x20 SHL PUSH1 0x20 SHR JUMP JUMPDEST SLT PUSH3 0x2AB JUMPI PUSH1 0x40 MLOAD PUSH32 0x8C379A000000000000000000000000000000000000000000000000000000000 DUP2 MSTORE PUSH1 0x4 ADD PUSH3 0x2A2 SWAP1 PUSH3 0x96E JUMP JUMPDEST PUSH1 0x40 MLOAD DUP1 SWAP2 SUB SWAP1 REVERT JUMPDEST PUSH1 0x0 PUSH1 0x40 MLOAD DUP1 PUSH1 0xA0 ADD PUSH1 0x40 MSTORE DUP1 DUP8 PUSH20 0xFFFFFFFFFFFFFFFFFFFFFFFFFFFFFFFFFFFFFFFF AND DUP2 MSTORE PUSH1 0x20 ADD DUP7 DUP2 MSTORE PUSH1 0x20 ADD DUP6 DUP2 MSTORE PUSH1 0x20 ADD DUP5 ISZERO ISZERO DUP2 MSTORE PUSH1 0x20 ADD DUP4 DUP2 MSTORE POP SWAP1 DUP1 PUSH1 0x1 DUP2 SLOAD ADD DUP1 DUP3 SSTORE DUP1 SWAP2 POP POP PUSH1 0x1 SWAP1 SUB SWAP1 PUSH1 0x0 MSTORE PUSH1 0x20 PUSH1 0x0 KECCAK256 SWAP1 PUSH1 0x5 MUL ADD PUSH1 0x0 SWAP1 SWAP2 SWAP1 SWAP2 SWAP1 SWAP2 POP PUSH1 0x0 DUP3 ADD MLOAD DUP2 PUSH1 0x0 ADD PUSH1 0x0 PUSH2 0x100 EXP DUP2 SLOAD DUP2 PUSH20 0xFFFFFFFFFFFFFFFFFFFFFFFFFFFFFFFFFFFFFFFF MUL NOT AND SWAP1 DUP4 PUSH20 0xFFFFFFFFFFFFFFFFFFFFFFFFFFFFFFFFFFFFFFFF AND MUL OR SWAP1 SSTORE POP PUSH1 0x20 DUP3 ADD MLOAD DUP2 PUSH1 0x1 ADD SWAP1 DUP1 MLOAD SWAP1 PUSH1 0x20 ADD SWAP1 PUSH3 0x37A SWAP3 SWAP2 SWAP1 PUSH3 0x897 JUMP JUMPDEST POP PUSH1 0x40 DUP3 ADD MLOAD DUP2 PUSH1 0x2 ADD SWAP1 DUP1 MLOAD SWAP1 PUSH1 0x20 ADD SWAP1 PUSH3 0x399 SWAP3 SWAP2 SWAP1 PUSH3 0x897 JUMP JUMPDEST POP PUSH1 0x60 DUP3 ADD MLOAD DUP2 PUSH1 0x3 ADD PUSH1 0x0 PUSH2 0x100 EXP DUP2 SLOAD DUP2 PUSH1 0xFF MUL NOT AND SWAP1 DUP4 ISZERO ISZERO MUL OR SWAP1 SSTORE POP PUSH1 0x80 DUP3 ADD MLOAD DUP2 PUSH1 0x4 ADD SSTORE POP POP POP POP POP POP POP JUMP JUMPDEST PUSH1 0x0 PUSH3 0x3E0 DUP4 PUSH3 0x6DD PUSH1 0x20 SHL PUSH1 0x20 SHR JUMP JUMPDEST SLT PUSH3 0x423 JUMPI PUSH1 0x40 MLOAD PUSH32 0x8C379A000000000000000000000000000000000000000000000000000000000 DUP2 MSTORE PUSH1 0x4 ADD PUSH3 0x41A SWAP1 PUSH3 0x96E JUMP JUMPDEST PUSH1 0x40 MLOAD DUP1 SWAP2 SUB SWAP1 REVERT JUMPDEST PUSH1 0x1 PUSH1 0x40 MLOAD DUP1 PUSH1 0x40 ADD PUSH1 0x40 MSTORE DUP1 DUP5 PUSH20 0xFFFFFFFFFFFFFFFFFFFFFFFFFFFFFFFFFFFFFFFF AND DUP2 MSTORE PUSH1 0x20 ADD DUP4 DUP2 MSTORE POP SWAP1 DUP1 PUSH1 0x1 DUP2 SLOAD ADD DUP1 DUP3 SSTORE DUP1 SWAP2 POP POP PUSH1 0x1 SWAP1 SUB SWAP1 PUSH1 0x0 MSTORE PUSH1 0x20 PUSH1 0x0 KECCAK256 SWAP1 PUSH1 0x2 MUL ADD PUSH1 0x0 SWAP1 SWAP2 SWAP1 SWAP2 SWAP1 SWAP2 POP PUSH1 0x0 DUP3 ADD MLOAD DUP2 PUSH1 0x0 ADD PUSH1 0x0 PUSH2 0x100 EXP DUP2 SLOAD DUP2 PUSH20 0xFFFFFFFFFFFFFFFFFFFFFFFFFFFFFFFFFFFFFFFF MUL NOT AND SWAP1 DUP4 PUSH20 0xFFFFFFFFFFFFFFFFFFFFFFFFFFFFFFFFFFFFFFFF AND MUL OR SWAP1 SSTORE POP PUSH1 0x20 DUP3 ADD MLOAD DUP2 PUSH1 0x1 ADD SWAP1 DUP1 MLOAD SWAP1 PUSH1 0x20 ADD SWAP1 PUSH3 0x4DE SWAP3 SWAP2 SWAP1 PUSH3 0x897 JUMP JUMPDEST POP POP POP POP POP JUMP JUMPDEST PUSH1 0x0 PUSH3 0x4F8 DUP4 PUSH3 0x7BA PUSH1 0x20 SHL PUSH1 0x20 SHR JUMP JUMPDEST SLT PUSH3 0x53B JUMPI PUSH1 0x40 MLOAD PUSH32 0x8C379A000000000000000000000000000000000000000000000000000000000 DUP2 MSTORE PUSH1 0x4 ADD PUSH3 0x532 SWAP1 PUSH3 0x96E JUMP JUMPDEST PUSH1 0x40 MLOAD DUP1 SWAP2 SUB SWAP1 REVERT JUMPDEST PUSH1 0x2 PUSH1 0x40 MLOAD DUP1 PUSH1 0x40 ADD PUSH1 0x40 MSTORE DUP1 DUP5 PUSH20 0xFFFFFFFFFFFFFFFFFFFFFFFFFFFFFFFFFFFFFFFF AND DUP2 MSTORE PUSH1 0x20 ADD DUP4 DUP2 MSTORE POP SWAP1 DUP1 PUSH1 0x1 DUP2 SLOAD ADD DUP1 DUP3 SSTORE DUP1 SWAP2 POP POP PUSH1 0x1 SWAP1 SUB SWAP1 PUSH1 0x0 MSTORE PUSH1 0x20 PUSH1 0x0 KECCAK256 SWAP1 PUSH1 0x2 MUL ADD PUSH1 0x0 SWAP1 SWAP2 SWAP1 SWAP2 SWAP1 SWAP2 POP PUSH1 0x0 DUP3 ADD MLOAD DUP2 PUSH1 0x0 ADD PUSH1 0x0 PUSH2 0x100 EXP DUP2 SLOAD DUP2 PUSH20 0xFFFFFFFFFFFFFFFFFFFFFFFFFFFFFFFFFFFFFFFF MUL NOT AND SWAP1 DUP4 PUSH20 0xFFFFFFFFFFFFFFFFFFFFFFFFFFFFFFFFFFFFFFFF AND MUL OR SWAP1 SSTORE POP PUSH1 0x20 DUP3 ADD MLOAD DUP2 PUSH1 0x1 ADD SWAP1 DUP1 MLOAD SWAP1 PUSH1 0x20 ADD SWAP1 PUSH3 0x5F6 SWAP3 SWAP2 SWAP1 PUSH3 0x897 JUMP JUMPDEST POP POP POP POP POP JUMP JUMPDEST PUSH1 0x0 DUP1 PUSH1 0x0 DUP1 SLOAD SWAP1 POP SWAP1 POP PUSH1 0x0 JUMPDEST DUP2 DUP2 LT ISZERO PUSH3 0x6B2 JUMPI DUP4 PUSH20 0xFFFFFFFFFFFFFFFFFFFFFFFFFFFFFFFFFFFFFFFF AND PUSH1 0x0 DUP3 DUP2 SLOAD DUP2 LT PUSH3 0x642 JUMPI PUSH3 0x641 PUSH3 0xA8D JUMP JUMPDEST JUMPDEST SWAP1 PUSH1 0x0 MSTORE PUSH1 0x20 PUSH1 0x0 KECCAK256 SWAP1 PUSH1 0x5 MUL ADD PUSH1 0x0 ADD PUSH1 0x0 SWAP1 SLOAD SWAP1 PUSH2 0x100 EXP SWAP1 DIV PUSH20 0xFFFFFFFFFFFFFFFFFFFFFFFFFFFFFFFFFFFFFFFF AND PUSH20 0xFFFFFFFFFFFFFFFFFFFFFFFFFFFFFFFFFFFFFFFF AND EQ ISZERO PUSH3 0x69C JUMPI DUP1 SWAP3 POP POP POP PUSH3 0x6D8 JUMP JUMPDEST DUP1 DUP1 PUSH3 0x6A9 SWAP1 PUSH3 0x9E1 JUMP JUMPDEST SWAP2 POP POP PUSH3 0x60B JUMP JUMPDEST POP PUSH32 0xFFFFFFFFFFFFFFFFFFFFFFFFFFFFFFFFFFFFFFFFFFFFFFFFFFFFFFFFFFFFFFFF SWAP2 POP POP JUMPDEST SWAP2 SWAP1 POP JUMP JUMPDEST PUSH1 0x0 DUP1 PUSH1 0x0 SWAP1 POP JUMPDEST PUSH1 0x1 DUP1 SLOAD SWAP1 POP DUP2 LT ISZERO PUSH3 0x790 JUMPI DUP3 PUSH20 0xFFFFFFFFFFFFFFFFFFFFFFFFFFFFFFFFFFFFFFFF AND PUSH1 0x1 DUP3 DUP2 SLOAD DUP2 LT PUSH3 0x721 JUMPI PUSH3 0x720 PUSH3 0xA8D JUMP JUMPDEST JUMPDEST SWAP1 PUSH1 0x0 MSTORE PUSH1 0x20 PUSH1 0x0 KECCAK256 SWAP1 PUSH1 0x2 MUL ADD PUSH1 0x0 ADD PUSH1 0x0 SWAP1 SLOAD SWAP1 PUSH2 0x100 EXP SWAP1 DIV PUSH20 0xFFFFFFFFFFFFFFFFFFFFFFFFFFFFFFFFFFFFFFFF AND PUSH20 0xFFFFFFFFFFFFFFFFFFFFFFFFFFFFFFFFFFFFFFFF AND EQ ISZERO PUSH3 0x77A JUMPI DUP1 SWAP2 POP POP PUSH3 0x7B5 JUMP JUMPDEST DUP1 DUP1 PUSH3 0x787 SWAP1 PUSH3 0x9E1 JUMP JUMPDEST SWAP2 POP POP PUSH3 0x6E5 JUMP JUMPDEST POP PUSH32 0xFFFFFFFFFFFFFFFFFFFFFFFFFFFFFFFFFFFFFFFFFFFFFFFFFFFFFFFFFFFFFFFF SWAP1 POP JUMPDEST SWAP2 SWAP1 POP JUMP JUMPDEST PUSH1 0x0 DUP1 PUSH1 0x0 SWAP1 POP JUMPDEST PUSH1 0x2 DUP1 SLOAD SWAP1 POP DUP2 LT ISZERO PUSH3 0x86D JUMPI DUP3 PUSH20 0xFFFFFFFFFFFFFFFFFFFFFFFFFFFFFFFFFFFFFFFF AND PUSH1 0x2 DUP3 DUP2 SLOAD DUP2 LT PUSH3 0x7FE JUMPI PUSH3 0x7FD PUSH3 0xA8D JUMP JUMPDEST JUMPDEST SWAP1 PUSH1 0x0 MSTORE PUSH1 0x20 PUSH1 0x0 KECCAK256 SWAP1 PUSH1 0x2 MUL ADD PUSH1 0x0 ADD PUSH1 0x0 SWAP1 SLOAD SWAP1 PUSH2 0x100 EXP SWAP1 DIV PUSH20 0xFFFFFFFFFFFFFFFFFFFFFFFFFFFFFFFFFFFFFFFF AND PUSH20 0xFFFFFFFFFFFFFFFFFFFFFFFFFFFFFFFFFFFFFFFF AND EQ ISZERO PUSH3 0x857 JUMPI DUP1 SWAP2 POP POP PUSH3 0x892 JUMP JUMPDEST DUP1 DUP1 PUSH3 0x864 SWAP1 PUSH3 0x9E1 JUMP JUMPDEST SWAP2 POP POP PUSH3 0x7C2 JUMP JUMPDEST POP PUSH32 0xFFFFFFFFFFFFFFFFFFFFFFFFFFFFFFFFFFFFFFFFFFFFFFFFFFFFFFFFFFFFFFFF SWAP1 POP JUMPDEST SWAP2 SWAP1 POP JUMP JUMPDEST DUP3 DUP1 SLOAD PUSH3 0x8A5 SWAP1 PUSH3 0x9AB JUMP JUMPDEST SWAP1 PUSH1 0x0 MSTORE PUSH1 0x20 PUSH1 0x0 KECCAK256 SWAP1 PUSH1 0x1F ADD PUSH1 0x20 SWAP1 DIV DUP2 ADD SWAP3 DUP3 PUSH3 0x8C9 JUMPI PUSH1 0x0 DUP6 SSTORE PUSH3 0x915 JUMP JUMPDEST DUP3 PUSH1 0x1F LT PUSH3 0x8E4 JUMPI DUP1 MLOAD PUSH1 0xFF NOT AND DUP4 DUP1 ADD OR DUP6 SSTORE PUSH3 0x915 JUMP JUMPDEST DUP3 DUP1 ADD PUSH1 0x1 ADD DUP6 SSTORE DUP3 ISZERO PUSH3 0x915 JUMPI SWAP2 DUP3 ADD JUMPDEST DUP3 DUP2 GT ISZERO PUSH3 0x914 JUMPI DUP3 MLOAD DUP3 SSTORE SWAP2 PUSH1 0x20 ADD SWAP2 SWAP1 PUSH1 0x1 ADD SWAP1 PUSH3 0x8F7 JUMP JUMPDEST JUMPDEST POP SWAP1 POP PUSH3 0x924 SWAP2 SWAP1 PUSH3 0x928 JUMP JUMPDEST POP SWAP1 JUMP JUMPDEST JUMPDEST DUP1 DUP3 GT ISZERO PUSH3 0x943 JUMPI PUSH1 0x0 DUP2 PUSH1 0x0 SWAP1 SSTORE POP PUSH1 0x1 ADD PUSH3 0x929 JUMP JUMPDEST POP SWAP1 JUMP JUMPDEST PUSH1 0x0 PUSH3 0x956 PUSH1 0xE DUP4 PUSH3 0x990 JUMP JUMPDEST SWAP2 POP PUSH3 0x963 DUP3 PUSH3 0xABC JUMP JUMPDEST PUSH1 0x20 DUP3 ADD SWAP1 POP SWAP2 SWAP1 POP JUMP JUMPDEST PUSH1 0x0 PUSH1 0x20 DUP3 ADD SWAP1 POP DUP2 DUP2 SUB PUSH1 0x0 DUP4 ADD MSTORE PUSH3 0x989 DUP2 PUSH3 0x947 JUMP JUMPDEST SWAP1 POP SWAP2 SWAP1 POP JUMP JUMPDEST PUSH1 0x0 DUP3 DUP3 MSTORE PUSH1 0x20 DUP3 ADD SWAP1 POP SWAP3 SWAP2 POP POP JUMP JUMPDEST PUSH1 0x0 DUP2 SWAP1 POP SWAP2 SWAP1 POP JUMP JUMPDEST PUSH1 0x0 PUSH1 0x2 DUP3 DIV SWAP1 POP PUSH1 0x1 DUP3 AND DUP1 PUSH3 0x9C4 JUMPI PUSH1 0x7F DUP3 AND SWAP2 POP JUMPDEST PUSH1 0x20 DUP3 LT DUP2 EQ ISZERO PUSH3 0x9DB JUMPI PUSH3 0x9DA PUSH3 0xA5E JUMP JUMPDEST JUMPDEST POP SWAP2 SWAP1 POP JUMP JUMPDEST PUSH1 0x0 PUSH3 0x9EE DUP3 PUSH3 0x9A1 JUMP JUMPDEST SWAP2 POP PUSH32 0xFFFFFFFFFFFFFFFFFFFFFFFFFFFFFFFFFFFFFFFFFFFFFFFFFFFFFFFFFFFFFFFF DUP3 EQ ISZERO PUSH3 0xA24 JUMPI PUSH3 0xA23 PUSH3 0xA2F JUMP JUMPDEST JUMPDEST PUSH1 0x1 DUP3 ADD SWAP1 POP SWAP2 SWAP1 POP JUMP JUMPDEST PUSH32 0x4E487B7100000000000000000000000000000000000000000000000000000000 PUSH1 0x0 MSTORE PUSH1 0x11 PUSH1 0x4 MSTORE PUSH1 0x24 PUSH1 0x0 REVERT JUMPDEST PUSH32 0x4E487B7100000000000000000000000000000000000000000000000000000000 PUSH1 0x0 MSTORE PUSH1 0x22 PUSH1 0x4 MSTORE PUSH1 0x24 PUSH1 0x0 REVERT JUMPDEST PUSH32 0x4E487B7100000000000000000000000000000000000000000000000000000000 PUSH1 0x0 MSTORE PUSH1 0x32 PUSH1 0x4 MSTORE PUSH1 0x24 PUSH1 0x0 REVERT JUMPDEST PUSH32 0x416C726561647920657869737473000000000000000000000000000000000000 PUSH1 0x0 DUP3 ADD MSTORE POP JUMP JUMPDEST PUSH2 0x3490 DUP1 PUSH3 0xAF5 PUSH1 0x0 CODECOPY PUSH1 0x0 RETURN INVALID PUSH1 0x80 PUSH1 0x40 MSTORE CALLVALUE DUP1 ISZERO PUSH3 0x11 JUMPI PUSH1 0x0 DUP1 REVERT JUMPDEST POP PUSH1 0x4 CALLDATASIZE LT PUSH3 0xB8 JUMPI PUSH1 0x0 CALLDATALOAD PUSH1 0xE0 SHR DUP1 PUSH4 0xAE82F7F6 GT PUSH3 0x7B JUMPI DUP1 PUSH4 0xAE82F7F6 EQ PUSH3 0x173 JUMPI DUP1 PUSH4 0xB1B32289 EQ PUSH3 0x193 JUMPI DUP1 PUSH4 0xD1563DA0 EQ PUSH3 0x1B3 JUMPI DUP1 PUSH4 0xD6F8AE4E EQ PUSH3 0x1E9 JUMPI DUP1 PUSH4 0xDF8926C6 EQ PUSH3 0x21F JUMPI DUP1 PUSH4 0xF9E4F57D EQ PUSH3 0x23F JUMPI PUSH3 0xB8 JUMP JUMPDEST DUP1 PUSH4 0x5726003 EQ PUSH3 0xBD JUMPI DUP1 PUSH4 0x1368536A EQ PUSH3 0xF3 JUMPI DUP1 PUSH4 0x23E71696 EQ PUSH3 0x113 JUMPI DUP1 PUSH4 0x5BFFECE1 EQ PUSH3 0x133 JUMPI DUP1 PUSH4 0x8C438908 EQ PUSH3 0x153 JUMPI JUMPDEST PUSH1 0x0 DUP1 REVERT JUMPDEST PUSH3 0xDB PUSH1 0x4 DUP1 CALLDATASIZE SUB DUP2 ADD SWAP1 PUSH3 0xD5 SWAP2 SWAP1 PUSH3 0x1989 JUMP JUMPDEST PUSH3 0x25F JUMP JUMPDEST PUSH1 0x40 MLOAD PUSH3 0xEA SWAP2 SWAP1 PUSH3 0x222B JUMP JUMPDEST PUSH1 0x40 MLOAD DUP1 SWAP2 SUB SWAP1 RETURN JUMPDEST PUSH3 0x111 PUSH1 0x4 DUP1 CALLDATASIZE SUB DUP2 ADD SWAP1 PUSH3 0x10B SWAP2 SWAP1 PUSH3 0x1C2E JUMP JUMPDEST PUSH3 0x2E7 JUMP JUMPDEST STOP JUMPDEST PUSH3 0x131 PUSH1 0x4 DUP1 CALLDATASIZE SUB DUP2 ADD SWAP1 PUSH3 0x12B SWAP2 SWAP1 PUSH3 0x1C8A JUMP JUMPDEST PUSH3 0x3D3 JUMP JUMPDEST STOP JUMPDEST PUSH3 0x151 PUSH1 0x4 DUP1 CALLDATASIZE SUB DUP2 ADD SWAP1 PUSH3 0x14B SWAP2 SWAP1 PUSH3 0x1B36 JUMP JUMPDEST PUSH3 0x7D0 JUMP JUMPDEST STOP JUMPDEST PUSH3 0x171 PUSH1 0x4 DUP1 CALLDATASIZE SUB DUP2 ADD SWAP1 PUSH3 0x16B SWAP2 SWAP1 PUSH3 0x1AD0 JUMP JUMPDEST PUSH3 0x942 JUMP JUMPDEST STOP JUMPDEST PUSH3 0x191 PUSH1 0x4 DUP1 CALLDATASIZE SUB DUP2 ADD SWAP1 PUSH3 0x18B SWAP2 SWAP1 PUSH3 0x1AD0 JUMP JUMPDEST PUSH3 0xA54 JUMP JUMPDEST STOP JUMPDEST PUSH3 0x1B1 PUSH1 0x4 DUP1 CALLDATASIZE SUB DUP2 ADD SWAP1 PUSH3 0x1AB SWAP2 SWAP1 PUSH3 0x19ED JUMP JUMPDEST PUSH3 0xB66 JUMP JUMPDEST STOP JUMPDEST PUSH3 0x1D1 PUSH1 0x4 DUP1 CALLDATASIZE SUB DUP2 ADD SWAP1 PUSH3 0x1CB SWAP2 SWAP1 PUSH3 0x1989 JUMP JUMPDEST PUSH3 0xECD JUMP JUMPDEST PUSH1 0x40 MLOAD PUSH3 0x1E0 SWAP2 SWAP1 PUSH3 0x202B JUMP JUMPDEST PUSH1 0x40 MLOAD DUP1 SWAP2 SUB SWAP1 RETURN JUMPDEST PUSH3 0x207 PUSH1 0x4 DUP1 CALLDATASIZE SUB DUP2 ADD SWAP1 PUSH3 0x201 SWAP2 SWAP1 PUSH3 0x1989 JUMP JUMPDEST PUSH3 0xFE6 JUMP JUMPDEST PUSH1 0x40 MLOAD PUSH3 0x216 SWAP2 SWAP1 PUSH3 0x200E JUMP JUMPDEST PUSH1 0x40 MLOAD DUP1 SWAP2 SUB SWAP1 RETURN JUMPDEST PUSH3 0x23D PUSH1 0x4 DUP1 CALLDATASIZE SUB DUP2 ADD SWAP1 PUSH3 0x237 SWAP2 SWAP1 PUSH3 0x1C8A JUMP JUMPDEST PUSH3 0x107B JUMP JUMPDEST STOP JUMPDEST PUSH3 0x25D PUSH1 0x4 DUP1 CALLDATASIZE SUB DUP2 ADD SWAP1 PUSH3 0x257 SWAP2 SWAP1 PUSH3 0x1A89 JUMP JUMPDEST PUSH3 0x1477 JUMP JUMPDEST STOP JUMPDEST PUSH1 0x0 DUP1 PUSH3 0x26D DUP4 PUSH3 0x1512 JUMP JUMPDEST SWAP1 POP PUSH1 0x0 DUP2 SLT ISZERO PUSH3 0x2B6 JUMPI PUSH1 0x40 MLOAD PUSH32 0x8C379A000000000000000000000000000000000000000000000000000000000 DUP2 MSTORE PUSH1 0x4 ADD PUSH3 0x2AD SWAP1 PUSH3 0x20B5 JUMP JUMPDEST PUSH1 0x40 MLOAD DUP1 SWAP2 SUB SWAP1 REVERT JUMPDEST PUSH1 0x0 DUP2 DUP2 SLOAD DUP2 LT PUSH3 0x2CD JUMPI PUSH3 0x2CC PUSH3 0x2516 JUMP JUMPDEST JUMPDEST SWAP1 PUSH1 0x0 MSTORE PUSH1 0x20 PUSH1 0x0 KECCAK256 SWAP1 PUSH1 0x5 MUL ADD PUSH1 0x4 ADD SLOAD SWAP2 POP POP SWAP2 SWAP1 POP JUMP JUMPDEST PUSH1 0x0 PUSH3 0x2F4 DUP4 PUSH3 0x1512 JUMP JUMPDEST SWAP1 POP PUSH1 0x0 DUP2 SLT ISZERO PUSH3 0x33D JUMPI PUSH1 0x40 MLOAD PUSH32 0x8C379A000000000000000000000000000000000000000000000000000000000 DUP2 MSTORE PUSH1 0x4 ADD PUSH3 0x334 SWAP1 PUSH3 0x20B5 JUMP JUMPDEST PUSH1 0x40 MLOAD DUP1 SWAP2 SUB SWAP1 REVERT JUMPDEST DUP4 ISZERO PUSH3 0x38B JUMPI DUP2 PUSH1 0x0 DUP3 DUP2 SLOAD DUP2 LT PUSH3 0x35C JUMPI PUSH3 0x35B PUSH3 0x2516 JUMP JUMPDEST JUMPDEST SWAP1 PUSH1 0x0 MSTORE PUSH1 0x20 PUSH1 0x0 KECCAK256 SWAP1 PUSH1 0x5 MUL ADD PUSH1 0x4 ADD PUSH1 0x0 DUP3 DUP3 SLOAD PUSH3 0x37E SWAP2 SWAP1 PUSH3 0x2320 JUMP JUMPDEST SWAP3 POP POP DUP2 SWAP1 SSTORE POP PUSH3 0x3CD JUMP JUMPDEST DUP2 PUSH1 0x0 DUP3 DUP2 SLOAD DUP2 LT PUSH3 0x3A3 JUMPI PUSH3 0x3A2 PUSH3 0x2516 JUMP JUMPDEST JUMPDEST SWAP1 PUSH1 0x0 MSTORE PUSH1 0x20 PUSH1 0x0 KECCAK256 SWAP1 PUSH1 0x5 MUL ADD PUSH1 0x4 ADD PUSH1 0x0 DUP3 DUP3 SLOAD PUSH3 0x3C5 SWAP2 SWAP1 PUSH3 0x22C3 JUMP JUMPDEST SWAP3 POP POP DUP2 SWAP1 SSTORE POP JUMPDEST POP POP POP POP JUMP JUMPDEST DUP1 PUSH20 0xFFFFFFFFFFFFFFFFFFFFFFFFFFFFFFFFFFFFFFFF AND PUSH4 0xD456919B PUSH1 0x40 MLOAD DUP2 PUSH4 0xFFFFFFFF AND PUSH1 0xE0 SHL DUP2 MSTORE PUSH1 0x4 ADD PUSH1 0x20 PUSH1 0x40 MLOAD DUP1 DUP4 SUB DUP2 DUP7 DUP1 EXTCODESIZE ISZERO DUP1 ISZERO PUSH3 0x41A JUMPI PUSH1 0x0 DUP1 REVERT JUMPDEST POP GAS STATICCALL ISZERO DUP1 ISZERO PUSH3 0x42F JUMPI RETURNDATASIZE PUSH1 0x0 DUP1 RETURNDATACOPY RETURNDATASIZE PUSH1 0x0 REVERT JUMPDEST POP POP POP POP PUSH1 0x40 MLOAD RETURNDATASIZE PUSH1 0x1F NOT PUSH1 0x1F DUP3 ADD AND DUP3 ADD DUP1 PUSH1 0x40 MSTORE POP DUP2 ADD SWAP1 PUSH3 0x455 SWAP2 SWAP1 PUSH3 0x19BB JUMP JUMPDEST PUSH20 0xFFFFFFFFFFFFFFFFFFFFFFFFFFFFFFFFFFFFFFFF AND CALLER PUSH20 0xFFFFFFFFFFFFFFFFFFFFFFFFFFFFFFFFFFFFFFFF AND EQ PUSH3 0x4C5 JUMPI PUSH1 0x40 MLOAD PUSH32 0x8C379A000000000000000000000000000000000000000000000000000000000 DUP2 MSTORE PUSH1 0x4 ADD PUSH3 0x4BC SWAP1 PUSH3 0x20F9 JUMP JUMPDEST PUSH1 0x40 MLOAD DUP1 SWAP2 SUB SWAP1 REVERT JUMPDEST PUSH1 0x0 ISZERO ISZERO DUP2 PUSH20 0xFFFFFFFFFFFFFFFFFFFFFFFFFFFFFFFFFFFFFFFF AND PUSH4 0xBC3FB50F PUSH1 0x40 MLOAD DUP2 PUSH4 0xFFFFFFFF AND PUSH1 0xE0 SHL DUP2 MSTORE PUSH1 0x4 ADD PUSH1 0x20 PUSH1 0x40 MLOAD DUP1 DUP4 SUB DUP2 DUP7 DUP1 EXTCODESIZE ISZERO DUP1 ISZERO PUSH3 0x510 JUMPI PUSH1 0x0 DUP1 REVERT JUMPDEST POP GAS STATICCALL ISZERO DUP1 ISZERO PUSH3 0x525 JUMPI RETURNDATASIZE PUSH1 0x0 DUP1 RETURNDATACOPY RETURNDATASIZE PUSH1 0x0 REVERT JUMPDEST POP POP POP POP PUSH1 0x40 MLOAD RETURNDATASIZE PUSH1 0x1F NOT PUSH1 0x1F DUP3 ADD AND DUP3 ADD DUP1 PUSH1 0x40 MSTORE POP DUP2 ADD SWAP1 PUSH3 0x54B SWAP2 SWAP1 PUSH3 0x1BFC JUMP JUMPDEST ISZERO ISZERO EQ PUSH3 0x590 JUMPI PUSH1 0x40 MLOAD PUSH32 0x8C379A000000000000000000000000000000000000000000000000000000000 DUP2 MSTORE PUSH1 0x4 ADD PUSH3 0x587 SWAP1 PUSH3 0x211B JUMP JUMPDEST PUSH1 0x40 MLOAD DUP1 SWAP2 SUB SWAP1 REVERT JUMPDEST PUSH1 0x0 ISZERO ISZERO DUP2 PUSH20 0xFFFFFFFFFFFFFFFFFFFFFFFFFFFFFFFFFFFFFFFF AND PUSH4 0x26E0C5AE PUSH1 0x40 MLOAD DUP2 PUSH4 0xFFFFFFFF AND PUSH1 0xE0 SHL DUP2 MSTORE PUSH1 0x4 ADD PUSH1 0x20 PUSH1 0x40 MLOAD DUP1 DUP4 SUB DUP2 DUP7 DUP1 EXTCODESIZE ISZERO DUP1 ISZERO PUSH3 0x5DB JUMPI PUSH1 0x0 DUP1 REVERT JUMPDEST POP GAS STATICCALL ISZERO DUP1 ISZERO PUSH3 0x5F0 JUMPI RETURNDATASIZE PUSH1 0x0 DUP1 RETURNDATACOPY RETURNDATASIZE PUSH1 0x0 REVERT JUMPDEST POP POP POP POP PUSH1 0x40 MLOAD RETURNDATASIZE PUSH1 0x1F NOT PUSH1 0x1F DUP3 ADD AND DUP3 ADD DUP1 PUSH1 0x40 MSTORE POP DUP2 ADD SWAP1 PUSH3 0x616 SWAP2 SWAP1 PUSH3 0x1BFC JUMP JUMPDEST ISZERO ISZERO EQ PUSH3 0x65B JUMPI PUSH1 0x40 MLOAD PUSH32 0x8C379A000000000000000000000000000000000000000000000000000000000 DUP2 MSTORE PUSH1 0x4 ADD PUSH3 0x652 SWAP1 PUSH3 0x2181 JUMP JUMPDEST PUSH1 0x40 MLOAD DUP1 SWAP2 SUB SWAP1 REVERT JUMPDEST PUSH3 0x76B PUSH1 0x1 DUP3 PUSH20 0xFFFFFFFFFFFFFFFFFFFFFFFFFFFFFFFFFFFFFFFF AND PUSH4 0x8C76FCD0 PUSH1 0x40 MLOAD DUP2 PUSH4 0xFFFFFFFF AND PUSH1 0xE0 SHL DUP2 MSTORE PUSH1 0x4 ADD PUSH1 0x20 PUSH1 0x40 MLOAD DUP1 DUP4 SUB DUP2 DUP7 DUP1 EXTCODESIZE ISZERO DUP1 ISZERO PUSH3 0x6A8 JUMPI PUSH1 0x0 DUP1 REVERT JUMPDEST POP GAS STATICCALL ISZERO DUP1 ISZERO PUSH3 0x6BD JUMPI RETURNDATASIZE PUSH1 0x0 DUP1 RETURNDATACOPY RETURNDATASIZE PUSH1 0x0 REVERT JUMPDEST POP POP POP POP PUSH1 0x40 MLOAD RETURNDATASIZE PUSH1 0x1F NOT PUSH1 0x1F DUP3 ADD AND DUP3 ADD DUP1 PUSH1 0x40 MSTORE POP DUP2 ADD SWAP1 PUSH3 0x6E3 SWAP2 SWAP1 PUSH3 0x19BB JUMP JUMPDEST DUP4 PUSH20 0xFFFFFFFFFFFFFFFFFFFFFFFFFFFFFFFFFFFFFFFF AND PUSH4 0x96BDAE27 PUSH1 0x40 MLOAD DUP2 PUSH4 0xFFFFFFFF AND PUSH1 0xE0 SHL DUP2 MSTORE PUSH1 0x4 ADD PUSH1 0x20 PUSH1 0x40 MLOAD DUP1 DUP4 SUB DUP2 DUP7 DUP1 EXTCODESIZE ISZERO DUP1 ISZERO PUSH3 0x72A JUMPI PUSH1 0x0 DUP1 REVERT JUMPDEST POP GAS STATICCALL ISZERO DUP1 ISZERO PUSH3 0x73F JUMPI RETURNDATASIZE PUSH1 0x0 DUP1 RETURNDATACOPY RETURNDATASIZE PUSH1 0x0 REVERT JUMPDEST POP POP POP POP PUSH1 0x40 MLOAD RETURNDATASIZE PUSH1 0x1F NOT PUSH1 0x1F DUP3 ADD AND DUP3 ADD DUP1 PUSH1 0x40 MSTORE POP DUP2 ADD SWAP1 PUSH3 0x765 SWAP2 SWAP1 PUSH3 0x1CBC JUMP JUMPDEST PUSH3 0x2E7 JUMP JUMPDEST DUP1 PUSH20 0xFFFFFFFFFFFFFFFFFFFFFFFFFFFFFFFFFFFFFFFF AND PUSH4 0xD367900C PUSH1 0x40 MLOAD DUP2 PUSH4 0xFFFFFFFF AND PUSH1 0xE0 SHL DUP2 MSTORE PUSH1 0x4 ADD PUSH1 0x0 PUSH1 0x40 MLOAD DUP1 DUP4 SUB DUP2 PUSH1 0x0 DUP8 DUP1 EXTCODESIZE ISZERO DUP1 ISZERO PUSH3 0x7B4 JUMPI PUSH1 0x0 DUP1 REVERT JUMPDEST POP GAS CALL ISZERO DUP1 ISZERO PUSH3 0x7C9 JUMPI RETURNDATASIZE PUSH1 0x0 DUP1 RETURNDATACOPY RETURNDATASIZE PUSH1 0x0 REVERT JUMPDEST POP POP POP POP POP JUMP JUMPDEST PUSH1 0x0 PUSH3 0x7DD DUP7 PUSH3 0x1512 JUMP JUMPDEST SLT PUSH3 0x820 JUMPI PUSH1 0x40 MLOAD PUSH32 0x8C379A000000000000000000000000000000000000000000000000000000000 DUP2 MSTORE PUSH1 0x4 ADD PUSH3 0x817 SWAP1 PUSH3 0x20D7 JUMP JUMPDEST PUSH1 0x40 MLOAD DUP1 SWAP2 SUB SWAP1 REVERT JUMPDEST PUSH1 0x0 PUSH1 0x40 MLOAD DUP1 PUSH1 0xA0 ADD PUSH1 0x40 MSTORE DUP1 DUP8 PUSH20 0xFFFFFFFFFFFFFFFFFFFFFFFFFFFFFFFFFFFFFFFF AND DUP2 MSTORE PUSH1 0x20 ADD DUP7 DUP2 MSTORE PUSH1 0x20 ADD DUP6 DUP2 MSTORE PUSH1 0x20 ADD DUP5 ISZERO ISZERO DUP2 MSTORE PUSH1 0x20 ADD DUP4 DUP2 MSTORE POP SWAP1 DUP1 PUSH1 0x1 DUP2 SLOAD ADD DUP1 DUP3 SSTORE DUP1 SWAP2 POP POP PUSH1 0x1 SWAP1 SUB SWAP1 PUSH1 0x0 MSTORE PUSH1 0x20 PUSH1 0x0 KECCAK256 SWAP1 PUSH1 0x5 MUL ADD PUSH1 0x0 SWAP1 SWAP2 SWAP1 SWAP2 SWAP1 SWAP2 POP PUSH1 0x0 DUP3 ADD MLOAD DUP2 PUSH1 0x0 ADD PUSH1 0x0 PUSH2 0x100 EXP DUP2 SLOAD DUP2 PUSH20 0xFFFFFFFFFFFFFFFFFFFFFFFFFFFFFFFFFFFFFFFF MUL NOT AND SWAP1 DUP4 PUSH20 0xFFFFFFFFFFFFFFFFFFFFFFFFFFFFFFFFFFFFFFFF AND MUL OR SWAP1 SSTORE POP PUSH1 0x20 DUP3 ADD MLOAD DUP2 PUSH1 0x1 ADD SWAP1 DUP1 MLOAD SWAP1 PUSH1 0x20 ADD SWAP1 PUSH3 0x8EF SWAP3 SWAP2 SWAP1 PUSH3 0x17AC JUMP JUMPDEST POP PUSH1 0x40 DUP3 ADD MLOAD DUP2 PUSH1 0x2 ADD SWAP1 DUP1 MLOAD SWAP1 PUSH1 0x20 ADD SWAP1 PUSH3 0x90E SWAP3 SWAP2 SWAP1 PUSH3 0x17AC JUMP JUMPDEST POP PUSH1 0x60 DUP3 ADD MLOAD DUP2 PUSH1 0x3 ADD PUSH1 0x0 PUSH2 0x100 EXP DUP2 SLOAD DUP2 PUSH1 0xFF MUL NOT AND SWAP1 DUP4 ISZERO ISZERO MUL OR SWAP1 SSTORE POP PUSH1 0x80 DUP3 ADD MLOAD DUP2 PUSH1 0x4 ADD SSTORE POP POP POP POP POP POP POP JUMP JUMPDEST PUSH1 0x0 PUSH3 0x94F DUP4 PUSH3 0x15F2 JUMP JUMPDEST SLT PUSH3 0x992 JUMPI PUSH1 0x40 MLOAD PUSH32 0x8C379A000000000000000000000000000000000000000000000000000000000 DUP2 MSTORE PUSH1 0x4 ADD PUSH3 0x989 SWAP1 PUSH3 0x20D7 JUMP JUMPDEST PUSH1 0x40 MLOAD DUP1 SWAP2 SUB SWAP1 REVERT JUMPDEST PUSH1 0x1 PUSH1 0x40 MLOAD DUP1 PUSH1 0x40 ADD PUSH1 0x40 MSTORE DUP1 DUP5 PUSH20 0xFFFFFFFFFFFFFFFFFFFFFFFFFFFFFFFFFFFFFFFF AND DUP2 MSTORE PUSH1 0x20 ADD DUP4 DUP2 MSTORE POP SWAP1 DUP1 PUSH1 0x1 DUP2 SLOAD ADD DUP1 DUP3 SSTORE DUP1 SWAP2 POP POP PUSH1 0x1 SWAP1 SUB SWAP1 PUSH1 0x0 MSTORE PUSH1 0x20 PUSH1 0x0 KECCAK256 SWAP1 PUSH1 0x2 MUL ADD PUSH1 0x0 SWAP1 SWAP2 SWAP1 SWAP2 SWAP1 SWAP2 POP PUSH1 0x0 DUP3 ADD MLOAD DUP2 PUSH1 0x0 ADD PUSH1 0x0 PUSH2 0x100 EXP DUP2 SLOAD DUP2 PUSH20 0xFFFFFFFFFFFFFFFFFFFFFFFFFFFFFFFFFFFFFFFF MUL NOT AND SWAP1 DUP4 PUSH20 0xFFFFFFFFFFFFFFFFFFFFFFFFFFFFFFFFFFFFFFFF AND MUL OR SWAP1 SSTORE POP PUSH1 0x20 DUP3 ADD MLOAD DUP2 PUSH1 0x1 ADD SWAP1 DUP1 MLOAD SWAP1 PUSH1 0x20 ADD SWAP1 PUSH3 0xA4D SWAP3 SWAP2 SWAP1 PUSH3 0x17AC JUMP JUMPDEST POP POP POP POP POP JUMP JUMPDEST PUSH1 0x0 PUSH3 0xA61 DUP4 PUSH3 0x16CF JUMP JUMPDEST SLT PUSH3 0xAA4 JUMPI PUSH1 0x40 MLOAD PUSH32 0x8C379A000000000000000000000000000000000000000000000000000000000 DUP2 MSTORE PUSH1 0x4 ADD PUSH3 0xA9B SWAP1 PUSH3 0x20D7 JUMP JUMPDEST PUSH1 0x40 MLOAD DUP1 SWAP2 SUB SWAP1 REVERT JUMPDEST PUSH1 0x2 PUSH1 0x40 MLOAD DUP1 PUSH1 0x40 ADD PUSH1 0x40 MSTORE DUP1 DUP5 PUSH20 0xFFFFFFFFFFFFFFFFFFFFFFFFFFFFFFFFFFFFFFFF AND DUP2 MSTORE PUSH1 0x20 ADD DUP4 DUP2 MSTORE POP SWAP1 DUP1 PUSH1 0x1 DUP2 SLOAD ADD DUP1 DUP3 SSTORE DUP1 SWAP2 POP POP PUSH1 0x1 SWAP1 SUB SWAP1 PUSH1 0x0 MSTORE PUSH1 0x20 PUSH1 0x0 KECCAK256 SWAP1 PUSH1 0x2 MUL ADD PUSH1 0x0 SWAP1 SWAP2 SWAP1 SWAP2 SWAP1 SWAP2 POP PUSH1 0x0 DUP3 ADD MLOAD DUP2 PUSH1 0x0 ADD PUSH1 0x0 PUSH2 0x100 EXP DUP2 SLOAD DUP2 PUSH20 0xFFFFFFFFFFFFFFFFFFFFFFFFFFFFFFFFFFFFFFFF MUL NOT AND SWAP1 DUP4 PUSH20 0xFFFFFFFFFFFFFFFFFFFFFFFFFFFFFFFFFFFFFFFF AND MUL OR SWAP1 SSTORE POP PUSH1 0x20 DUP3 ADD MLOAD DUP2 PUSH1 0x1 ADD SWAP1 DUP1 MLOAD SWAP1 PUSH1 0x20 ADD SWAP1 PUSH3 0xB5F SWAP3 SWAP2 SWAP1 PUSH3 0x17AC JUMP JUMPDEST POP POP POP POP POP JUMP JUMPDEST DUP5 PUSH20 0xFFFFFFFFFFFFFFFFFFFFFFFFFFFFFFFFFFFFFFFF AND CALLER PUSH20 0xFFFFFFFFFFFFFFFFFFFFFFFFFFFFFFFFFFFFFFFF AND EQ PUSH3 0xBD7 JUMPI PUSH1 0x40 MLOAD PUSH32 0x8C379A000000000000000000000000000000000000000000000000000000000 DUP2 MSTORE PUSH1 0x4 ADD PUSH3 0xBCE SWAP1 PUSH3 0x21A3 JUMP JUMPDEST PUSH1 0x40 MLOAD DUP1 SWAP2 SUB SWAP1 REVERT JUMPDEST PUSH1 0x0 PUSH3 0xBE4 DUP7 PUSH3 0x15F2 JUMP JUMPDEST SLT ISZERO PUSH3 0xC28 JUMPI PUSH1 0x40 MLOAD PUSH32 0x8C379A000000000000000000000000000000000000000000000000000000000 DUP2 MSTORE PUSH1 0x4 ADD PUSH3 0xC1F SWAP1 PUSH3 0x204F JUMP JUMPDEST PUSH1 0x40 MLOAD DUP1 SWAP2 SUB SWAP1 REVERT JUMPDEST PUSH1 0x0 PUSH3 0xC35 DUP6 PUSH3 0x15F2 JUMP JUMPDEST SLT ISZERO PUSH3 0xC79 JUMPI PUSH1 0x40 MLOAD PUSH32 0x8C379A000000000000000000000000000000000000000000000000000000000 DUP2 MSTORE PUSH1 0x4 ADD PUSH3 0xC70 SWAP1 PUSH3 0x2071 JUMP JUMPDEST PUSH1 0x40 MLOAD DUP1 SWAP2 SUB SWAP1 REVERT JUMPDEST PUSH1 0x0 PUSH3 0xC86 DUP8 PUSH3 0x1512 JUMP JUMPDEST SLT ISZERO PUSH3 0xCCA JUMPI PUSH1 0x40 MLOAD PUSH32 0x8C379A000000000000000000000000000000000000000000000000000000000 DUP2 MSTORE PUSH1 0x4 ADD PUSH3 0xCC1 SWAP1 PUSH3 0x215F JUMP JUMPDEST PUSH1 0x40 MLOAD DUP1 SWAP2 SUB SWAP1 REVERT JUMPDEST PUSH1 0x0 PUSH3 0xCD7 DUP5 PUSH3 0x1512 JUMP JUMPDEST SLT ISZERO PUSH3 0xD1B JUMPI PUSH1 0x40 MLOAD PUSH32 0x8C379A000000000000000000000000000000000000000000000000000000000 DUP2 MSTORE PUSH1 0x4 ADD PUSH3 0xD12 SWAP1 PUSH3 0x2209 JUMP JUMPDEST PUSH1 0x40 MLOAD DUP1 SWAP2 SUB SWAP1 REVERT JUMPDEST PUSH1 0x1 ISZERO ISZERO PUSH3 0xD2A DUP8 PUSH3 0xFE6 JUMP JUMPDEST ISZERO ISZERO EQ PUSH3 0xD6F JUMPI PUSH1 0x40 MLOAD PUSH32 0x8C379A000000000000000000000000000000000000000000000000000000000 DUP2 MSTORE PUSH1 0x4 ADD PUSH3 0xD66 SWAP1 PUSH3 0x21C5 JUMP JUMPDEST PUSH1 0x40 MLOAD DUP1 SWAP2 SUB SWAP1 REVERT JUMPDEST PUSH1 0x1 ISZERO ISZERO PUSH3 0xD7E DUP5 PUSH3 0xFE6 JUMP JUMPDEST ISZERO ISZERO EQ PUSH3 0xDC3 JUMPI PUSH1 0x40 MLOAD PUSH32 0x8C379A000000000000000000000000000000000000000000000000000000000 DUP2 MSTORE PUSH1 0x4 ADD PUSH3 0xDBA SWAP1 PUSH3 0x2093 JUMP JUMPDEST PUSH1 0x40 MLOAD DUP1 SWAP2 SUB SWAP1 REVERT JUMPDEST PUSH1 0x0 DUP7 DUP7 DUP7 DUP7 DUP7 DUP7 PUSH1 0x40 MLOAD PUSH3 0xDD9 SWAP1 PUSH3 0x183D JUMP JUMPDEST PUSH3 0xDEA SWAP7 SWAP6 SWAP5 SWAP4 SWAP3 SWAP2 SWAP1 PUSH3 0x1FA1 JUMP JUMPDEST PUSH1 0x40 MLOAD DUP1 SWAP2 SUB SWAP1 PUSH1 0x0 CREATE DUP1 ISZERO DUP1 ISZERO PUSH3 0xE07 JUMPI RETURNDATASIZE PUSH1 0x0 DUP1 RETURNDATACOPY RETURNDATASIZE PUSH1 0x0 REVERT JUMPDEST POP SWAP1 POP PUSH32 0x34551F19EBD97B9A8971C4FFF766382E1D196B9D3F7F38DB0D7AA74D7E1526B0 DUP2 PUSH20 0xFFFFFFFFFFFFFFFFFFFFFFFFFFFFFFFFFFFFFFFF AND PUSH4 0x38CC4831 PUSH1 0x40 MLOAD DUP2 PUSH4 0xFFFFFFFF AND PUSH1 0xE0 SHL DUP2 MSTORE PUSH1 0x4 ADD PUSH1 0x20 PUSH1 0x40 MLOAD DUP1 DUP4 SUB DUP2 DUP7 DUP1 EXTCODESIZE ISZERO DUP1 ISZERO PUSH3 0xE72 JUMPI PUSH1 0x0 DUP1 REVERT JUMPDEST POP GAS STATICCALL ISZERO DUP1 ISZERO PUSH3 0xE87 JUMPI RETURNDATASIZE PUSH1 0x0 DUP1 RETURNDATACOPY RETURNDATASIZE PUSH1 0x0 REVERT JUMPDEST POP POP POP POP PUSH1 0x40 MLOAD RETURNDATASIZE PUSH1 0x1F NOT PUSH1 0x1F DUP3 ADD AND DUP3 ADD DUP1 PUSH1 0x40 MSTORE POP DUP2 ADD SWAP1 PUSH3 0xEAD SWAP2 SWAP1 PUSH3 0x19BB JUMP JUMPDEST PUSH1 0x40 MLOAD PUSH3 0xEBC SWAP2 SWAP1 PUSH3 0x1F84 JUMP JUMPDEST PUSH1 0x40 MLOAD DUP1 SWAP2 SUB SWAP1 LOG1 POP POP POP POP POP POP POP JUMP JUMPDEST PUSH1 0x60 PUSH1 0x0 PUSH3 0xEDC DUP4 PUSH3 0x1512 JUMP JUMPDEST SWAP1 POP PUSH1 0x0 DUP2 SLT ISZERO PUSH3 0xF25 JUMPI PUSH1 0x40 MLOAD PUSH32 0x8C379A000000000000000000000000000000000000000000000000000000000 DUP2 MSTORE PUSH1 0x4 ADD PUSH3 0xF1C SWAP1 PUSH3 0x20B5 JUMP JUMPDEST PUSH1 0x40 MLOAD DUP1 SWAP2 SUB SWAP1 REVERT JUMPDEST PUSH1 0x0 DUP2 DUP2 SLOAD DUP2 LT PUSH3 0xF3C JUMPI PUSH3 0xF3B PUSH3 0x2516 JUMP JUMPDEST JUMPDEST SWAP1 PUSH1 0x0 MSTORE PUSH1 0x20 PUSH1 0x0 KECCAK256 SWAP1 PUSH1 0x5 MUL ADD PUSH1 0x1 ADD DUP1 SLOAD PUSH3 0xF5A SWAP1 PUSH3 0x23FE JUMP JUMPDEST DUP1 PUSH1 0x1F ADD PUSH1 0x20 DUP1 SWAP2 DIV MUL PUSH1 0x20 ADD PUSH1 0x40 MLOAD SWAP1 DUP2 ADD PUSH1 0x40 MSTORE DUP1 SWAP3 SWAP2 SWAP1 DUP2 DUP2 MSTORE PUSH1 0x20 ADD DUP3 DUP1 SLOAD PUSH3 0xF88 SWAP1 PUSH3 0x23FE JUMP JUMPDEST DUP1 ISZERO PUSH3 0xFD9 JUMPI DUP1 PUSH1 0x1F LT PUSH3 0xFAD JUMPI PUSH2 0x100 DUP1 DUP4 SLOAD DIV MUL DUP4 MSTORE SWAP2 PUSH1 0x20 ADD SWAP2 PUSH3 0xFD9 JUMP JUMPDEST DUP3 ADD SWAP2 SWAP1 PUSH1 0x0 MSTORE PUSH1 0x20 PUSH1 0x0 KECCAK256 SWAP1 JUMPDEST DUP2 SLOAD DUP2 MSTORE SWAP1 PUSH1 0x1 ADD SWAP1 PUSH1 0x20 ADD DUP1 DUP4 GT PUSH3 0xFBB JUMPI DUP3 SWAP1 SUB PUSH1 0x1F AND DUP3 ADD SWAP2 JUMPDEST POP POP POP POP POP SWAP2 POP POP SWAP2 SWAP1 POP JUMP JUMPDEST PUSH1 0x0 DUP1 PUSH3 0xFF4 DUP4 PUSH3 0x1512 JUMP JUMPDEST SWAP1 POP PUSH1 0x0 DUP2 SLT ISZERO PUSH3 0x103D JUMPI PUSH1 0x40 MLOAD PUSH32 0x8C379A000000000000000000000000000000000000000000000000000000000 DUP2 MSTORE PUSH1 0x4 ADD PUSH3 0x1034 SWAP1 PUSH3 0x20B5 JUMP JUMPDEST PUSH1 0x40 MLOAD DUP1 SWAP2 SUB SWAP1 REVERT JUMPDEST PUSH1 0x0 DUP2 DUP2 SLOAD DUP2 LT PUSH3 0x1054 JUMPI PUSH3 0x1053 PUSH3 0x2516 JUMP JUMPDEST JUMPDEST SWAP1 PUSH1 0x0 MSTORE PUSH1 0x20 PUSH1 0x0 KECCAK256 SWAP1 PUSH1 0x5 MUL ADD PUSH1 0x3 ADD PUSH1 0x0 SWAP1 SLOAD SWAP1 PUSH2 0x100 EXP SWAP1 DIV PUSH1 0xFF AND SWAP2 POP POP SWAP2 SWAP1 POP JUMP JUMPDEST DUP1 PUSH20 0xFFFFFFFFFFFFFFFFFFFFFFFFFFFFFFFFFFFFFFFF AND PUSH4 0xE6402814 PUSH1 0x40 MLOAD DUP2 PUSH4 0xFFFFFFFF AND PUSH1 0xE0 SHL DUP2 MSTORE PUSH1 0x4 ADD PUSH1 0x20 PUSH1 0x40 MLOAD DUP1 DUP4 SUB DUP2 DUP7 DUP1 EXTCODESIZE ISZERO DUP1 ISZERO PUSH3 0x10C2 JUMPI PUSH1 0x0 DUP1 REVERT JUMPDEST POP GAS STATICCALL ISZERO DUP1 ISZERO PUSH3 0x10D7 JUMPI RETURNDATASIZE PUSH1 0x0 DUP1 RETURNDATACOPY RETURNDATASIZE PUSH1 0x0 REVERT JUMPDEST POP POP POP POP PUSH1 0x40 MLOAD RETURNDATASIZE PUSH1 0x1F NOT PUSH1 0x1F DUP3 ADD AND DUP3 ADD DUP1 PUSH1 0x40 MSTORE POP DUP2 ADD SWAP1 PUSH3 0x10FD SWAP2 SWAP1 PUSH3 0x19BB JUMP JUMPDEST PUSH20 0xFFFFFFFFFFFFFFFFFFFFFFFFFFFFFFFFFFFFFFFF AND CALLER PUSH20 0xFFFFFFFFFFFFFFFFFFFFFFFFFFFFFFFFFFFFFFFF AND EQ PUSH3 0x116D JUMPI PUSH1 0x40 MLOAD PUSH32 0x8C379A000000000000000000000000000000000000000000000000000000000 DUP2 MSTORE PUSH1 0x4 ADD PUSH3 0x1164 SWAP1 PUSH3 0x20F9 JUMP JUMPDEST PUSH1 0x40 MLOAD DUP1 SWAP2 SUB SWAP1 REVERT JUMPDEST PUSH1 0x1 ISZERO ISZERO DUP2 PUSH20 0xFFFFFFFFFFFFFFFFFFFFFFFFFFFFFFFFFFFFFFFF AND PUSH4 0xBC3FB50F PUSH1 0x40 MLOAD DUP2 PUSH4 0xFFFFFFFF AND PUSH1 0xE0 SHL DUP2 MSTORE PUSH1 0x4 ADD PUSH1 0x20 PUSH1 0x40 MLOAD DUP1 DUP4 SUB DUP2 DUP7 DUP1 EXTCODESIZE ISZERO DUP1 ISZERO PUSH3 0x11B8 JUMPI PUSH1 0x0 DUP1 REVERT JUMPDEST POP GAS STATICCALL ISZERO DUP1 ISZERO PUSH3 0x11CD JUMPI RETURNDATASIZE PUSH1 0x0 DUP1 RETURNDATACOPY RETURNDATASIZE PUSH1 0x0 REVERT JUMPDEST POP POP POP POP PUSH1 0x40 MLOAD RETURNDATASIZE PUSH1 0x1F NOT PUSH1 0x1F DUP3 ADD AND DUP3 ADD DUP1 PUSH1 0x40 MSTORE POP DUP2 ADD SWAP1 PUSH3 0x11F3 SWAP2 SWAP1 PUSH3 0x1BFC JUMP JUMPDEST ISZERO ISZERO EQ PUSH3 0x1238 JUMPI PUSH1 0x40 MLOAD PUSH32 0x8C379A000000000000000000000000000000000000000000000000000000000 DUP2 MSTORE PUSH1 0x4 ADD PUSH3 0x122F SWAP1 PUSH3 0x21E7 JUMP JUMPDEST PUSH1 0x40 MLOAD DUP1 SWAP2 SUB SWAP1 REVERT JUMPDEST PUSH1 0x0 ISZERO ISZERO DUP2 PUSH20 0xFFFFFFFFFFFFFFFFFFFFFFFFFFFFFFFFFFFFFFFF AND PUSH4 0x26E0C5AE PUSH1 0x40 MLOAD DUP2 PUSH4 0xFFFFFFFF AND PUSH1 0xE0 SHL DUP2 MSTORE PUSH1 0x4 ADD PUSH1 0x20 PUSH1 0x40 MLOAD DUP1 DUP4 SUB DUP2 DUP7 DUP1 EXTCODESIZE ISZERO DUP1 ISZERO PUSH3 0x1283 JUMPI PUSH1 0x0 DUP1 REVERT JUMPDEST POP GAS STATICCALL ISZERO DUP1 ISZERO PUSH3 0x1298 JUMPI RETURNDATASIZE PUSH1 0x0 DUP1 RETURNDATACOPY RETURNDATASIZE PUSH1 0x0 REVERT JUMPDEST POP POP POP POP PUSH1 0x40 MLOAD RETURNDATASIZE PUSH1 0x1F NOT PUSH1 0x1F DUP3 ADD AND DUP3 ADD DUP1 PUSH1 0x40 MSTORE POP DUP2 ADD SWAP1 PUSH3 0x12BE SWAP2 SWAP1 PUSH3 0x1BFC JUMP JUMPDEST ISZERO ISZERO EQ PUSH3 0x1303 JUMPI PUSH1 0x40 MLOAD PUSH32 0x8C379A000000000000000000000000000000000000000000000000000000000 DUP2 MSTORE PUSH1 0x4 ADD PUSH3 0x12FA SWAP1 PUSH3 0x213D JUMP JUMPDEST PUSH1 0x40 MLOAD DUP1 SWAP2 SUB SWAP1 REVERT JUMPDEST PUSH3 0x1413 PUSH1 0x0 DUP3 PUSH20 0xFFFFFFFFFFFFFFFFFFFFFFFFFFFFFFFFFFFFFFFF AND PUSH4 0x873E9755 PUSH1 0x40 MLOAD DUP2 PUSH4 0xFFFFFFFF AND PUSH1 0xE0 SHL DUP2 MSTORE PUSH1 0x4 ADD PUSH1 0x20 PUSH1 0x40 MLOAD DUP1 DUP4 SUB DUP2 DUP7 DUP1 EXTCODESIZE ISZERO DUP1 ISZERO PUSH3 0x1350 JUMPI PUSH1 0x0 DUP1 REVERT JUMPDEST POP GAS STATICCALL ISZERO DUP1 ISZERO PUSH3 0x1365 JUMPI RETURNDATASIZE PUSH1 0x0 DUP1 RETURNDATACOPY RETURNDATASIZE PUSH1 0x0 REVERT JUMPDEST POP POP POP POP PUSH1 0x40 MLOAD RETURNDATASIZE PUSH1 0x1F NOT PUSH1 0x1F DUP3 ADD AND DUP3 ADD DUP1 PUSH1 0x40 MSTORE POP DUP2 ADD SWAP1 PUSH3 0x138B SWAP2 SWAP1 PUSH3 0x19BB JUMP JUMPDEST DUP4 PUSH20 0xFFFFFFFFFFFFFFFFFFFFFFFFFFFFFFFFFFFFFFFF AND PUSH4 0xAD16A96C PUSH1 0x40 MLOAD DUP2 PUSH4 0xFFFFFFFF AND PUSH1 0xE0 SHL DUP2 MSTORE PUSH1 0x4 ADD PUSH1 0x20 PUSH1 0x40 MLOAD DUP1 DUP4 SUB DUP2 DUP7 DUP1 EXTCODESIZE ISZERO DUP1 ISZERO PUSH3 0x13D2 JUMPI PUSH1 0x0 DUP1 REVERT JUMPDEST POP GAS STATICCALL ISZERO DUP1 ISZERO PUSH3 0x13E7 JUMPI RETURNDATASIZE PUSH1 0x0 DUP1 RETURNDATACOPY RETURNDATASIZE PUSH1 0x0 REVERT JUMPDEST POP POP POP POP PUSH1 0x40 MLOAD RETURNDATASIZE PUSH1 0x1F NOT PUSH1 0x1F DUP3 ADD AND DUP3 ADD DUP1 PUSH1 0x40 MSTORE POP DUP2 ADD SWAP1 PUSH3 0x140D SWAP2 SWAP1 PUSH3 0x1CBC JUMP JUMPDEST PUSH3 0x2E7 JUMP JUMPDEST DUP1 PUSH20 0xFFFFFFFFFFFFFFFFFFFFFFFFFFFFFFFFFFFFFFFF AND PUSH3 0x5C33E1 PUSH1 0x40 MLOAD DUP2 PUSH4 0xFFFFFFFF AND PUSH1 0xE0 SHL DUP2 MSTORE PUSH1 0x4 ADD PUSH1 0x0 PUSH1 0x40 MLOAD DUP1 DUP4 SUB DUP2 PUSH1 0x0 DUP8 DUP1 EXTCODESIZE ISZERO DUP1 ISZERO PUSH3 0x145B JUMPI PUSH1 0x0 DUP1 REVERT JUMPDEST POP GAS CALL ISZERO DUP1 ISZERO PUSH3 0x1470 JUMPI RETURNDATASIZE PUSH1 0x0 DUP1 RETURNDATACOPY RETURNDATASIZE PUSH1 0x0 REVERT JUMPDEST POP POP POP POP POP JUMP JUMPDEST PUSH1 0x0 PUSH3 0x1484 DUP4 PUSH3 0x1512 JUMP JUMPDEST SWAP1 POP PUSH1 0x0 DUP2 SLT ISZERO PUSH3 0x14CD JUMPI PUSH1 0x40 MLOAD PUSH32 0x8C379A000000000000000000000000000000000000000000000000000000000 DUP2 MSTORE PUSH1 0x4 ADD PUSH3 0x14C4 SWAP1 PUSH3 0x20B5 JUMP JUMPDEST PUSH1 0x40 MLOAD DUP1 SWAP2 SUB SWAP1 REVERT JUMPDEST DUP2 PUSH1 0x0 DUP3 DUP2 SLOAD DUP2 LT PUSH3 0x14E5 JUMPI PUSH3 0x14E4 PUSH3 0x2516 JUMP JUMPDEST JUMPDEST SWAP1 PUSH1 0x0 MSTORE PUSH1 0x20 PUSH1 0x0 KECCAK256 SWAP1 PUSH1 0x5 MUL ADD PUSH1 0x3 ADD PUSH1 0x0 PUSH2 0x100 EXP DUP2 SLOAD DUP2 PUSH1 0xFF MUL NOT AND SWAP1 DUP4 ISZERO ISZERO MUL OR SWAP1 SSTORE POP POP POP POP JUMP JUMPDEST PUSH1 0x0 DUP1 PUSH1 0x0 DUP1 SLOAD SWAP1 POP SWAP1 POP PUSH1 0x0 JUMPDEST DUP2 DUP2 LT ISZERO PUSH3 0x15C7 JUMPI DUP4 PUSH20 0xFFFFFFFFFFFFFFFFFFFFFFFFFFFFFFFFFFFFFFFF AND PUSH1 0x0 DUP3 DUP2 SLOAD DUP2 LT PUSH3 0x1557 JUMPI PUSH3 0x1556 PUSH3 0x2516 JUMP JUMPDEST JUMPDEST SWAP1 PUSH1 0x0 MSTORE PUSH1 0x20 PUSH1 0x0 KECCAK256 SWAP1 PUSH1 0x5 MUL ADD PUSH1 0x0 ADD PUSH1 0x0 SWAP1 SLOAD SWAP1 PUSH2 0x100 EXP SWAP1 DIV PUSH20 0xFFFFFFFFFFFFFFFFFFFFFFFFFFFFFFFFFFFFFFFF AND PUSH20 0xFFFFFFFFFFFFFFFFFFFFFFFFFFFFFFFFFFFFFFFF AND EQ ISZERO PUSH3 0x15B1 JUMPI DUP1 SWAP3 POP POP POP PUSH3 0x15ED JUMP JUMPDEST DUP1 DUP1 PUSH3 0x15BE SWAP1 PUSH3 0x246A JUMP JUMPDEST SWAP2 POP POP PUSH3 0x1520 JUMP JUMPDEST POP PUSH32 0xFFFFFFFFFFFFFFFFFFFFFFFFFFFFFFFFFFFFFFFFFFFFFFFFFFFFFFFFFFFFFFFF SWAP2 POP POP JUMPDEST SWAP2 SWAP1 POP JUMP JUMPDEST PUSH1 0x0 DUP1 PUSH1 0x0 SWAP1 POP JUMPDEST PUSH1 0x1 DUP1 SLOAD SWAP1 POP DUP2 LT ISZERO PUSH3 0x16A5 JUMPI DUP3 PUSH20 0xFFFFFFFFFFFFFFFFFFFFFFFFFFFFFFFFFFFFFFFF AND PUSH1 0x1 DUP3 DUP2 SLOAD DUP2 LT PUSH3 0x1636 JUMPI PUSH3 0x1635 PUSH3 0x2516 JUMP JUMPDEST JUMPDEST SWAP1 PUSH1 0x0 MSTORE PUSH1 0x20 PUSH1 0x0 KECCAK256 SWAP1 PUSH1 0x2 MUL ADD PUSH1 0x0 ADD PUSH1 0x0 SWAP1 SLOAD SWAP1 PUSH2 0x100 EXP SWAP1 DIV PUSH20 0xFFFFFFFFFFFFFFFFFFFFFFFFFFFFFFFFFFFFFFFF AND PUSH20 0xFFFFFFFFFFFFFFFFFFFFFFFFFFFFFFFFFFFFFFFF AND EQ ISZERO PUSH3 0x168F JUMPI DUP1 SWAP2 POP POP PUSH3 0x16CA JUMP JUMPDEST DUP1 DUP1 PUSH3 0x169C SWAP1 PUSH3 0x246A JUMP JUMPDEST SWAP2 POP POP PUSH3 0x15FA JUMP JUMPDEST POP PUSH32 0xFFFFFFFFFFFFFFFFFFFFFFFFFFFFFFFFFFFFFFFFFFFFFFFFFFFFFFFFFFFFFFFF SWAP1 POP JUMPDEST SWAP2 SWAP1 POP JUMP JUMPDEST PUSH1 0x0 DUP1 PUSH1 0x0 SWAP1 POP JUMPDEST PUSH1 0x2 DUP1 SLOAD SWAP1 POP DUP2 LT ISZERO PUSH3 0x1782 JUMPI DUP3 PUSH20 0xFFFFFFFFFFFFFFFFFFFFFFFFFFFFFFFFFFFFFFFF AND PUSH1 0x2 DUP3 DUP2 SLOAD DUP2 LT PUSH3 0x1713 JUMPI PUSH3 0x1712 PUSH3 0x2516 JUMP JUMPDEST JUMPDEST SWAP1 PUSH1 0x0 MSTORE PUSH1 0x20 PUSH1 0x0 KECCAK256 SWAP1 PUSH1 0x2 MUL ADD PUSH1 0x0 ADD PUSH1 0x0 SWAP1 SLOAD SWAP1 PUSH2 0x100 EXP SWAP1 DIV PUSH20 0xFFFFFFFFFFFFFFFFFFFFFFFFFFFFFFFFFFFFFFFF AND PUSH20 0xFFFFFFFFFFFFFFFFFFFFFFFFFFFFFFFFFFFFFFFF AND EQ ISZERO PUSH3 0x176C JUMPI DUP1 SWAP2 POP POP PUSH3 0x17A7 JUMP JUMPDEST DUP1 DUP1 PUSH3 0x1779 SWAP1 PUSH3 0x246A JUMP JUMPDEST SWAP2 POP POP PUSH3 0x16D7 JUMP JUMPDEST POP PUSH32 0xFFFFFFFFFFFFFFFFFFFFFFFFFFFFFFFFFFFFFFFFFFFFFFFFFFFFFFFFFFFFFFFF SWAP1 POP JUMPDEST SWAP2 SWAP1 POP JUMP JUMPDEST DUP3 DUP1 SLOAD PUSH3 0x17BA SWAP1 PUSH3 0x23FE JUMP JUMPDEST SWAP1 PUSH1 0x0 MSTORE PUSH1 0x20 PUSH1 0x0 KECCAK256 SWAP1 PUSH1 0x1F ADD PUSH1 0x20 SWAP1 DIV DUP2 ADD SWAP3 DUP3 PUSH3 0x17DE JUMPI PUSH1 0x0 DUP6 SSTORE PUSH3 0x182A JUMP JUMPDEST DUP3 PUSH1 0x1F LT PUSH3 0x17F9 JUMPI DUP1 MLOAD PUSH1 0xFF NOT AND DUP4 DUP1 ADD OR DUP6 SSTORE PUSH3 0x182A JUMP JUMPDEST DUP3 DUP1 ADD PUSH1 0x1 ADD DUP6 SSTORE DUP3 ISZERO PUSH3 0x182A JUMPI SWAP2 DUP3 ADD JUMPDEST DUP3 DUP2 GT ISZERO PUSH3 0x1829 JUMPI DUP3 MLOAD DUP3 SSTORE SWAP2 PUSH1 0x20 ADD SWAP2 SWAP1 PUSH1 0x1 ADD SWAP1 PUSH3 0x180C JUMP JUMPDEST JUMPDEST POP SWAP1 POP PUSH3 0x1839 SWAP2 SWAP1 PUSH3 0x184B JUMP JUMPDEST POP SWAP1 JUMP JUMPDEST PUSH2 0xB37 DUP1 PUSH3 0x2924 DUP4 CODECOPY ADD SWAP1 JUMP JUMPDEST JUMPDEST DUP1 DUP3 GT ISZERO PUSH3 0x1866 JUMPI PUSH1 0x0 DUP2 PUSH1 0x0 SWAP1 SSTORE POP PUSH1 0x1 ADD PUSH3 0x184C JUMP JUMPDEST POP SWAP1 JUMP JUMPDEST PUSH1 0x0 PUSH3 0x1881 PUSH3 0x187B DUP5 PUSH3 0x2271 JUMP JUMPDEST PUSH3 0x2248 JUMP JUMPDEST SWAP1 POP DUP3 DUP2 MSTORE PUSH1 0x20 DUP2 ADD DUP5 DUP5 DUP5 ADD GT ISZERO PUSH3 0x18A0 JUMPI PUSH3 0x189F PUSH3 0x2579 JUMP JUMPDEST JUMPDEST PUSH3 0x18AD DUP5 DUP3 DUP6 PUSH3 0x23B9 JUMP JUMPDEST POP SWAP4 SWAP3 POP POP POP JUMP JUMPDEST PUSH1 0x0 DUP2 CALLDATALOAD SWAP1 POP PUSH3 0x18C6 DUP2 PUSH3 0x28BB JUMP JUMPDEST SWAP3 SWAP2 POP POP JUMP JUMPDEST PUSH1 0x0 DUP2 MLOAD SWAP1 POP PUSH3 0x18DD DUP2 PUSH3 0x28BB JUMP JUMPDEST SWAP3 SWAP2 POP POP JUMP JUMPDEST PUSH1 0x0 DUP2 CALLDATALOAD SWAP1 POP PUSH3 0x18F4 DUP2 PUSH3 0x28D5 JUMP JUMPDEST SWAP3 SWAP2 POP POP JUMP JUMPDEST PUSH1 0x0 DUP2 MLOAD SWAP1 POP PUSH3 0x190B DUP2 PUSH3 0x28D5 JUMP JUMPDEST SWAP3 SWAP2 POP POP JUMP JUMPDEST PUSH1 0x0 DUP2 CALLDATALOAD SWAP1 POP PUSH3 0x1922 DUP2 PUSH3 0x28EF JUMP JUMPDEST SWAP3 SWAP2 POP POP JUMP JUMPDEST PUSH1 0x0 DUP3 PUSH1 0x1F DUP4 ADD SLT PUSH3 0x1940 JUMPI PUSH3 0x193F PUSH3 0x2574 JUMP JUMPDEST JUMPDEST DUP2 CALLDATALOAD PUSH3 0x1952 DUP5 DUP3 PUSH1 0x20 DUP7 ADD PUSH3 0x186A JUMP JUMPDEST SWAP2 POP POP SWAP3 SWAP2 POP POP JUMP JUMPDEST PUSH1 0x0 DUP2 CALLDATALOAD SWAP1 POP PUSH3 0x196C DUP2 PUSH3 0x2909 JUMP JUMPDEST SWAP3 SWAP2 POP POP JUMP JUMPDEST PUSH1 0x0 DUP2 MLOAD SWAP1 POP PUSH3 0x1983 DUP2 PUSH3 0x2909 JUMP JUMPDEST SWAP3 SWAP2 POP POP JUMP JUMPDEST PUSH1 0x0 PUSH1 0x20 DUP3 DUP5 SUB SLT ISZERO PUSH3 0x19A2 JUMPI PUSH3 0x19A1 PUSH3 0x2583 JUMP JUMPDEST JUMPDEST PUSH1 0x0 PUSH3 0x19B2 DUP5 DUP3 DUP6 ADD PUSH3 0x18B5 JUMP JUMPDEST SWAP2 POP POP SWAP3 SWAP2 POP POP JUMP JUMPDEST PUSH1 0x0 PUSH1 0x20 DUP3 DUP5 SUB SLT ISZERO PUSH3 0x19D4 JUMPI PUSH3 0x19D3 PUSH3 0x2583 JUMP JUMPDEST JUMPDEST PUSH1 0x0 PUSH3 0x19E4 DUP5 DUP3 DUP6 ADD PUSH3 0x18CC JUMP JUMPDEST SWAP2 POP POP SWAP3 SWAP2 POP POP JUMP JUMPDEST PUSH1 0x0 DUP1 PUSH1 0x0 DUP1 PUSH1 0x0 DUP1 PUSH1 0xC0 DUP8 DUP10 SUB SLT ISZERO PUSH3 0x1A0D JUMPI PUSH3 0x1A0C PUSH3 0x2583 JUMP JUMPDEST JUMPDEST PUSH1 0x0 PUSH3 0x1A1D DUP10 DUP3 DUP11 ADD PUSH3 0x18B5 JUMP JUMPDEST SWAP7 POP POP PUSH1 0x20 PUSH3 0x1A30 DUP10 DUP3 DUP11 ADD PUSH3 0x18B5 JUMP JUMPDEST SWAP6 POP POP PUSH1 0x40 PUSH3 0x1A43 DUP10 DUP3 DUP11 ADD PUSH3 0x18B5 JUMP JUMPDEST SWAP5 POP POP PUSH1 0x60 PUSH3 0x1A56 DUP10 DUP3 DUP11 ADD PUSH3 0x18B5 JUMP JUMPDEST SWAP4 POP POP PUSH1 0x80 PUSH3 0x1A69 DUP10 DUP3 DUP11 ADD PUSH3 0x195B JUMP JUMPDEST SWAP3 POP POP PUSH1 0xA0 PUSH3 0x1A7C DUP10 DUP3 DUP11 ADD PUSH3 0x195B JUMP JUMPDEST SWAP2 POP POP SWAP3 SWAP6 POP SWAP3 SWAP6 POP SWAP3 SWAP6 JUMP JUMPDEST PUSH1 0x0 DUP1 PUSH1 0x40 DUP4 DUP6 SUB SLT ISZERO PUSH3 0x1AA3 JUMPI PUSH3 0x1AA2 PUSH3 0x2583 JUMP JUMPDEST JUMPDEST PUSH1 0x0 PUSH3 0x1AB3 DUP6 DUP3 DUP7 ADD PUSH3 0x18B5 JUMP JUMPDEST SWAP3 POP POP PUSH1 0x20 PUSH3 0x1AC6 DUP6 DUP3 DUP7 ADD PUSH3 0x18E3 JUMP JUMPDEST SWAP2 POP POP SWAP3 POP SWAP3 SWAP1 POP JUMP JUMPDEST PUSH1 0x0 DUP1 PUSH1 0x40 DUP4 DUP6 SUB SLT ISZERO PUSH3 0x1AEA JUMPI PUSH3 0x1AE9 PUSH3 0x2583 JUMP JUMPDEST JUMPDEST PUSH1 0x0 PUSH3 0x1AFA DUP6 DUP3 DUP7 ADD PUSH3 0x18B5 JUMP JUMPDEST SWAP3 POP POP PUSH1 0x20 DUP4 ADD CALLDATALOAD PUSH8 0xFFFFFFFFFFFFFFFF DUP2 GT ISZERO PUSH3 0x1B1E JUMPI PUSH3 0x1B1D PUSH3 0x257E JUMP JUMPDEST JUMPDEST PUSH3 0x1B2C DUP6 DUP3 DUP7 ADD PUSH3 0x1928 JUMP JUMPDEST SWAP2 POP POP SWAP3 POP SWAP3 SWAP1 POP JUMP JUMPDEST PUSH1 0x0 DUP1 PUSH1 0x0 DUP1 PUSH1 0x0 PUSH1 0xA0 DUP7 DUP9 SUB SLT ISZERO PUSH3 0x1B55 JUMPI PUSH3 0x1B54 PUSH3 0x2583 JUMP JUMPDEST JUMPDEST PUSH1 0x0 PUSH3 0x1B65 DUP9 DUP3 DUP10 ADD PUSH3 0x18B5 JUMP JUMPDEST SWAP6 POP POP PUSH1 0x20 DUP7 ADD CALLDATALOAD PUSH8 0xFFFFFFFFFFFFFFFF DUP2 GT ISZERO PUSH3 0x1B89 JUMPI PUSH3 0x1B88 PUSH3 0x257E JUMP JUMPDEST JUMPDEST PUSH3 0x1B97 DUP9 DUP3 DUP10 ADD PUSH3 0x1928 JUMP JUMPDEST SWAP5 POP POP PUSH1 0x40 DUP7 ADD CALLDATALOAD PUSH8 0xFFFFFFFFFFFFFFFF DUP2 GT ISZERO PUSH3 0x1BBB JUMPI PUSH3 0x1BBA PUSH3 0x257E JUMP JUMPDEST JUMPDEST PUSH3 0x1BC9 DUP9 DUP3 DUP10 ADD PUSH3 0x1928 JUMP JUMPDEST SWAP4 POP POP PUSH1 0x60 PUSH3 0x1BDC DUP9 DUP3 DUP10 ADD PUSH3 0x18E3 JUMP JUMPDEST SWAP3 POP POP PUSH1 0x80 PUSH3 0x1BEF DUP9 DUP3 DUP10 ADD PUSH3 0x195B JUMP JUMPDEST SWAP2 POP POP SWAP3 SWAP6 POP SWAP3 SWAP6 SWAP1 SWAP4 POP JUMP JUMPDEST PUSH1 0x0 PUSH1 0x20 DUP3 DUP5 SUB SLT ISZERO PUSH3 0x1C15 JUMPI PUSH3 0x1C14 PUSH3 0x2583 JUMP JUMPDEST JUMPDEST PUSH1 0x0 PUSH3 0x1C25 DUP5 DUP3 DUP6 ADD PUSH3 0x18FA JUMP JUMPDEST SWAP2 POP POP SWAP3 SWAP2 POP POP JUMP JUMPDEST PUSH1 0x0 DUP1 PUSH1 0x0 PUSH1 0x60 DUP5 DUP7 SUB SLT ISZERO PUSH3 0x1C4A JUMPI PUSH3 0x1C49 PUSH3 0x2583 JUMP JUMPDEST JUMPDEST PUSH1 0x0 PUSH3 0x1C5A DUP7 DUP3 DUP8 ADD PUSH3 0x18E3 JUMP JUMPDEST SWAP4 POP POP PUSH1 0x20 PUSH3 0x1C6D DUP7 DUP3 DUP8 ADD PUSH3 0x18B5 JUMP JUMPDEST SWAP3 POP POP PUSH1 0x40 PUSH3 0x1C80 DUP7 DUP3 DUP8 ADD PUSH3 0x195B JUMP JUMPDEST SWAP2 POP POP SWAP3 POP SWAP3 POP SWAP3 JUMP JUMPDEST PUSH1 0x0 PUSH1 0x20 DUP3 DUP5 SUB SLT ISZERO PUSH3 0x1CA3 JUMPI PUSH3 0x1CA2 PUSH3 0x2583 JUMP JUMPDEST JUMPDEST PUSH1 0x0 PUSH3 0x1CB3 DUP5 DUP3 DUP6 ADD PUSH3 0x1911 JUMP JUMPDEST SWAP2 POP POP SWAP3 SWAP2 POP POP JUMP JUMPDEST PUSH1 0x0 PUSH1 0x20 DUP3 DUP5 SUB SLT ISZERO PUSH3 0x1CD5 JUMPI PUSH3 0x1CD4 PUSH3 0x2583 JUMP JUMPDEST JUMPDEST PUSH1 0x0 PUSH3 0x1CE5 DUP5 DUP3 DUP6 ADD PUSH3 0x1972 JUMP JUMPDEST SWAP2 POP POP SWAP3 SWAP2 POP POP JUMP JUMPDEST PUSH3 0x1CF9 DUP2 PUSH3 0x235B JUMP JUMPDEST DUP3 MSTORE POP POP JUMP JUMPDEST PUSH3 0x1D0A DUP2 PUSH3 0x236F JUMP JUMPDEST DUP3 MSTORE POP POP JUMP JUMPDEST PUSH1 0x0 PUSH3 0x1D1D DUP3 PUSH3 0x22A7 JUMP JUMPDEST PUSH3 0x1D29 DUP2 DUP6 PUSH3 0x22B2 JUMP JUMPDEST SWAP4 POP PUSH3 0x1D3B DUP2 DUP6 PUSH1 0x20 DUP7 ADD PUSH3 0x23C8 JUMP JUMPDEST PUSH3 0x1D46 DUP2 PUSH3 0x2588 JUMP JUMPDEST DUP5 ADD SWAP2 POP POP SWAP3 SWAP2 POP POP JUMP JUMPDEST PUSH1 0x0 PUSH3 0x1D60 PUSH1 0x1C DUP4 PUSH3 0x22B2 JUMP JUMPDEST SWAP2 POP PUSH3 0x1D6D DUP3 PUSH3 0x2599 JUMP JUMPDEST PUSH1 0x20 DUP3 ADD SWAP1 POP SWAP2 SWAP1 POP JUMP JUMPDEST PUSH1 0x0 PUSH3 0x1D87 PUSH1 0x21 DUP4 PUSH3 0x22B2 JUMP JUMPDEST SWAP2 POP PUSH3 0x1D94 DUP3 PUSH3 0x25C2 JUMP JUMPDEST PUSH1 0x40 DUP3 ADD SWAP1 POP SWAP2 SWAP1 POP JUMP JUMPDEST PUSH1 0x0 PUSH3 0x1DAE PUSH1 0x2E DUP4 PUSH3 0x22B2 JUMP JUMPDEST SWAP2 POP PUSH3 0x1DBB DUP3 PUSH3 0x2611 JUMP JUMPDEST PUSH1 0x40 DUP3 ADD SWAP1 POP SWAP2 SWAP1 POP JUMP JUMPDEST PUSH1 0x0 PUSH3 0x1DD5 PUSH1 0x19 DUP4 PUSH3 0x22B2 JUMP JUMPDEST SWAP2 POP PUSH3 0x1DE2 DUP3 PUSH3 0x2660 JUMP JUMPDEST PUSH1 0x20 DUP3 ADD SWAP1 POP SWAP2 SWAP1 POP JUMP JUMPDEST PUSH1 0x0 PUSH3 0x1DFC PUSH1 0xE DUP4 PUSH3 0x22B2 JUMP JUMPDEST SWAP2 POP PUSH3 0x1E09 DUP3 PUSH3 0x2689 JUMP JUMPDEST PUSH1 0x20 DUP3 ADD SWAP1 POP SWAP2 SWAP1 POP JUMP JUMPDEST PUSH1 0x0 PUSH3 0x1E23 PUSH1 0x24 DUP4 PUSH3 0x22B2 JUMP JUMPDEST SWAP2 POP PUSH3 0x1E30 DUP3 PUSH3 0x26B2 JUMP JUMPDEST PUSH1 0x40 DUP3 ADD SWAP1 POP SWAP2 SWAP1 POP JUMP JUMPDEST PUSH1 0x0 PUSH3 0x1E4A PUSH1 0x17 DUP4 PUSH3 0x22B2 JUMP JUMPDEST SWAP2 POP PUSH3 0x1E57 DUP3 PUSH3 0x2701 JUMP JUMPDEST PUSH1 0x20 DUP3 ADD SWAP1 POP SWAP2 SWAP1 POP JUMP JUMPDEST PUSH1 0x0 PUSH3 0x1E71 PUSH1 0x20 DUP4 PUSH3 0x22B2 JUMP JUMPDEST SWAP2 POP PUSH3 0x1E7E DUP3 PUSH3 0x272A JUMP JUMPDEST PUSH1 0x20 DUP3 ADD SWAP1 POP SWAP2 SWAP1 POP JUMP JUMPDEST PUSH1 0x0 PUSH3 0x1E98 PUSH1 0x14 DUP4 PUSH3 0x22B2 JUMP JUMPDEST SWAP2 POP PUSH3 0x1EA5 DUP3 PUSH3 0x2753 JUMP JUMPDEST PUSH1 0x20 DUP3 ADD SWAP1 POP SWAP2 SWAP1 POP JUMP JUMPDEST PUSH1 0x0 PUSH3 0x1EBF PUSH1 0x24 DUP4 PUSH3 0x22B2 JUMP JUMPDEST SWAP2 POP PUSH3 0x1ECC DUP3 PUSH3 0x277C JUMP JUMPDEST PUSH1 0x40 DUP3 ADD SWAP1 POP SWAP2 SWAP1 POP JUMP JUMPDEST PUSH1 0x0 PUSH3 0x1EE6 PUSH1 0x34 DUP4 PUSH3 0x22B2 JUMP JUMPDEST SWAP2 POP PUSH3 0x1EF3 DUP3 PUSH3 0x27CB JUMP JUMPDEST PUSH1 0x40 DUP3 ADD SWAP1 POP SWAP2 SWAP1 POP JUMP JUMPDEST PUSH1 0x0 PUSH3 0x1F0D PUSH1 0x29 DUP4 PUSH3 0x22B2 JUMP JUMPDEST SWAP2 POP PUSH3 0x1F1A DUP3 PUSH3 0x281A JUMP JUMPDEST PUSH1 0x40 DUP3 ADD SWAP1 POP SWAP2 SWAP1 POP JUMP JUMPDEST PUSH1 0x0 PUSH3 0x1F34 PUSH1 0x1A DUP4 PUSH3 0x22B2 JUMP JUMPDEST SWAP2 POP PUSH3 0x1F41 DUP3 PUSH3 0x2869 JUMP JUMPDEST PUSH1 0x20 DUP3 ADD SWAP1 POP SWAP2 SWAP1 POP JUMP JUMPDEST PUSH1 0x0 PUSH3 0x1F5B PUSH1 0x19 DUP4 PUSH3 0x22B2 JUMP JUMPDEST SWAP2 POP PUSH3 0x1F68 DUP3 PUSH3 0x2892 JUMP JUMPDEST PUSH1 0x20 DUP3 ADD SWAP1 POP SWAP2 SWAP1 POP JUMP JUMPDEST PUSH3 0x1F7E DUP2 PUSH3 0x23AF JUMP JUMPDEST DUP3 MSTORE POP POP JUMP JUMPDEST PUSH1 0x0 PUSH1 0x20 DUP3 ADD SWAP1 POP PUSH3 0x1F9B PUSH1 0x0 DUP4 ADD DUP5 PUSH3 0x1CEE JUMP JUMPDEST SWAP3 SWAP2 POP POP JUMP JUMPDEST PUSH1 0x0 PUSH1 0xC0 DUP3 ADD SWAP1 POP PUSH3 0x1FB8 PUSH1 0x0 DUP4 ADD DUP10 PUSH3 0x1CEE JUMP JUMPDEST PUSH3 0x1FC7 PUSH1 0x20 DUP4 ADD DUP9 PUSH3 0x1CEE JUMP JUMPDEST PUSH3 0x1FD6 PUSH1 0x40 DUP4 ADD DUP8 PUSH3 0x1CEE JUMP JUMPDEST PUSH3 0x1FE5 PUSH1 0x60 DUP4 ADD DUP7 PUSH3 0x1CEE JUMP JUMPDEST PUSH3 0x1FF4 PUSH1 0x80 DUP4 ADD DUP6 PUSH3 0x1F73 JUMP JUMPDEST PUSH3 0x2003 PUSH1 0xA0 DUP4 ADD DUP5 PUSH3 0x1F73 JUMP JUMPDEST SWAP8 SWAP7 POP POP POP POP POP POP POP JUMP JUMPDEST PUSH1 0x0 PUSH1 0x20 DUP3 ADD SWAP1 POP PUSH3 0x2025 PUSH1 0x0 DUP4 ADD DUP5 PUSH3 0x1CFF JUMP JUMPDEST SWAP3 SWAP2 POP POP JUMP JUMPDEST PUSH1 0x0 PUSH1 0x20 DUP3 ADD SWAP1 POP DUP2 DUP2 SUB PUSH1 0x0 DUP4 ADD MSTORE PUSH3 0x2047 DUP2 DUP5 PUSH3 0x1D10 JUMP JUMPDEST SWAP1 POP SWAP3 SWAP2 POP POP JUMP JUMPDEST PUSH1 0x0 PUSH1 0x20 DUP3 ADD SWAP1 POP DUP2 DUP2 SUB PUSH1 0x0 DUP4 ADD MSTORE PUSH3 0x206A DUP2 PUSH3 0x1D51 JUMP JUMPDEST SWAP1 POP SWAP2 SWAP1 POP JUMP JUMPDEST PUSH1 0x0 PUSH1 0x20 DUP3 ADD SWAP1 POP DUP2 DUP2 SUB PUSH1 0x0 DUP4 ADD MSTORE PUSH3 0x208C DUP2 PUSH3 0x1D78 JUMP JUMPDEST SWAP1 POP SWAP2 SWAP1 POP JUMP JUMPDEST PUSH1 0x0 PUSH1 0x20 DUP3 ADD SWAP1 POP DUP2 DUP2 SUB PUSH1 0x0 DUP4 ADD MSTORE PUSH3 0x20AE DUP2 PUSH3 0x1D9F JUMP JUMPDEST SWAP1 POP SWAP2 SWAP1 POP JUMP JUMPDEST PUSH1 0x0 PUSH1 0x20 DUP3 ADD SWAP1 POP DUP2 DUP2 SUB PUSH1 0x0 DUP4 ADD MSTORE PUSH3 0x20D0 DUP2 PUSH3 0x1DC6 JUMP JUMPDEST SWAP1 POP SWAP2 SWAP1 POP JUMP JUMPDEST PUSH1 0x0 PUSH1 0x20 DUP3 ADD SWAP1 POP DUP2 DUP2 SUB PUSH1 0x0 DUP4 ADD MSTORE PUSH3 0x20F2 DUP2 PUSH3 0x1DED JUMP JUMPDEST SWAP1 POP SWAP2 SWAP1 POP JUMP JUMPDEST PUSH1 0x0 PUSH1 0x20 DUP3 ADD SWAP1 POP DUP2 DUP2 SUB PUSH1 0x0 DUP4 ADD MSTORE PUSH3 0x2114 DUP2 PUSH3 0x1E14 JUMP JUMPDEST SWAP1 POP SWAP2 SWAP1 POP JUMP JUMPDEST PUSH1 0x0 PUSH1 0x20 DUP3 ADD SWAP1 POP DUP2 DUP2 SUB PUSH1 0x0 DUP4 ADD MSTORE PUSH3 0x2136 DUP2 PUSH3 0x1E3B JUMP JUMPDEST SWAP1 POP SWAP2 SWAP1 POP JUMP JUMPDEST PUSH1 0x0 PUSH1 0x20 DUP3 ADD SWAP1 POP DUP2 DUP2 SUB PUSH1 0x0 DUP4 ADD MSTORE PUSH3 0x2158 DUP2 PUSH3 0x1E62 JUMP JUMPDEST SWAP1 POP SWAP2 SWAP1 POP JUMP JUMPDEST PUSH1 0x0 PUSH1 0x20 DUP3 ADD SWAP1 POP DUP2 DUP2 SUB PUSH1 0x0 DUP4 ADD MSTORE PUSH3 0x217A DUP2 PUSH3 0x1E89 JUMP JUMPDEST SWAP1 POP SWAP2 SWAP1 POP JUMP JUMPDEST PUSH1 0x0 PUSH1 0x20 DUP3 ADD SWAP1 POP DUP2 DUP2 SUB PUSH1 0x0 DUP4 ADD MSTORE PUSH3 0x219C DUP2 PUSH3 0x1EB0 JUMP JUMPDEST SWAP1 POP SWAP2 SWAP1 POP JUMP JUMPDEST PUSH1 0x0 PUSH1 0x20 DUP3 ADD SWAP1 POP DUP2 DUP2 SUB PUSH1 0x0 DUP4 ADD MSTORE PUSH3 0x21BE DUP2 PUSH3 0x1ED7 JUMP JUMPDEST SWAP1 POP SWAP2 SWAP1 POP JUMP JUMPDEST PUSH1 0x0 PUSH1 0x20 DUP3 ADD SWAP1 POP DUP2 DUP2 SUB PUSH1 0x0 DUP4 ADD MSTORE PUSH3 0x21E0 DUP2 PUSH3 0x1EFE JUMP JUMPDEST SWAP1 POP SWAP2 SWAP1 POP JUMP JUMPDEST PUSH1 0x0 PUSH1 0x20 DUP3 ADD SWAP1 POP DUP2 DUP2 SUB PUSH1 0x0 DUP4 ADD MSTORE PUSH3 0x2202 DUP2 PUSH3 0x1F25 JUMP JUMPDEST SWAP1 POP SWAP2 SWAP1 POP JUMP JUMPDEST PUSH1 0x0 PUSH1 0x20 DUP3 ADD SWAP1 POP DUP2 DUP2 SUB PUSH1 0x0 DUP4 ADD MSTORE PUSH3 0x2224 DUP2 PUSH3 0x1F4C JUMP JUMPDEST SWAP1 POP SWAP2 SWAP1 POP JUMP JUMPDEST PUSH1 0x0 PUSH1 0x20 DUP3 ADD SWAP1 POP PUSH3 0x2242 PUSH1 0x0 DUP4 ADD DUP5 PUSH3 0x1F73 JUMP JUMPDEST SWAP3 SWAP2 POP POP JUMP JUMPDEST PUSH1 0x0 PUSH3 0x2254 PUSH3 0x2267 JUMP JUMPDEST SWAP1 POP PUSH3 0x2262 DUP3 DUP3 PUSH3 0x2434 JUMP JUMPDEST SWAP2 SWAP1 POP JUMP JUMPDEST PUSH1 0x0 PUSH1 0x40 MLOAD SWAP1 POP SWAP1 JUMP JUMPDEST PUSH1 0x0 PUSH8 0xFFFFFFFFFFFFFFFF DUP3 GT ISZERO PUSH3 0x228F JUMPI PUSH3 0x228E PUSH3 0x2545 JUMP JUMPDEST JUMPDEST PUSH3 0x229A DUP3 PUSH3 0x2588 JUMP JUMPDEST SWAP1 POP PUSH1 0x20 DUP2 ADD SWAP1 POP SWAP2 SWAP1 POP JUMP JUMPDEST PUSH1 0x0 DUP2 MLOAD SWAP1 POP SWAP2 SWAP1 POP JUMP JUMPDEST PUSH1 0x0 DUP3 DUP3 MSTORE PUSH1 0x20 DUP3 ADD SWAP1 POP SWAP3 SWAP2 POP POP JUMP JUMPDEST PUSH1 0x0 PUSH3 0x22D0 DUP3 PUSH3 0x23AF JUMP JUMPDEST SWAP2 POP PUSH3 0x22DD DUP4 PUSH3 0x23AF JUMP JUMPDEST SWAP3 POP DUP3 PUSH32 0xFFFFFFFFFFFFFFFFFFFFFFFFFFFFFFFFFFFFFFFFFFFFFFFFFFFFFFFFFFFFFFFF SUB DUP3 GT ISZERO PUSH3 0x2315 JUMPI PUSH3 0x2314 PUSH3 0x24B8 JUMP JUMPDEST JUMPDEST DUP3 DUP3 ADD SWAP1 POP SWAP3 SWAP2 POP POP JUMP JUMPDEST PUSH1 0x0 PUSH3 0x232D DUP3 PUSH3 0x23AF JUMP JUMPDEST SWAP2 POP PUSH3 0x233A DUP4 PUSH3 0x23AF JUMP JUMPDEST SWAP3 POP DUP3 DUP3 LT ISZERO PUSH3 0x2350 JUMPI PUSH3 0x234F PUSH3 0x24B8 JUMP JUMPDEST JUMPDEST DUP3 DUP3 SUB SWAP1 POP SWAP3 SWAP2 POP POP JUMP JUMPDEST PUSH1 0x0 PUSH3 0x2368 DUP3 PUSH3 0x238F JUMP JUMPDEST SWAP1 POP SWAP2 SWAP1 POP JUMP JUMPDEST PUSH1 0x0 DUP2 ISZERO ISZERO SWAP1 POP SWAP2 SWAP1 POP JUMP JUMPDEST PUSH1 0x0 PUSH3 0x2388 DUP3 PUSH3 0x235B JUMP JUMPDEST SWAP1 POP SWAP2 SWAP1 POP JUMP JUMPDEST PUSH1 0x0 PUSH20 0xFFFFFFFFFFFFFFFFFFFFFFFFFFFFFFFFFFFFFFFF DUP3 AND SWAP1 POP SWAP2 SWAP1 POP JUMP JUMPDEST PUSH1 0x0 DUP2 SWAP1 POP SWAP2 SWAP1 POP JUMP JUMPDEST DUP3 DUP2 DUP4 CALLDATACOPY PUSH1 0x0 DUP4 DUP4 ADD MSTORE POP POP POP JUMP JUMPDEST PUSH1 0x0 JUMPDEST DUP4 DUP2 LT ISZERO PUSH3 0x23E8 JUMPI DUP1 DUP3 ADD MLOAD DUP2 DUP5 ADD MSTORE PUSH1 0x20 DUP2 ADD SWAP1 POP PUSH3 0x23CB JUMP JUMPDEST DUP4 DUP2 GT ISZERO PUSH3 0x23F8 JUMPI PUSH1 0x0 DUP5 DUP5 ADD MSTORE JUMPDEST POP POP POP POP JUMP JUMPDEST PUSH1 0x0 PUSH1 0x2 DUP3 DIV SWAP1 POP PUSH1 0x1 DUP3 AND DUP1 PUSH3 0x2417 JUMPI PUSH1 0x7F DUP3 AND SWAP2 POP JUMPDEST PUSH1 0x20 DUP3 LT DUP2 EQ ISZERO PUSH3 0x242E JUMPI PUSH3 0x242D PUSH3 0x24E7 JUMP JUMPDEST JUMPDEST POP SWAP2 SWAP1 POP JUMP JUMPDEST PUSH3 0x243F DUP3 PUSH3 0x2588 JUMP JUMPDEST DUP2 ADD DUP2 DUP2 LT PUSH8 0xFFFFFFFFFFFFFFFF DUP3 GT OR ISZERO PUSH3 0x2461 JUMPI PUSH3 0x2460 PUSH3 0x2545 JUMP JUMPDEST JUMPDEST DUP1 PUSH1 0x40 MSTORE POP POP POP JUMP JUMPDEST PUSH1 0x0 PUSH3 0x2477 DUP3 PUSH3 0x23AF JUMP JUMPDEST SWAP2 POP PUSH32 0xFFFFFFFFFFFFFFFFFFFFFFFFFFFFFFFFFFFFFFFFFFFFFFFFFFFFFFFFFFFFFFFF DUP3 EQ ISZERO PUSH3 0x24AD JUMPI PUSH3 0x24AC PUSH3 0x24B8 JUMP JUMPDEST JUMPDEST PUSH1 0x1 DUP3 ADD SWAP1 POP SWAP2 SWAP1 POP JUMP JUMPDEST PUSH32 0x4E487B7100000000000000000000000000000000000000000000000000000000 PUSH1 0x0 MSTORE PUSH1 0x11 PUSH1 0x4 MSTORE PUSH1 0x24 PUSH1 0x0 REVERT JUMPDEST PUSH32 0x4E487B7100000000000000000000000000000000000000000000000000000000 PUSH1 0x0 MSTORE PUSH1 0x22 PUSH1 0x4 MSTORE PUSH1 0x24 PUSH1 0x0 REVERT JUMPDEST PUSH32 0x4E487B7100000000000000000000000000000000000000000000000000000000 PUSH1 0x0 MSTORE PUSH1 0x32 PUSH1 0x4 MSTORE PUSH1 0x24 PUSH1 0x0 REVERT JUMPDEST PUSH32 0x4E487B7100000000000000000000000000000000000000000000000000000000 PUSH1 0x0 MSTORE PUSH1 0x41 PUSH1 0x4 MSTORE PUSH1 0x24 PUSH1 0x0 REVERT JUMPDEST PUSH1 0x0 DUP1 REVERT JUMPDEST PUSH1 0x0 DUP1 REVERT JUMPDEST PUSH1 0x0 DUP1 REVERT JUMPDEST PUSH1 0x0 DUP1 REVERT JUMPDEST PUSH1 0x0 PUSH1 0x1F NOT PUSH1 0x1F DUP4 ADD AND SWAP1 POP SWAP2 SWAP1 POP JUMP JUMPDEST PUSH32 0x42616E6B206F662073656E64657220646F65736E277420657869737400000000 PUSH1 0x0 DUP3 ADD MSTORE POP JUMP JUMPDEST PUSH32 0x42616E6B206F662062656E656669636961727920646F65736E27742065786973 PUSH1 0x0 DUP3 ADD MSTORE PUSH32 0x7400000000000000000000000000000000000000000000000000000000000000 PUSH1 0x20 DUP3 ADD MSTORE POP JUMP JUMPDEST PUSH32 0x42656E65666963696172792069736E27742076657269666965642E204B59435F PUSH1 0x0 DUP3 ADD MSTORE PUSH32 0x737461747573203D2066616C7365000000000000000000000000000000000000 PUSH1 0x20 DUP3 ADD MSTORE POP JUMP JUMPDEST PUSH32 0x5468697320706572736F6E20646F65736E277420657869737400000000000000 PUSH1 0x0 DUP3 ADD MSTORE POP JUMP JUMPDEST PUSH32 0x416C726561647920657869737473000000000000000000000000000000000000 PUSH1 0x0 DUP3 ADD MSTORE POP JUMP JUMPDEST PUSH32 0x4E6F207065726D697373696F6E20746F207375626D697420746865207472616E PUSH1 0x0 DUP3 ADD MSTORE PUSH32 0x7366657200000000000000000000000000000000000000000000000000000000 PUSH1 0x20 DUP3 ADD MSTORE POP JUMP JUMPDEST PUSH32 0x53656E6465722068617320616C72656164792070616964000000000000000000 PUSH1 0x0 DUP3 ADD MSTORE POP JUMP JUMPDEST PUSH32 0x42656E65666963696172792068617320616C7265616479207265636569766564 PUSH1 0x0 DUP3 ADD MSTORE POP JUMP JUMPDEST PUSH32 0x53656E64657220646F65736E2774206578697374000000000000000000000000 PUSH1 0x0 DUP3 ADD MSTORE POP JUMP JUMPDEST PUSH32 0x4572726F7220696E2073797374656D2E205468697320697320696D706F737369 PUSH1 0x0 DUP3 ADD MSTORE PUSH32 0x626C652E00000000000000000000000000000000000000000000000000000000 PUSH1 0x20 DUP3 ADD MSTORE POP JUMP JUMPDEST PUSH32 0x4E6F207065726D697373696F6E20746F20696E69746961746520746869732047 PUSH1 0x0 DUP3 ADD MSTORE PUSH32 0x6C6F62616C5061796D656E74436F6E7472616374000000000000000000000000 PUSH1 0x20 DUP3 ADD MSTORE POP JUMP JUMPDEST PUSH32 0x53656E6465722069736E27742076657269666965642E204B59435F7374617475 PUSH1 0x0 DUP3 ADD MSTORE PUSH32 0x73203D2066616C73650000000000000000000000000000000000000000000000 PUSH1 0x20 DUP3 ADD MSTORE POP JUMP JUMPDEST PUSH32 0x53656E646572207374696C6C206E6565647320746F207061792E000000000000 PUSH1 0x0 DUP3 ADD MSTORE POP JUMP JUMPDEST PUSH32 0x42656E656669636961727920646F65736E277420657869737400000000000000 PUSH1 0x0 DUP3 ADD MSTORE POP JUMP JUMPDEST PUSH3 0x28C6 DUP2 PUSH3 0x235B JUMP JUMPDEST DUP2 EQ PUSH3 0x28D2 JUMPI PUSH1 0x0 DUP1 REVERT JUMPDEST POP JUMP JUMPDEST PUSH3 0x28E0 DUP2 PUSH3 0x236F JUMP JUMPDEST DUP2 EQ PUSH3 0x28EC JUMPI PUSH1 0x0 DUP1 REVERT JUMPDEST POP JUMP JUMPDEST PUSH3 0x28FA DUP2 PUSH3 0x237B JUMP JUMPDEST DUP2 EQ PUSH3 0x2906 JUMPI PUSH1 0x0 DUP1 REVERT JUMPDEST POP JUMP JUMPDEST PUSH3 0x2914 DUP2 PUSH3 0x23AF JUMP JUMPDEST DUP2 EQ PUSH3 0x2920 JUMPI PUSH1 0x0 DUP1 REVERT JUMPDEST POP JUMP INVALID PUSH1 0x80 PUSH1 0x40 MSTORE PUSH1 0x40 MLOAD DUP1 PUSH1 0x40 ADD PUSH1 0x40 MSTORE DUP1 PUSH1 0xD DUP2 MSTORE PUSH1 0x20 ADD PUSH32 0x4E6F20636F6E646974696F6E7300000000000000000000000000000000000000 DUP2 MSTORE POP PUSH1 0x6 SWAP1 DUP1 MLOAD SWAP1 PUSH1 0x20 ADD SWAP1 PUSH3 0x51 SWAP3 SWAP2 SWAP1 PUSH3 0x1D8 JUMP JUMPDEST POP PUSH1 0x0 PUSH1 0x7 PUSH1 0x0 PUSH2 0x100 EXP DUP2 SLOAD DUP2 PUSH1 0xFF MUL NOT AND SWAP1 DUP4 ISZERO ISZERO MUL OR SWAP1 SSTORE POP PUSH1 0x0 PUSH1 0x7 PUSH1 0x1 PUSH2 0x100 EXP DUP2 SLOAD DUP2 PUSH1 0xFF MUL NOT AND SWAP1 DUP4 ISZERO ISZERO MUL OR SWAP1 SSTORE POP CALLVALUE DUP1 ISZERO PUSH3 0x95 JUMPI PUSH1 0x0 DUP1 REVERT JUMPDEST POP PUSH1 0x40 MLOAD PUSH3 0xB37 CODESIZE SUB DUP1 PUSH3 0xB37 DUP4 CODECOPY DUP2 DUP2 ADD PUSH1 0x40 MSTORE DUP2 ADD SWAP1 PUSH3 0xBB SWAP2 SWAP1 PUSH3 0x2B6 JUMP JUMPDEST DUP6 PUSH1 0x0 DUP1 PUSH2 0x100 EXP DUP2 SLOAD DUP2 PUSH20 0xFFFFFFFFFFFFFFFFFFFFFFFFFFFFFFFFFFFFFFFF MUL NOT AND SWAP1 DUP4 PUSH20 0xFFFFFFFFFFFFFFFFFFFFFFFFFFFFFFFFFFFFFFFF AND MUL OR SWAP1 SSTORE POP DUP5 PUSH1 0x2 PUSH1 0x0 PUSH2 0x100 EXP DUP2 SLOAD DUP2 PUSH20 0xFFFFFFFFFFFFFFFFFFFFFFFFFFFFFFFFFFFFFFFF MUL NOT AND SWAP1 DUP4 PUSH20 0xFFFFFFFFFFFFFFFFFFFFFFFFFFFFFFFFFFFFFFFF AND MUL OR SWAP1 SSTORE POP DUP3 PUSH1 0x1 PUSH1 0x0 PUSH2 0x100 EXP DUP2 SLOAD DUP2 PUSH20 0xFFFFFFFFFFFFFFFFFFFFFFFFFFFFFFFFFFFFFFFF MUL NOT AND SWAP1 DUP4 PUSH20 0xFFFFFFFFFFFFFFFFFFFFFFFFFFFFFFFFFFFFFFFF AND MUL OR SWAP1 SSTORE POP DUP4 PUSH1 0x3 PUSH1 0x0 PUSH2 0x100 EXP DUP2 SLOAD DUP2 PUSH20 0xFFFFFFFFFFFFFFFFFFFFFFFFFFFFFFFFFFFFFFFF MUL NOT AND SWAP1 DUP4 PUSH20 0xFFFFFFFFFFFFFFFFFFFFFFFFFFFFFFFFFFFFFFFF AND MUL OR SWAP1 SSTORE POP DUP2 PUSH1 0x4 DUP2 SWAP1 SSTORE POP DUP1 PUSH1 0x5 DUP2 SWAP1 SSTORE POP POP POP POP POP POP POP PUSH3 0x42E JUMP JUMPDEST DUP3 DUP1 SLOAD PUSH3 0x1E6 SWAP1 PUSH3 0x390 JUMP JUMPDEST SWAP1 PUSH1 0x0 MSTORE PUSH1 0x20 PUSH1 0x0 KECCAK256 SWAP1 PUSH1 0x1F ADD PUSH1 0x20 SWAP1 DIV DUP2 ADD SWAP3 DUP3 PUSH3 0x20A JUMPI PUSH1 0x0 DUP6 SSTORE PUSH3 0x256 JUMP JUMPDEST DUP3 PUSH1 0x1F LT PUSH3 0x225 JUMPI DUP1 MLOAD PUSH1 0xFF NOT AND DUP4 DUP1 ADD OR DUP6 SSTORE PUSH3 0x256 JUMP JUMPDEST DUP3 DUP1 ADD PUSH1 0x1 ADD DUP6 SSTORE DUP3 ISZERO PUSH3 0x256 JUMPI SWAP2 DUP3 ADD JUMPDEST DUP3 DUP2 GT ISZERO PUSH3 0x255 JUMPI DUP3 MLOAD DUP3 SSTORE SWAP2 PUSH1 0x20 ADD SWAP2 SWAP1 PUSH1 0x1 ADD SWAP1 PUSH3 0x238 JUMP JUMPDEST JUMPDEST POP SWAP1 POP PUSH3 0x265 SWAP2 SWAP1 PUSH3 0x269 JUMP JUMPDEST POP SWAP1 JUMP JUMPDEST JUMPDEST DUP1 DUP3 GT ISZERO PUSH3 0x284 JUMPI PUSH1 0x0 DUP2 PUSH1 0x0 SWAP1 SSTORE POP PUSH1 0x1 ADD PUSH3 0x26A JUMP JUMPDEST POP SWAP1 JUMP JUMPDEST PUSH1 0x0 DUP2 MLOAD SWAP1 POP PUSH3 0x299 DUP2 PUSH3 0x3FA JUMP JUMPDEST SWAP3 SWAP2 POP POP JUMP JUMPDEST PUSH1 0x0 DUP2 MLOAD SWAP1 POP PUSH3 0x2B0 DUP2 PUSH3 0x414 JUMP JUMPDEST SWAP3 SWAP2 POP POP JUMP JUMPDEST PUSH1 0x0 DUP1 PUSH1 0x0 DUP1 PUSH1 0x0 DUP1 PUSH1 0xC0 DUP8 DUP10 SUB SLT ISZERO PUSH3 0x2D6 JUMPI PUSH3 0x2D5 PUSH3 0x3F5 JUMP JUMPDEST JUMPDEST PUSH1 0x0 PUSH3 0x2E6 DUP10 DUP3 DUP11 ADD PUSH3 0x288 JUMP JUMPDEST SWAP7 POP POP PUSH1 0x20 PUSH3 0x2F9 DUP10 DUP3 DUP11 ADD PUSH3 0x288 JUMP JUMPDEST SWAP6 POP POP PUSH1 0x40 PUSH3 0x30C DUP10 DUP3 DUP11 ADD PUSH3 0x288 JUMP JUMPDEST SWAP5 POP POP PUSH1 0x60 PUSH3 0x31F DUP10 DUP3 DUP11 ADD PUSH3 0x288 JUMP JUMPDEST SWAP4 POP POP PUSH1 0x80 PUSH3 0x332 DUP10 DUP3 DUP11 ADD PUSH3 0x29F JUMP JUMPDEST SWAP3 POP POP PUSH1 0xA0 PUSH3 0x345 DUP10 DUP3 DUP11 ADD PUSH3 0x29F JUMP JUMPDEST SWAP2 POP POP SWAP3 SWAP6 POP SWAP3 SWAP6 POP SWAP3 SWAP6 JUMP JUMPDEST PUSH1 0x0 PUSH3 0x35F DUP3 PUSH3 0x366 JUMP JUMPDEST SWAP1 POP SWAP2 SWAP1 POP JUMP JUMPDEST PUSH1 0x0 PUSH20 0xFFFFFFFFFFFFFFFFFFFFFFFFFFFFFFFFFFFFFFFF DUP3 AND SWAP1 POP SWAP2 SWAP1 POP JUMP JUMPDEST PUSH1 0x0 DUP2 SWAP1 POP SWAP2 SWAP1 POP JUMP JUMPDEST PUSH1 0x0 PUSH1 0x2 DUP3 DIV SWAP1 POP PUSH1 0x1 DUP3 AND DUP1 PUSH3 0x3A9 JUMPI PUSH1 0x7F DUP3 AND SWAP2 POP JUMPDEST PUSH1 0x20 DUP3 LT DUP2 EQ ISZERO PUSH3 0x3C0 JUMPI PUSH3 0x3BF PUSH3 0x3C6 JUMP JUMPDEST JUMPDEST POP SWAP2 SWAP1 POP JUMP JUMPDEST PUSH32 0x4E487B7100000000000000000000000000000000000000000000000000000000 PUSH1 0x0 MSTORE PUSH1 0x22 PUSH1 0x4 MSTORE PUSH1 0x24 PUSH1 0x0 REVERT JUMPDEST PUSH1 0x0 DUP1 REVERT JUMPDEST PUSH3 0x405 DUP2 PUSH3 0x352 JUMP JUMPDEST DUP2 EQ PUSH3 0x411 JUMPI PUSH1 0x0 DUP1 REVERT JUMPDEST POP JUMP JUMPDEST PUSH3 0x41F DUP2 PUSH3 0x386 JUMP JUMPDEST DUP2 EQ PUSH3 0x42B JUMPI PUSH1 0x0 DUP1 REVERT JUMPDEST POP JUMP JUMPDEST PUSH2 0x6F9 DUP1 PUSH3 0x43E PUSH1 0x0 CODECOPY PUSH1 0x0 RETURN INVALID PUSH1 0x80 PUSH1 0x40 MSTORE CALLVALUE DUP1 ISZERO PUSH2 0x10 JUMPI PUSH1 0x0 DUP1 REVERT JUMPDEST POP PUSH1 0x4 CALLDATASIZE LT PUSH2 0xCE JUMPI PUSH1 0x0 CALLDATALOAD PUSH1 0xE0 SHR DUP1 PUSH4 0x8C76FCD0 GT PUSH2 0x8C JUMPI DUP1 PUSH4 0xBC3FB50F GT PUSH2 0x66 JUMPI DUP1 PUSH4 0xBC3FB50F EQ PUSH2 0x1CD JUMPI DUP1 PUSH4 0xD367900C EQ PUSH2 0x1EB JUMPI DUP1 PUSH4 0xD456919B EQ PUSH2 0x1F5 JUMPI DUP1 PUSH4 0xE6402814 EQ PUSH2 0x213 JUMPI PUSH2 0xCE JUMP JUMPDEST DUP1 PUSH4 0x8C76FCD0 EQ PUSH2 0x173 JUMPI DUP1 PUSH4 0x96BDAE27 EQ PUSH2 0x191 JUMPI DUP1 PUSH4 0xAD16A96C EQ PUSH2 0x1AF JUMPI PUSH2 0xCE JUMP JUMPDEST DUP1 PUSH3 0x5C33E1 EQ PUSH2 0xD3 JUMPI DUP1 PUSH4 0x12137227 EQ PUSH2 0xDD JUMPI DUP1 PUSH4 0x26E0C5AE EQ PUSH2 0xFB JUMPI DUP1 PUSH4 0x38CC4831 EQ PUSH2 0x119 JUMPI DUP1 PUSH4 0x7A471BDD EQ PUSH2 0x137 JUMPI DUP1 PUSH4 0x873E9755 EQ PUSH2 0x155 JUMPI JUMPDEST PUSH1 0x0 DUP1 REVERT JUMPDEST PUSH2 0xDB PUSH2 0x231 JUMP JUMPDEST STOP JUMPDEST PUSH2 0xE5 PUSH2 0x286 JUMP JUMPDEST PUSH1 0x40 MLOAD PUSH2 0xF2 SWAP2 SWAP1 PUSH2 0x4F4 JUMP JUMPDEST PUSH1 0x40 MLOAD DUP1 SWAP2 SUB SWAP1 RETURN JUMPDEST PUSH2 0x103 PUSH2 0x314 JUMP JUMPDEST PUSH1 0x40 MLOAD PUSH2 0x110 SWAP2 SWAP1 PUSH2 0x4D9 JUMP JUMPDEST PUSH1 0x40 MLOAD DUP1 SWAP2 SUB SWAP1 RETURN JUMPDEST PUSH2 0x121 PUSH2 0x32B JUMP JUMPDEST PUSH1 0x40 MLOAD PUSH2 0x12E SWAP2 SWAP1 PUSH2 0x4BE JUMP JUMPDEST PUSH1 0x40 MLOAD DUP1 SWAP2 SUB SWAP1 RETURN JUMPDEST PUSH2 0x13F PUSH2 0x333 JUMP JUMPDEST PUSH1 0x40 MLOAD PUSH2 0x14C SWAP2 SWAP1 PUSH2 0x516 JUMP JUMPDEST PUSH1 0x40 MLOAD DUP1 SWAP2 SUB SWAP1 RETURN JUMPDEST PUSH2 0x15D PUSH2 0x339 JUMP JUMPDEST PUSH1 0x40 MLOAD PUSH2 0x16A SWAP2 SWAP1 PUSH2 0x4BE JUMP JUMPDEST PUSH1 0x40 MLOAD DUP1 SWAP2 SUB SWAP1 RETURN JUMPDEST PUSH2 0x17B PUSH2 0x35F JUMP JUMPDEST PUSH1 0x40 MLOAD PUSH2 0x188 SWAP2 SWAP1 PUSH2 0x4BE JUMP JUMPDEST PUSH1 0x40 MLOAD DUP1 SWAP2 SUB SWAP1 RETURN JUMPDEST PUSH2 0x199 PUSH2 0x383 JUMP JUMPDEST PUSH1 0x40 MLOAD PUSH2 0x1A6 SWAP2 SWAP1 PUSH2 0x516 JUMP JUMPDEST PUSH1 0x40 MLOAD DUP1 SWAP2 SUB SWAP1 RETURN JUMPDEST PUSH2 0x1B7 PUSH2 0x389 JUMP JUMPDEST PUSH1 0x40 MLOAD PUSH2 0x1C4 SWAP2 SWAP1 PUSH2 0x516 JUMP JUMPDEST PUSH1 0x40 MLOAD DUP1 SWAP2 SUB SWAP1 RETURN JUMPDEST PUSH2 0x1D5 PUSH2 0x3A0 JUMP JUMPDEST PUSH1 0x40 MLOAD PUSH2 0x1E2 SWAP2 SWAP1 PUSH2 0x4D9 JUMP JUMPDEST PUSH1 0x40 MLOAD DUP1 SWAP2 SUB SWAP1 RETURN JUMPDEST PUSH2 0x1F3 PUSH2 0x3B7 JUMP JUMPDEST STOP JUMPDEST PUSH2 0x1FD PUSH2 0x40C JUMP JUMPDEST PUSH1 0x40 MLOAD PUSH2 0x20A SWAP2 SWAP1 PUSH2 0x4BE JUMP JUMPDEST PUSH1 0x40 MLOAD DUP1 SWAP2 SUB SWAP1 RETURN JUMPDEST PUSH2 0x21B PUSH2 0x432 JUMP JUMPDEST PUSH1 0x40 MLOAD PUSH2 0x228 SWAP2 SWAP1 PUSH2 0x4BE JUMP JUMPDEST PUSH1 0x40 MLOAD DUP1 SWAP2 SUB SWAP1 RETURN JUMPDEST PUSH1 0x1 PUSH1 0x7 PUSH1 0x1 PUSH2 0x100 EXP DUP2 SLOAD DUP2 PUSH1 0xFF MUL NOT AND SWAP1 DUP4 ISZERO ISZERO MUL OR SWAP1 SSTORE POP PUSH32 0x8E3B3889734D6FE63FECBC5EAFA9599DA61B9AC58FF46E6158DEC000F785D316 PUSH1 0x1 PUSH1 0x40 MLOAD PUSH2 0x27C SWAP2 SWAP1 PUSH2 0x4D9 JUMP JUMPDEST PUSH1 0x40 MLOAD DUP1 SWAP2 SUB SWAP1 LOG1 JUMP JUMPDEST PUSH1 0x6 DUP1 SLOAD PUSH2 0x293 SWAP1 PUSH2 0x622 JUMP JUMPDEST DUP1 PUSH1 0x1F ADD PUSH1 0x20 DUP1 SWAP2 DIV MUL PUSH1 0x20 ADD PUSH1 0x40 MLOAD SWAP1 DUP2 ADD PUSH1 0x40 MSTORE DUP1 SWAP3 SWAP2 SWAP1 DUP2 DUP2 MSTORE PUSH1 0x20 ADD DUP3 DUP1 SLOAD PUSH2 0x2BF SWAP1 PUSH2 0x622 JUMP JUMPDEST DUP1 ISZERO PUSH2 0x30C JUMPI DUP1 PUSH1 0x1F LT PUSH2 0x2E1 JUMPI PUSH2 0x100 DUP1 DUP4 SLOAD DIV MUL DUP4 MSTORE SWAP2 PUSH1 0x20 ADD SWAP2 PUSH2 0x30C JUMP JUMPDEST DUP3 ADD SWAP2 SWAP1 PUSH1 0x0 MSTORE PUSH1 0x20 PUSH1 0x0 KECCAK256 SWAP1 JUMPDEST DUP2 SLOAD DUP2 MSTORE SWAP1 PUSH1 0x1 ADD SWAP1 PUSH1 0x20 ADD DUP1 DUP4 GT PUSH2 0x2EF JUMPI DUP3 SWAP1 SUB PUSH1 0x1F AND DUP3 ADD SWAP2 JUMPDEST POP POP POP POP POP DUP2 JUMP JUMPDEST PUSH1 0x0 PUSH1 0x7 PUSH1 0x1 SWAP1 SLOAD SWAP1 PUSH2 0x100 EXP SWAP1 DIV PUSH1 0xFF AND SWAP1 POP SWAP1 JUMP JUMPDEST PUSH1 0x0 ADDRESS SWAP1 POP SWAP1 JUMP JUMPDEST PUSH1 0x4 SLOAD DUP2 JUMP JUMPDEST PUSH1 0x1 PUSH1 0x0 SWAP1 SLOAD SWAP1 PUSH2 0x100 EXP SWAP1 DIV PUSH20 0xFFFFFFFFFFFFFFFFFFFFFFFFFFFFFFFFFFFFFFFF AND DUP2 JUMP JUMPDEST PUSH1 0x0 DUP1 SLOAD SWAP1 PUSH2 0x100 EXP SWAP1 DIV PUSH20 0xFFFFFFFFFFFFFFFFFFFFFFFFFFFFFFFFFFFFFFFF AND DUP2 JUMP JUMPDEST PUSH1 0x5 SLOAD DUP2 JUMP JUMPDEST PUSH1 0x0 PUSH1 0x4 SLOAD PUSH1 0x5 SLOAD PUSH2 0x39B SWAP2 SWAP1 PUSH2 0x54D JUMP JUMPDEST SWAP1 POP SWAP1 JUMP JUMPDEST PUSH1 0x0 PUSH1 0x7 PUSH1 0x0 SWAP1 SLOAD SWAP1 PUSH2 0x100 EXP SWAP1 DIV PUSH1 0xFF AND SWAP1 POP SWAP1 JUMP JUMPDEST PUSH1 0x1 PUSH1 0x7 PUSH1 0x0 PUSH2 0x100 EXP DUP2 SLOAD DUP2 PUSH1 0xFF MUL NOT AND SWAP1 DUP4 ISZERO ISZERO MUL OR SWAP1 SSTORE POP PUSH32 0x6D2D0FA70C274E01985A105185152492999391B6FDF5F757A31E1D4FB4740AD4 PUSH1 0x1 PUSH1 0x40 MLOAD PUSH2 0x402 SWAP2 SWAP1 PUSH2 0x4D9 JUMP JUMPDEST PUSH1 0x40 MLOAD DUP1 SWAP2 SUB SWAP1 LOG1 JUMP JUMPDEST PUSH1 0x2 PUSH1 0x0 SWAP1 SLOAD SWAP1 PUSH2 0x100 EXP SWAP1 DIV PUSH20 0xFFFFFFFFFFFFFFFFFFFFFFFFFFFFFFFFFFFFFFFF AND DUP2 JUMP JUMPDEST PUSH1 0x3 PUSH1 0x0 SWAP1 SLOAD SWAP1 PUSH2 0x100 EXP SWAP1 DIV PUSH20 0xFFFFFFFFFFFFFFFFFFFFFFFFFFFFFFFFFFFFFFFF AND DUP2 JUMP JUMPDEST PUSH2 0x461 DUP2 PUSH2 0x5A7 JUMP JUMPDEST DUP3 MSTORE POP POP JUMP JUMPDEST PUSH2 0x470 DUP2 PUSH2 0x5B9 JUMP JUMPDEST DUP3 MSTORE POP POP JUMP JUMPDEST PUSH1 0x0 PUSH2 0x481 DUP3 PUSH2 0x531 JUMP JUMPDEST PUSH2 0x48B DUP2 DUP6 PUSH2 0x53C JUMP JUMPDEST SWAP4 POP PUSH2 0x49B DUP2 DUP6 PUSH1 0x20 DUP7 ADD PUSH2 0x5EF JUMP JUMPDEST PUSH2 0x4A4 DUP2 PUSH2 0x6B2 JUMP JUMPDEST DUP5 ADD SWAP2 POP POP SWAP3 SWAP2 POP POP JUMP JUMPDEST PUSH2 0x4B8 DUP2 PUSH2 0x5E5 JUMP JUMPDEST DUP3 MSTORE POP POP JUMP JUMPDEST PUSH1 0x0 PUSH1 0x20 DUP3 ADD SWAP1 POP PUSH2 0x4D3 PUSH1 0x0 DUP4 ADD DUP5 PUSH2 0x458 JUMP JUMPDEST SWAP3 SWAP2 POP POP JUMP JUMPDEST PUSH1 0x0 PUSH1 0x20 DUP3 ADD SWAP1 POP PUSH2 0x4EE PUSH1 0x0 DUP4 ADD DUP5 PUSH2 0x467 JUMP JUMPDEST SWAP3 SWAP2 POP POP JUMP JUMPDEST PUSH1 0x0 PUSH1 0x20 DUP3 ADD SWAP1 POP DUP2 DUP2 SUB PUSH1 0x0 DUP4 ADD MSTORE PUSH2 0x50E DUP2 DUP5 PUSH2 0x476 JUMP JUMPDEST SWAP1 POP SWAP3 SWAP2 POP POP JUMP JUMPDEST PUSH1 0x0 PUSH1 0x20 DUP3 ADD SWAP1 POP PUSH2 0x52B PUSH1 0x0 DUP4 ADD DUP5 PUSH2 0x4AF JUMP JUMPDEST SWAP3 SWAP2 POP POP JUMP JUMPDEST PUSH1 0x0 DUP2 MLOAD SWAP1 POP SWAP2 SWAP1 POP JUMP JUMPDEST PUSH1 0x0 DUP3 DUP3 MSTORE PUSH1 0x20 DUP3 ADD SWAP1 POP SWAP3 SWAP2 POP POP JUMP JUMPDEST PUSH1 0x0 PUSH2 0x558 DUP3 PUSH2 0x5E5 JUMP JUMPDEST SWAP2 POP PUSH2 0x563 DUP4 PUSH2 0x5E5 JUMP JUMPDEST SWAP3 POP DUP2 PUSH32 0xFFFFFFFFFFFFFFFFFFFFFFFFFFFFFFFFFFFFFFFFFFFFFFFFFFFFFFFFFFFFFFFF DIV DUP4 GT DUP3 ISZERO ISZERO AND ISZERO PUSH2 0x59C JUMPI PUSH2 0x59B PUSH2 0x654 JUMP JUMPDEST JUMPDEST DUP3 DUP3 MUL SWAP1 POP SWAP3 SWAP2 POP POP JUMP JUMPDEST PUSH1 0x0 PUSH2 0x5B2 DUP3 PUSH2 0x5C5 JUMP JUMPDEST SWAP1 POP SWAP2 SWAP1 POP JUMP JUMPDEST PUSH1 0x0 DUP2 ISZERO ISZERO SWAP1 POP SWAP2 SWAP1 POP JUMP JUMPDEST PUSH1 0x0 PUSH20 0xFFFFFFFFFFFFFFFFFFFFFFFFFFFFFFFFFFFFFFFF DUP3 AND SWAP1 POP SWAP2 SWAP1 POP JUMP JUMPDEST PUSH1 0x0 DUP2 SWAP1 POP SWAP2 SWAP1 POP JUMP JUMPDEST PUSH1 0x0 JUMPDEST DUP4 DUP2 LT ISZERO PUSH2 0x60D JUMPI DUP1 DUP3 ADD MLOAD DUP2 DUP5 ADD MSTORE PUSH1 0x20 DUP2 ADD SWAP1 POP PUSH2 0x5F2 JUMP JUMPDEST DUP4 DUP2 GT ISZERO PUSH2 0x61C JUMPI PUSH1 0x0 DUP5 DUP5 ADD MSTORE JUMPDEST POP POP POP POP JUMP JUMPDEST PUSH1 0x0 PUSH1 0x2 DUP3 DIV SWAP1 POP PUSH1 0x1 DUP3 AND DUP1 PUSH2 0x63A JUMPI PUSH1 0x7F DUP3 AND SWAP2 POP JUMPDEST PUSH1 0x20 DUP3 LT DUP2 EQ ISZERO PUSH2 0x64E JUMPI PUSH2 0x64D PUSH2 0x683 JUMP JUMPDEST JUMPDEST POP SWAP2 SWAP1 POP JUMP JUMPDEST PUSH32 0x4E487B7100000000000000000000000000000000000000000000000000000000 PUSH1 0x0 MSTORE PUSH1 0x11 PUSH1 0x4 MSTORE PUSH1 0x24 PUSH1 0x0 REVERT JUMPDEST PUSH32 0x4E487B7100000000000000000000000000000000000000000000000000000000 PUSH1 0x0 MSTORE PUSH1 0x22 PUSH1 0x4 MSTORE PUSH1 0x24 PUSH1 0x0 REVERT JUMPDEST PUSH1 0x0 PUSH1 0x1F NOT PUSH1 0x1F DUP4 ADD AND SWAP1 POP SWAP2 SWAP1 POP JUMP INVALID LOG2 PUSH5 0x6970667358 0x22 SLT KECCAK256 0xDB ADD SHL SELFBALANCE PUSH31 0x758E29387CE285E5614C3203DFEC2804BD5748A91CA68BC52DD8C64736F6C PUSH4 0x43000807 STOP CALLER LOG2 PUSH5 0x6970667358 0x22 SLT KECCAK256 SHR DUP12 0x1F 0x5D 0xB5 PUSH3 0xB1B9C1 CALLDATALOAD DUP1 LOG4 0xA5 DIFFICULTY CREATE2 0x2E ADD SWAP15 AND 0x2A 0xDF 0xE2 PUSH7 0xA76DBBD76D6254 CREATE SWAP12 PUSH5 0x736F6C6343 STOP ADDMOD SMOD STOP CALLER "
		},
		"gasEstimates": {
			"creation": {
				"codeDepositCost": "2691200",
				"executionCost": "infinite",
				"totalCost": "infinite"
			},
			"external": {
				"addBank(address,string)": "infinite",
				"addPerson(address,string,string,bool,uint256)": "infinite",
				"addRegulator(address,string)": "infinite",
				"changeBalanceOfPerson(bool,address,uint256)": "infinite",
				"checkKYCstatusPerson(address)": "infinite",
				"getPersonBalance(address)": "infinite",
				"getPersonName(address)": "infinite",
				"initiateGlobalPaymentContract(address,address,address,address,uint256,uint256)": "infinite",
				"receiveFunds(address)": "infinite",
				"setKYCstatusperson(address,bool)": "infinite",
				"submitTransfer(address)": "infinite"
			},
			"internal": {
				"findBank(address)": "infinite",
				"findPerson(address)": "infinite",
				"findRegulator(address)": "infinite"
			}
		},
		"methodIdentifiers": {
			"addBank(address,string)": "8c438908",
			"addPerson(address,string,string,bool,uint256)": "5bffece1",
			"addRegulator(address,string)": "ae82f7f6",
			"changeBalanceOfPerson(bool,address,uint256)": "1368536a",
			"checkKYCstatusPerson(address)": "d6f8ae4e",
			"getPersonBalance(address)": "05726003",
			"getPersonName(address)": "d1563da0",
			"initiateGlobalPaymentContract(address,address,address,address,uint256,uint256)": "b1b32289",
			"receiveFunds(address)": "df8926c6",
			"setKYCstatusperson(address,bool)": "f9e4f57d",
			"submitTransfer(address)": "23e71696"
		}
	},
	"abi": [
		{
			"inputs": [],
			"stateMutability": "nonpayable",
			"type": "constructor"
		},
		{
			"anonymous": false,
			"inputs": [
				{
					"indexed": false,
					"internalType": "address",
					"name": "",
					"type": "address"
				}
			],
			"name": "GlobalPaymentContractIsCreated",
			"type": "event"
		},
		{
			"anonymous": false,
			"inputs": [
				{
					"indexed": false,
					"internalType": "address",
					"name": "",
					"type": "address"
				}
			],
			"name": "print",
			"type": "event"
		},
		{
			"inputs": [
				{
					"internalType": "address",
					"name": "account",
					"type": "address"
				},
				{
					"internalType": "string",
					"name": "name",
					"type": "string"
				}
			],
			"name": "addBank",
			"outputs": [],
			"stateMutability": "nonpayable",
			"type": "function"
		},
		{
			"inputs": [
				{
					"internalType": "address",
					"name": "account",
					"type": "address"
				},
				{
					"internalType": "string",
					"name": "first_name",
					"type": "string"
				},
				{
					"internalType": "string",
					"name": "last_name",
					"type": "string"
				},
				{
					"internalType": "bool",
					"name": "KYCstatus",
					"type": "bool"
				},
				{
					"internalType": "uint256",
					"name": "balance",
					"type": "uint256"
				}
			],
			"name": "addPerson",
			"outputs": [],
			"stateMutability": "nonpayable",
			"type": "function"
		},
		{
			"inputs": [
				{
					"internalType": "address",
					"name": "account",
					"type": "address"
				},
				{
					"internalType": "string",
					"name": "name",
					"type": "string"
				}
			],
			"name": "addRegulator",
			"outputs": [],
			"stateMutability": "nonpayable",
			"type": "function"
		},
		{
			"inputs": [
				{
					"internalType": "bool",
					"name": "pay_receive",
					"type": "bool"
				},
				{
					"internalType": "address",
					"name": "account",
					"type": "address"
				},
				{
					"internalType": "uint256",
					"name": "amount",
					"type": "uint256"
				}
			],
			"name": "changeBalanceOfPerson",
			"outputs": [],
			"stateMutability": "nonpayable",
			"type": "function"
		},
		{
			"inputs": [
				{
					"internalType": "address",
					"name": "account",
					"type": "address"
				}
			],
			"name": "checkKYCstatusPerson",
			"outputs": [
				{
					"internalType": "bool",
					"name": "KYC_status",
					"type": "bool"
				}
			],
			"stateMutability": "view",
			"type": "function"
		},
		{
			"inputs": [
				{
					"internalType": "address",
					"name": "account",
					"type": "address"
				}
			],
			"name": "getPersonBalance",
			"outputs": [
				{
					"internalType": "uint256",
					"name": "balance",
					"type": "uint256"
				}
			],
			"stateMutability": "view",
			"type": "function"
		},
		{
			"inputs": [
				{
					"internalType": "address",
					"name": "account",
					"type": "address"
				}
			],
			"name": "getPersonName",
			"outputs": [
				{
					"internalType": "string",
					"name": "name",
					"type": "string"
				}
			],
			"stateMutability": "view",
			"type": "function"
		},
		{
			"inputs": [
				{
					"internalType": "address",
					"name": "accountPersonSender",
					"type": "address"
				},
				{
					"internalType": "address",
					"name": "accountBankSender",
					"type": "address"
				},
				{
					"internalType": "address",
					"name": "accountBankBeneficiary",
					"type": "address"
				},
				{
					"internalType": "address",
					"name": "accountPersonBeneficiary",
					"type": "address"
				},
				{
					"internalType": "uint256",
					"name": "FX_rate",
					"type": "uint256"
				},
				{
					"internalType": "uint256",
					"name": "transferamount",
					"type": "uint256"
				}
			],
			"name": "initiateGlobalPaymentContract",
			"outputs": [],
			"stateMutability": "nonpayable",
			"type": "function"
		},
		{
			"inputs": [
				{
					"internalType": "contract GlobalPaymentContract",
					"name": "globalPaymentContract",
					"type": "address"
				}
			],
			"name": "receiveFunds",
			"outputs": [],
			"stateMutability": "nonpayable",
			"type": "function"
		},
		{
			"inputs": [
				{
					"internalType": "address",
					"name": "account",
					"type": "address"
				},
				{
					"internalType": "bool",
					"name": "status",
					"type": "bool"
				}
			],
			"name": "setKYCstatusperson",
			"outputs": [],
			"stateMutability": "nonpayable",
			"type": "function"
		},
		{
			"inputs": [
				{
					"internalType": "contract GlobalPaymentContract",
					"name": "globalPaymentContract",
					"type": "address"
				}
			],
			"name": "submitTransfer",
			"outputs": [],
			"stateMutability": "nonpayable",
			"type": "function"
		}
	]
}