{
  "contractName": "ApplicationContract",
  "abi": [
    {
      "inputs": [],
      "payable": false,
      "stateMutability": "nonpayable",
      "type": "constructor"
    },
    {
      "constant": false,
      "inputs": [
        {
          "internalType": "address",
          "name": "account",
          "type": "address"
        },
        {
          "internalType": "string",
          "name": "first_name",
          "type": "string"
        },
        {
          "internalType": "string",
          "name": "last_name",
          "type": "string"
        },
        {
          "internalType": "bool",
          "name": "KYCstatus",
          "type": "bool"
        },
        {
          "internalType": "uint256",
          "name": "balance",
          "type": "uint256"
        }
      ],
      "name": "addPerson",
      "outputs": [],
      "payable": false,
      "stateMutability": "nonpayable",
      "type": "function"
    },
    {
      "constant": false,
      "inputs": [
        {
          "internalType": "address",
          "name": "account",
          "type": "address"
        },
        {
          "internalType": "string",
          "name": "name",
          "type": "string"
        }
      ],
      "name": "addBank",
      "outputs": [],
      "payable": false,
      "stateMutability": "nonpayable",
      "type": "function"
    },
    {
      "constant": true,
      "inputs": [
        {
          "internalType": "address",
          "name": "account",
          "type": "address"
        }
      ],
      "name": "getPersonBalance",
      "outputs": [
        {
          "internalType": "uint256",
          "name": "",
          "type": "uint256"
        }
      ],
      "payable": false,
      "stateMutability": "view",
      "type": "function"
    },
    {
      "constant": true,
      "inputs": [
        {
          "internalType": "address",
          "name": "account",
          "type": "address"
        }
      ],
      "name": "getPersonName",
      "outputs": [
        {
          "internalType": "string",
          "name": "",
          "type": "string"
        }
      ],
      "payable": false,
      "stateMutability": "view",
      "type": "function"
    },
    {
      "constant": false,
      "inputs": [
        {
          "internalType": "bool",
          "name": "pay_receive",
          "type": "bool"
        },
        {
          "internalType": "address",
          "name": "account",
          "type": "address"
        },
        {
          "internalType": "uint256",
          "name": "amount",
          "type": "uint256"
        }
      ],
      "name": "changeBalanceOfPerson",
      "outputs": [],
      "payable": false,
      "stateMutability": "nonpayable",
      "type": "function"
    },
    {
      "constant": false,
      "inputs": [
        {
          "internalType": "address",
          "name": "accountPersonSender",
          "type": "address"
        },
        {
          "internalType": "address",
          "name": "accountBankSender",
          "type": "address"
        },
        {
          "internalType": "address",
          "name": "accountBankBeneficiary",
          "type": "address"
        },
        {
          "internalType": "address",
          "name": "accountPersonBeneficiary",
          "type": "address"
        },
        {
          "internalType": "uint256",
          "name": "FX_rate",
          "type": "uint256"
        },
        {
          "internalType": "uint256",
          "name": "transferamount",
          "type": "uint256"
        }
      ],
      "name": "initiateGlobalPaymentContract",
      "outputs": [
        {
          "internalType": "address",
          "name": "addressGlobalPaymentContract",
          "type": "address"
        }
      ],
      "payable": false,
      "stateMutability": "nonpayable",
      "type": "function"
    },
    {
      "constant": false,
      "inputs": [
        {
          "internalType": "contract GlobalPaymentContract",
          "name": "globalPaymentContract",
          "type": "address"
        },
        {
          "internalType": "address",
          "name": "accountPersonSender",
          "type": "address"
        }
      ],
      "name": "submitTransfer",
      "outputs": [],
      "payable": false,
      "stateMutability": "nonpayable",
      "type": "function"
    }
  ],
  "bytecode": "0x60806040523480156200001157600080fd5b506200007a736616a4f8d35a2cbe3b4c0427c428bd3af3ca52fa60405180604001604052806005815260200164456c69617360d81b8152506040518060400160405280600781526020016644486f6f67686560c81b81525060016103e86200016560201b60201c565b620000dd73cf305bd0861b5727fe08fefdf8fe93871cc4acc2604051806040016040528060038152602001622c30b760e91b815250604051806040016040528060048152602001634d61657360e01b81525060016103e86200016560201b60201c565b6200011e7352c9fc3556ea3a18628f4d156604e733015064c2604051806040016040528060038152602001624b424360e81b815250620002c360201b60201c565b6200015f733c5389b061c808eee0165866253097f02a39a3c860405180604001604052806003815260200162494e4760e81b815250620002c360201b60201c565b6200053b565b60006200017b866001600160e01b03620003cb16565b12620001bf576040805162461bcd60e51b815260206004820152600e60248201526d416c72656164792065786973747360901b604482015290519081900360640190fd5b6040805160a0810182526001600160a01b0387811682526020808301888152938301879052851515606084015260808301859052600080546001810180835591805284517f290decd9548b62a8d60345a988386fc84ba6bc95484008f6362f93160ef3e563600590920291820180546001600160a01b0319169190951617845594518051919562000278937f290decd9548b62a8d60345a988386fc84ba6bc95484008f6362f93160ef3e5649091019291019062000496565b50604082015180516200029691600284019160209091019062000496565b50606082015160038201805460ff1916911515919091179055608090910151600490910155505050505050565b6000620002d9836001600160e01b036200043316565b126200031d576040805162461bcd60e51b815260206004820152600e60248201526d416c72656164792065786973747360901b604482015290519081900360640190fd5b604080518082019091526001600160a01b03838116825260208083018481526001805480820180835560009290925285517fb10e2d527612073b26eecdfd717e6a320cf44b4afac2b0732d9fcbe2b7fa0cf6600290920291820180546001600160a01b031916919096161785559151805191959493620003c3937fb10e2d527612073b26eecdfd717e6a320cf44b4afac2b0732d9fcbe2b7fa0cf7019291019062000496565b505050505050565b60008054815b818110156200042657836001600160a01b031660008281548110620003f257fe5b60009182526020909120600590910201546001600160a01b031614156200041d5791506200042e9050565b600101620003d1565b506000199150505b919050565b6000805b6001548110156200048c57826001600160a01b0316600182815481106200045a57fe5b60009182526020909120600290910201546001600160a01b03161415620004835790506200042e565b60010162000437565b5060001992915050565b828054600181600116156101000203166002900490600052602060002090601f016020900481019282601f10620004d957805160ff191683800117855562000509565b8280016001018555821562000509579182015b8281111562000509578251825591602001919060010190620004ec565b50620005179291506200051b565b5090565b6200053891905b8082111562000517576000815560010162000522565b90565b61120a806200054b6000396000f3fe608060405234801561001057600080fd5b506004361061007d5760003560e01c8063640688ec1161005b578063640688ec146102345780638c43890814610262578063b1b3228914610318578063d1563da0146103805761007d565b806305726003146100825780631368536a146100ba5780635bffece1146100f0575b600080fd5b6100a86004803603602081101561009857600080fd5b50356001600160a01b031661041b565b60408051918252519081900360200190f35b6100ee600480360360608110156100d057600080fd5b5080351515906001600160a01b0360208201351690604001356104a3565b005b6100ee600480360360a081101561010657600080fd5b6001600160a01b03823516919081019060408101602082013564010000000081111561013157600080fd5b82018360208201111561014357600080fd5b8035906020019184600183028401116401000000008311171561016557600080fd5b91908080601f01602080910402602001604051908101604052809392919081815260200183838082843760009201919091525092959493602081019350359150506401000000008111156101b857600080fd5b8201836020820111156101ca57600080fd5b803590602001918460018302840111640100000000831117156101ec57600080fd5b91908080601f01602080910402602001604051908101604052809392919081815260200183838082843760009201919091525092955050505080351515915060200135610565565b6100ee6004803603604081101561024a57600080fd5b506001600160a01b03813581169160200135166106b3565b6100ee6004803603604081101561027857600080fd5b6001600160a01b0382351691908101906040810160208201356401000000008111156102a357600080fd5b8201836020820111156102b557600080fd5b803590602001918460018302840111640100000000831117156102d757600080fd5b91908080601f01602080910402602001604051908101604052809392919081815260200183838082843760009201919091525092955061077a945050505050565b610364600480360360c081101561032e57600080fd5b506001600160a01b0381358116916020810135821691604082013581169160608101359091169060808101359060a0013561086c565b604080516001600160a01b039092168252519081900360200190f35b6103a66004803603602081101561039657600080fd5b50356001600160a01b0316610aa4565b6040805160208082528351818301528351919283929083019185019080838360005b838110156103e05781810151838201526020016103c8565b50505050905090810190601f16801561040d5780820380516001836020036101000a031916815260200191505b509250505060405180910390f35b60008061042783610bc4565b9050600081121561047b576040805162461bcd60e51b8152602060048201526019602482015278151a1a5cc81c195c9cdbdb88191bd95cdb89dd08195e1a5cdd603a1b604482015290519081900360640190fd5b6000818154811061048857fe5b9060005260206000209060050201600401549150505b919050565b60006104ae83610bc4565b90506000811215610502576040805162461bcd60e51b8152602060048201526019602482015278151a1a5cc81c195c9cdbdb88191bd95cdb89dd08195e1a5cdd603a1b604482015290519081900360640190fd5b831561053657816000828154811061051657fe5b60009182526020909120600460059092020101805491909103905561055f565b816000828154811061054457fe5b60009182526020909120600460059092020101805490910190555b50505050565b600061057086610bc4565b126105b3576040805162461bcd60e51b815260206004820152600e60248201526d416c72656164792065786973747360901b604482015290519081900360640190fd5b6040805160a0810182526001600160a01b0387811682526020808301888152938301879052851515606084015260808301859052600080546001810180835591805284517f290decd9548b62a8d60345a988386fc84ba6bc95484008f6362f93160ef3e563600590920291820180546001600160a01b0319169190951617845594518051919561066a937f290decd9548b62a8d60345a988386fc84ba6bc95484008f6362f93160ef3e56490910192910190610c83565b5060408201518051610686916002840191602090910190610c83565b50606082015160038201805460ff1916911515919091179055608090910151600490910155505050505050565b610723600182846001600160a01b03166396bdae276040518163ffffffff1660e01b815260040160206040518083038186803b1580156106f257600080fd5b505afa158015610706573d6000803e3d6000fd5b505050506040513d602081101561071c57600080fd5b50516104a3565b816001600160a01b031663d367900c6040518163ffffffff1660e01b8152600401600060405180830381600087803b15801561075e57600080fd5b505af1158015610772573d6000803e3d6000fd5b505050505050565b600061078583610c25565b126107c8576040805162461bcd60e51b815260206004820152600e60248201526d416c72656164792065786973747360901b604482015290519081900360640190fd5b604080518082019091526001600160a01b03838116825260208083018481526001805480820180835560009290925285517fb10e2d527612073b26eecdfd717e6a320cf44b4afac2b0732d9fcbe2b7fa0cf6600290920291820180546001600160a01b031916919096161785559151805191959493610772937fb10e2d527612073b26eecdfd717e6a320cf44b4afac2b0732d9fcbe2b7fa0cf70192910190610c83565b60008061087887610c25565b12156108cb576040805162461bcd60e51b815260206004820152601c60248201527f42616e6b206f662073656e64657220646f65736e277420657869737400000000604482015290519081900360640190fd5b60006108d686610c25565b12156109135760405162461bcd60e51b81526004018080602001828103825260218152602001806111b56021913960400191505060405180910390fd5b600061091e88610bc4565b1215610968576040805162461bcd60e51b815260206004820152601460248201527314d95b99195c88191bd95cdb89dd08195e1a5cdd60621b604482015290519081900360640190fd5b600061097385610bc4565b12156109c6576040805162461bcd60e51b815260206004820152601960248201527f42656e656669636961727920646f65736e277420657869737400000000000000604482015290519081900360640190fd5b60008787878787876040516109da90610d01565b6001600160a01b0396871681529486166020860152928516604080860191909152919094166060840152608083019390935260a082015290519081900360c001906000f080158015610a30573d6000803e3d6000fd5b509050806001600160a01b03166338cc48316040518163ffffffff1660e01b815260040160206040518083038186803b158015610a6c57600080fd5b505afa158015610a80573d6000803e3d6000fd5b505050506040513d6020811015610a9657600080fd5b505198975050505050505050565b60606000610ab183610bc4565b90506000811215610b05576040805162461bcd60e51b8152602060048201526019602482015278151a1a5cc81c195c9cdbdb88191bd95cdb89dd08195e1a5cdd603a1b604482015290519081900360640190fd5b60008181548110610b1257fe5b90600052602060002090600502016001018054600181600116156101000203166002900480601f016020809104026020016040519081016040528092919081815260200182805460018160011615610100020316600290048015610bb75780601f10610b8c57610100808354040283529160200191610bb7565b820191906000526020600020905b815481529060010190602001808311610b9a57829003601f168201915b5050505050915050919050565b60008054815b81811015610c1a57836001600160a01b031660008281548110610be957fe5b60009182526020909120600590910201546001600160a01b03161415610c1257915061049e9050565b600101610bca565b506000199392505050565b6000805b600154811015610c7957826001600160a01b031660018281548110610c4a57fe5b60009182526020909120600290910201546001600160a01b03161415610c7157905061049e565b600101610c29565b5060001992915050565b828054600181600116156101000203166002900490600052602060002090601f016020900481019282601f10610cc457805160ff1916838001178555610cf1565b82800160010185558215610cf1579182015b82811115610cf1578251825591602001919060010190610cd6565b50610cfd929150610d0e565b5090565b61048980610d2c83390190565b610d2891905b80821115610cfd5760008155600101610d14565b9056fe60c0604052600a608081905269636f6e646974696f6e7360b01b60a090815261002b91600691906100df565b506007805461ffff1916905534801561004357600080fd5b50604051610489380380610489833981810160405260c081101561006657600080fd5b508051602082015160408301516060840151608085015160a090950151600080546001600160a01b03199081166001600160a01b0397881617909155600280548216958716959095179094556001805485169386169390931790925560038054909316931692909217905560049190915560055561017a565b828054600181600116156101000203166002900490600052602060002090601f016020900481019282601f1061012057805160ff191683800117855561014d565b8280016001018555821561014d579182015b8281111561014d578251825591602001919060010190610132565b5061015992915061015d565b5090565b61017791905b808211156101595760008155600101610163565b90565b610300806101896000396000f3fe608060405234801561001057600080fd5b50600436106100a95760003560e01c806396bdae271161007157806396bdae271461017957806399d51b1514610181578063ad16a96c1461018b578063d367900c14610181578063d456919b14610193578063e64028141461019b576100a9565b806312137227146100ae57806338cc48311461012b5780637a471bdd1461014f578063873e9755146101695780638c76fcd014610171575b600080fd5b6100b66101a3565b6040805160208082528351818301528351919283929083019185019080838360005b838110156100f05781810151838201526020016100d8565b50505050905090810190601f16801561011d5780820380516001836020036101000a031916815260200191505b509250505060405180910390f35b610133610231565b604080516001600160a01b039092168252519081900360200190f35b610157610235565b60408051918252519081900360200190f35b61013361023b565b61013361024a565b610157610259565b61018961025f565b005b6101576102a3565b6101336102ad565b6101336102bc565b6006805460408051602060026001851615610100026000190190941693909304601f810184900484028201840190925281815292918301828280156102295780601f106101fe57610100808354040283529160200191610229565b820191906000526020600020905b81548152906001019060200180831161020c57829003601f168201915b505050505081565b3090565b60045481565b6001546001600160a01b031681565b6000546001600160a01b031681565b60055481565b6007805460ff1916600190811790915560408051918252517fe7811334b3b5e674c7c0cbbc2e826fdf0a32a42441a762bc9faa63eca054b5f39181900360200190a1565b6004546005540290565b6002546001600160a01b031681565b6003546001600160a01b03168156fea265627a7a7231582093de5ab74545da34628a598b3c2b5d318c10e4b335ba87b6140a5f0befc23dae64736f6c6343000510003242616e6b206f662062656e656669636961727920646f65736e2774206578697374a265627a7a72315820e7599581923c962fc9e9d51f65114c2dab5e5cd4a814dbec5a81c04ed2e6865864736f6c63430005100032",
  "source": "pragma solidity >=0.4.22 <0.9.0;\r\n\r\nimport \"./GlobalPayment.sol\";\r\n\r\ncontract ApplicationContract {\r\n    struct Person {\r\n        address account;\r\n        string first_name;\r\n        string last_name;\r\n        bool KYC_status;\r\n        uint balance;\r\n    }\r\n    struct Bank {\r\n        address account;\r\n        string name;\r\n    }\r\n    Person[] persons;\r\n    Bank[] banks;\r\n    //GlobalPaymentContract[] contracts;\r\n\r\n    constructor() public {\r\n        addPerson(0x6616a4f8d35A2Cbe3b4C0427C428BD3aF3ca52Fa,\"Elias\",\"DHooghe\",true,1000);\r\n        addPerson(0xCF305Bd0861b5727Fe08FEFdF8FE93871CC4ACC2,\"Xan\",\"Maes\",true,1000);\r\n        addBank(0x52C9fc3556EA3A18628F4D156604e733015064C2,\"KBC\");\r\n        addBank(0x3C5389B061C808eEE0165866253097F02A39A3C8,\"ING\");\r\n    }\r\n    function findPerson(address account) internal view returns(int index){\r\n        uint length = persons.length;\r\n        for(uint u = 0; u < length; u++){\r\n            if(persons[u].account == account) return int(u);\r\n        }\r\n        return -1;\r\n    } \r\n\r\n    function findBank(address account) internal view returns(int index){\r\n        for(uint u = 0; u < banks.length; u++){\r\n            if(banks[u].account == account) return int(u);\r\n        }\r\n        return -1;\r\n    }\r\n    function addPerson(\r\n    address account, \r\n    string memory first_name,\r\n    string memory last_name,\r\n    bool KYCstatus,\r\n    uint balance\r\n    ) \r\n    public {\r\n        require(findPerson(account) < 0, \"Already exists\");\r\n        persons.push(\r\n           Person({account: account, first_name: first_name,last_name: last_name, KYC_status: KYCstatus,balance: balance}));\r\n    }\r\n    function addBank(\r\n    address account, \r\n    string memory name\r\n    ) \r\n    public {\r\n        require(findBank(account) < 0, \"Already exists\");\r\n        banks.push(\r\n           Bank({account: account, name: name}));\r\n    }\r\n    function getPersonBalance(address account) public view \r\n    returns (uint) {\r\n        int index = findPerson(account);\r\n        require(index >= 0, \"This person doesn't exist\");\r\n        return persons[uint(index)].balance;\r\n    }\r\n    function getPersonName(address account) public view \r\n    returns (string memory) {\r\n        int index = findPerson(account);\r\n        require(index >= 0, \"This person doesn't exist\");\r\n        return persons[uint(index)].first_name;//,persons[uint(index)].last_name\r\n    }\r\n\r\n    function changeBalanceOfPerson(bool pay_receive,address account, uint amount) \r\n    public  {\r\n        //require((amount > 0) && (amount <= total - allocated));\r\n        int index = findPerson(account);\r\n        require(index >= 0, \"This person doesn't exist\");\r\n        if(pay_receive){//TRUE = person is paying money\r\n            persons[uint(index)].balance -= amount;\r\n        }else { //FALSE = person is receiving money\r\n            persons[uint(index)].balance += amount;\r\n        }\r\n        \r\n    }\r\n    function initiateGlobalPaymentContract(address accountPersonSender,address accountBankSender,address accountBankBeneficiary,address accountPersonBeneficiary,uint FX_rate, uint transferamount) public returns(address addressGlobalPaymentContract){\r\n        require(findBank(accountBankSender) >=0, \"Bank of sender doesn't exist\");\r\n        require(findBank(accountBankBeneficiary) >=0, \"Bank of beneficiary doesn't exist\");\r\n        require(findPerson(accountPersonSender) >=0,\"Sender doesn't exist\");\r\n        require(findPerson(accountPersonBeneficiary) >=0,\"Beneficiary doesn't exist\");\r\n        GlobalPaymentContract globalPaymentContract = new GlobalPaymentContract(accountPersonSender,accountBankSender,accountBankBeneficiary,accountPersonBeneficiary,FX_rate,transferamount);\r\n        return globalPaymentContract.getAddress();\r\n        //Mapping nodig :> address , objectGPContract    \r\n    }\r\n\r\n    function submitTransfer(GlobalPaymentContract globalPaymentContract,address accountPersonSender) public {\r\n        //Paying the value\r\n        changeBalanceOfPerson(true, accountPersonSender, globalPaymentContract.transferamount());\r\n        globalPaymentContract.submitTransfer();\r\n    }\r\n    \r\n\r\n}\r\n",
  "sourcePath": "C:\\Users\\eigenaar\\testsetup\\contracts\\ApplicationContract.sol",
  "compiler": {
    "name": "solc",
    "version": "0.5.16+commit.9c3226ce.Emscripten.clang"
  },
  "schemaVersion": "3.4.11",
  "updatedAt": "2022-12-07T19:37:02.288Z",
  "networkType": "ethereum",
  "devdoc": {
    "methods": {}
  },
  "userdoc": {
    "methods": {}
  }
}