{
  "contractName": "GlobalPaymentContract",
  "abi": [
    {
      "inputs": [
        {
          "internalType": "address",
          "name": "_senderID",
          "type": "address"
        },
        {
          "internalType": "address",
          "name": "_senderBankID",
          "type": "address"
        },
        {
          "internalType": "address",
          "name": "_beneficiaryID",
          "type": "address"
        },
        {
          "internalType": "address",
          "name": "_beneficiaryBankID",
          "type": "address"
        },
        {
          "internalType": "uint256",
          "name": "_FX_rate",
          "type": "uint256"
        },
        {
          "internalType": "uint256",
          "name": "_transferamount",
          "type": "uint256"
        }
      ],
      "payable": false,
      "stateMutability": "nonpayable",
      "type": "constructor"
    },
    {
      "anonymous": false,
      "inputs": [
        {
          "indexed": false,
          "internalType": "bool",
          "name": "",
          "type": "bool"
        }
      ],
      "name": "payerPaid",
      "type": "event"
    },
    {
      "constant": true,
      "inputs": [],
      "name": "FX_rate",
      "outputs": [
        {
          "internalType": "uint256",
          "name": "",
          "type": "uint256"
        }
      ],
      "payable": false,
      "stateMutability": "view",
      "type": "function"
    },
    {
      "constant": true,
      "inputs": [],
      "name": "beneficiaryBankID",
      "outputs": [
        {
          "internalType": "address",
          "name": "",
          "type": "address"
        }
      ],
      "payable": false,
      "stateMutability": "view",
      "type": "function"
    },
    {
      "constant": true,
      "inputs": [],
      "name": "beneficiaryID",
      "outputs": [
        {
          "internalType": "address",
          "name": "",
          "type": "address"
        }
      ],
      "payable": false,
      "stateMutability": "view",
      "type": "function"
    },
    {
      "constant": true,
      "inputs": [],
      "name": "payout_conditions",
      "outputs": [
        {
          "internalType": "string",
          "name": "",
          "type": "string"
        }
      ],
      "payable": false,
      "stateMutability": "view",
      "type": "function"
    },
    {
      "constant": true,
      "inputs": [],
      "name": "senderBankID",
      "outputs": [
        {
          "internalType": "address",
          "name": "",
          "type": "address"
        }
      ],
      "payable": false,
      "stateMutability": "view",
      "type": "function"
    },
    {
      "constant": true,
      "inputs": [],
      "name": "senderID",
      "outputs": [
        {
          "internalType": "address",
          "name": "",
          "type": "address"
        }
      ],
      "payable": false,
      "stateMutability": "view",
      "type": "function"
    },
    {
      "constant": true,
      "inputs": [],
      "name": "transferamount",
      "outputs": [
        {
          "internalType": "uint256",
          "name": "",
          "type": "uint256"
        }
      ],
      "payable": false,
      "stateMutability": "view",
      "type": "function"
    },
    {
      "constant": true,
      "inputs": [],
      "name": "getTransferAmountBasedOnExchangeRate",
      "outputs": [
        {
          "internalType": "uint256",
          "name": "",
          "type": "uint256"
        }
      ],
      "payable": false,
      "stateMutability": "view",
      "type": "function"
    },
    {
      "constant": false,
      "inputs": [],
      "name": "submitTransfer",
      "outputs": [],
      "payable": false,
      "stateMutability": "nonpayable",
      "type": "function"
    },
    {
      "constant": true,
      "inputs": [],
      "name": "getAddress",
      "outputs": [
        {
          "internalType": "address",
          "name": "",
          "type": "address"
        }
      ],
      "payable": false,
      "stateMutability": "view",
      "type": "function"
    },
    {
      "constant": false,
      "inputs": [],
      "name": "EmitEventPayerPaid",
      "outputs": [],
      "payable": false,
      "stateMutability": "nonpayable",
      "type": "function"
    }
  ],
  "bytecode": "0x60c0604052600a608081905269636f6e646974696f6e7360b01b60a090815261002b91600691906100df565b506007805461ffff1916905534801561004357600080fd5b50604051610489380380610489833981810160405260c081101561006657600080fd5b508051602082015160408301516060840151608085015160a090950151600080546001600160a01b03199081166001600160a01b0397881617909155600280548216958716959095179094556001805485169386169390931790925560038054909316931692909217905560049190915560055561017a565b828054600181600116156101000203166002900490600052602060002090601f016020900481019282601f1061012057805160ff191683800117855561014d565b8280016001018555821561014d579182015b8281111561014d578251825591602001919060010190610132565b5061015992915061015d565b5090565b61017791905b808211156101595760008155600101610163565b90565b610300806101896000396000f3fe608060405234801561001057600080fd5b50600436106100a95760003560e01c806396bdae271161007157806396bdae271461017957806399d51b1514610181578063ad16a96c1461018b578063d367900c14610181578063d456919b14610193578063e64028141461019b576100a9565b806312137227146100ae57806338cc48311461012b5780637a471bdd1461014f578063873e9755146101695780638c76fcd014610171575b600080fd5b6100b66101a3565b6040805160208082528351818301528351919283929083019185019080838360005b838110156100f05781810151838201526020016100d8565b50505050905090810190601f16801561011d5780820380516001836020036101000a031916815260200191505b509250505060405180910390f35b610133610231565b604080516001600160a01b039092168252519081900360200190f35b610157610235565b60408051918252519081900360200190f35b61013361023b565b61013361024a565b610157610259565b61018961025f565b005b6101576102a3565b6101336102ad565b6101336102bc565b6006805460408051602060026001851615610100026000190190941693909304601f810184900484028201840190925281815292918301828280156102295780601f106101fe57610100808354040283529160200191610229565b820191906000526020600020905b81548152906001019060200180831161020c57829003601f168201915b505050505081565b3090565b60045481565b6001546001600160a01b031681565b6000546001600160a01b031681565b60055481565b6007805460ff1916600190811790915560408051918252517fe7811334b3b5e674c7c0cbbc2e826fdf0a32a42441a762bc9faa63eca054b5f39181900360200190a1565b6004546005540290565b6002546001600160a01b031681565b6003546001600160a01b03168156fea265627a7a7231582093de5ab74545da34628a598b3c2b5d318c10e4b335ba87b6140a5f0befc23dae64736f6c63430005100032",
  "source": "pragma solidity >=0.4.22 <0.9.0;\r\n\r\ncontract GlobalPaymentContract {\r\n    address public senderID;\r\n    address public beneficiaryID;\r\n    address public senderBankID;\r\n    address public beneficiaryBankID;\r\n    uint256 public FX_rate;\r\n    uint256 public transferamount;\r\n    string public payout_conditions=\"conditions\";\r\n    bool payerHasPaid= false;\r\n    bool beneficiaryHasReceived = false; \r\n    \r\n    event payerPaid(bool);\r\n\r\n    constructor(\r\n    address  _senderID,\r\n    address  _senderBankID,\r\n    address  _beneficiaryID,\r\n    address _beneficiaryBankID,\r\n    uint256  _FX_rate,\r\n    uint256  _transferamount) \r\n    public \r\n    {\r\n        senderID = _senderID;\r\n        senderBankID = _senderBankID;\r\n        beneficiaryID = _beneficiaryID;\r\n        beneficiaryBankID = _beneficiaryBankID;\r\n        FX_rate = _FX_rate;\r\n        transferamount = _transferamount;\r\n    }\r\n\r\n    function getTransferAmountBasedOnExchangeRate() public view returns(uint256){\r\n        return transferamount * FX_rate;\r\n    }\r\n    function submitTransfer() public {\r\n        payerHasPaid= true;\r\n        emit payerPaid(true);\r\n    }\r\n    function getAddress() public view returns(address){\r\n        return address(this);\r\n    }\r\n\r\n    function EmitEventPayerPaid() public  {\r\n        payerHasPaid=true;\r\n        emit payerPaid(true);\r\n    }\r\n\r\n\r\n\r\n    \r\n\r\n\r\n    \r\n\r\n\r\n    // function getSenderID() public returns(uint) {\r\n    //     return senderID;\r\n    // }\r\n    // function getBeneficiaryID() public returns(uint) {\r\n    //     return beneficiaryID;\r\n    // }\r\n    // function getFX_rate() public returns(uint) {\r\n    //     return FX_rate;\r\n    // }\r\n    // function getTransferamount() public returns(uint) {\r\n    //     return transferamount;\r\n    // }\r\n    // function setSenderID(uint _senderID) public {\r\n    //     senderID = _senderID;\r\n    // }\r\n    // function setBeneficiaryID(uint _beneficiaryID) public {\r\n    //     beneficiaryID = _beneficiaryID;\r\n    // }\r\n    // function setFX_rate(uint _FX_rate) public {\r\n    //     FX_rate = _FX_rate;\r\n    // }\r\n    // function setTransferamount(uint _transferamount) public {\r\n    //     transferamount = _transferamount;\r\n    // }\r\n\r\n}\r\n\r\n\r\n",
  "sourcePath": "C:\\Users\\eigenaar\\testsetup\\contracts\\GlobalPayment.sol",
  "compiler": {
    "name": "solc",
    "version": "0.5.16+commit.9c3226ce.Emscripten.clang"
  },
  "schemaVersion": "3.4.11",
  "updatedAt": "2022-12-07T19:36:56.243Z",
  "devdoc": {
    "methods": {}
  },
  "userdoc": {
    "methods": {}
  }
}